{"abi":[{"type":"constructor","inputs":[{"name":"_roles","type":"address","internalType":"address"},{"name":"_spokePool","type":"address","internalType":"address"}],"stateMutability":"nonpayable"},{"type":"function","name":"acrossSpokePool","inputs":[],"outputs":[{"name":"","type":"address","internalType":"address"}],"stateMutability":"view"},{"type":"function","name":"getFee","inputs":[{"name":"","type":"uint32","internalType":"uint32"},{"name":"","type":"bytes","internalType":"bytes"},{"name":"","type":"bytes","internalType":"bytes"}],"outputs":[{"name":"","type":"uint256","internalType":"uint256"}],"stateMutability":"pure"},{"type":"function","name":"handleV3AcrossMessage","inputs":[{"name":"tokenSent","type":"address","internalType":"address"},{"name":"amount","type":"uint256","internalType":"uint256"},{"name":"","type":"address","internalType":"address"},{"name":"message","type":"bytes","internalType":"bytes"}],"outputs":[],"stateMutability":"nonpayable"},{"type":"function","name":"isRelayerWhitelisted","inputs":[{"name":"dstChain","type":"uint32","internalType":"uint32"},{"name":"relayer","type":"address","internalType":"address"}],"outputs":[{"name":"","type":"bool","internalType":"bool"}],"stateMutability":"view"},{"type":"function","name":"maxSlippage","inputs":[],"outputs":[{"name":"","type":"uint256","internalType":"uint256"}],"stateMutability":"view"},{"type":"function","name":"roles","inputs":[],"outputs":[{"name":"","type":"address","internalType":"contract IRoles"}],"stateMutability":"view"},{"type":"function","name":"sendMsg","inputs":[{"name":"_extractedAmount","type":"uint256","internalType":"uint256"},{"name":"_market","type":"address","internalType":"address"},{"name":"_dstChainId","type":"uint32","internalType":"uint32"},{"name":"_token","type":"address","internalType":"address"},{"name":"_message","type":"bytes","internalType":"bytes"},{"name":"","type":"bytes","internalType":"bytes"}],"outputs":[],"stateMutability":"payable"},{"type":"function","name":"setWhitelistedRelayer","inputs":[{"name":"_dstId","type":"uint32","internalType":"uint32"},{"name":"_relayer","type":"address","internalType":"address"},{"name":"status","type":"bool","internalType":"bool"}],"outputs":[],"stateMutability":"nonpayable"},{"type":"function","name":"whitelistedRelayers","inputs":[{"name":"","type":"uint32","internalType":"uint32"},{"name":"","type":"address","internalType":"address"}],"outputs":[{"name":"","type":"bool","internalType":"bool"}],"stateMutability":"view"},{"type":"event","name":"Rebalanced","inputs":[{"name":"market","type":"address","indexed":true,"internalType":"address"},{"name":"amount","type":"uint256","indexed":false,"internalType":"uint256"}],"anonymous":false},{"type":"event","name":"WhitelistedRelayerStatusUpdated","inputs":[{"name":"sender","type":"address","indexed":true,"internalType":"address"},{"name":"dstId","type":"uint32","indexed":true,"internalType":"uint32"},{"name":"delegate","type":"address","indexed":true,"internalType":"address"},{"name":"status","type":"bool","indexed":false,"internalType":"bool"}],"anonymous":false},{"type":"error","name":"AcrossBridge_AddressNotValid","inputs":[]},{"type":"error","name":"AcrossBridge_NotAuthorized","inputs":[]},{"type":"error","name":"AcrossBridge_NotImplemented","inputs":[]},{"type":"error","name":"AcrossBridge_RelayerNotValid","inputs":[]},{"type":"error","name":"AcrossBridge_SlippageNotValid","inputs":[]},{"type":"error","name":"AcrossBridge_TokenMismatch","inputs":[]},{"type":"error","name":"AddressEmptyCode","inputs":[{"name":"target","type":"address","internalType":"address"}]},{"type":"error","name":"AddressInsufficientBalance","inputs":[{"name":"account","type":"address","internalType":"address"}]},{"type":"error","name":"BaseBridge_AddressNotValid","inputs":[]},{"type":"error","name":"BaseBridge_AmountMismatch","inputs":[]},{"type":"error","name":"BaseBridge_AmountNotValid","inputs":[]},{"type":"error","name":"BaseBridge_NotAuthorized","inputs":[]},{"type":"error","name":"FailedInnerCall","inputs":[]},{"type":"error","name":"ReentrancyGuardReentrantCall","inputs":[]},{"type":"error","name":"SafeApprove_Failed","inputs":[]},{"type":"error","name":"SafeApprove_NoContract","inputs":[]},{"type":"error","name":"SafeERC20FailedOperation","inputs":[{"name":"token","type":"address","internalType":"address"}]}],"bytecode":{"object":"0x60c060405234801561001057600080fd5b506040516113fb3803806113fb83398101604081905261002f916100ca565b816001600160a01b03811661005757604051637cc9a08d60e11b815260040160405180910390fd5b600080546001600160a01b0319166001600160a01b039283161790556001805581166100965760405163399c9ab760e11b815260040160405180910390fd5b6001600160a01b03166080525061271060a0526100fd565b80516001600160a01b03811681146100c557600080fd5b919050565b600080604083850312156100dd57600080fd5b6100e6836100ae565b91506100f4602084016100ae565b90509250929050565b60805160a0516112be61013d6000396000818161015001526106fe015260008181609d0152818161039f015281816108e9015261091401526112be6000f3fe6080604052600436106100865760003560e01c80638c04166f116100595780638c04166f1461013e578063b1abbe4314610180578063b3d300f4146101cb578063e77eca54146101eb578063f2db52a71461020b57600080fd5b8063063820da1461008b5780630ed68af6146100dc578063392f5f64146100fe5780633a5be8cb1461011e575b600080fd5b34801561009757600080fd5b506100bf7f000000000000000000000000000000000000000000000000000000000000000081565b6040516001600160a01b0390911681526020015b60405180910390f35b3480156100e857600080fd5b506100fc6100f7366004610dc7565b61021e565b005b34801561010a57600080fd5b506000546100bf906001600160a01b031681565b34801561012a57600080fd5b506100fc610139366004610eb7565b610394565b34801561014a57600080fd5b506101727f000000000000000000000000000000000000000000000000000000000000000081565b6040519081526020016100d3565b34801561018c57600080fd5b506101bb61019b366004610f23565b600260209081526000928352604080842090915290825290205460ff1681565b60405190151581526020016100d3565b3480156101d757600080fd5b506101726101e6366004610f5c565b610503565b3480156101f757600080fd5b506101bb610206366004610f23565b61051e565b6100fc610219366004610fd7565b610552565b60005460408051630671438b60e51b815290516001600160a01b03909216916338dd8c2c913391849163ce2871609160048083019260209291908290030181865afa158015610271573d6000803e3d6000fd5b505050506040513d601f19601f820116820180604052508101906102959190611080565b6040516001600160e01b031960e085901b1681526001600160a01b0390921660048301526024820152604401602060405180830381865afa1580156102de573d6000803e3d6000fd5b505050506040513d601f19601f820116820180604052508101906103029190611099565b61031f5760405163239e3f0760e21b815260040160405180910390fd5b63ffffffff831660008181526002602090815260408083206001600160a01b03871680855290835292819020805460ff1916861515908117909155905190815291929133917f3affb34de43767284398ee53e2d6104ab273aca12d1c9c023334c2d545f39e33910160405180910390a4505050565b336001600160a01b037f000000000000000000000000000000000000000000000000000000000000000016146103dd576040516359e9d34760e01b815260040160405180910390fd5b6103e5610783565b6000818060200190518101906103fb91906110b6565b90506000816001600160a01b0316636f307dc36040518163ffffffff1660e01b8152600401602060405180830381865afa15801561043d573d6000803e3d6000fd5b505050506040513d601f19601f8201168201806040525081019061046191906110b6565b9050856001600160a01b0316816001600160a01b0316146104955760405163d831916360e01b815260040160405180910390fd5b84156104af576104af6001600160a01b03871683876107ad565b816001600160a01b03167f1427d1942829759938581ce754fd0f7f116bfb7a4b77f80f0cb32cd62c2138c7866040516104ea91815260200190565b60405180910390a250506104fd60018055565b50505050565b6000604051637c1704dd60e01b815260040160405180910390fd5b63ffffffff821660009081526002602090815260408083206001600160a01b038516845290915290205460ff165b92915050565b60005460408051639e106dc760e01b815290516001600160a01b03909216916338dd8c2c9133918491639e106dc79160048083019260209291908290030181865afa1580156105a5573d6000803e3d6000fd5b505050506040513d601f19601f820116820180604052508101906105c99190611080565b6040516001600160e01b031960e085901b1681526001600160a01b0390921660048301526024820152604401602060405180830381865afa158015610612573d6000803e3d6000fd5b505050506040513d601f19601f820116820180604052508101906106369190611099565b6106535760405163239e3f0760e21b815260040160405180910390fd5b600061065e83610811565b805190915087146106825760405163e80c7db960e01b815260040160405180910390fd5b63ffffffff85166000908152600260209081526040808320848201516001600160a01b0316845290915290205460ff166106cf57604051635432a9eb60e01b815260040160405180910390fd5b80516106e9906001600160a01b038616903390309061089d565b60208101518151111561076e576000620186a07f0000000000000000000000000000000000000000000000000000000000000000836000015161072c91906110e9565b6107369190611100565b9050808260200151836000015161074d9190611122565b111561076c576040516334b65a5160e21b815260040160405180910390fd5b505b61077a838587896108d6565b50505050505050565b6002600154036107a657604051633ee5aeb560e01b815260040160405180910390fd5b6002600155565b6040516001600160a01b0383811660248301526044820183905261080c91859182169063a9059cbb906064015b604051602081830303815290604052915060e01b6020820180516001600160e01b0383818316178352505050506109f4565b505050565b6040805160a0810182526000808252602082018190529181018290526060810182905260808101919091526000806000806000868060200190518101906108589190611135565b6040805160a08101825295865260208601949094526001600160a01b039092169284019290925263ffffffff9182166060840152166080820152979650505050505050565b6040516001600160a01b0384811660248301528381166044830152606482018390526104fd9186918216906323b872dd906084016107da565b60006108e185610811565b9050610912847f00000000000000000000000000000000000000000000000000000000000000008360000151610a5c565b7f00000000000000000000000000000000000000000000000000000000000000006001600160a01b0316637aef642c3330876000866000015187602001518a63ffffffff1689604001518a606001518b608001518d60405160200161098691906001600160a01b0391909116815260200190565b6040516020818303038152906040526040518c63ffffffff1660e01b81526004016109bb9b9a999897969594939291906111e7565b600060405180830381600087803b1580156109d557600080fd5b505af11580156109e9573d6000803e3d6000fd5b505050505050505050565b6000610a096001600160a01b03841683610c58565b90508051600014158015610a2e575080806020019051810190610a2c9190611099565b155b1561080c57604051635274afe760e01b81526001600160a01b03841660048201526024015b60405180910390fd5b6000836001600160a01b03163b11610a875760405163034ae78b60e11b815260040160405180910390fd5b6040516001600160a01b0383811660248301526000604483018190529160609186169060640160408051601f198184030181529181526020820180516001600160e01b031663095ea7b360e01b17905251610ae2919061126c565b6000604051808303816000865af19150503d8060008114610b1f576040519150601f19603f3d011682016040523d82523d6000602084013e610b24565b606091505b509092509050818015610b4f575080511580610b4f575080806020019051810190610b4f9190611099565b610b6c576040516379c4743b60e11b815260040160405180910390fd5b8215610c51576040516001600160a01b0385811660248301526044820185905286169060640160408051601f198184030181529181526020820180516001600160e01b031663095ea7b360e01b17905251610bc7919061126c565b6000604051808303816000865af19150503d8060008114610c04576040519150601f19603f3d011682016040523d82523d6000602084013e610c09565b606091505b509092509050818015610c34575080511580610c34575080806020019051810190610c349190611099565b610c51576040516379c4743b60e11b815260040160405180910390fd5b5050505050565b6060610c6683836000610c6d565b9392505050565b606081471015610c925760405163cd78605960e01b8152306004820152602401610a53565b600080856001600160a01b03168486604051610cae919061126c565b60006040518083038185875af1925050503d8060008114610ceb576040519150601f19603f3d011682016040523d82523d6000602084013e610cf0565b606091505b5091509150610d00868383610d0a565b9695505050505050565b606082610d1f57610d1a82610d66565b610c66565b8151158015610d3657506001600160a01b0384163b155b15610d5f57604051639996b31560e01b81526001600160a01b0385166004820152602401610a53565b5080610c66565b805115610d765780518082602001fd5b604051630a12f52160e11b815260040160405180910390fd5b50565b63ffffffff81168114610d8f57600080fd5b6001600160a01b0381168114610d8f57600080fd5b8015158114610d8f57600080fd5b600080600060608486031215610ddc57600080fd5b8335610de781610d92565b92506020840135610df781610da4565b91506040840135610e0781610db9565b809150509250925092565b634e487b7160e01b600052604160045260246000fd5b600082601f830112610e3957600080fd5b813567ffffffffffffffff811115610e5357610e53610e12565b604051601f8201601f19908116603f0116810167ffffffffffffffff81118282101715610e8257610e82610e12565b604052818152838201602001851015610e9a57600080fd5b816020850160208301376000918101602001919091529392505050565b60008060008060808587031215610ecd57600080fd5b8435610ed881610da4565b9350602085013592506040850135610eef81610da4565b9150606085013567ffffffffffffffff811115610f0b57600080fd5b610f1787828801610e28565b91505092959194509250565b60008060408385031215610f3657600080fd5b8235610f4181610d92565b91506020830135610f5181610da4565b809150509250929050565b600080600060608486031215610f7157600080fd5b8335610f7c81610d92565b9250602084013567ffffffffffffffff811115610f9857600080fd5b610fa486828701610e28565b925050604084013567ffffffffffffffff811115610fc157600080fd5b610fcd86828701610e28565b9150509250925092565b60008060008060008060c08789031215610ff057600080fd5b86359550602087013561100281610da4565b9450604087013561101281610d92565b9350606087013561102281610da4565b9250608087013567ffffffffffffffff81111561103e57600080fd5b61104a89828a01610e28565b92505060a087013567ffffffffffffffff81111561106757600080fd5b61107389828a01610e28565b9150509295509295509295565b60006020828403121561109257600080fd5b5051919050565b6000602082840312156110ab57600080fd5b8151610c6681610db9565b6000602082840312156110c857600080fd5b8151610c6681610da4565b634e487b7160e01b600052601160045260246000fd5b808202811582820484141761054c5761054c6110d3565b60008261111d57634e487b7160e01b600052601260045260246000fd5b500490565b8181038181111561054c5761054c6110d3565b600080600080600060a0868803121561114d57600080fd5b855160208701516040880151919650945061116781610da4565b606087015190935061117881610d92565b608087015190925061118981610d92565b809150509295509295909350565b60005b838110156111b257818101518382015260200161119a565b50506000910152565b600081518084526111d3816020860160208601611197565b601f01601f19169290920160200192915050565b6001600160a01b038c811682528b811660208301528a8116604083015289811660608301526080820189905260a0820188905260c08201879052851660e082015263ffffffff841661010082015263ffffffff8316610120820152610160610140820152600061125b6101608301846111bb565b9d9c50505050505050505050505050565b6000825161127e818460208701611197565b919091019291505056fea264697066735822122051866565a5604d0e30ab4cd3284d88a0d7498c19c1efba8f5fe3055fea0c7cde64736f6c634300081c0033","linkReferences":{}},"methodIdentifiers":{"acrossSpokePool()":"063820da","getFee(uint32,bytes,bytes)":"b3d300f4","handleV3AcrossMessage(address,uint256,address,bytes)":"3a5be8cb","isRelayerWhitelisted(uint32,address)":"e77eca54","maxSlippage()":"8c04166f","roles()":"392f5f64","sendMsg(uint256,address,uint32,address,bytes,bytes)":"f2db52a7","setWhitelistedRelayer(uint32,address,bool)":"0ed68af6","whitelistedRelayers(uint32,address)":"b1abbe43"},"id":110}