{"abi":[{"type":"constructor","inputs":[{"name":"_token","type":"address","internalType":"address"},{"name":"_verifier","type":"address","internalType":"address"},{"name":"_owner","type":"address","internalType":"address"}],"stateMutability":"nonpayable"},{"type":"function","name":"balanceOf","inputs":[{"name":"","type":"address","internalType":"address"}],"outputs":[{"name":"","type":"uint256","internalType":"uint256"}],"stateMutability":"view"},{"type":"function","name":"borrow","inputs":[{"name":"amount","type":"uint256","internalType":"uint256"},{"name":"journalData","type":"bytes","internalType":"bytes"},{"name":"seal","type":"bytes","internalType":"bytes"}],"outputs":[],"stateMutability":"nonpayable"},{"type":"function","name":"borrowBalanceOf","inputs":[{"name":"","type":"address","internalType":"address"}],"outputs":[{"name":"","type":"uint256","internalType":"uint256"}],"stateMutability":"view"},{"type":"function","name":"borrowImageId","inputs":[],"outputs":[{"name":"","type":"bytes32","internalType":"bytes32"}],"stateMutability":"view"},{"type":"function","name":"deposit","inputs":[{"name":"amount","type":"uint256","internalType":"uint256"},{"name":"to","type":"address","internalType":"address"}],"outputs":[],"stateMutability":"nonpayable"},{"type":"function","name":"owner","inputs":[],"outputs":[{"name":"","type":"address","internalType":"address"}],"stateMutability":"view"},{"type":"function","name":"renounceOwnership","inputs":[],"outputs":[],"stateMutability":"nonpayable"},{"type":"function","name":"repay","inputs":[{"name":"amount","type":"uint256","internalType":"uint256"}],"outputs":[],"stateMutability":"nonpayable"},{"type":"function","name":"setBorrowImageId","inputs":[{"name":"_imageId","type":"bytes32","internalType":"bytes32"}],"outputs":[],"stateMutability":"nonpayable"},{"type":"function","name":"setVerifier","inputs":[{"name":"_verifier","type":"address","internalType":"address"}],"outputs":[],"stateMutability":"nonpayable"},{"type":"function","name":"setWithdrawImageId","inputs":[{"name":"_imageId","type":"bytes32","internalType":"bytes32"}],"outputs":[],"stateMutability":"nonpayable"},{"type":"function","name":"token","inputs":[],"outputs":[{"name":"","type":"address","internalType":"address"}],"stateMutability":"view"},{"type":"function","name":"transferOwnership","inputs":[{"name":"newOwner","type":"address","internalType":"address"}],"outputs":[],"stateMutability":"nonpayable"},{"type":"function","name":"verifier","inputs":[],"outputs":[{"name":"","type":"address","internalType":"contract IRiscZeroVerifier"}],"stateMutability":"view"},{"type":"function","name":"withdraw","inputs":[{"name":"amount","type":"uint256","internalType":"uint256"},{"name":"journalData","type":"bytes","internalType":"bytes"},{"name":"seal","type":"bytes","internalType":"bytes"}],"outputs":[],"stateMutability":"nonpayable"},{"type":"function","name":"withdrawImageId","inputs":[],"outputs":[{"name":"","type":"bytes32","internalType":"bytes32"}],"stateMutability":"view"},{"type":"event","name":"OwnershipTransferred","inputs":[{"name":"previousOwner","type":"address","indexed":true,"internalType":"address"},{"name":"newOwner","type":"address","indexed":true,"internalType":"address"}],"anonymous":false},{"type":"error","name":"AddressEmptyCode","inputs":[{"name":"target","type":"address","internalType":"address"}]},{"type":"error","name":"AddressInsufficientBalance","inputs":[{"name":"account","type":"address","internalType":"address"}]},{"type":"error","name":"FailedInnerCall","inputs":[]},{"type":"error","name":"LendingProtocolMock_InsufficientBalance","inputs":[]},{"type":"error","name":"LendingProtocolMock_InsufficientLiquidity","inputs":[]},{"type":"error","name":"LendingProtocolMock_InvalidCommitment","inputs":[{"name":"id","type":"uint256","internalType":"uint256"}]},{"type":"error","name":"LendingProtocolMock_JournalNotValid","inputs":[]},{"type":"error","name":"OwnableInvalidOwner","inputs":[{"name":"owner","type":"address","internalType":"address"}]},{"type":"error","name":"OwnableUnauthorizedAccount","inputs":[{"name":"account","type":"address","internalType":"address"}]},{"type":"error","name":"SafeERC20FailedOperation","inputs":[{"name":"token","type":"address","internalType":"address"}]}],"bytecode":{"object":"0x608060405234801561001057600080fd5b50604051610d1c380380610d1c83398101604081905261002f91610109565b806001600160a01b03811661005e57604051631e4fbdf760e01b81526000600482015260240160405180910390fd5b6100678161009d565b5050600280546001600160a01b039283166001600160a01b0319918216179091556001805493909216921691909117905561014c565b600080546001600160a01b038381166001600160a01b0319831681178455604051919092169283917f8be0079c531659141344cd1fd0a4f28419497f9722a3daafe3b4186f6b6457e09190a35050565b80516001600160a01b038116811461010457600080fd5b919050565b60008060006060848603121561011e57600080fd5b610127846100ed565b9250610135602085016100ed565b9150610143604085016100ed565b90509250925092565b610bc18061015b6000396000f3fe608060405234801561001057600080fd5b50600436106101005760003560e01c80638da5cb5b11610097578063cbf1f6b511610066578063cbf1f6b514610219578063dbe34d421461022c578063f2fde38b14610235578063fc0c546a1461024857600080fd5b80638da5cb5b146101d957806399807b9b146101ea5780639e0bd6fa146101fd578063ad867ba01461020657600080fd5b80635437988d116100d35780635437988d1461018b5780636e553f651461019e57806370a08231146101b1578063715018a6146101d157600080fd5b80632b7ac3f314610105578063371fd8e614610135578063374c49b41461014a5780634eb56a6a14610178575b600080fd5b600254610118906001600160a01b031681565b6040516001600160a01b0390911681526020015b60405180910390f35b610148610143366004610928565b61025b565b005b61016a610158366004610956565b60066020526000908152604090205481565b60405190815260200161012c565b610148610186366004610928565b6102ca565b610148610199366004610956565b6102d7565b6101486101ac366004610973565b610301565b61016a6101bf366004610956565b60056020526000908152604090205481565b61014861034a565b6000546001600160a01b0316610118565b6101486101f83660046109ec565b61035e565b61016a60035481565b610148610214366004610928565b610435565b6101486102273660046109ec565b610442565b61016a60045481565b610148610243366004610956565b610546565b600154610118906001600160a01b031681565b3360009081526006602052604090205481111561028b5760405163050cd3b360e51b815260040160405180910390fd5b33600090815260066020526040812080548392906102aa908490610a81565b90915550506001546102c7906001600160a01b0316333084610586565b50565b6102d26105f3565b600355565b6102df6105f3565b600280546001600160a01b0319166001600160a01b0392909216919091179055565b600154610319906001600160a01b0316333085610586565b6001600160a01b03811660009081526005602052604081208054849290610341908490610a94565b90915550505050565b6103526105f3565b61035c6000610620565b565b61036d84848484600454610670565b60008061037d8560608189610aa7565b81019061038a9190610973565b91509150868210156103af576040516340e574b360e01b815260040160405180910390fd5b6001600160a01b0381166000908152600560205260409020548711156103e85760405163050cd3b360e51b815260040160405180910390fd5b6001600160a01b03811660009081526005602052604081208054899290610410908490610a81565b909155505060015461042c906001600160a01b03168289610754565b50505050505050565b61043d6105f3565b600455565b61045184848484600354610670565b6000806104618560608189610aa7565b81019061046e9190610973565b9150915086821015610493576040516340e574b360e01b815260040160405180910390fd5b6001546040516370a0823160e01b815230600482015288916001600160a01b0316906370a0823190602401602060405180830381865afa1580156104db573d6000803e3d6000fd5b505050506040513d601f19601f820116820180604052508101906104ff9190610ad1565b101561051e5760405163050cd3b360e51b815260040160405180910390fd5b6001600160a01b03811660009081526006602052604081208054899290610410908490610a94565b61054e6105f3565b6001600160a01b03811661057d57604051631e4fbdf760e01b8152600060048201526024015b60405180910390fd5b6102c781610620565b6040516001600160a01b0384811660248301528381166044830152606482018390526105ed9186918216906323b872dd906084015b604051602081830303815290604052915060e01b6020820180516001600160e01b03838183161783525050505061078a565b50505050565b6000546001600160a01b0316331461035c5760405163118cdaa760e01b8152336004820152602401610574565b600080546001600160a01b038381166001600160a01b0319831681178455604051919092169283917f8be0079c531659141344cd1fd0a4f28419497f9722a3daafe3b4186f6b6457e09190a35050565b605f8411610691576040516395aa54e760e01b815260040160405180910390fd5b600280546040516001600160a01b039091169163ab750e7591869186918691906106be908c908c90610aea565b602060405180830381855afa1580156106db573d6000803e3d6000fd5b5050506040513d601f19601f820116820180604052508101906106fe9190610ad1565b6040518563ffffffff1660e01b815260040161071d9493929190610afa565b60006040518083038186803b15801561073557600080fd5b505afa158015610749573d6000803e3d6000fd5b505050505050505050565b6040516001600160a01b0383811660248301526044820183905261078591859182169063a9059cbb906064016105bb565b505050565b600061079f6001600160a01b038416836107ed565b905080516000141580156107c45750808060200190518101906107c29190610b3a565b155b1561078557604051635274afe760e01b81526001600160a01b0384166004820152602401610574565b60606107fb83836000610804565b90505b92915050565b6060814710156108295760405163cd78605960e01b8152306004820152602401610574565b600080856001600160a01b031684866040516108459190610b5c565b60006040518083038185875af1925050503d8060008114610882576040519150601f19603f3d011682016040523d82523d6000602084013e610887565b606091505b50915091506108978683836108a3565b925050505b9392505050565b6060826108b8576108b3826108ff565b61089c565b81511580156108cf57506001600160a01b0384163b155b156108f857604051639996b31560e01b81526001600160a01b0385166004820152602401610574565b508061089c565b80511561090f5780518082602001fd5b604051630a12f52160e11b815260040160405180910390fd5b60006020828403121561093a57600080fd5b5035919050565b6001600160a01b03811681146102c757600080fd5b60006020828403121561096857600080fd5b813561089c81610941565b6000806040838503121561098657600080fd5b82359150602083013561099881610941565b809150509250929050565b60008083601f8401126109b557600080fd5b50813567ffffffffffffffff8111156109cd57600080fd5b6020830191508360208285010111156109e557600080fd5b9250929050565b600080600080600060608688031215610a0457600080fd5b85359450602086013567ffffffffffffffff811115610a2257600080fd5b610a2e888289016109a3565b909550935050604086013567ffffffffffffffff811115610a4e57600080fd5b610a5a888289016109a3565b969995985093965092949392505050565b634e487b7160e01b600052601160045260246000fd5b818103818111156107fe576107fe610a6b565b808201808211156107fe576107fe610a6b565b60008085851115610ab757600080fd5b83861115610ac457600080fd5b5050820193919092039150565b600060208284031215610ae357600080fd5b5051919050565b8183823760009101908152919050565b606081528360608201528385608083013760006080858301015260006080601f19601f870116830101905083602083015282604083015295945050505050565b600060208284031215610b4c57600080fd5b8151801515811461089c57600080fd5b6000825160005b81811015610b7d5760208186018101518583015201610b63565b50600092019182525091905056fea2646970667358221220c59a143d275b5eeed941f6c351b5f57185e825c1ce45982b52ce6b5b45d6337164736f6c634300081c0033","linkReferences":{}},"methodIdentifiers":{"balanceOf(address)":"70a08231","borrow(uint256,bytes,bytes)":"cbf1f6b5","borrowBalanceOf(address)":"374c49b4","borrowImageId()":"9e0bd6fa","deposit(uint256,address)":"6e553f65","owner()":"8da5cb5b","renounceOwnership()":"715018a6","repay(uint256)":"371fd8e6","setBorrowImageId(bytes32)":"4eb56a6a","setVerifier(address)":"5437988d","setWithdrawImageId(bytes32)":"ad867ba0","token()":"fc0c546a","transferOwnership(address)":"f2fde38b","verifier()":"2b7ac3f3","withdraw(uint256,bytes,bytes)":"99807b9b","withdrawImageId()":"dbe34d42"},"id":125}