{"abi":[{"type":"constructor","inputs":[{"name":"_roles","type":"address","internalType":"address"}],"stateMutability":"nonpayable"},{"type":"function","name":"roles","inputs":[],"outputs":[{"name":"","type":"address","internalType":"contract IRoles"}],"stateMutability":"view"},{"type":"function","name":"sendMsg","inputs":[{"name":"","type":"uint256","internalType":"uint256"},{"name":"","type":"address","internalType":"address"},{"name":"","type":"uint32","internalType":"uint32"},{"name":"_token","type":"address","internalType":"address"},{"name":"_message","type":"bytes","internalType":"bytes"},{"name":"","type":"bytes","internalType":"bytes"}],"outputs":[],"stateMutability":"payable"},{"type":"error","name":"BaseBridge_NotAuthorized","inputs":[]}],"bytecode":{"object":"0x6080604052348015600f57600080fd5b5060405161048e38038061048e833981016040819052602c916050565b600080546001600160a01b0319166001600160a01b0392909216919091179055607e565b600060208284031215606157600080fd5b81516001600160a01b0381168114607757600080fd5b9392505050565b6104018061008d6000396000f3fe6080604052600436106100295760003560e01c8063392f5f641461002e578063f2db52a71461006a575b600080fd5b34801561003a57600080fd5b5060005461004e906001600160a01b031681565b6040516001600160a01b03909116815260200160405180910390f35b61007d6100783660046102db565b61007f565b005b60005460408051639e106dc760e01b815290516001600160a01b03909216916338dd8c2c9133918491639e106dc79160048083019260209291908290030181865afa1580156100d2573d6000803e3d6000fd5b505050506040513d601f19601f820116820180604052508101906100f69190610389565b6040516001600160e01b031960e085901b1681526001600160a01b0390921660048301526024820152604401602060405180830381865afa15801561013f573d6000803e3d6000fd5b505050506040513d601f19601f8201168201806040525081019061016391906103a2565b6101805760405163239e3f0760e21b815260040160405180910390fd5b6000828060200190518101906101969190610389565b6040516323b872dd60e01b8152336004820152306024820152604481018290529091506001600160a01b038516906323b872dd906064016020604051808303816000875af11580156101ec573d6000803e3d6000fd5b505050506040513d601f19601f8201168201806040525081019061021091906103a2565b5050505050505050565b80356001600160a01b038116811461023157600080fd5b919050565b634e487b7160e01b600052604160045260246000fd5b600082601f83011261025d57600080fd5b813567ffffffffffffffff81111561027757610277610236565b604051601f8201601f19908116603f0116810167ffffffffffffffff811182821017156102a6576102a6610236565b6040528181528382016020018510156102be57600080fd5b816020850160208301376000918101602001919091529392505050565b60008060008060008060c087890312156102f457600080fd5b863595506103046020880161021a565b9450604087013563ffffffff8116811461031d57600080fd5b935061032b6060880161021a565b9250608087013567ffffffffffffffff81111561034757600080fd5b61035389828a0161024c565b92505060a087013567ffffffffffffffff81111561037057600080fd5b61037c89828a0161024c565b9150509295509295509295565b60006020828403121561039b57600080fd5b5051919050565b6000602082840312156103b457600080fd5b815180151581146103c457600080fd5b939250505056fea2646970667358221220323463b815f6fe8bb1e77d3d74cd0a5287c0060900bb25263418bcfe716ac1b964736f6c634300081c0033","linkReferences":{}},"methodIdentifiers":{"roles()":"392f5f64","sendMsg(uint256,address,uint32,address,bytes,bytes)":"f2db52a7"},"id":123}