{"abi":[{"type":"constructor","inputs":[{"name":"_owner","type":"address","internalType":"address"},{"name":"_imageId","type":"bytes32","internalType":"bytes32"},{"name":"_verifier","type":"address","internalType":"address"}],"stateMutability":"nonpayable"},{"type":"function","name":"imageId","inputs":[],"outputs":[{"name":"","type":"bytes32","internalType":"bytes32"}],"stateMutability":"view"},{"type":"function","name":"owner","inputs":[],"outputs":[{"name":"","type":"address","internalType":"address"}],"stateMutability":"view"},{"type":"function","name":"renounceOwnership","inputs":[],"outputs":[],"stateMutability":"nonpayable"},{"type":"function","name":"setImageId","inputs":[{"name":"_imageId","type":"bytes32","internalType":"bytes32"}],"outputs":[],"stateMutability":"nonpayable"},{"type":"function","name":"setVerifier","inputs":[{"name":"_risc0Verifier","type":"address","internalType":"address"}],"outputs":[],"stateMutability":"nonpayable"},{"type":"function","name":"transferOwnership","inputs":[{"name":"newOwner","type":"address","internalType":"address"}],"outputs":[],"stateMutability":"nonpayable"},{"type":"function","name":"verifier","inputs":[],"outputs":[{"name":"","type":"address","internalType":"contract IRiscZeroVerifier"}],"stateMutability":"view"},{"type":"function","name":"verifyInput","inputs":[{"name":"journalEntry","type":"bytes","internalType":"bytes"},{"name":"seal","type":"bytes","internalType":"bytes"}],"outputs":[],"stateMutability":"view"},{"type":"event","name":"ImageSet","inputs":[{"name":"_imageId","type":"bytes32","indexed":false,"internalType":"bytes32"}],"anonymous":false},{"type":"event","name":"OwnershipTransferred","inputs":[{"name":"previousOwner","type":"address","indexed":true,"internalType":"address"},{"name":"newOwner","type":"address","indexed":true,"internalType":"address"}],"anonymous":false},{"type":"event","name":"VerifierSet","inputs":[{"name":"oldVerifier","type":"address","indexed":true,"internalType":"address"},{"name":"newVerifier","type":"address","indexed":true,"internalType":"address"}],"anonymous":false},{"type":"error","name":"OwnableInvalidOwner","inputs":[{"name":"owner","type":"address","internalType":"address"}]},{"type":"error","name":"OwnableUnauthorizedAccount","inputs":[{"name":"account","type":"address","internalType":"address"}]},{"type":"error","name":"ZkVerifier_ImageNotValid","inputs":[]},{"type":"error","name":"ZkVerifier_InputNotValid","inputs":[]},{"type":"error","name":"ZkVerifier_VerifierNotSet","inputs":[]}],"bytecode":{"object":"0x608060405234801561001057600080fd5b5060405161073a38038061073a83398101604081905261002f91610142565b826001600160a01b03811661005e57604051631e4fbdf760e01b81526000600482015260240160405180910390fd5b610067816100d6565b506001600160a01b03811661008f57604051632756006b60e01b815260040160405180910390fd5b816100ad57604051632756006b60e01b815260040160405180910390fd5b600180546001600160a01b0319166001600160a01b03929092169190911790556002555061017e565b600080546001600160a01b038381166001600160a01b0319831681178455604051919092169283917f8be0079c531659141344cd1fd0a4f28419497f9722a3daafe3b4186f6b6457e09190a35050565b80516001600160a01b038116811461013d57600080fd5b919050565b60008060006060848603121561015757600080fd5b61016084610126565b92506020840151915061017560408501610126565b90509250925092565b6105ad8061018d6000396000f3fe608060405234801561001057600080fd5b50600436106100885760003560e01c80638da5cb5b1161005b5780638da5cb5b146100ed578063901129c2146100fe578063ef3f7dd514610111578063f2fde38b1461012857600080fd5b80632b7ac3f31461008d578063385db561146100bd5780635437988d146100d2578063715018a6146100e5575b600080fd5b6001546100a0906001600160a01b031681565b6040516001600160a01b0390911681526020015b60405180910390f35b6100d06100cb366004610454565b61013b565b005b6100d06100e03660046104c5565b610155565b6100d06101e0565b6000546001600160a01b03166100a0565b6100d061010c3660046104f5565b6101f4565b61011a60025481565b6040519081526020016100b4565b6100d06101363660046104c5565b610252565b610143610295565b61014f848484846102be565b50505050565b61015d61038e565b6001600160a01b03811661018457604051632756006b60e01b815260040160405180910390fd5b6001546040516001600160a01b038084169216907fab81081e8fd2866d32d2dd90fdfa53fa9e0aa3d7eed73c684b6dcc4e2c0369fd90600090a3600180546001600160a01b0319166001600160a01b0392909216919091179055565b6101e861038e565b6101f260006103bb565b565b6101fc61038e565b8061021a576040516307d3ce1d60e51b815260040160405180910390fd5b6040518181527fe02ca3e718b01d09207861e781e45e3c93060b331a03eed1ab268d12e793583f9060200160405180910390a1600255565b61025a61038e565b6001600160a01b03811661028957604051631e4fbdf760e01b8152600060048201526024015b60405180910390fd5b610292816103bb565b50565b6001546001600160a01b03166101f25760405163f242df5360e01b815260040160405180910390fd5b600160009054906101000a90046001600160a01b03166001600160a01b031663ab750e758383600254600289896040516102f992919061050e565b602060405180830381855afa158015610316573d6000803e3d6000fd5b5050506040513d601f19601f82011682018060405250810190610339919061051e565b6040518563ffffffff1660e01b81526004016103589493929190610537565b60006040518083038186803b15801561037057600080fd5b505afa158015610384573d6000803e3d6000fd5b5050505050505050565b6000546001600160a01b031633146101f25760405163118cdaa760e01b8152336004820152602401610280565b600080546001600160a01b038381166001600160a01b0319831681178455604051919092169283917f8be0079c531659141344cd1fd0a4f28419497f9722a3daafe3b4186f6b6457e09190a35050565b60008083601f84011261041d57600080fd5b50813567ffffffffffffffff81111561043557600080fd5b60208301915083602082850101111561044d57600080fd5b9250929050565b6000806000806040858703121561046a57600080fd5b843567ffffffffffffffff81111561048157600080fd5b61048d8782880161040b565b909550935050602085013567ffffffffffffffff8111156104ad57600080fd5b6104b98782880161040b565b95989497509550505050565b6000602082840312156104d757600080fd5b81356001600160a01b03811681146104ee57600080fd5b9392505050565b60006020828403121561050757600080fd5b5035919050565b8183823760009101908152919050565b60006020828403121561053057600080fd5b5051919050565b606081528360608201528385608083013760006080858301015260006080601f19601f87011683010190508360208301528260408301529594505050505056fea264697066735822122062af6ec461d6e60bcd736c0f16776a694dd6ddf8b787fd4b44da66b65cc3ce8964736f6c634300081c0033","linkReferences":{}},"methodIdentifiers":{"imageId()":"ef3f7dd5","owner()":"8da5cb5b","renounceOwnership()":"715018a6","setImageId(bytes32)":"901129c2","setVerifier(address)":"5437988d","transferOwnership(address)":"f2fde38b","verifier()":"2b7ac3f3","verifyInput(bytes,bytes)":"385db561"},"id":119}