{"abi":[{"type":"function","name":"setStatus","inputs":[{"name":"_failure","type":"bool","internalType":"bool"}],"outputs":[],"stateMutability":"nonpayable"},{"type":"function","name":"shouldRevert","inputs":[],"outputs":[{"name":"","type":"bool","internalType":"bool"}],"stateMutability":"view"},{"type":"function","name":"verify","inputs":[{"name":"","type":"bytes","internalType":"bytes"},{"name":"","type":"bytes32","internalType":"bytes32"},{"name":"","type":"bytes32","internalType":"bytes32"}],"outputs":[],"stateMutability":"view"},{"type":"function","name":"verifyIntegrity","inputs":[{"name":"","type":"tuple","internalType":"struct Risc0VerifierMock.Receipt","components":[{"name":"seal","type":"bytes","internalType":"bytes"},{"name":"claimDigest","type":"bytes32","internalType":"bytes32"}]}],"outputs":[],"stateMutability":"view"}],"bytecode":{"object":"0x6080604052348015600f57600080fd5b5061025e8061001f6000396000f3fe608060405234801561001057600080fd5b506004361061004c5760003560e01c80631599ead5146100515780635c40f6f414610066578063ab750e7514610087578063d3072d821461009a575b600080fd5b61006461005f366004610143565b6100bb565b005b610064610074366004610185565b6000805460ff1916911515919091179055565b6100646100953660046101a7565b610100565b6000546100a79060ff1681565b604051901515815260200160405180910390f35b60005460ff16156100fd5760405162461bcd60e51b81526020600482015260076024820152664661696c75726560c81b60448201526064015b60405180910390fd5b50565b60005460ff161561013d5760405162461bcd60e51b81526020600482015260076024820152664661696c75726560c81b60448201526064016100f4565b50505050565b60006020828403121561015557600080fd5b813567ffffffffffffffff81111561016c57600080fd5b82016040818503121561017e57600080fd5b9392505050565b60006020828403121561019757600080fd5b8135801515811461017e57600080fd5b600080600080606085870312156101bd57600080fd5b843567ffffffffffffffff8111156101d457600080fd5b8501601f810187136101e557600080fd5b803567ffffffffffffffff8111156101fc57600080fd5b87602082840101111561020e57600080fd5b60209182019890975090860135956040013594509250505056fea2646970667358221220375f058ecd5b58f819af88f82651ec3cf183c60faf0e32bb493ebf1c5853c41964736f6c634300081c0033","linkReferences":{}},"methodIdentifiers":{"setStatus(bool)":"5c40f6f4","shouldRevert()":"d3072d82","verify(bytes,bytes32,bytes32)":"ab750e75","verifyIntegrity((bytes,bytes32))":"1599ead5"},"id":128}