{"abi":[{"type":"constructor","inputs":[{"name":"_roles","type":"address","internalType":"address"},{"name":"_operator","type":"address","internalType":"address"},{"name":"_owner","type":"address","internalType":"address"}],"stateMutability":"nonpayable"},{"type":"function","name":"addPausableMarket","inputs":[{"name":"_contract","type":"address","internalType":"address"},{"name":"_contractType","type":"uint8","internalType":"enum IPauser.PausableType"}],"outputs":[],"stateMutability":"nonpayable"},{"type":"function","name":"contractTypes","inputs":[{"name":"_contract","type":"address","internalType":"address"}],"outputs":[{"name":"_type","type":"uint8","internalType":"enum IPauser.PausableType"}],"stateMutability":"view"},{"type":"function","name":"emergencyPauseAll","inputs":[],"outputs":[],"stateMutability":"nonpayable"},{"type":"function","name":"emergencyPauseMarket","inputs":[{"name":"_market","type":"address","internalType":"address"}],"outputs":[],"stateMutability":"nonpayable"},{"type":"function","name":"emergencyPauseMarketFor","inputs":[{"name":"_market","type":"address","internalType":"address"},{"name":"_pauseType","type":"uint8","internalType":"enum ImTokenOperationTypes.OperationType"}],"outputs":[],"stateMutability":"nonpayable"},{"type":"function","name":"operator","inputs":[],"outputs":[{"name":"","type":"address","internalType":"contract IOperator"}],"stateMutability":"view"},{"type":"function","name":"owner","inputs":[],"outputs":[{"name":"","type":"address","internalType":"address"}],"stateMutability":"view"},{"type":"function","name":"pausableContracts","inputs":[{"name":"","type":"uint256","internalType":"uint256"}],"outputs":[{"name":"market","type":"address","internalType":"address"},{"name":"contractType","type":"uint8","internalType":"enum IPauser.PausableType"}],"stateMutability":"view"},{"type":"function","name":"registeredContracts","inputs":[{"name":"_contract","type":"address","internalType":"address"}],"outputs":[{"name":"_registered","type":"bool","internalType":"bool"}],"stateMutability":"view"},{"type":"function","name":"removePausableMarket","inputs":[{"name":"_contract","type":"address","internalType":"address"}],"outputs":[],"stateMutability":"nonpayable"},{"type":"function","name":"renounceOwnership","inputs":[],"outputs":[],"stateMutability":"nonpayable"},{"type":"function","name":"roles","inputs":[],"outputs":[{"name":"","type":"address","internalType":"contract IRoles"}],"stateMutability":"view"},{"type":"function","name":"transferOwnership","inputs":[{"name":"newOwner","type":"address","internalType":"address"}],"outputs":[],"stateMutability":"nonpayable"},{"type":"event","name":"MarketAdded","inputs":[{"name":"market","type":"address","indexed":true,"internalType":"address"},{"name":"marketType","type":"uint8","indexed":false,"internalType":"enum IPauser.PausableType"}],"anonymous":false},{"type":"event","name":"MarketPaused","inputs":[{"name":"market","type":"address","indexed":true,"internalType":"address"}],"anonymous":false},{"type":"event","name":"MarketPausedFor","inputs":[{"name":"market","type":"address","indexed":true,"internalType":"address"},{"name":"pauseType","type":"uint8","indexed":false,"internalType":"enum ImTokenOperationTypes.OperationType"}],"anonymous":false},{"type":"event","name":"MarketRemoved","inputs":[{"name":"market","type":"address","indexed":true,"internalType":"address"}],"anonymous":false},{"type":"event","name":"OwnershipTransferred","inputs":[{"name":"previousOwner","type":"address","indexed":true,"internalType":"address"},{"name":"newOwner","type":"address","indexed":true,"internalType":"address"}],"anonymous":false},{"type":"event","name":"PauseAll","inputs":[],"anonymous":false},{"type":"error","name":"OwnableInvalidOwner","inputs":[{"name":"owner","type":"address","internalType":"address"}]},{"type":"error","name":"OwnableUnauthorizedAccount","inputs":[{"name":"account","type":"address","internalType":"address"}]},{"type":"error","name":"Pauser_AddressNotValid","inputs":[]},{"type":"error","name":"Pauser_AlreadyRegistered","inputs":[]},{"type":"error","name":"Pauser_ContractNotEnabled","inputs":[]},{"type":"error","name":"Pauser_EntryNotFound","inputs":[]},{"type":"error","name":"Pauser_NotAuthorized","inputs":[]}],"bytecode":{"object":"0x60c060405234801561001057600080fd5b50604051610ea0380380610ea083398101604081905261002f9161013a565b806001600160a01b03811661005e57604051631e4fbdf760e01b81526000600482015260240160405180910390fd5b610067816100ce565b506001600160a01b03831661008f5760405163bd54cda960e01b815260040160405180910390fd5b6001600160a01b0382166100b65760405163bd54cda960e01b815260040160405180910390fd5b506001600160a01b039182166080521660a05261017d565b600080546001600160a01b038381166001600160a01b0319831681178455604051919092169283917f8be0079c531659141344cd1fd0a4f28419497f9722a3daafe3b4186f6b6457e09190a35050565b80516001600160a01b038116811461013557600080fd5b919050565b60008060006060848603121561014f57600080fd5b6101588461011e565b92506101666020850161011e565b91506101746040850161011e565b90509250925092565b60805160a051610ce96101b76000396000818161014c01526109d501526000818161010d0152818161084f015261087f0152610ce96000f3fe608060405234801561001057600080fd5b50600436106100cf5760003560e01c80638da5cb5b1161008c578063a5d9b63411610066578063a5d9b634146101fd578063c03ca45a14610210578063c63ca1f714610223578063f2fde38b1461023657600080fd5b80638da5cb5b14610189578063904818d11461019a578063a06617cd146101ca57600080fd5b80630467a1c7146100d45780630775ef0f146100fe578063392f5f6414610108578063570ca735146101475780635ae8e1291461016e578063715018a614610181575b600080fd5b6100e76100e2366004610aa6565b610249565b6040516100f5929190610ae9565b60405180910390f35b61010661027e565b005b61012f7f000000000000000000000000000000000000000000000000000000000000000081565b6040516001600160a01b0390911681526020016100f5565b61012f7f000000000000000000000000000000000000000000000000000000000000000081565b61010661017c366004610b29565b6102f1565b610106610473565b6000546001600160a01b031661012f565b6101bd6101a8366004610b64565b60036020526000908152604090205460ff1681565b6040516100f59190610b7f565b6101ed6101d8366004610b64565b60026020526000908152604090205460ff1681565b60405190151581526020016100f5565b61010661020b366004610b93565b610487565b61010661021e366004610b64565b610491565b610106610231366004610b64565b610616565b610106610244366004610b64565b610622565b6001818154811061025957600080fd5b6000918252602090912001546001600160a01b0381169150600160a01b900460ff1682565b60015460005b818110156102c4576102bc600182815481106102a2576102a2610bc3565b6000918252602090912001546001600160a01b0316610662565b600101610284565b506040517fcf2b7c8144d57508ac59a991851dcb217b1c34f75636493c3a512540494e272f90600090a150565b6102f961071d565b6001600160a01b0382166103205760405163bd54cda960e01b815260040160405180910390fd5b6001600160a01b03821660009081526002602052604090205460ff1661046f576001600160a01b038216600081815260026020818152604092839020805460ff191660019081179091558351808501909452938352820190849081111561038957610389610abf565b9052815460018101835560009283526020928390208251910180546001600160a01b031981166001600160a01b03909316928317825593830151929390929183916001600160a81b03191617600160a01b8360028111156103ec576103ec610abf565b021790555050506001600160a01b0382166000908152600360205260409020805482919060ff1916600183600281111561042857610428610abf565b0217905550816001600160a01b03167fe9e4ad7ec5b7c0add443d4cb41cbf2751232bf45d4e3d19511a9dd03539743cf826040516104669190610b7f565b60405180910390a25b5050565b61047b61071d565b610485600061074a565b565b61046f828261079a565b61049961071d565b6001600160a01b03811660009081526002602052604090205460ff166104d25760405163d25c8ae960e01b815260040160405180910390fd5b60006104dd826107dd565b60018054919250906104f0908290610bd9565b8154811061050057610500610bc3565b906000526020600020016001828154811061051d5761051d610bc3565b600091825260209091208254910180546001600160a01b031981166001600160a01b0390931692831782558354919260ff600160a01b93849004169284926001600160a81b0319169091179083600281111561057b5761057b610abf565b0217905550905050600180548061059457610594610bfa565b60008281526020808220600019908401810180546001600160a81b03191690559092019092556001600160a01b038416808352600282526040808420805460ff1990811690915560039093528084208054909316909255905190917f59d7b1e52008dc342c9421dadfc773114b914a65682a4e4b53cf60a970df0d7791a25050565b61061f81610662565b50565b61062a61071d565b6001600160a01b03811661065957604051631e4fbdf760e01b8152600060048201526024015b60405180910390fd5b61061f8161074a565b61066d81600061079a565b61067881600261079a565b61068381600161079a565b61068e81600361079a565b61069981600661079a565b6106a481600761079a565b6106af81600561079a565b6106ba81600461079a565b6106c581600861079a565b6106d081600961079a565b6106db81600a61079a565b6106e681600b61079a565b6040516001600160a01b038216907f0d65e0f4a7cf3a67f8d4e1f952cd658769a7e982c95cbbe018fa38feb543b12f90600090a250565b6000546001600160a01b031633146104855760405163118cdaa760e01b8152336004820152602401610650565b600080546001600160a01b038381166001600160a01b0319831681178455604051919092169283917f8be0079c531659141344cd1fd0a4f28419497f9722a3daafe3b4186f6b6457e09190a35050565b6107a4828261084d565b816001600160a01b03167f049c5859165cdaba9e33e0316684918f31494ce53cb9246b0e8e4ee0d98a57e0826040516104669190610c20565b600154600090815b8181101561083357836001600160a01b03166001828154811061080a5761080a610bc3565b6000918252602090912001546001600160a01b03160361082b579392505050565b6001016107e5565b5060405163d25c8ae960e01b815260040160405180910390fd5b7f00000000000000000000000000000000000000000000000000000000000000006001600160a01b03166338dd8c2c337f00000000000000000000000000000000000000000000000000000000000000006001600160a01b03166347164d3b6040518163ffffffff1660e01b8152600401602060405180830381865afa1580156108db573d6000803e3d6000fd5b505050506040513d601f19601f820116820180604052508101906108ff9190610c2e565b6040516001600160e01b031960e085901b1681526001600160a01b0390921660048301526024820152604401602060405180830381865afa158015610948573d6000803e3d6000fd5b505050506040513d601f19601f8201168201806040525081019061096c9190610c47565b6109895760405163bde2b66f60e01b815260040160405180910390fd5b6001600160a01b03821660009081526003602052604090205460ff1660018160028111156109b9576109b9610abf565b03610a4657604051631299d6cd60e21b81526001600160a01b037f00000000000000000000000000000000000000000000000000000000000000001690634a675b3490610a0f9086908690600190600401610c69565b600060405180830381600087803b158015610a2957600080fd5b505af1158015610a3d573d6000803e3d6000fd5b50505050505050565b6002816002811115610a5a57610a5a610abf565b03610a8d5760405162db8b3b60e71b81526001600160a01b03841690636dc59d8090610a0f908590600190600401610c96565b60405163ec3514d560e01b815260040160405180910390fd5b600060208284031215610ab857600080fd5b5035919050565b634e487b7160e01b600052602160045260246000fd5b60038110610ae557610ae5610abf565b9052565b6001600160a01b038316815260408101610b066020830184610ad5565b9392505050565b80356001600160a01b0381168114610b2457600080fd5b919050565b60008060408385031215610b3c57600080fd5b610b4583610b0d565b9150602083013560038110610b5957600080fd5b809150509250929050565b600060208284031215610b7657600080fd5b610b0682610b0d565b60208101610b8d8284610ad5565b92915050565b60008060408385031215610ba657600080fd5b610baf83610b0d565b91506020830135600c8110610b5957600080fd5b634e487b7160e01b600052603260045260246000fd5b81810381811115610b8d57634e487b7160e01b600052601160045260246000fd5b634e487b7160e01b600052603160045260246000fd5b600c8110610ae557610ae5610abf565b60208101610b8d8284610c10565b600060208284031215610c4057600080fd5b5051919050565b600060208284031215610c5957600080fd5b81518015158114610b0657600080fd5b6001600160a01b038416815260608101610c866020830185610c10565b8215156040830152949350505050565b60408101610ca48285610c10565b8215156020830152939250505056fea2646970667358221220ce307a0f018f427810e2e60c12b9fe5fc2a9e220e2405e80e8e84a4b9a05f3e564736f6c634300081c0033","linkReferences":{}},"methodIdentifiers":{"addPausableMarket(address,uint8)":"5ae8e129","contractTypes(address)":"904818d1","emergencyPauseAll()":"0775ef0f","emergencyPauseMarket(address)":"c63ca1f7","emergencyPauseMarketFor(address,uint8)":"a5d9b634","operator()":"570ca735","owner()":"8da5cb5b","pausableContracts(uint256)":"0467a1c7","registeredContracts(address)":"a06617cd","removePausableMarket(address)":"c03ca45a","renounceOwnership()":"715018a6","roles()":"392f5f64","transferOwnership(address)":"f2fde38b"},"id":108}