{"abi":[{"type":"constructor","inputs":[{"name":"_roles","type":"address","internalType":"address"},{"name":"_saveAddress","type":"address","internalType":"address"}],"stateMutability":"nonpayable"},{"type":"function","name":"allowedList","inputs":[{"name":"","type":"address","internalType":"address"}],"outputs":[{"name":"","type":"bool","internalType":"bool"}],"stateMutability":"view"},{"type":"function","name":"currentTransferSize","inputs":[{"name":"","type":"uint32","internalType":"uint32"},{"name":"","type":"address","internalType":"address"}],"outputs":[{"name":"size","type":"uint256","internalType":"uint256"},{"name":"timestamp","type":"uint256","internalType":"uint256"}],"stateMutability":"view"},{"type":"function","name":"isBridgeWhitelisted","inputs":[{"name":"bridge","type":"address","internalType":"address"}],"outputs":[{"name":"","type":"bool","internalType":"bool"}],"stateMutability":"view"},{"type":"function","name":"isDestinationWhitelisted","inputs":[{"name":"dstId","type":"uint32","internalType":"uint32"}],"outputs":[{"name":"","type":"bool","internalType":"bool"}],"stateMutability":"view"},{"type":"function","name":"logs","inputs":[{"name":"","type":"uint32","internalType":"uint32"},{"name":"","type":"uint256","internalType":"uint256"}],"outputs":[{"name":"dstChainId","type":"uint32","internalType":"uint32"},{"name":"token","type":"address","internalType":"address"},{"name":"message","type":"bytes","internalType":"bytes"},{"name":"bridgeData","type":"bytes","internalType":"bytes"}],"stateMutability":"view"},{"type":"function","name":"maxTransferSizes","inputs":[{"name":"","type":"uint32","internalType":"uint32"},{"name":"","type":"address","internalType":"address"}],"outputs":[{"name":"","type":"uint256","internalType":"uint256"}],"stateMutability":"view"},{"type":"function","name":"minTransferSizes","inputs":[{"name":"","type":"uint32","internalType":"uint32"},{"name":"","type":"address","internalType":"address"}],"outputs":[{"name":"","type":"uint256","internalType":"uint256"}],"stateMutability":"view"},{"type":"function","name":"nonce","inputs":[],"outputs":[{"name":"","type":"uint256","internalType":"uint256"}],"stateMutability":"view"},{"type":"function","name":"roles","inputs":[],"outputs":[{"name":"","type":"address","internalType":"contract IRoles"}],"stateMutability":"view"},{"type":"function","name":"saveAddress","inputs":[],"outputs":[{"name":"","type":"address","internalType":"address"}],"stateMutability":"view"},{"type":"function","name":"saveEth","inputs":[],"outputs":[],"stateMutability":"nonpayable"},{"type":"function","name":"sendMsg","inputs":[{"name":"_bridge","type":"address","internalType":"address"},{"name":"_market","type":"address","internalType":"address"},{"name":"_amount","type":"uint256","internalType":"uint256"},{"name":"_msg","type":"tuple","internalType":"struct IRebalancer.Msg","components":[{"name":"dstChainId","type":"uint32","internalType":"uint32"},{"name":"token","type":"address","internalType":"address"},{"name":"message","type":"bytes","internalType":"bytes"},{"name":"bridgeData","type":"bytes","internalType":"bytes"}]}],"outputs":[],"stateMutability":"payable"},{"type":"function","name":"setAllowList","inputs":[{"name":"list","type":"address[]","internalType":"address[]"},{"name":"status","type":"bool","internalType":"bool"}],"outputs":[],"stateMutability":"nonpayable"},{"type":"function","name":"setMaxTransferSize","inputs":[{"name":"_dstChainId","type":"uint32","internalType":"uint32"},{"name":"_token","type":"address","internalType":"address"},{"name":"_limit","type":"uint256","internalType":"uint256"}],"outputs":[],"stateMutability":"nonpayable"},{"type":"function","name":"setMinTransferSize","inputs":[{"name":"_dstChainId","type":"uint32","internalType":"uint32"},{"name":"_token","type":"address","internalType":"address"},{"name":"_limit","type":"uint256","internalType":"uint256"}],"outputs":[],"stateMutability":"nonpayable"},{"type":"function","name":"setWhitelistedBridgeStatus","inputs":[{"name":"_bridge","type":"address","internalType":"address"},{"name":"_status","type":"bool","internalType":"bool"}],"outputs":[],"stateMutability":"nonpayable"},{"type":"function","name":"setWhitelistedDestination","inputs":[{"name":"_dstId","type":"uint32","internalType":"uint32"},{"name":"_status","type":"bool","internalType":"bool"}],"outputs":[],"stateMutability":"nonpayable"},{"type":"function","name":"transferTimeWindow","inputs":[],"outputs":[{"name":"","type":"uint256","internalType":"uint256"}],"stateMutability":"view"},{"type":"function","name":"whitelistedBridges","inputs":[{"name":"","type":"address","internalType":"address"}],"outputs":[{"name":"","type":"bool","internalType":"bool"}],"stateMutability":"view"},{"type":"function","name":"whitelistedDestinations","inputs":[{"name":"","type":"uint32","internalType":"uint32"}],"outputs":[{"name":"","type":"bool","internalType":"bool"}],"stateMutability":"view"},{"type":"event","name":"AllowedListUpdated","inputs":[{"name":"list","type":"address[]","indexed":false,"internalType":"address[]"},{"name":"status","type":"bool","indexed":false,"internalType":"bool"}],"anonymous":false},{"type":"event","name":"BridgeWhitelistedStatusUpdated","inputs":[{"name":"bridge","type":"address","indexed":true,"internalType":"address"},{"name":"status","type":"bool","indexed":false,"internalType":"bool"}],"anonymous":false},{"type":"event","name":"DestinationWhitelistedStatusUpdated","inputs":[{"name":"dstChainId","type":"uint32","indexed":true,"internalType":"uint32"},{"name":"status","type":"bool","indexed":false,"internalType":"bool"}],"anonymous":false},{"type":"event","name":"EthSaved","inputs":[{"name":"amount","type":"uint256","indexed":false,"internalType":"uint256"}],"anonymous":false},{"type":"event","name":"MaxTransferSizeUpdated","inputs":[{"name":"dstChainId","type":"uint32","indexed":true,"internalType":"uint32"},{"name":"token","type":"address","indexed":true,"internalType":"address"},{"name":"newLimit","type":"uint256","indexed":false,"internalType":"uint256"}],"anonymous":false},{"type":"event","name":"MinTransferSizeUpdated","inputs":[{"name":"dstChainId","type":"uint32","indexed":true,"internalType":"uint32"},{"name":"token","type":"address","indexed":true,"internalType":"address"},{"name":"newLimit","type":"uint256","indexed":false,"internalType":"uint256"}],"anonymous":false},{"type":"event","name":"MsgSent","inputs":[{"name":"bridge","type":"address","indexed":true,"internalType":"address"},{"name":"dstChainId","type":"uint32","indexed":true,"internalType":"uint32"},{"name":"token","type":"address","indexed":true,"internalType":"address"},{"name":"message","type":"bytes","indexed":false,"internalType":"bytes"},{"name":"bridgeData","type":"bytes","indexed":false,"internalType":"bytes"}],"anonymous":false},{"type":"error","name":"Rebalancer_AddressNotValid","inputs":[]},{"type":"error","name":"Rebalancer_BridgeNotWhitelisted","inputs":[]},{"type":"error","name":"Rebalancer_DestinationNotWhitelisted","inputs":[]},{"type":"error","name":"Rebalancer_MarketNotValid","inputs":[]},{"type":"error","name":"Rebalancer_NotAuthorized","inputs":[]},{"type":"error","name":"Rebalancer_RequestNotValid","inputs":[]},{"type":"error","name":"Rebalancer_TransferSizeExcedeed","inputs":[]},{"type":"error","name":"Rebalancer_TransferSizeMinNotMet","inputs":[]},{"type":"error","name":"SafeApprove_Failed","inputs":[]},{"type":"error","name":"SafeApprove_NoContract","inputs":[]}],"bytecode":{"object":"0x608060405234801561001057600080fd5b506040516120db3803806120db83398101604081905261002f916100d1565b6001600160a01b0382166100565760405163117f226760e21b815260040160405180910390fd5b6001600160a01b03811661007d5760405163117f226760e21b815260040160405180910390fd5b600080546001600160a01b039384166001600160a01b03199182161790915562015180600a5560068054929093169116179055610104565b80516001600160a01b03811681146100cc57600080fd5b919050565b600080604083850312156100e457600080fd5b6100ed836100b5565b91506100fb602084016100b5565b90509250929050565b611fc8806101136000396000f3fe60806040526004361061011f5760003560e01c806392588071116100a0578063b244997a11610064578063b244997a146103b7578063b3f07e71146103d7578063b70baeb6146103f7578063cc3a7e9614610430578063cf0f317d1461046857600080fd5b8063925880711461030c5780639528432b1461032c5780639ce17f6614610341578063a075fbde14610371578063affed0e0146103a157600080fd5b80632d1fe4da116100e75780632d1fe4da14610228578063313674111461026e578063392f5f641461028e578063439330be146102c657806359982145146102dc57600080fd5b806301a874a21461012457806316d2c2e81461016f5780631c4530511461018457806320a50569146101b457806321436136146101d4575b600080fd5b34801561013057600080fd5b5061015a61013f3660046117fe565b63ffffffff1660009081526004602052604090205460ff1690565b60405190151581526020015b60405180910390f35b61018261017d366004611837565b610488565b005b34801561019057600080fd5b5061015a61019f3660046117fe565b60046020526000908152604090205460ff1681565b3480156101c057600080fd5b506101826101cf3660046118b6565b610b81565b3480156101e057600080fd5b506102136101ef3660046118ef565b60096020908152600092835260408084209091529082529020805460019091015482565b60408051928352602083019190915201610166565b34801561023457600080fd5b506102606102433660046118ef565b600860209081526000928352604080842090915290825290205481565b604051908152602001610166565b34801561027a57600080fd5b5061018261028936600461191d565b610cec565b34801561029a57600080fd5b506000546102ae906001600160a01b031681565b6040516001600160a01b039091168152602001610166565b3480156102d257600080fd5b50610260600a5481565b3480156102e857600080fd5b5061015a6102f73660046119a6565b60036020526000908152604090205460ff1681565b34801561031857600080fd5b506006546102ae906001600160a01b031681565b34801561033857600080fd5b50610182610e97565b34801561034d57600080fd5b5061036161035c3660046119c3565b611047565b6040516101669493929190611a3f565b34801561037d57600080fd5b5061015a61038c3660046119a6565b60056020526000908152604090205460ff1681565b3480156103ad57600080fd5b5061026060015481565b3480156103c357600080fd5b506101826103d2366004611a8c565b61119f565b3480156103e357600080fd5b506101826103f2366004611aaa565b611326565b34801561040357600080fd5b5061015a6104123660046119a6565b6001600160a01b031660009081526003602052604090205460ff1690565b34801561043c57600080fd5b5061026061044b3660046118ef565b600760209081526000928352604080842090915290825290205481565b34801561047457600080fd5b50610182610483366004611aaa565b61148e565b60005460408051632450b37360e11b815290516001600160a01b03909216916338dd8c2c91339184916348a166e69160048083019260209291908290030181865afa1580156104db573d6000803e3d6000fd5b505050506040513d601f19601f820116820180604052508101906104ff9190611aeb565b6040516001600160e01b031960e085901b1681526001600160a01b0390921660048301526024820152604401602060405180830381865afa158015610548573d6000803e3d6000fd5b505050506040513d601f19601f8201168201806040525081019061056c9190611b04565b61058957604051632f5738b360e21b815260040160405180910390fd5b6001600160a01b03841660009081526003602052604090205460ff166105c25760405163016f4f1160e51b815260040160405180910390fd5b600460006105d360208401846117fe565b63ffffffff16815260208101919091526040016000205460ff1661060a5760405163f5c1a6b760e01b815260040160405180910390fd5b6000836001600160a01b0316636f307dc36040518163ffffffff1660e01b8152600401602060405180830381865afa15801561064a573d6000803e3d6000fd5b505050506040513d601f19601f8201168201806040525081019061066e9190611b21565b905061068060408301602084016119a6565b6001600160a01b0316816001600160a01b0316146106b157604051633eb5dae760e11b815260040160405180910390fd5b600860006106c260208501856117fe565b63ffffffff1663ffffffff16815260200190815260200160002060008360200160208101906106f191906119a6565b6001600160a01b03166001600160a01b031681526020019081526020016000205483116107315760405163ebe13f6b60e01b815260040160405180910390fd5b600060098161074360208601866117fe565b63ffffffff1663ffffffff168152602001908152602001600020600084602001602081019061077291906119a6565b6001600160a01b031681526020808201929092526040908101600090812082518084019093528054835260010154928201839052600a54919350916107b79190611b3e565b90504281101561084857604051806040016040528086815260200142815250600960008660000160208101906107ed91906117fe565b63ffffffff1663ffffffff168152602001908152602001600020600086602001602081019061081c91906119a6565b6001600160a01b03168152602080820192909252604001600020825181559101516001909101556108c1565b846009600061085a60208801886117fe565b63ffffffff1663ffffffff168152602001908152602001600020600086602001602081019061088991906119a6565b6001600160a01b03166001600160a01b0316815260200190815260200160002060000160008282546108bb9190611b3e565b90915550505b60006007816108d360208801886117fe565b63ffffffff1663ffffffff168152602001908152602001600020600086602001602081019061090291906119a6565b6001600160a01b03168152602081019190915260400160002054905080156109515782518190610933908890611b3e565b106109515760405163bce0524360e01b815260040160405180910390fd5b6001600160a01b03871660009081526005602052604090205460ff1661098a5760405163ce9c3a2160e01b815260040160405180910390fd5b6040516001621aa90160e11b03198152600481018790526001600160a01b0388169063ffcaadfe90602401600060405180830381600087803b1580156109cf57600080fd5b505af11580156109e3573d6000803e3d6000fd5b505060018054810190555085905060026000610a0260208401846117fe565b63ffffffff1681526020808201929092526040908101600090812060015482529092529020610a318282611d0f565b50610a4e9050610a4760408701602088016119a6565b89886115ed565b6001600160a01b03881663f2db52a734888a610a6d60208b018b6117fe565b610a7d60408c0160208d016119a6565b610a8a60408d018d611b65565b610a9760608f018f611b65565b6040518a63ffffffff1660e01b8152600401610aba989796959493929190611e7f565b6000604051808303818588803b158015610ad357600080fd5b505af1158015610ae7573d6000803e3d6000fd5b50610afe93505060408801915050602087016119a6565b6001600160a01b0316610b1460208701876117fe565b63ffffffff166001600160a01b038a167f724ae2e346362c797a3fc90a285e6073c481e98c11c145d3bb23a8705a643f3b610b5260408a018a611b65565b610b5f60608c018c611b65565b604051610b6f9493929190611ee0565b60405180910390a45050505050505050565b60005460408051630671438b60e51b815290516001600160a01b03909216916338dd8c2c913391849163ce2871609160048083019260209291908290030181865afa158015610bd4573d6000803e3d6000fd5b505050506040513d601f19601f82011682018060405250810190610bf89190611aeb565b6040516001600160e01b031960e085901b1681526001600160a01b0390921660048301526024820152604401602060405180830381865afa158015610c41573d6000803e3d6000fd5b505050506040513d601f19601f82011682018060405250810190610c659190611b04565b610c8257604051632f5738b360e21b815260040160405180910390fd5b8163ffffffff167f51b93196343e51a44065dcc7b5c73f9d51b366412c46b54b11a3bc0f360309d082604051610cbc911515815260200190565b60405180910390a263ffffffff919091166000908152600460205260409020805460ff1916911515919091179055565b60005460408051630671438b60e51b815290516001600160a01b03909216916338dd8c2c913391849163ce2871609160048083019260209291908290030181865afa158015610d3f573d6000803e3d6000fd5b505050506040513d601f19601f82011682018060405250810190610d639190611aeb565b6040516001600160e01b031960e085901b1681526001600160a01b0390921660048301526024820152604401602060405180830381865afa158015610dac573d6000803e3d6000fd5b505050506040513d601f19601f82011682018060405250810190610dd09190611b04565b610ded57604051632f5738b360e21b815260040160405180910390fd5b8160005b81811015610e55578260056000878785818110610e1057610e10611f07565b9050602002016020810190610e2591906119a6565b6001600160a01b031681526020810191909152604001600020805460ff1916911515919091179055600101610df1565b507ff2feb0320d2b77f8371f78d0b9ed7a305ef76f3424adf286e4d22ec52e72de30848484604051610e8993929190611f1d565b60405180910390a150505050565b60005460408051630671438b60e51b815290516001600160a01b03909216916338dd8c2c913391849163ce2871609160048083019260209291908290030181865afa158015610eea573d6000803e3d6000fd5b505050506040513d601f19601f82011682018060405250810190610f0e9190611aeb565b6040516001600160e01b031960e085901b1681526001600160a01b0390921660048301526024820152604401602060405180830381865afa158015610f57573d6000803e3d6000fd5b505050506040513d601f19601f82011682018060405250810190610f7b9190611b04565b610f9857604051632f5738b360e21b815260040160405180910390fd5b60065460405147916000916001600160a01b039091169083908381818185875af1925050503d8060008114610fe9576040519150601f19603f3d011682016040523d82523d6000602084013e610fee565b606091505b505090508061101057604051633eb5dae760e11b815260040160405180910390fd5b6040518281527f963e88d705fe02622fa0f206af0523b079646cb912595cfb2f425b7d99004a969060200160405180910390a15050565b60026020908152600092835260408084209091529082529020805460018201805463ffffffff8316936401000000009093046001600160a01b031692919061108e90611bc9565b80601f01602080910402602001604051908101604052809291908181526020018280546110ba90611bc9565b80156111075780601f106110dc57610100808354040283529160200191611107565b820191906000526020600020905b8154815290600101906020018083116110ea57829003601f168201915b50505050509080600201805461111c90611bc9565b80601f016020809104026020016040519081016040528092919081815260200182805461114890611bc9565b80156111955780601f1061116a57610100808354040283529160200191611195565b820191906000526020600020905b81548152906001019060200180831161117857829003601f168201915b5050505050905084565b60005460408051630671438b60e51b815290516001600160a01b03909216916338dd8c2c913391849163ce2871609160048083019260209291908290030181865afa1580156111f2573d6000803e3d6000fd5b505050506040513d601f19601f820116820180604052508101906112169190611aeb565b6040516001600160e01b031960e085901b1681526001600160a01b0390921660048301526024820152604401602060405180830381865afa15801561125f573d6000803e3d6000fd5b505050506040513d601f19601f820116820180604052508101906112839190611b04565b6112a057604051632f5738b360e21b815260040160405180910390fd5b6001600160a01b0382166112c75760405163117f226760e21b815260040160405180910390fd5b6001600160a01b038216600081815260036020908152604091829020805460ff191685151590811790915591519182527f556d5b611c0a2d1f2d7ff78649c275628bf133c88544dedcf5cb6f7e56d815cc910160405180910390a25050565b60005460408051630671438b60e51b815290516001600160a01b03909216916338dd8c2c913391849163ce2871609160048083019260209291908290030181865afa158015611379573d6000803e3d6000fd5b505050506040513d601f19601f8201168201806040525081019061139d9190611aeb565b6040516001600160e01b031960e085901b1681526001600160a01b0390921660048301526024820152604401602060405180830381865afa1580156113e6573d6000803e3d6000fd5b505050506040513d601f19601f8201168201806040525081019061140a9190611b04565b61142757604051632f5738b360e21b815260040160405180910390fd5b63ffffffff831660008181526007602090815260408083206001600160a01b03871680855290835292819020859055518481529192917fb47e040b350f65c5fed090c75b4c14dc7e00d2bbfcf465bcc7a4ea05e5d86bab91015b60405180910390a3505050565b60005460408051630671438b60e51b815290516001600160a01b03909216916338dd8c2c913391849163ce2871609160048083019260209291908290030181865afa1580156114e1573d6000803e3d6000fd5b505050506040513d601f19601f820116820180604052508101906115059190611aeb565b6040516001600160e01b031960e085901b1681526001600160a01b0390921660048301526024820152604401602060405180830381865afa15801561154e573d6000803e3d6000fd5b505050506040513d601f19601f820116820180604052508101906115729190611b04565b61158f57604051632f5738b360e21b815260040160405180910390fd5b63ffffffff831660008181526008602090815260408083206001600160a01b03871680855290835292819020859055518481529192917f5a10a83d7492057f3d4b4ab6f33911c81e7c9ab3667f4cb082301078d7e514579101611481565b6000836001600160a01b03163b116116185760405163034ae78b60e11b815260040160405180910390fd5b6040516001600160a01b0383811660248301526000604483018190529160609186169060640160408051601f198184030181529181526020820180516001600160e01b031663095ea7b360e01b179052516116739190611f76565b6000604051808303816000865af19150503d80600081146116b0576040519150601f19603f3d011682016040523d82523d6000602084013e6116b5565b606091505b5090925090508180156116e05750805115806116e05750808060200190518101906116e09190611b04565b6116fd576040516379c4743b60e11b815260040160405180910390fd5b82156117e2576040516001600160a01b0385811660248301526044820185905286169060640160408051601f198184030181529181526020820180516001600160e01b031663095ea7b360e01b179052516117589190611f76565b6000604051808303816000865af19150503d8060008114611795576040519150601f19603f3d011682016040523d82523d6000602084013e61179a565b606091505b5090925090508180156117c55750805115806117c55750808060200190518101906117c59190611b04565b6117e2576040516379c4743b60e11b815260040160405180910390fd5b5050505050565b63ffffffff811681146117fb57600080fd5b50565b60006020828403121561181057600080fd5b813561181b816117e9565b9392505050565b6001600160a01b03811681146117fb57600080fd5b6000806000806080858703121561184d57600080fd5b843561185881611822565b9350602085013561186881611822565b925060408501359150606085013567ffffffffffffffff81111561188b57600080fd5b85016080818803121561189d57600080fd5b939692955090935050565b80151581146117fb57600080fd5b600080604083850312156118c957600080fd5b82356118d4816117e9565b915060208301356118e4816118a8565b809150509250929050565b6000806040838503121561190257600080fd5b823561190d816117e9565b915060208301356118e481611822565b60008060006040848603121561193257600080fd5b833567ffffffffffffffff81111561194957600080fd5b8401601f8101861361195a57600080fd5b803567ffffffffffffffff81111561197157600080fd5b8660208260051b840101111561198657600080fd5b60209182019450925084013561199b816118a8565b809150509250925092565b6000602082840312156119b857600080fd5b813561181b81611822565b600080604083850312156119d657600080fd5b82356119e1816117e9565b946020939093013593505050565b60005b83811015611a0a5781810151838201526020016119f2565b50506000910152565b60008151808452611a2b8160208601602086016119ef565b601f01601f19169290920160200192915050565b63ffffffff851681526001600160a01b0384166020820152608060408201819052600090611a6f90830185611a13565b8281036060840152611a818185611a13565b979650505050505050565b60008060408385031215611a9f57600080fd5b82356118d481611822565b600080600060608486031215611abf57600080fd5b8335611aca816117e9565b92506020840135611ada81611822565b929592945050506040919091013590565b600060208284031215611afd57600080fd5b5051919050565b600060208284031215611b1657600080fd5b815161181b816118a8565b600060208284031215611b3357600080fd5b815161181b81611822565b80820180821115611b5f57634e487b7160e01b600052601160045260246000fd5b92915050565b6000808335601e19843603018112611b7c57600080fd5b83018035915067ffffffffffffffff821115611b9757600080fd5b602001915036819003821315611bac57600080fd5b9250929050565b634e487b7160e01b600052604160045260246000fd5b600181811c90821680611bdd57607f821691505b602082108103611bfd57634e487b7160e01b600052602260045260246000fd5b50919050565b601f821115611c4a57806000526020600020601f840160051c81016020851015611c2a5750805b601f840160051c820191505b818110156117e25760008155600101611c36565b505050565b67ffffffffffffffff831115611c6757611c67611bb3565b611c7b83611c758354611bc9565b83611c03565b6000601f841160018114611caf5760008515611c975750838201355b600019600387901b1c1916600186901b1783556117e2565b600083815260209020601f19861690835b82811015611ce05786850135825560209485019460019092019101611cc0565b5086821015611cfd5760001960f88860031b161c19848701351681555b505060018560011b0183555050505050565b8135611d1a816117e9565b63ffffffff8116905081548163ffffffff1982161783556020840135611d3f81611822565b6001600160c01b03199190911690911760209190911b640100000000600160c01b031617815560018101611d766040840184611b65565b67ffffffffffffffff811115611d8e57611d8e611bb3565b611da281611d9c8554611bc9565b85611c03565b6000601f821160018114611dd65760008315611dbe5750838201355b600019600385901b1c1916600184901b178555611e30565b600085815260209020601f19841690835b82811015611e075786850135825560209485019460019092019101611de7565b5084821015611e245760001960f88660031b161c19848701351681555b505060018360011b0185555b5050505050611e426060830183611b65565b611e50818360028601611c4f565b50505050565b81835281816020850137506000828201602090810191909152601f909101601f19169091010190565b8881526001600160a01b03888116602083015263ffffffff881660408301528616606082015260c060808201819052600090611ebe9083018688611e56565b82810360a0840152611ed1818587611e56565b9b9a5050505050505050505050565b604081526000611ef4604083018688611e56565b8281036020840152611a81818587611e56565b634e487b7160e01b600052603260045260246000fd5b6040808252810183905260008460608301825b86811015611f60578235611f4381611822565b6001600160a01b0316825260209283019290910190600101611f30565b5080925050508215156020830152949350505050565b60008251611f888184602087016119ef565b919091019291505056fea2646970667358221220eeff3d8b247d3fe0065b92d234dadf10ccd7dd3a594f64aabfb10cfc4aa8b14664736f6c634300081c0033","linkReferences":{}},"methodIdentifiers":{"allowedList(address)":"a075fbde","currentTransferSize(uint32,address)":"21436136","isBridgeWhitelisted(address)":"b70baeb6","isDestinationWhitelisted(uint32)":"01a874a2","logs(uint32,uint256)":"9ce17f66","maxTransferSizes(uint32,address)":"cc3a7e96","minTransferSizes(uint32,address)":"2d1fe4da","nonce()":"affed0e0","roles()":"392f5f64","saveAddress()":"92588071","saveEth()":"9528432b","sendMsg(address,address,uint256,(uint32,address,bytes,bytes))":"16d2c2e8","setAllowList(address[],bool)":"31367411","setMaxTransferSize(uint32,address,uint256)":"b3f07e71","setMinTransferSize(uint32,address,uint256)":"cf0f317d","setWhitelistedBridgeStatus(address,bool)":"b244997a","setWhitelistedDestination(uint32,bool)":"20a50569","transferTimeWindow()":"439330be","whitelistedBridges(address)":"59982145","whitelistedDestinations(uint32)":"1c453051"},"id":109}