{"abi":[{"type":"constructor","inputs":[{"name":"underlying_","type":"address","internalType":"address"},{"name":"operator_","type":"address","internalType":"address"},{"name":"interestRateModel_","type":"address","internalType":"address"},{"name":"initialExchangeRateMantissa_","type":"uint256","internalType":"uint256"},{"name":"name_","type":"string","internalType":"string"},{"name":"symbol_","type":"string","internalType":"string"},{"name":"decimals_","type":"uint8","internalType":"uint8"},{"name":"admin_","type":"address","internalType":"address payable"}],"stateMutability":"nonpayable"},{"type":"function","name":"acceptAdmin","inputs":[],"outputs":[],"stateMutability":"nonpayable"},{"type":"function","name":"accrualBlockTimestamp","inputs":[],"outputs":[{"name":"","type":"uint256","internalType":"uint256"}],"stateMutability":"view"},{"type":"function","name":"accrueInterest","inputs":[],"outputs":[],"stateMutability":"nonpayable"},{"type":"function","name":"addReserves","inputs":[{"name":"addAmount","type":"uint256","internalType":"uint256"}],"outputs":[],"stateMutability":"nonpayable"},{"type":"function","name":"admin","inputs":[],"outputs":[{"name":"","type":"address","internalType":"address payable"}],"stateMutability":"view"},{"type":"function","name":"allowance","inputs":[{"name":"owner","type":"address","internalType":"address"},{"name":"spender","type":"address","internalType":"address"}],"outputs":[{"name":"","type":"uint256","internalType":"uint256"}],"stateMutability":"view"},{"type":"function","name":"approve","inputs":[{"name":"spender","type":"address","internalType":"address"},{"name":"amount","type":"uint256","internalType":"uint256"}],"outputs":[{"name":"","type":"bool","internalType":"bool"}],"stateMutability":"nonpayable"},{"type":"function","name":"balanceOf","inputs":[{"name":"owner","type":"address","internalType":"address"}],"outputs":[{"name":"","type":"uint256","internalType":"uint256"}],"stateMutability":"view"},{"type":"function","name":"balanceOfUnderlying","inputs":[{"name":"owner","type":"address","internalType":"address"}],"outputs":[{"name":"","type":"uint256","internalType":"uint256"}],"stateMutability":"nonpayable"},{"type":"function","name":"borrow","inputs":[{"name":"borrowAmount","type":"uint256","internalType":"uint256"}],"outputs":[],"stateMutability":"nonpayable"},{"type":"function","name":"borrowBalanceCurrent","inputs":[{"name":"account","type":"address","internalType":"address"}],"outputs":[{"name":"","type":"uint256","internalType":"uint256"}],"stateMutability":"nonpayable"},{"type":"function","name":"borrowBalanceStored","inputs":[{"name":"account","type":"address","internalType":"address"}],"outputs":[{"name":"","type":"uint256","internalType":"uint256"}],"stateMutability":"view"},{"type":"function","name":"borrowIndex","inputs":[],"outputs":[{"name":"","type":"uint256","internalType":"uint256"}],"stateMutability":"view"},{"type":"function","name":"borrowRateMaxMantissa","inputs":[],"outputs":[{"name":"","type":"uint256","internalType":"uint256"}],"stateMutability":"view"},{"type":"function","name":"borrowRatePerBlock","inputs":[],"outputs":[{"name":"","type":"uint256","internalType":"uint256"}],"stateMutability":"view"},{"type":"function","name":"decimals","inputs":[],"outputs":[{"name":"","type":"uint8","internalType":"uint8"}],"stateMutability":"view"},{"type":"function","name":"exchangeRateCurrent","inputs":[],"outputs":[{"name":"","type":"uint256","internalType":"uint256"}],"stateMutability":"nonpayable"},{"type":"function","name":"exchangeRateStored","inputs":[],"outputs":[{"name":"","type":"uint256","internalType":"uint256"}],"stateMutability":"view"},{"type":"function","name":"getAccountSnapshot","inputs":[{"name":"account","type":"address","internalType":"address"}],"outputs":[{"name":"","type":"uint256","internalType":"uint256"},{"name":"","type":"uint256","internalType":"uint256"},{"name":"","type":"uint256","internalType":"uint256"}],"stateMutability":"view"},{"type":"function","name":"getCash","inputs":[],"outputs":[{"name":"","type":"uint256","internalType":"uint256"}],"stateMutability":"view"},{"type":"function","name":"interestRateModel","inputs":[],"outputs":[{"name":"","type":"address","internalType":"address"}],"stateMutability":"view"},{"type":"function","name":"liquidate","inputs":[{"name":"borrower","type":"address","internalType":"address"},{"name":"repayAmount","type":"uint256","internalType":"uint256"},{"name":"mTokenCollateral","type":"address","internalType":"address"}],"outputs":[],"stateMutability":"nonpayable"},{"type":"function","name":"mint","inputs":[{"name":"mintAmount","type":"uint256","internalType":"uint256"},{"name":"receiver","type":"address","internalType":"address"},{"name":"minAmountOut","type":"uint256","internalType":"uint256"}],"outputs":[],"stateMutability":"nonpayable"},{"type":"function","name":"name","inputs":[],"outputs":[{"name":"","type":"string","internalType":"string"}],"stateMutability":"view"},{"type":"function","name":"operator","inputs":[],"outputs":[{"name":"","type":"address","internalType":"address"}],"stateMutability":"view"},{"type":"function","name":"pendingAdmin","inputs":[],"outputs":[{"name":"","type":"address","internalType":"address payable"}],"stateMutability":"view"},{"type":"function","name":"redeem","inputs":[{"name":"redeemTokens","type":"uint256","internalType":"uint256"}],"outputs":[],"stateMutability":"nonpayable"},{"type":"function","name":"redeemUnderlying","inputs":[{"name":"redeemAmount","type":"uint256","internalType":"uint256"}],"outputs":[],"stateMutability":"nonpayable"},{"type":"function","name":"reduceReserves","inputs":[{"name":"reduceAmount","type":"uint256","internalType":"uint256"}],"outputs":[],"stateMutability":"nonpayable"},{"type":"function","name":"repay","inputs":[{"name":"repayAmount","type":"uint256","internalType":"uint256"}],"outputs":[{"name":"","type":"uint256","internalType":"uint256"}],"stateMutability":"nonpayable"},{"type":"function","name":"repayBehalf","inputs":[{"name":"borrower","type":"address","internalType":"address"},{"name":"repayAmount","type":"uint256","internalType":"uint256"}],"outputs":[{"name":"","type":"uint256","internalType":"uint256"}],"stateMutability":"nonpayable"},{"type":"function","name":"reserveFactorMantissa","inputs":[],"outputs":[{"name":"","type":"uint256","internalType":"uint256"}],"stateMutability":"view"},{"type":"function","name":"rolesOperator","inputs":[],"outputs":[{"name":"","type":"address","internalType":"contract IRoles"}],"stateMutability":"view"},{"type":"function","name":"seize","inputs":[{"name":"liquidator","type":"address","internalType":"address"},{"name":"borrower","type":"address","internalType":"address"},{"name":"seizeTokens","type":"uint256","internalType":"uint256"}],"outputs":[],"stateMutability":"nonpayable"},{"type":"function","name":"setBorrowRateMaxMantissa","inputs":[{"name":"maxMantissa","type":"uint256","internalType":"uint256"}],"outputs":[],"stateMutability":"nonpayable"},{"type":"function","name":"setInterestRateModel","inputs":[{"name":"newInterestRateModel","type":"address","internalType":"address"}],"outputs":[],"stateMutability":"nonpayable"},{"type":"function","name":"setOperator","inputs":[{"name":"_operator","type":"address","internalType":"address"}],"outputs":[],"stateMutability":"nonpayable"},{"type":"function","name":"setPendingAdmin","inputs":[{"name":"newPendingAdmin","type":"address","internalType":"address payable"}],"outputs":[],"stateMutability":"nonpayable"},{"type":"function","name":"setReserveFactor","inputs":[{"name":"newReserveFactorMantissa","type":"uint256","internalType":"uint256"}],"outputs":[],"stateMutability":"nonpayable"},{"type":"function","name":"setRolesOperator","inputs":[{"name":"_roles","type":"address","internalType":"address"}],"outputs":[],"stateMutability":"nonpayable"},{"type":"function","name":"supplyRatePerBlock","inputs":[],"outputs":[{"name":"","type":"uint256","internalType":"uint256"}],"stateMutability":"view"},{"type":"function","name":"sweepToken","inputs":[{"name":"token","type":"address","internalType":"contract IERC20"},{"name":"amount","type":"uint256","internalType":"uint256"}],"outputs":[],"stateMutability":"nonpayable"},{"type":"function","name":"symbol","inputs":[],"outputs":[{"name":"","type":"string","internalType":"string"}],"stateMutability":"view"},{"type":"function","name":"totalBorrows","inputs":[],"outputs":[{"name":"","type":"uint256","internalType":"uint256"}],"stateMutability":"view"},{"type":"function","name":"totalBorrowsCurrent","inputs":[],"outputs":[{"name":"","type":"uint256","internalType":"uint256"}],"stateMutability":"nonpayable"},{"type":"function","name":"totalReserves","inputs":[],"outputs":[{"name":"","type":"uint256","internalType":"uint256"}],"stateMutability":"view"},{"type":"function","name":"totalSupply","inputs":[],"outputs":[{"name":"","type":"uint256","internalType":"uint256"}],"stateMutability":"view"},{"type":"function","name":"totalUnderlying","inputs":[],"outputs":[{"name":"","type":"uint256","internalType":"uint256"}],"stateMutability":"view"},{"type":"function","name":"transfer","inputs":[{"name":"dst","type":"address","internalType":"address"},{"name":"amount","type":"uint256","internalType":"uint256"}],"outputs":[{"name":"","type":"bool","internalType":"bool"}],"stateMutability":"nonpayable"},{"type":"function","name":"transferFrom","inputs":[{"name":"src","type":"address","internalType":"address"},{"name":"dst","type":"address","internalType":"address"},{"name":"amount","type":"uint256","internalType":"uint256"}],"outputs":[{"name":"","type":"bool","internalType":"bool"}],"stateMutability":"nonpayable"},{"type":"function","name":"underlying","inputs":[],"outputs":[{"name":"","type":"address","internalType":"address"}],"stateMutability":"view"},{"type":"event","name":"AccrueInterest","inputs":[{"name":"cashPrior","type":"uint256","indexed":false,"internalType":"uint256"},{"name":"interestAccumulated","type":"uint256","indexed":false,"internalType":"uint256"},{"name":"borrowIndex","type":"uint256","indexed":false,"internalType":"uint256"},{"name":"totalBorrows","type":"uint256","indexed":false,"internalType":"uint256"}],"anonymous":false},{"type":"event","name":"Approval","inputs":[{"name":"owner","type":"address","indexed":true,"internalType":"address"},{"name":"spender","type":"address","indexed":true,"internalType":"address"},{"name":"amount","type":"uint256","indexed":false,"internalType":"uint256"}],"anonymous":false},{"type":"event","name":"Borrow","inputs":[{"name":"borrower","type":"address","indexed":true,"internalType":"address"},{"name":"borrowAmount","type":"uint256","indexed":false,"internalType":"uint256"},{"name":"accountBorrows","type":"uint256","indexed":false,"internalType":"uint256"},{"name":"totalBorrows","type":"uint256","indexed":false,"internalType":"uint256"}],"anonymous":false},{"type":"event","name":"LiquidateBorrow","inputs":[{"name":"liquidator","type":"address","indexed":true,"internalType":"address"},{"name":"borrower","type":"address","indexed":true,"internalType":"address"},{"name":"repayAmount","type":"uint256","indexed":false,"internalType":"uint256"},{"name":"mTokenCollateral","type":"address","indexed":true,"internalType":"address"},{"name":"seizeTokens","type":"uint256","indexed":false,"internalType":"uint256"}],"anonymous":false},{"type":"event","name":"Mint","inputs":[{"name":"minter","type":"address","indexed":true,"internalType":"address"},{"name":"receiver","type":"address","indexed":true,"internalType":"address"},{"name":"mintAmount","type":"uint256","indexed":false,"internalType":"uint256"},{"name":"mintTokens","type":"uint256","indexed":false,"internalType":"uint256"}],"anonymous":false},{"type":"event","name":"NewBorrowRateMaxMantissa","inputs":[{"name":"oldVal","type":"uint256","indexed":false,"internalType":"uint256"},{"name":"maxMantissa","type":"uint256","indexed":false,"internalType":"uint256"}],"anonymous":false},{"type":"event","name":"NewMarketInterestRateModel","inputs":[{"name":"oldInterestRateModel","type":"address","indexed":true,"internalType":"address"},{"name":"newInterestRateModel","type":"address","indexed":true,"internalType":"address"}],"anonymous":false},{"type":"event","name":"NewOperator","inputs":[{"name":"oldOperator","type":"address","indexed":true,"internalType":"address"},{"name":"newOperator","type":"address","indexed":true,"internalType":"address"}],"anonymous":false},{"type":"event","name":"NewReserveFactor","inputs":[{"name":"oldReserveFactorMantissa","type":"uint256","indexed":false,"internalType":"uint256"},{"name":"newReserveFactorMantissa","type":"uint256","indexed":false,"internalType":"uint256"}],"anonymous":false},{"type":"event","name":"NewRolesOperator","inputs":[{"name":"oldRoles","type":"address","indexed":true,"internalType":"address"},{"name":"newRoles","type":"address","indexed":true,"internalType":"address"}],"anonymous":false},{"type":"event","name":"Redeem","inputs":[{"name":"redeemer","type":"address","indexed":true,"internalType":"address"},{"name":"redeemAmount","type":"uint256","indexed":false,"internalType":"uint256"},{"name":"redeemTokens","type":"uint256","indexed":false,"internalType":"uint256"}],"anonymous":false},{"type":"event","name":"RepayBorrow","inputs":[{"name":"payer","type":"address","indexed":true,"internalType":"address"},{"name":"borrower","type":"address","indexed":true,"internalType":"address"},{"name":"repayAmount","type":"uint256","indexed":false,"internalType":"uint256"},{"name":"accountBorrows","type":"uint256","indexed":false,"internalType":"uint256"},{"name":"totalBorrows","type":"uint256","indexed":false,"internalType":"uint256"}],"anonymous":false},{"type":"event","name":"ReservesAdded","inputs":[{"name":"benefactor","type":"address","indexed":true,"internalType":"address"},{"name":"addAmount","type":"uint256","indexed":false,"internalType":"uint256"},{"name":"newTotalReserves","type":"uint256","indexed":false,"internalType":"uint256"}],"anonymous":false},{"type":"event","name":"ReservesReduced","inputs":[{"name":"admin","type":"address","indexed":true,"internalType":"address"},{"name":"reduceAmount","type":"uint256","indexed":false,"internalType":"uint256"},{"name":"newTotalReserves","type":"uint256","indexed":false,"internalType":"uint256"}],"anonymous":false},{"type":"event","name":"SameChainFlowStateUpdated","inputs":[{"name":"sender","type":"address","indexed":true,"internalType":"address"},{"name":"_oldState","type":"bool","indexed":false,"internalType":"bool"},{"name":"_newState","type":"bool","indexed":false,"internalType":"bool"}],"anonymous":false},{"type":"event","name":"Transfer","inputs":[{"name":"from","type":"address","indexed":true,"internalType":"address"},{"name":"to","type":"address","indexed":true,"internalType":"address"},{"name":"amount","type":"uint256","indexed":false,"internalType":"uint256"}],"anonymous":false},{"type":"event","name":"ZkVerifierUpdated","inputs":[{"name":"oldVerifier","type":"address","indexed":true,"internalType":"address"},{"name":"newVerifier","type":"address","indexed":true,"internalType":"address"}],"anonymous":false},{"type":"error","name":"AddressEmptyCode","inputs":[{"name":"target","type":"address","internalType":"address"}]},{"type":"error","name":"AddressInsufficientBalance","inputs":[{"name":"account","type":"address","internalType":"address"}]},{"type":"error","name":"FailedInnerCall","inputs":[]},{"type":"error","name":"ReentrancyGuardReentrantCall","inputs":[]},{"type":"error","name":"SafeERC20FailedOperation","inputs":[{"name":"token","type":"address","internalType":"address"}]},{"type":"error","name":"mErc20_TokenNotValid","inputs":[]},{"type":"error","name":"mt_AlreadyInitialized","inputs":[]},{"type":"error","name":"mt_BorrowCashNotAvailable","inputs":[]},{"type":"error","name":"mt_BorrowRateTooHigh","inputs":[]},{"type":"error","name":"mt_CollateralBlockTimestampNotValid","inputs":[]},{"type":"error","name":"mt_ExchangeRateNotValid","inputs":[]},{"type":"error","name":"mt_InvalidInput","inputs":[]},{"type":"error","name":"mt_LiquidateSeizeTooMuch","inputs":[]},{"type":"error","name":"mt_MarketMethodNotValid","inputs":[]},{"type":"error","name":"mt_MinAmountNotValid","inputs":[]},{"type":"error","name":"mt_OnlyAdmin","inputs":[]},{"type":"error","name":"mt_OnlyAdminOrRole","inputs":[]},{"type":"error","name":"mt_RedeemCashNotAvailable","inputs":[]},{"type":"error","name":"mt_RedeemEmpty","inputs":[]},{"type":"error","name":"mt_RedeemTransferOutNotPossible","inputs":[]},{"type":"error","name":"mt_ReserveCashNotAvailable","inputs":[]},{"type":"error","name":"mt_ReserveFactorTooHigh","inputs":[]},{"type":"error","name":"mt_SameChainOperationsAreDisabled","inputs":[]},{"type":"error","name":"mt_TransferNotValid","inputs":[]}],"bytecode":{"object":"0x608060405265048c27395000600e5534801561001a57600080fd5b5060405161340c38038061340c83398101604081905261003991610477565b600160135565048c27395000600e55600080546001600160a01b0319163317905561006988888888888888610096565b600080546001600160a01b0319166001600160a01b0392909216919091179055506106d995505050505050565b6100a486868686868661012b565b601480546001600160a01b0319166001600160a01b038916908117909155604080516318160ddd60e01b815290516318160ddd916004808201926020929091908290030181865afa1580156100fd573d6000803e3d6000fd5b505050506040513d601f19601f820116820180604052508101906101219190610550565b5050505050505050565b60085415801561013b5750600954155b6101585760405163544e961960e11b815260040160405180910390fd5b6000841161017957604051631df62a7d60e31b815260040160405180910390fd5b6012849055610187866101d5565b42600855670de0b6b3a76400006009556101a0856102b0565b60046101ac84826105f2565b5060056101b983826105f2565b506006805460ff191660ff929092169190911790555050505050565b806001600160a01b0316634456eda26040518163ffffffff1660e01b8152600401602060405180830381865afa158015610213573d6000803e3d6000fd5b505050506040513d601f19601f8201168201806040525081019061023791906106b0565b61025457604051631ffd35c760e11b815260040160405180910390fd5b6002546040516001600160a01b038084169216907ff1e04d73c4304b5ff164f9d10c7473e2a1593b740674a6107975e2a7001c1e5c90600090a3600280546001600160a01b0319166001600160a01b0392909216919091179055565b806001600160a01b0316632191f92a6040518163ffffffff1660e01b8152600401602060405180830381865afa1580156102ee573d6000803e3d6000fd5b505050506040513d601f19601f8201168201806040525081019061031291906106b0565b61032f57604051631ffd35c760e11b815260040160405180910390fd5b6006546040516001600160a01b0380841692610100900416907fedffc32e068c7c95dfd4bdfd5c4d939a084d6b11c4199eac8436ed234d72f92690600090a3600680546001600160a01b0390921661010002610100600160a81b0319909216919091179055565b6001600160a01b03811681146103ab57600080fd5b50565b634e487b7160e01b600052604160045260246000fd5b600082601f8301126103d557600080fd5b81516001600160401b038111156103ee576103ee6103ae565b604051601f8201601f19908116603f011681016001600160401b038111828210171561041c5761041c6103ae565b60405281815283820160200185101561043457600080fd5b60005b8281101561045357602081860181015183830182015201610437565b506000918101602001919091529392505050565b805161047281610396565b919050565b600080600080600080600080610100898b03121561049457600080fd5b885161049f81610396565b60208a01519098506104b081610396565b60408a01519097506104c181610396565b60608a015160808b015191975095506001600160401b038111156104e457600080fd5b6104f08b828c016103c4565b60a08b015190955090506001600160401b0381111561050e57600080fd5b61051a8b828c016103c4565b60c08b0151909450905060ff8116811461053357600080fd5b915061054160e08a01610467565b90509295985092959890939650565b60006020828403121561056257600080fd5b5051919050565b600181811c9082168061057d57607f821691505b60208210810361059d57634e487b7160e01b600052602260045260246000fd5b50919050565b601f8211156105ed57806000526020600020601f840160051c810160208510156105ca5750805b601f840160051c820191505b818110156105ea57600081556001016105d6565b50505b505050565b81516001600160401b0381111561060b5761060b6103ae565b61061f816106198454610569565b846105a3565b6020601f821160018114610653576000831561063b5750848201515b600019600385901b1c1916600184901b1784556105ea565b600084815260208120601f198516915b828110156106835787850151825560209485019460019092019101610663565b50848210156106a15786840151600019600387901b60f8161c191681555b50505050600190811b01905550565b6000602082840312156106c257600080fd5b815180151581146106d257600080fd5b9392505050565b612d24806106e86000396000f3fe608060405234801561001057600080fd5b50600436106102f15760003560e01c8063836a10401161019d578063c37f68e2116100e9578063e67218cd116100a2578063f3fdb15a1161007c578063f3fdb15a14610671578063f851a44014610689578063f89416ee1461069c578063f8f9da28146106af57600080fd5b8063e67218cd14610642578063e90a182f14610655578063ee27a2f21461066857600080fd5b8063c37f68e2146105a3578063c5ebeaec146105d1578063c70920bc146105e4578063cfa99201146105ed578063db006a75146105f6578063dd62ed3e1461060957600080fd5b8063a6afed9511610156578063ae9d70b011610130578063ae9d70b01461056d578063b2a02ff114610575578063b3ab15fb14610588578063bd6d894d1461059b57600080fd5b8063a6afed9514610549578063a9059cbb14610551578063aa5af0fd1461056457600080fd5b8063836a1040146104ec578063852a12e3146104ff5780638bcd4016146105125780638f840ddd1461052557806395d89b411461052e57806395dd91931461053657600080fd5b8063371fd8e61161025c5780634fecab70116102155780636f307dc3116101ef5780636f307dc31461049557806370a08231146104a857806373acee98146104d15780637821a514146104d957600080fd5b80634fecab701461045c578063570ca7351461046f5780635bdcecb71461048257600080fd5b8063371fd8e6146103ff5780633af9e669146104125780633b1d21a21461042557806347bd37181461042d5780634914c008146104365780634dd18bf51461044957600080fd5b806318160ddd116102ae57806318160ddd1461037e578063182df0f5146103875780631c4469831461038f57806323b872dd146103a257806326782247146103b5578063313ce567146103e057600080fd5b806306fdde03146102f657806307e2795914610314578063095ea7b3146103295780630e18b6811461034c578063173b99041461035457806317bfdfbc1461036b575b600080fd5b6102fe6106b7565b60405161030b9190612a17565b60405180910390f35b610327610322366004612a4a565b610745565b005b61033c610337366004612a78565b610944565b604051901515815260200161030b565b6103276109b1565b61035d60075481565b60405190815260200161030b565b61035d610379366004612aa4565b610a03565b61035d600c5481565b61035d610a2f565b61032761039d366004612a4a565b610a3e565b61033c6103b0366004612ac1565b610adb565b6001546103c8906001600160a01b031681565b6040516001600160a01b03909116815260200161030b565b6006546103ed9060ff1681565b60405160ff909116815260200161030b565b61035d61040d366004612a4a565b610b05565b61035d610420366004612aa4565b610b12565b61035d610b51565b61035d600a5481565b610327610444366004612b02565b610b5c565b610327610457366004612aa4565b610b6f565b6003546103c8906001600160a01b031681565b6002546103c8906001600160a01b031681565b61035d610490366004612a78565b610bbc565b6014546103c8906001600160a01b031681565b61035d6104b6366004612aa4565b6001600160a01b031660009081526010602052604090205490565b61035d610bca565b6103276104e7366004612a4a565b610bed565b6103276104fa366004612b44565b610bf6565b61032761050d366004612a4a565b610c04565b610327610520366004612aa4565b610c10565b61035d600b5481565b6102fe610c4c565b61035d610544366004612aa4565b610c59565b610327610c64565b61033c61055f366004612a78565b610c6e565b61035d60095481565b61035d610c91565b610327610583366004612ac1565b610d30565b610327610596366004612aa4565b610d4e565b61035d610d82565b6105b66105b1366004612aa4565b610da8565b6040805193845260208401929092529082015260600161030b565b6103276105df366004612a4a565b610de3565b61035d600d5481565b61035d60085481565b610327610604366004612a4a565b610def565b61035d610617366004612b6b565b6001600160a01b03918216600090815260116020908152604080832093909416825291909152205490565b610327610650366004612a4a565b610dff565b610327610663366004612a78565b610e7f565b61035d600e5481565b6006546103c89061010090046001600160a01b031681565b6000546103c8906001600160a01b031681565b6103276106aa366004612aa4565b610ef3565b61035d610fa1565b600480546106c490612ba4565b80601f01602080910402602001604051908101604052809291908181526020018280546106f090612ba4565b801561073d5780601f106107125761010080835404028352916020019161073d565b820191906000526020600020905b81548152906001019060200180831161072057829003601f168201915b505050505081565b61074d610ffb565b6000546001600160a01b03163314806108455750600354604080516306b8e39760e51b815290516001600160a01b03909216916338dd8c2c913391849163d71c72e09160048083019260209291908290030181865afa1580156107b4573d6000803e3d6000fd5b505050506040513d601f19601f820116820180604052508101906107d89190612bde565b6040516001600160e01b031960e085901b1681526001600160a01b0390921660048301526024820152604401602060405180830381865afa158015610821573d6000803e3d6000fd5b505050506040513d601f19601f820116820180604052508101906108459190612bf7565b610862576040516323595c3360e01b815260040160405180910390fd5b61086a611025565b80610874600d5490565b10156108935760405163f304e85f60e01b815260040160405180910390fd5b600b548111156108b65760405163f304e85f60e01b815260040160405180910390fd5b600081600b546108c69190612c2f565b600b81905590506108d733836111e0565b81600d60008282546108e99190612c2f565b909155505060005460408051848152602081018490526001600160a01b03909216917f3bad0c59cf2f06e7314077049f48a93578cd16f5ef92329f1dab1420a99c177e910160405180910390a2506109416001601355565b50565b3360008181526011602090815260408083206001600160a01b038716808552925280832085905551919290917f8c5be1e5ebec7d5bd14f71427d1e84f3dd0314c0f7b2291e5b200ac8c7c3b9259061099f9086815260200190565b60405180910390a35060015b92915050565b6001546001600160a01b031633146109dc5760405163c7c2adf560e01b815260040160405180910390fd5b60018054600080546001600160a01b03199081166001600160a01b03841617909155169055565b6000610a0d610ffb565b610a15611025565b610a1e826111f7565b9050610a2a6001601355565b919050565b6000610a3961124b565b905090565b6000546001600160a01b03163314610a695760405163c7c2adf560e01b815260040160405180910390fd5b610a71611025565b670de0b6b3a7640000811115610a9a5760405163335784c960e21b815260040160405180910390fd5b60075460408051918252602082018390527faaa68312e2ea9d50e16af5068410ab56e1a1fd06037b1a35664812c30f821460910160405180910390a1600755565b6000610ae5610ffb565b610af1338585856112b4565b506001610afe6001601355565b9392505050565b60006109ab8260016114a1565b6000806040518060200160405280610b28610d82565b90526001600160a01b038416600090815260106020526040902054909150610afe9082906114cb565b6000610a39600d5490565b610b6a3384848460016114e3565b505050565b6000546001600160a01b03163314610b9a5760405163c7c2adf560e01b815260040160405180910390fd5b600180546001600160a01b0319166001600160a01b0392909216919091179055565b6000610afe83836001611564565b6000610bd4610ffb565b610bdc611025565b50600a54610bea6001601355565b90565b6109418161158e565b610b6a338385846001611621565b6109413382600161163e565b6000546001600160a01b03163314610c3b5760405163c7c2adf560e01b815260040160405180910390fd5b610c43611025565b61094181611666565b600580546106c490612ba4565b60006109ab826111f7565b610c6c611025565b565b6000610c78610ffb565b610c84333385856112b4565b5060016109ab6001601355565b6006546000906001600160a01b036101009091041663b8168816610cb4600d5490565b600a54600b546007546040516001600160e01b031960e087901b16815260048101949094526024840192909252604483015260648201526084015b602060405180830381865afa158015610d0c573d6000803e3d6000fd5b505050506040513d601f19601f82011682018060405250810190610a399190612bde565b610d38610ffb565b610d443384848461174c565b610b6a6001601355565b6000546001600160a01b03163314610d795760405163c7c2adf560e01b815260040160405180910390fd5b61094181611986565b6000610d8c610ffb565b610d94611025565b610d9c61124b565b9050610bea6001601355565b6001600160a01b03811660009081526010602052604081205481908190610dce856111f7565b610dd661124b565b9250925092509193909250565b61094133826001611a61565b610dfb33826001611a7d565b5050565b6000546001600160a01b03163314610e2a5760405163c7c2adf560e01b815260040160405180910390fd5b600e805490829055600c5415610e4257610e42611025565b60408051828152602081018490527f3ae66e204f1f2ae1bf6ea9ddb0331246f344118a48794bc9351cc730a0486658910160405180910390a15050565b6000546001600160a01b03163314610eaa5760405163c7c2adf560e01b815260040160405180910390fd5b6014546001600160a01b0390811690831603610ed957604051639e14909760e01b815260040160405180910390fd5b600054610dfb906001600160a01b03848116911683611a9c565b6000546001600160a01b03163314610f1e5760405163c7c2adf560e01b815260040160405180910390fd5b6001600160a01b038116610f455760405163092bea3360e31b815260040160405180910390fd5b6003546040516001600160a01b038084169216907f9859cd0a756b5f08366068b791448fb837581d3b8afc097914d88edbc7bff2a390600090a3600380546001600160a01b0319166001600160a01b0392909216919091179055565b6006546000906001600160a01b03610100909104166315f24053610fc4600d5490565b600a54600b546040516001600160e01b031960e086901b168152600481019390935260248301919091526044820152606401610cef565b60026013540361101e57604051633ee5aeb560e01b815260040160405180910390fd5b6002601355565b6008544290818103611035575050565b6000611040600d5490565b600a54600b546009546006546040516315f2405360e01b815260048101869052602481018590526044810184905294955092939192909160009161010090046001600160a01b0316906315f2405390606401602060405180830381865afa1580156110af573d6000803e3d6000fd5b505050506040513d601f19601f820116820180604052508101906110d39190612bde565b600e549091501561110057600e5481111561110057604051628555ab60e81b815260040160405180910390fd5b600061110c8789612c2f565b9050600061112860405180602001604052808581525083611afb565b9050600061113682886114cb565b905060006111448883612c42565b905060006111636040518060200160405280600754815250848a611b2c565b9050600061117285898a611b2c565b60088e90556009819055600a849055600b839055604080518d815260208101879052908101829052606081018590529091507f4dec04e750ca11537cabcd8a9eab06494de08da3735bc8871cd41250e190bc049060800160405180910390a150505050505050505050505050565b601454610dfb906001600160a01b03168383611a9c565b6001600160a01b0381166000908152600f60205260408120805482036112205750600092915050565b600954815460009161123191612c55565b90508160010154816112439190612c6c565b949350505050565b600c5460009080820361126057505060125490565b600061126b600d5490565b90506000600b54600a54836112809190612c42565b61128a9190612c2f565b90506000836112a1670de0b6b3a764000084612c55565b6112ab9190612c6c565b95945050505050565b600254604051630bdf890760e11b81523060048201526001600160a01b038581166024830152848116604483015260648201849052909116906317bf120e90608401600060405180830381600087803b15801561131057600080fd5b505af1158015611324573d6000803e3d6000fd5b50505050816001600160a01b0316836001600160a01b03160361135a57604051639beb5adb60e01b815260040160405180910390fd5b6000836001600160a01b0316856001600160a01b03160361137e57506000196113a6565b506001600160a01b038084166000908152601160209081526040808320938816835292905220545b60006113b28383612c2f565b6001600160a01b038616600090815260106020526040812054919250906113da908590612c2f565b6001600160a01b03861660009081526010602052604081205491925090611402908690612c42565b6001600160a01b038089166000908152601060205260408082208690559189168152208190559050600019841461145c576001600160a01b038088166000908152601160209081526040808320938c168352929052208390555b856001600160a01b0316876001600160a01b0316600080516020612ccf8339815191528760405161148f91815260200190565b60405180910390a35050505050505050565b60006114ab610ffb565b6114b3611025565b6114bf33338585611b4d565b90506109ab6001601355565b6000806114d88484611afb565b905061124381611ca6565b6114eb610ffb565b6114f3611025565b816001600160a01b031663a6afed956040518163ffffffff1660e01b8152600401600060405180830381600087803b15801561152e57600080fd5b505af1158015611542573d6000803e3d6000fd5b505050506115538585858585611cbe565b61155d6001601355565b5050505050565b600061156e610ffb565b611576611025565b61158233858585611b4d565b9050610afe6001601355565b611596610ffb565b61159e611025565b6000806115ab338461201c565b905080600d60008282546115bf9190612c42565b9091555050600b546115d2908290612c42565b600b819055604080518381526020810183905291935033917fa91e67c5ea634cd43a12c5a482724b03de01e85ca68702a53d0c2f45cb7c1dc5910160405180910390a250506109416001601355565b611629610ffb565b611631611025565b6115538585858585612121565b611646610ffb565b61164e611025565b61165b836000848461244f565b50610b6a6001601355565b806001600160a01b0316632191f92a6040518163ffffffff1660e01b8152600401602060405180830381865afa1580156116a4573d6000803e3d6000fd5b505050506040513d601f19601f820116820180604052508101906116c89190612bf7565b6116e557604051631ffd35c760e11b815260040160405180910390fd5b6006546040516001600160a01b0380841692610100900416907fedffc32e068c7c95dfd4bdfd5c4d939a084d6b11c4199eac8436ed234d72f92690600090a3600680546001600160a01b0390921661010002610100600160a81b0319909216919091179055565b600254604051636765dff960e01b81523060048201526001600160a01b0386811660248301528581166044830152848116606483015290911690636765dff990608401600060405180830381600087803b1580156117a957600080fd5b505af11580156117bd573d6000803e3d6000fd5b50505050826001600160a01b0316826001600160a01b0316036117f35760405163092bea3360e31b815260040160405180910390fd5b6000611814826040518060200160405280666379da05b60000815250612667565b905060006118228284612c2f565b90506000604051806020016040528061183961124b565b90529050600061184982856114cb565b9050600081600b5461185b9190612c42565b600b819055600c54909150611871908690612c2f565b600c556001600160a01b038716600090815260106020526040902054611898908790612c2f565b6001600160a01b0380891660009081526010602052604080822093909355908a16815220546118c8908590612c42565b6001600160a01b03808a166000818152601060205260409081902093909355915190891690600080516020612ccf8339815191529061190a9088815260200190565b60405180910390a360405185815230906001600160a01b03891690600080516020612ccf8339815191529060200160405180910390a3604080518381526020810183905230917fa91e67c5ea634cd43a12c5a482724b03de01e85ca68702a53d0c2f45cb7c1dc5910160405180910390a2505050505050505050565b806001600160a01b0316634456eda26040518163ffffffff1660e01b8152600401602060405180830381865afa1580156119c4573d6000803e3d6000fd5b505050506040513d601f19601f820116820180604052508101906119e89190612bf7565b611a0557604051631ffd35c760e11b815260040160405180910390fd5b6002546040516001600160a01b038084169216907ff1e04d73c4304b5ff164f9d10c7473e2a1593b740674a6107975e2a7001c1e5c90600090a3600280546001600160a01b0319166001600160a01b0392909216919091179055565b611a69610ffb565b611a71611025565b610d448384848461268a565b6000611a87610ffb565b611a8f611025565b611582848460008561244f565b6040516001600160a01b03838116602483015260448201839052610b6a91859182169063a9059cbb906064015b604051602081830303815290604052915060e01b6020820180516001600160e01b0383818316178352505050506127eb565b6040805160208101909152600081526040518060200160405280611b23856000015185612853565b90529392505050565b600080611b398585611afb565b90506112ab611b4782611ca6565b8461285f565b6002546040516330c87ef360e21b81523060048201526001600160a01b038581166024830152600092169063c321fbcc90604401600060405180830381600087803b158015611b9b57600080fd5b505af1158015611baf573d6000803e3d6000fd5b505050506000611bbe856111f7565b905060006000198514611bd15784611bd3565b815b9050600084611be25781611bec565b611bec888361201c565b905080600d6000828254611c009190612c42565b9091555060009050611c128285612c2f565b9050600082600a54611c249190612c2f565b6001600160a01b038a81166000818152600f6020908152604091829020878155600954600190910155600a859055815188815290810187905290810184905292935091908c16907f1a2a22cb034d26d1854bdc6666a5b91fe25efbbb5dcad3b0355478d6f5c362a19060600160405180910390a3509098975050505050505050565b80516000906109ab90670de0b6b3a764000090612c6c565b846001600160a01b0316846001600160a01b031603611cf05760405163092bea3360e31b815260040160405180910390fd5b600083118015611d0257506000198314155b611d1f5760405163092bea3360e31b815260040160405180910390fd5b600254604051635a8673b160e11b81523060048201526001600160a01b0384811660248301528681166044830152606482018690529091169063b50ce7629060840160006040518083038186803b158015611d7957600080fd5b505afa158015611d8d573d6000803e3d6000fd5b50505050611d984290565b826001600160a01b031663cfa992016040518163ffffffff1660e01b8152600401602060405180830381865afa158015611dd6573d6000803e3d6000fd5b505050506040513d601f19601f82011682018060405250810190611dfa9190612bde565b14611e1857604051632a3cdfc560e11b815260040160405180910390fd5b6000611e2686868685611b4d565b60025460405163c488847b60e01b81529192506000916001600160a01b039091169063c488847b90611e6090309088908790600401612c8e565b602060405180830381865afa158015611e7d573d6000803e3d6000fd5b505050506040513d601f19601f82011682018060405250810190611ea19190612bde565b6040516370a0823160e01b81526001600160a01b03888116600483015291925082918616906370a0823190602401602060405180830381865afa158015611eec573d6000803e3d6000fd5b505050506040513d601f19601f82011682018060405250810190611f109190612bde565b1015611f2f57604051637b664f8d60e01b815260040160405180910390fd5b306001600160a01b03851603611f5057611f4b3088888461174c565b611fb3565b60405163b2a02ff160e01b81526001600160a01b0385169063b2a02ff190611f80908a908a908690600401612c8e565b600060405180830381600087803b158015611f9a57600080fd5b505af1158015611fae573d6000803e3d6000fd5b505050505b836001600160a01b0316866001600160a01b0316886001600160a01b03167f298637f684da70674f26509b10f07ec2fbc77a335ab1e7d6215a4b2484d8bb52858560405161200b929190918252602082015260400190565b60405180910390a450505050505050565b6014546040516370a0823160e01b815230600482015260009182916001600160a01b03909116906370a0823190602401602060405180830381865afa158015612069573d6000803e3d6000fd5b505050506040513d601f19601f8201168201806040525081019061208d9190612bde565b6014549091506120a8906001600160a01b031685308661286b565b6014546040516370a0823160e01b81523060048201526000916001600160a01b0316906370a0823190602401602060405180830381865afa1580156120f1573d6000803e3d6000fd5b505050506040513d601f19601f820116820180604052508101906121159190612bde565b90506112ab8282612c2f565b60025460405163c0f1ee0960e01b81523060048201526001600160a01b0387811660248301529091169063c0f1ee0990604401600060405180830381600087803b15801561216e57600080fd5b505af1158015612182573d6000803e3d6000fd5b505050506000604051806020016040528061219b61124b565b905290506000826121ac57846121b6565b6121b6878661201c565b905080600d60008282546121ca9190612c42565b90915550600090506121dc8284612899565b9050848110156121ff57604051633e4cf5e360e21b815260040160405180910390fd5b600c5460000361224b576103e8600c8190556000805260106020527f6e0956cda88cad152e89927e53611735b61a5c762d1428573c6931b0a5efcb018190556122489082612c2f565b90505b80600c546122599190612c42565b600c556001600160a01b038716600090815260106020526040902054612280908290612c42565b6001600160a01b038881166000818152601060209081526040918290209490945580518681529384018590529092918b16917f2f00e3cdd69a77be7ed215ec7b2a36784dd158f921fca79ac29deffa353fe6ee910160405180910390a36040518181526001600160a01b038816903090600080516020612ccf8339815191529060200160405180910390a36002546040516301b24df960e31b81523060048201526001600160a01b0390911690630d926fc89060240160006040518083038186803b15801561234e57600080fd5b505afa158015612362573d6000803e3d6000fd5b505060025460405163929fe9a160e01b81526001600160a01b038c8116600483015230602483015260009450909116915063929fe9a190604401602060405180830381865afa1580156123b9573d6000803e3d6000fd5b505050506040513d601f19601f820116820180604052508101906123dd9190612bf7565b9050806124445760025460405163973fd52160e01b81526001600160a01b038b811660048301529091169063973fd52190602401600060405180830381600087803b15801561242b57600080fd5b505af115801561243f573d6000803e3d6000fd5b505050505b505050505050505050565b600083158061245c575082155b6124795760405163092bea3360e31b815260040160405180910390fd5b6000604051806020016040528061248e61124b565b90529050600085156124ad5750846124a682826114cb565b92506124bd565b6124b78583612899565b90508492505b801580156124c9575082155b156124e757604051630b8e1f4560e01b815260040160405180910390fd5b600254604051631e32bd9b60e01b81526001600160a01b0390911690631e32bd9b9061251b9030908b908690600401612c8e565b600060405180830381600087803b15801561253557600080fd5b505af1158015612549573d6000803e3d6000fd5b5050505082612557600d5490565b1015612576576040516305f16d0d60e11b815260040160405180910390fd5b80600c546125849190612c2f565b600c556001600160a01b0387166000908152601060205260409020546125ab908290612c2f565b6001600160a01b03881660009081526010602052604090205583156125d4576125d487846111e0565b82600d60008282546125e69190612c2f565b909155505060405181815230906001600160a01b03891690600080516020612ccf8339815191529060200160405180910390a360408051848152602081018390526001600160a01b038916917fe5b754fb1abb7f01b499791d0b820ae3b6af3424ac1c59768edb53f4ec31a929910160405180910390a25050949350505050565b6000670de0b6b3a7640000612680848460000151612853565b610afe9190612c6c565b60025460405163283cafc560e11b81526001600160a01b03909116906350795f8a906126be90309088908790600401612c8e565b600060405180830381600087803b1580156126d857600080fd5b505af11580156126ec573d6000803e3d6000fd5b50505050816126fa600d5490565b101561271957604051631eb2837b60e01b815260040160405180910390fd5b6000612724856111f7565b905060006127328483612c42565b9050600084600a546127449190612c42565b6001600160a01b0388166000908152600f60205260409020838155600954600190910155600a8190559050831561277f5761277f86866111e0565b84600d60008282546127919190612c2f565b909155505060408051868152602081018490529081018290526001600160a01b038816907f13ed6866d4e1ee6da46f845c46d7e54120883d75c5ea9a2dacc1c4ca8984ab809060600160405180910390a250505050505050565b60006128006001600160a01b038416836128b7565b905080516000141580156128255750808060200190518101906128239190612bf7565b155b15610b6a57604051635274afe760e01b81526001600160a01b03841660048201526024015b60405180910390fd5b6000610afe8284612c55565b6000610afe8284612c42565b61289384856001600160a01b03166323b872dd868686604051602401611ac993929190612c8e565b50505050565b6000610afe6128b084670de0b6b3a7640000612853565b83516128c5565b6060610afe838360006128d1565b6000610afe8284612c6c565b6060814710156128f65760405163cd78605960e01b815230600482015260240161284a565b600080856001600160a01b031684866040516129129190612cb2565b60006040518083038185875af1925050503d806000811461294f576040519150601f19603f3d011682016040523d82523d6000602084013e612954565b606091505b509150915061296486838361296e565b9695505050505050565b6060826129835761297e826129ca565b610afe565b815115801561299a57506001600160a01b0384163b155b156129c357604051639996b31560e01b81526001600160a01b038516600482015260240161284a565b5080610afe565b8051156129da5780518082602001fd5b604051630a12f52160e11b815260040160405180910390fd5b60005b83811015612a0e5781810151838201526020016129f6565b50506000910152565b6020815260008251806020840152612a368160408501602087016129f3565b601f01601f19169190910160400192915050565b600060208284031215612a5c57600080fd5b5035919050565b6001600160a01b038116811461094157600080fd5b60008060408385031215612a8b57600080fd5b8235612a9681612a63565b946020939093013593505050565b600060208284031215612ab657600080fd5b8135610afe81612a63565b600080600060608486031215612ad657600080fd5b8335612ae181612a63565b92506020840135612af181612a63565b929592945050506040919091013590565b600080600060608486031215612b1757600080fd5b8335612b2281612a63565b9250602084013591506040840135612b3981612a63565b809150509250925092565b600080600060608486031215612b5957600080fd5b833592506020840135612af181612a63565b60008060408385031215612b7e57600080fd5b8235612b8981612a63565b91506020830135612b9981612a63565b809150509250929050565b600181811c90821680612bb857607f821691505b602082108103612bd857634e487b7160e01b600052602260045260246000fd5b50919050565b600060208284031215612bf057600080fd5b5051919050565b600060208284031215612c0957600080fd5b81518015158114610afe57600080fd5b634e487b7160e01b600052601160045260246000fd5b818103818111156109ab576109ab612c19565b808201808211156109ab576109ab612c19565b80820281158282048414176109ab576109ab612c19565b600082612c8957634e487b7160e01b600052601260045260246000fd5b500490565b6001600160a01b039384168152919092166020820152604081019190915260600190565b60008251612cc48184602087016129f3565b919091019291505056feddf252ad1be2c89b69c2b068fc378daa952ba7f163c4a11628f55a4df523b3efa26469706673582212203efc0615233be7702d911d6a9d874a08308681c4b7e64241bb343328e3baa5ff64736f6c634300081c0033","linkReferences":{}},"methodIdentifiers":{"acceptAdmin()":"0e18b681","accrualBlockTimestamp()":"cfa99201","accrueInterest()":"a6afed95","addReserves(uint256)":"7821a514","admin()":"f851a440","allowance(address,address)":"dd62ed3e","approve(address,uint256)":"095ea7b3","balanceOf(address)":"70a08231","balanceOfUnderlying(address)":"3af9e669","borrow(uint256)":"c5ebeaec","borrowBalanceCurrent(address)":"17bfdfbc","borrowBalanceStored(address)":"95dd9193","borrowIndex()":"aa5af0fd","borrowRateMaxMantissa()":"ee27a2f2","borrowRatePerBlock()":"f8f9da28","decimals()":"313ce567","exchangeRateCurrent()":"bd6d894d","exchangeRateStored()":"182df0f5","getAccountSnapshot(address)":"c37f68e2","getCash()":"3b1d21a2","interestRateModel()":"f3fdb15a","liquidate(address,uint256,address)":"4914c008","mint(uint256,address,uint256)":"836a1040","name()":"06fdde03","operator()":"570ca735","pendingAdmin()":"26782247","redeem(uint256)":"db006a75","redeemUnderlying(uint256)":"852a12e3","reduceReserves(uint256)":"07e27959","repay(uint256)":"371fd8e6","repayBehalf(address,uint256)":"5bdcecb7","reserveFactorMantissa()":"173b9904","rolesOperator()":"4fecab70","seize(address,address,uint256)":"b2a02ff1","setBorrowRateMaxMantissa(uint256)":"e67218cd","setInterestRateModel(address)":"8bcd4016","setOperator(address)":"b3ab15fb","setPendingAdmin(address)":"4dd18bf5","setReserveFactor(uint256)":"1c446983","setRolesOperator(address)":"f89416ee","supplyRatePerBlock()":"ae9d70b0","sweepToken(address,uint256)":"e90a182f","symbol()":"95d89b41","totalBorrows()":"47bd3718","totalBorrowsCurrent()":"73acee98","totalReserves()":"8f840ddd","totalSupply()":"18160ddd","totalUnderlying()":"c70920bc","transfer(address,uint256)":"a9059cbb","transferFrom(address,address,uint256)":"23b872dd","underlying()":"6f307dc3"},"id":97}