{"abi":[{"type":"constructor","inputs":[{"name":"symbols_","type":"string[]","internalType":"string[]"},{"name":"configs_","type":"tuple[]","internalType":"struct IDefaultAdapter.PriceConfig[]","components":[{"name":"defaultFeed","type":"address","internalType":"address"},{"name":"toSymbol","type":"string","internalType":"string"},{"name":"underlyingDecimals","type":"uint256","internalType":"uint256"}]},{"name":"roles_","type":"address","internalType":"address"},{"name":"stalenessPeriod_","type":"uint256","internalType":"uint256"}],"stateMutability":"nonpayable"},{"type":"function","name":"STALENESS_PERIOD","inputs":[],"outputs":[{"name":"","type":"uint256","internalType":"uint256"}],"stateMutability":"view"},{"type":"function","name":"configs","inputs":[{"name":"","type":"string","internalType":"string"}],"outputs":[{"name":"defaultFeed","type":"address","internalType":"address"},{"name":"toSymbol","type":"string","internalType":"string"},{"name":"underlyingDecimals","type":"uint256","internalType":"uint256"}],"stateMutability":"view"},{"type":"function","name":"getPrice","inputs":[{"name":"mToken","type":"address","internalType":"address"}],"outputs":[{"name":"","type":"uint256","internalType":"uint256"}],"stateMutability":"view"},{"type":"function","name":"getUnderlyingPrice","inputs":[{"name":"mToken","type":"address","internalType":"address"}],"outputs":[{"name":"","type":"uint256","internalType":"uint256"}],"stateMutability":"view"},{"type":"function","name":"roles","inputs":[],"outputs":[{"name":"","type":"address","internalType":"contract IRoles"}],"stateMutability":"view"},{"type":"function","name":"setConfig","inputs":[{"name":"symbol","type":"string","internalType":"string"},{"name":"config","type":"tuple","internalType":"struct IDefaultAdapter.PriceConfig","components":[{"name":"defaultFeed","type":"address","internalType":"address"},{"name":"toSymbol","type":"string","internalType":"string"},{"name":"underlyingDecimals","type":"uint256","internalType":"uint256"}]}],"outputs":[],"stateMutability":"nonpayable"},{"type":"function","name":"setStaleness","inputs":[{"name":"symbol","type":"string","internalType":"string"},{"name":"val","type":"uint256","internalType":"uint256"}],"outputs":[],"stateMutability":"nonpayable"},{"type":"function","name":"stalenessPerSymbol","inputs":[{"name":"","type":"string","internalType":"string"}],"outputs":[{"name":"","type":"uint256","internalType":"uint256"}],"stateMutability":"view"},{"type":"event","name":"ConfigSet","inputs":[{"name":"symbol","type":"string","indexed":false,"internalType":"string"},{"name":"config","type":"tuple","indexed":false,"internalType":"struct IDefaultAdapter.PriceConfig","components":[{"name":"defaultFeed","type":"address","internalType":"address"},{"name":"toSymbol","type":"string","internalType":"string"},{"name":"underlyingDecimals","type":"uint256","internalType":"uint256"}]}],"anonymous":false},{"type":"event","name":"StalenessUpdated","inputs":[{"name":"symbol","type":"string","indexed":false,"internalType":"string"},{"name":"val","type":"uint256","indexed":false,"internalType":"uint256"}],"anonymous":false},{"type":"error","name":"MixedPriceOracle_InvalidConfig","inputs":[]},{"type":"error","name":"MixedPriceOracle_InvalidPrice","inputs":[]},{"type":"error","name":"MixedPriceOracle_InvalidRound","inputs":[]},{"type":"error","name":"MixedPriceOracle_StalePrice","inputs":[]},{"type":"error","name":"MixedPriceOracle_Unauthorized","inputs":[]}],"bytecode":{"object":"0x60c060405234801561001057600080fd5b5060405161194238038061194283398101604081905261002f91610312565b6001600160a01b03821660a05260005b84518110156100e05783818151811061005a5761005a61040c565b602002602001015160008683815181106100765761007661040c565b602002602001015160405161008b9190610422565b90815260405160209181900382019020825181546001600160a01b0319166001600160a01b039091161781559082015160018201906100ca90826104c7565b506040919091015160029091015560010161003f565b5060805250610585915050565b634e487b7160e01b600052604160045260246000fd5b604051606081016001600160401b0381118282101715610125576101256100ed565b60405290565b604051601f8201601f191681016001600160401b0381118282101715610153576101536100ed565b604052919050565b60006001600160401b03821115610174576101746100ed565b5060051b60200190565b60005b83811015610199578181015183820152602001610181565b50506000910152565b600082601f8301126101b357600080fd5b81516001600160401b038111156101cc576101cc6100ed565b6101df601f8201601f191660200161012b565b8181528460208386010111156101f457600080fd5b61020582602083016020870161017e565b949350505050565b80516001600160a01b038116811461022457600080fd5b919050565b600082601f83011261023a57600080fd5b815161024d6102488261015b565b61012b565b8082825260208201915060208360051b86010192508583111561026f57600080fd5b602085015b838110156103085780516001600160401b0381111561029257600080fd5b86016060818903601f190112156102a857600080fd5b6102b0610103565b6102bc6020830161020d565b815260408201516001600160401b038111156102d757600080fd5b6102e68a6020838601016101a2565b6020838101919091526060939093015160408301525084529283019201610274565b5095945050505050565b6000806000806080858703121561032857600080fd5b84516001600160401b0381111561033e57600080fd5b8501601f8101871361034f57600080fd5b805161035d6102488261015b565b8082825260208201915060208360051b85010192508983111561037f57600080fd5b602084015b838110156103c05780516001600160401b038111156103a257600080fd5b6103b18c6020838901016101a2565b84525060209283019201610384565b506020890151909750925050506001600160401b038111156103e157600080fd5b6103ed87828801610229565b9350506103fc6040860161020d565b6060959095015193969295505050565b634e487b7160e01b600052603260045260246000fd5b6000825161043481846020870161017e565b9190910192915050565b600181811c9082168061045257607f821691505b60208210810361047257634e487b7160e01b600052602260045260246000fd5b50919050565b601f8211156104c257806000526020600020601f840160051c8101602085101561049f5750805b601f840160051c820191505b818110156104bf57600081556001016104ab565b50505b505050565b81516001600160401b038111156104e0576104e06100ed565b6104f4816104ee845461043e565b84610478565b6020601f82116001811461052857600083156105105750848201515b600019600385901b1c1916600184901b1784556104bf565b600084815260208120601f198516915b828110156105585787850151825560209485019460019092019101610538565b50848210156105765786840151600019600387901b60f8161c191681555b50505050600190811b01905550565b60805160a0516113776105cb6000396000818160f7015281816102de0152818161030e015281816104da015261050a01526000818160920152610ba301526113776000f3fe608060405234801561001057600080fd5b50600436106100885760003560e01c80635ef7fbad1161005b5780635ef7fbad14610144578063909d048114610166578063c86e86851461017b578063fc57d4df1461018e57600080fd5b806324c9477a1461008d5780632ab77c57146100c7578063392f5f64146100f257806341976e0914610131575b600080fd5b6100b47f000000000000000000000000000000000000000000000000000000000000000081565b6040519081526020015b60405180910390f35b6100b46100d5366004610cbb565b805160208183018101805160018252928201919093012091525481565b6101197f000000000000000000000000000000000000000000000000000000000000000081565b6040516001600160a01b0390911681526020016100be565b6100b461013f366004610d10565b6101a1565b610157610152366004610cbb565b61021c565b6040516100be93929190610d7d565b610179610174366004610db1565b6102dc565b005b610179610189366004610e6f565b6104d8565b6100b461019c366004610d10565b610667565b600080826001600160a01b03166395d89b416040518163ffffffff1660e01b8152600401600060405180830381865afa1580156101e2573d6000803e3d6000fd5b505050506040513d6000823e601f3d908101601f1916820160405261020a9190810190610eb4565b905061021581610847565b9392505050565b8051602081830181018051600082529282019190930120915280546001820180546001600160a01b03909216929161025390610f22565b80601f016020809104026020016040519081016040528092919081815260200182805461027f90610f22565b80156102cc5780601f106102a1576101008083540402835291602001916102cc565b820191906000526020600020905b8154815290600101906020018083116102af57829003601f168201915b5050505050908060020154905083565b7f00000000000000000000000000000000000000000000000000000000000000006001600160a01b03166338dd8c2c337f00000000000000000000000000000000000000000000000000000000000000006001600160a01b0316637f3c8ff56040518163ffffffff1660e01b8152600401602060405180830381865afa15801561036a573d6000803e3d6000fd5b505050506040513d601f19601f8201168201806040525081019061038e9190610f5c565b6040516001600160e01b031960e085901b1681526001600160a01b0390921660048301526024820152604401602060405180830381865afa1580156103d7573d6000803e3d6000fd5b505050506040513d601f19601f820116820180604052508101906103fb9190610f75565b610418576040516307eb074d60e01b815260040160405180910390fd5b80516001600160a01b031661043f576040516204ea5f60e61b815260040160405180910390fd5b806000836040516104509190610f97565b90815260405160209181900382019020825181546001600160a01b0319166001600160a01b0390911617815590820151600182019061048f9082611002565b50604091820151600290910155517fcd168315f4476cc88255c37eac3c06949db1e48f500390e24f9b988fc2a95497906104cc90849084906110c1565b60405180910390a15050565b7f00000000000000000000000000000000000000000000000000000000000000006001600160a01b03166338dd8c2c337f00000000000000000000000000000000000000000000000000000000000000006001600160a01b0316637f3c8ff56040518163ffffffff1660e01b8152600401602060405180830381865afa158015610566573d6000803e3d6000fd5b505050506040513d601f19601f8201168201806040525081019061058a9190610f5c565b6040516001600160e01b031960e085901b1681526001600160a01b0390921660048301526024820152604401602060405180830381865afa1580156105d3573d6000803e3d6000fd5b505050506040513d601f19601f820116820180604052508101906105f79190610f75565b610614576040516307eb074d60e01b815260040160405180910390fd5b806001836040516106259190610f97565b9081526020016040518091039020819055507e6ebc2a07d9cbde1f5c02f38e4224748a98286f396f9329f8c9bf03b4af1ed582826040516104cc929190611119565b600080826001600160a01b0316636f307dc36040518163ffffffff1660e01b8152600401602060405180830381865afa1580156106a8573d6000803e3d6000fd5b505050506040513d601f19601f820116820180604052508101906106cc919061113b565b6001600160a01b03166395d89b416040518163ffffffff1660e01b8152600401600060405180830381865afa158015610709573d6000803e3d6000fd5b505050506040513d6000823e601f3d908101601f191682016040526107319190810190610eb4565b9050600080826040516107449190610f97565b9081526040805191829003602090810183206060840190925281546001600160a01b031683526001820180549184019161077d90610f22565b80601f01602080910402602001604051908101604052809291908181526020018280546107a990610f22565b80156107f65780601f106107cb576101008083540402835291602001916107f6565b820191906000526020600020905b8154815290600101906020018083116107d957829003601f168201915b505050505081526020016002820154815250509050600061081683610847565b905081604001516012610829919061116e565b61083490600a611268565b61083e9082611274565b95945050505050565b60008060008360405161085a9190610f97565b9081526040805191829003602090810183206060840190925281546001600160a01b031683526001820180549184019161089390610f22565b80601f01602080910402602001604051908101604052809291908181526020018280546108bf90610f22565b801561090c5780601f106108e15761010080835404028352916020019161090c565b820191906000526020600020905b8154815290600101906020018083116108ef57829003601f168201915b50505050508152602001600282015481525050905060008061092e85846109e4565b9092509050600061094082601261116e565b61094b90600a611268565b6109559084611274565b604051621554d160ea1b60208201529091506023016040516020818303038152906040528051906020012084602001516040516020016109959190610f97565b604051602081830303815290604052805190602001201461083e57670de0b6b3a76400006109c68560200151610847565b6109d09083611274565b6109da919061128b565b9695505050505050565b805160009081906001600160a01b0316610a385760405162461bcd60e51b81526020600482015260116024820152701b5a5cdcda5b99c81c1c9a58d951995959607a1b604482015260640160405180910390fd5b600083600001519050600080826001600160a01b031663feaf968c6040518163ffffffff1660e01b815260040160a060405180830381865afa158015610a82573d6000803e3d6000fd5b505050506040513d601f19601f82011682018060405250810190610aa691906112cc565b5093505092505060008213610ace57604051630cdda18b60e31b815260040160405180910390fd5b610ad787610b75565b610ae1824261116e565b10610aff576040516353a4bc9f60e11b815260040160405180910390fd5b6000836001600160a01b031663313ce5676040518163ffffffff1660e01b8152600401602060405180830381865afa158015610b3f573d6000803e3d6000fd5b505050506040513d601f19601f82011682018060405250810190610b63919061131e565b929550505060ff169150509250929050565b600080600183604051610b889190610f97565b908152602001604051809103902054905060008111610bc7577f0000000000000000000000000000000000000000000000000000000000000000610215565b92915050565b634e487b7160e01b600052604160045260246000fd5b6040516060810167ffffffffffffffff81118282101715610c0657610c06610bcd565b60405290565b604051601f8201601f1916810167ffffffffffffffff81118282101715610c3557610c35610bcd565b604052919050565b600067ffffffffffffffff821115610c5757610c57610bcd565b50601f01601f191660200190565b600082601f830112610c7657600080fd5b8135610c89610c8482610c3d565b610c0c565b818152846020838601011115610c9e57600080fd5b816020850160208301376000918101602001919091529392505050565b600060208284031215610ccd57600080fd5b813567ffffffffffffffff811115610ce457600080fd5b610cf084828501610c65565b949350505050565b6001600160a01b0381168114610d0d57600080fd5b50565b600060208284031215610d2257600080fd5b813561021581610cf8565b60005b83811015610d48578181015183820152602001610d30565b50506000910152565b60008151808452610d69816020860160208601610d2d565b601f01601f19169290920160200192915050565b6001600160a01b0384168152606060208201819052600090610da190830185610d51565b9050826040830152949350505050565b60008060408385031215610dc457600080fd5b823567ffffffffffffffff811115610ddb57600080fd5b610de785828601610c65565b925050602083013567ffffffffffffffff811115610e0457600080fd5b830160608186031215610e1657600080fd5b610e1e610be3565b8135610e2981610cf8565b8152602082013567ffffffffffffffff811115610e4557600080fd5b610e5187828501610c65565b60208301525060409182013591810191909152919491935090915050565b60008060408385031215610e8257600080fd5b823567ffffffffffffffff811115610e9957600080fd5b610ea585828601610c65565b95602094909401359450505050565b600060208284031215610ec657600080fd5b815167ffffffffffffffff811115610edd57600080fd5b8201601f81018413610eee57600080fd5b8051610efc610c8482610c3d565b818152856020838501011115610f1157600080fd5b61083e826020830160208601610d2d565b600181811c90821680610f3657607f821691505b602082108103610f5657634e487b7160e01b600052602260045260246000fd5b50919050565b600060208284031215610f6e57600080fd5b5051919050565b600060208284031215610f8757600080fd5b8151801515811461021557600080fd5b60008251610fa9818460208701610d2d565b9190910192915050565b601f821115610ffd57806000526020600020601f840160051c81016020851015610fda5750805b601f840160051c820191505b81811015610ffa5760008155600101610fe6565b50505b505050565b815167ffffffffffffffff81111561101c5761101c610bcd565b6110308161102a8454610f22565b84610fb3565b6020601f821160018114611064576000831561104c5750848201515b600019600385901b1c1916600184901b178455610ffa565b600084815260208120601f198516915b828110156110945787850151825560209485019460019092019101611074565b50848210156110b25786840151600019600387901b60f8161c191681555b50505050600190811b01905550565b6040815260006110d46040830185610d51565b828103602084015260018060a01b0384511681526020840151606060208301526111016060830182610d51565b90506040850151604083015280925050509392505050565b60408152600061112c6040830185610d51565b90508260208301529392505050565b60006020828403121561114d57600080fd5b815161021581610cf8565b634e487b7160e01b600052601160045260246000fd5b81810381811115610bc757610bc7611158565b6001815b60018411156111bc578085048111156111a0576111a0611158565b60018416156111ae57908102905b60019390931c928002611185565b935093915050565b6000826111d357506001610bc7565b816111e057506000610bc7565b81600181146111f657600281146112005761121c565b6001915050610bc7565b60ff84111561121157611211611158565b50506001821b610bc7565b5060208310610133831016604e8410600b841016171561123f575081810a610bc7565b61124c6000198484611181565b806000190482111561126057611260611158565b029392505050565b600061021583836111c4565b8082028115828204841417610bc757610bc7611158565b6000826112a857634e487b7160e01b600052601260045260246000fd5b500490565b805169ffffffffffffffffffff811681146112c757600080fd5b919050565b600080600080600060a086880312156112e457600080fd5b6112ed866112ad565b60208701516040880151606089015192975090955093509150611312608087016112ad565b90509295509295909350565b60006020828403121561133057600080fd5b815160ff8116811461021557600080fdfea2646970667358221220928fa00e1ebde46dbc58853ea41fa842dd09184d1e49f767852c02fcf711afa364736f6c634300081c0033","linkReferences":{}},"methodIdentifiers":{"STALENESS_PERIOD()":"24c9477a","configs(string)":"5ef7fbad","getPrice(address)":"41976e09","getUnderlyingPrice(address)":"fc57d4df","roles()":"392f5f64","setConfig(string,(address,string,uint256))":"909d0481","setStaleness(string,uint256)":"c86e8685","stalenessPerSymbol(string)":"2ab77c57"},"id":105}