{"abi":[{"type":"constructor","inputs":[{"name":"_roles","type":"address","internalType":"address"},{"name":"_zkVerifier","type":"address","internalType":"address"},{"name":"_owner","type":"address","internalType":"address"}],"stateMutability":"nonpayable"},{"type":"function","name":"batchProcess","inputs":[{"name":"data","type":"tuple","internalType":"struct BatchSubmitter.BatchProcessMsg","components":[{"name":"receivers","type":"address[]","internalType":"address[]"},{"name":"journalData","type":"bytes","internalType":"bytes"},{"name":"seal","type":"bytes","internalType":"bytes"},{"name":"mTokens","type":"address[]","internalType":"address[]"},{"name":"amounts","type":"uint256[]","internalType":"uint256[]"},{"name":"minAmountsOut","type":"uint256[]","internalType":"uint256[]"},{"name":"selectors","type":"bytes4[]","internalType":"bytes4[]"},{"name":"initHashes","type":"bytes32[]","internalType":"bytes32[]"},{"name":"startIndex","type":"uint256","internalType":"uint256"}]}],"outputs":[],"stateMutability":"nonpayable"},{"type":"function","name":"owner","inputs":[],"outputs":[{"name":"","type":"address","internalType":"address"}],"stateMutability":"view"},{"type":"function","name":"renounceOwnership","inputs":[],"outputs":[],"stateMutability":"nonpayable"},{"type":"function","name":"rolesOperator","inputs":[],"outputs":[{"name":"","type":"address","internalType":"contract IRoles"}],"stateMutability":"view"},{"type":"function","name":"transferOwnership","inputs":[{"name":"newOwner","type":"address","internalType":"address"}],"outputs":[],"stateMutability":"nonpayable"},{"type":"function","name":"updateZkVerifier","inputs":[{"name":"_zkVerifier","type":"address","internalType":"address"}],"outputs":[],"stateMutability":"nonpayable"},{"type":"function","name":"verifier","inputs":[],"outputs":[{"name":"","type":"address","internalType":"contract IZkVerifier"}],"stateMutability":"view"},{"type":"event","name":"BatchProcessFailed","inputs":[{"name":"initHash","type":"bytes32","indexed":false,"internalType":"bytes32"},{"name":"receiver","type":"address","indexed":false,"internalType":"address"},{"name":"mToken","type":"address","indexed":false,"internalType":"address"},{"name":"amount","type":"uint256","indexed":false,"internalType":"uint256"},{"name":"minAmountOut","type":"uint256","indexed":false,"internalType":"uint256"},{"name":"selector","type":"bytes4","indexed":false,"internalType":"bytes4"},{"name":"reason","type":"bytes","indexed":false,"internalType":"bytes"}],"anonymous":false},{"type":"event","name":"BatchProcessSuccess","inputs":[{"name":"initHash","type":"bytes32","indexed":false,"internalType":"bytes32"},{"name":"receiver","type":"address","indexed":false,"internalType":"address"},{"name":"mToken","type":"address","indexed":false,"internalType":"address"},{"name":"amount","type":"uint256","indexed":false,"internalType":"uint256"},{"name":"minAmountOut","type":"uint256","indexed":false,"internalType":"uint256"},{"name":"selector","type":"bytes4","indexed":false,"internalType":"bytes4"}],"anonymous":false},{"type":"event","name":"OwnershipTransferred","inputs":[{"name":"previousOwner","type":"address","indexed":true,"internalType":"address"},{"name":"newOwner","type":"address","indexed":true,"internalType":"address"}],"anonymous":false},{"type":"event","name":"ZkVerifierUpdated","inputs":[{"name":"oldVerifier","type":"address","indexed":true,"internalType":"address"},{"name":"newVerifier","type":"address","indexed":true,"internalType":"address"}],"anonymous":false},{"type":"error","name":"BatchSubmitter_AddressNotValid","inputs":[]},{"type":"error","name":"BatchSubmitter_CallerNotAllowed","inputs":[]},{"type":"error","name":"BatchSubmitter_InvalidSelector","inputs":[]},{"type":"error","name":"BatchSubmitter_JournalNotValid","inputs":[]},{"type":"error","name":"OwnableInvalidOwner","inputs":[{"name":"owner","type":"address","internalType":"address"}]},{"type":"error","name":"OwnableUnauthorizedAccount","inputs":[{"name":"account","type":"address","internalType":"address"}]}],"bytecode":{"object":"0x60a060405234801561001057600080fd5b506040516114c73803806114c783398101604081905261002f9161014b565b806001600160a01b03811661005e57604051631e4fbdf760e01b81526000600482015260240160405180910390fd5b610067816100df565b506001600160a01b03831661008f5760405163542a98f160e01b815260040160405180910390fd5b6001600160a01b0382166100b65760405163542a98f160e01b815260040160405180910390fd5b506001600160a01b03918216608052600180546001600160a01b0319169190921617905561018e565b600080546001600160a01b038381166001600160a01b0319831681178455604051919092169283917f8be0079c531659141344cd1fd0a4f28419497f9722a3daafe3b4186f6b6457e09190a35050565b80516001600160a01b038116811461014657600080fd5b919050565b60008060006060848603121561016057600080fd5b6101698461012f565b92506101776020850161012f565b91506101856040850161012f565b90509250925092565b6080516113116101b66000396000818160cb015281816101cd01526101fd01526113116000f3fe608060405234801561001057600080fd5b506004361061007d5760003560e01c8063715018a61161005b578063715018a6146100ed5780638da5cb5b146100f5578063a4ccd61b14610106578063f2fde38b1461011957600080fd5b80630148606c146100825780632b7ac3f3146100975780634fecab70146100c6575b600080fd5b610095610090366004610d36565b61012c565b005b6001546100aa906001600160a01b031681565b6040516001600160a01b03909116815260200160405180910390f35b6100aa7f000000000000000000000000000000000000000000000000000000000000000081565b6100956101b7565b6000546001600160a01b03166100aa565b610095610114366004610d66565b6101cb565b610095610127366004610d36565b610be8565b610134610c2b565b6001600160a01b03811661015b5760405163542a98f160e01b815260040160405180910390fd5b6001546040516001600160a01b038084169216907ff335fdec5c467dfdc8bca7991b97cb3bc62c88c8467dedce3044baff0527cad690600090a3600180546001600160a01b0319166001600160a01b0392909216919091179055565b6101bf610c2b565b6101c96000610c58565b565b7f00000000000000000000000000000000000000000000000000000000000000006001600160a01b03166338dd8c2c337f00000000000000000000000000000000000000000000000000000000000000006001600160a01b031663a87201956040518163ffffffff1660e01b8152600401602060405180830381865afa158015610259573d6000803e3d6000fd5b505050506040513d601f19601f8201168201806040525081019061027d9190610da2565b6040516001600160e01b031960e085901b1681526001600160a01b0390921660048301526024820152604401602060405180830381865afa1580156102c6573d6000803e3d6000fd5b505050506040513d601f19601f820116820180604052508101906102ea9190610dbb565b6103075760405163782a209560e11b815260040160405180910390fd5b6103296103176020830183610ddd565b6103246040850185610ddd565b610ca8565b60006103386020830183610ddd565b8101906103459190610e72565b9050600061035660e0840184610fa3565b9050905060005b81811015610be257604080516001808252818301909252600091816020015b606081526020019060019003908161037c579050509050836103a383610100880135610fed565b815181106103b3576103b3611014565b6020026020010151816000815181106103ce576103ce611014565b602090810291909101015260408051600180825281830190925260009181602001602082028036833701905050905061040a6080870187610fa3565b8481811061041a5761041a611014565b905060200201358160008151811061043457610434611014565b6020908102919091010152600061044e60c0880188610fa3565b8581811061045e5761045e611014565b9050602002016020810190610473919061102a565b9050600083604051602001610488919061109a565b60408051601f19818403018152919052905063fa24175960e01b6001600160e01b031983160161083357604080516001808252818301909252600091602080830190803683370190505090506104e160a08a018a610fa3565b878181106104f1576104f1611014565b905060200201358160008151811061050b5761050b611014565b602090810291909101015261052360608a018a610fa3565b8781811061053357610533611014565b90506020020160208101906105489190610d36565b6001600160a01b03166305dbe8a78386846105638e80610fa3565b8c81811061057357610573611014565b90506020020160208101906105889190610d36565b6040518563ffffffff1660e01b81526004016105a7949392919061113b565b600060405180830381600087803b1580156105c157600080fd5b505af19250505080156105d2575060015b61071d573d808015610600576040519150601f19603f3d011682016040523d82523d6000602084013e610605565b606091505b507f32d60b85c26087a9b3fcdcc29c814aa8fa9180f527b701f90adb081ef41154f961063460e08c018c610fa3565b8981811061064457610644611014565b602002919091013590506106588c80610fa3565b8a81811061066857610668611014565b905060200201602081019061067d9190610d36565b61068a60608e018e610fa3565b8b81811061069a5761069a611014565b90506020020160208101906106af9190610d36565b6106bc60808f018f610fa3565b8c8181106106cc576106cc611014565b905060200201358e8060a001906106e39190610fa3565b8d8181106106f3576106f3611014565b90506020020135898760405161070f97969594939291906111a0565b60405180910390a15061082d565b7f17f02e9522afd29aafb6ef72fa94d777ceedad1833c1c49cfceab7e0a45b212a61074b60e08b018b610fa3565b8881811061075b5761075b611014565b6020029190910135905061076f8b80610fa3565b8981811061077f5761077f611014565b90506020020160208101906107949190610d36565b6107a160608d018d610fa3565b8a8181106107b1576107b1611014565b90506020020160208101906107c69190610d36565b6107d360808e018e610fa3565b8b8181106107e3576107e3611014565b905060200201358d8060a001906107fa9190610fa3565b8c81811061080a5761080a611014565b9050602002013588604051610824969594939291906111fd565b60405180910390a15b50610bd3565b63f7011d9d60e01b6001600160e01b0319831601610b56576108586060890189610fa3565b8681811061086857610868611014565b905060200201602081019061087d9190610d36565b6001600160a01b03166308fee26382856108978c80610fa3565b8a8181106108a7576108a7611014565b90506020020160208101906108bc9190610d36565b6040518463ffffffff1660e01b81526004016108da9392919061123b565b600060405180830381600087803b1580156108f457600080fd5b505af1925050508015610905575060015b610a42573d808015610933576040519150601f19603f3d011682016040523d82523d6000602084013e610938565b606091505b507f32d60b85c26087a9b3fcdcc29c814aa8fa9180f527b701f90adb081ef41154f961096760e08b018b610fa3565b8881811061097757610977611014565b6020029190910135905061098b8b80610fa3565b8981811061099b5761099b611014565b90506020020160208101906109b09190610d36565b6109bd60608d018d610fa3565b8a8181106109cd576109cd611014565b90506020020160208101906109e29190610d36565b6109ef60808e018e610fa3565b8b8181106109ff576109ff611014565b905060200201358d8060a00190610a169190610fa3565b8c818110610a2657610a26611014565b90506020020135888760405161082497969594939291906111a0565b7f17f02e9522afd29aafb6ef72fa94d777ceedad1833c1c49cfceab7e0a45b212a610a7060e08a018a610fa3565b87818110610a8057610a80611014565b60200291909101359050610a948a80610fa3565b88818110610aa457610aa4611014565b9050602002016020810190610ab99190610d36565b610ac660608c018c610fa3565b89818110610ad657610ad6611014565b9050602002016020810190610aeb9190610d36565b610af860808d018d610fa3565b8a818110610b0857610b08611014565b905060200201358c8060a00190610b1f9190610fa3565b8b818110610b2f57610b2f611014565b9050602002013587604051610b49969594939291906111fd565b60405180910390a1610bd3565b634aee2c4f60e01b6001600160e01b0319831601610bba57610b7b6060890189610fa3565b86818110610b8b57610b8b611014565b9050602002016020810190610ba09190610d36565b6001600160a01b031663b511d3b182856108978c80610fa3565b60405163d645250f60e01b815260040160405180910390fd5b8460010194505050505061035d565b50505050565b610bf0610c2b565b6001600160a01b038116610c1f57604051631e4fbdf760e01b8152600060048201526024015b60405180910390fd5b610c2881610c58565b50565b6000546001600160a01b031633146101c95760405163118cdaa760e01b8152336004820152602401610c16565b600080546001600160a01b038381166001600160a01b0319831681178455604051919092169283917f8be0079c531659141344cd1fd0a4f28419497f9722a3daafe3b4186f6b6457e09190a35050565b6000839003610cca57604051633b33edd960e21b815260040160405180910390fd5b60015460405163385db56160e01b81526001600160a01b039091169063385db56190610d009087908790879087906004016112b4565b60006040518083038186803b158015610d1857600080fd5b505afa158015610d2c573d6000803e3d6000fd5b5050505050505050565b600060208284031215610d4857600080fd5b81356001600160a01b0381168114610d5f57600080fd5b9392505050565b600060208284031215610d7857600080fd5b813567ffffffffffffffff811115610d8f57600080fd5b82016101208185031215610d5f57600080fd5b600060208284031215610db457600080fd5b5051919050565b600060208284031215610dcd57600080fd5b81518015158114610d5f57600080fd5b6000808335601e19843603018112610df457600080fd5b83018035915067ffffffffffffffff821115610e0f57600080fd5b602001915036819003821315610e2457600080fd5b9250929050565b634e487b7160e01b600052604160045260246000fd5b604051601f8201601f1916810167ffffffffffffffff81118282101715610e6a57610e6a610e2b565b604052919050565b600060208284031215610e8457600080fd5b813567ffffffffffffffff811115610e9b57600080fd5b8201601f81018413610eac57600080fd5b803567ffffffffffffffff811115610ec657610ec6610e2b565b8060051b610ed660208201610e41565b91825260208184018101929081019087841115610ef257600080fd5b6020850192505b83831015610f9857823567ffffffffffffffff811115610f1857600080fd5b8501603f81018913610f2957600080fd5b602081013567ffffffffffffffff811115610f4657610f46610e2b565b610f59601f8201601f1916602001610e41565b8181526040838301018b1015610f6e57600080fd5b81604084016020830137600060208383010152808552505050602082019150602083019250610ef9565b979650505050505050565b6000808335601e19843603018112610fba57600080fd5b83018035915067ffffffffffffffff821115610fd557600080fd5b6020019150600581901b3603821315610e2457600080fd5b8082018082111561100e57634e487b7160e01b600052601160045260246000fd5b92915050565b634e487b7160e01b600052603260045260246000fd5b60006020828403121561103c57600080fd5b81356001600160e01b031981168114610d5f57600080fd5b6000815180845260005b8181101561107a5760208185018101518683018201520161105e565b506000602082860101526020601f19601f83011685010191505092915050565b6000602082016020835280845180835260408501915060408160051b86010192506020860160005b828110156110f357603f198786030184526110de858351611054565b945060209384019391909101906001016110c2565b50929695505050505050565b600081518084526020840193506020830160005b82811015611131578151865260209586019590910190600101611113565b5093949350505050565b60a08152600061114e60a0830187611054565b828103806020850152600082526020810160408501525061117260208201876110ff565b9050828103606084015261118681866110ff565b91505060018060a01b038316608083015295945050505050565b8781526001600160a01b0387811660208301528616604082015260608101859052608081018490526001600160e01b0319831660a082015260e060c082018190526000906111f090830184611054565b9998505050505050505050565b9586526001600160a01b039485166020870152929093166040850152606084015260808301919091526001600160e01b03191660a082015260c00190565b60808152600061124e6080830186611054565b828103806020850152600082526020810160408501525061127260208201866110ff565b91505060018060a01b0383166060830152949350505050565b81835281816020850137506000828201602090810191909152601f909101601f19169091010190565b6040815260006112c860408301868861128b565b8281036020840152610f9881858761128b56fea264697066735822122042dff20498ff10b3a950e067cb29e657d2b2f9c08a7b6c4af0b541a4cd7ffafe64736f6c634300081c0033","linkReferences":{}},"methodIdentifiers":{"batchProcess((address[],bytes,bytes,address[],uint256[],uint256[],bytes4[],bytes32[],uint256))":"a4ccd61b","owner()":"8da5cb5b","renounceOwnership()":"715018a6","rolesOperator()":"4fecab70","transferOwnership(address)":"f2fde38b","updateZkVerifier(address)":"0148606c","verifier()":"2b7ac3f3"},"id":93}