{"abi":[{"type":"constructor","inputs":[],"stateMutability":"nonpayable"},{"type":"function","name":"accountAssets","inputs":[{"name":"","type":"address","internalType":"address"},{"name":"","type":"uint256","internalType":"uint256"}],"outputs":[{"name":"","type":"address","internalType":"address"}],"stateMutability":"view"},{"type":"function","name":"afterMTokenMint","inputs":[{"name":"mToken","type":"address","internalType":"address"}],"outputs":[],"stateMutability":"view"},{"type":"function","name":"allMarkets","inputs":[{"name":"","type":"uint256","internalType":"uint256"}],"outputs":[{"name":"","type":"address","internalType":"address"}],"stateMutability":"view"},{"type":"function","name":"beforeMTokenBorrow","inputs":[{"name":"mToken","type":"address","internalType":"address"},{"name":"borrower","type":"address","internalType":"address"},{"name":"borrowAmount","type":"uint256","internalType":"uint256"}],"outputs":[],"stateMutability":"nonpayable"},{"type":"function","name":"beforeMTokenLiquidate","inputs":[{"name":"mTokenBorrowed","type":"address","internalType":"address"},{"name":"mTokenCollateral","type":"address","internalType":"address"},{"name":"borrower","type":"address","internalType":"address"},{"name":"repayAmount","type":"uint256","internalType":"uint256"}],"outputs":[],"stateMutability":"view"},{"type":"function","name":"beforeMTokenMint","inputs":[{"name":"mToken","type":"address","internalType":"address"},{"name":"minter","type":"address","internalType":"address"}],"outputs":[],"stateMutability":"nonpayable"},{"type":"function","name":"beforeMTokenRedeem","inputs":[{"name":"mToken","type":"address","internalType":"address"},{"name":"redeemer","type":"address","internalType":"address"},{"name":"redeemTokens","type":"uint256","internalType":"uint256"}],"outputs":[],"stateMutability":"nonpayable"},{"type":"function","name":"beforeMTokenRepay","inputs":[{"name":"mToken","type":"address","internalType":"address"},{"name":"borrower","type":"address","internalType":"address"}],"outputs":[],"stateMutability":"nonpayable"},{"type":"function","name":"beforeMTokenSeize","inputs":[{"name":"mTokenCollateral","type":"address","internalType":"address"},{"name":"mTokenBorrowed","type":"address","internalType":"address"},{"name":"liquidator","type":"address","internalType":"address"},{"name":"borrower","type":"address","internalType":"address"}],"outputs":[],"stateMutability":"nonpayable"},{"type":"function","name":"beforeMTokenTransfer","inputs":[{"name":"mToken","type":"address","internalType":"address"},{"name":"src","type":"address","internalType":"address"},{"name":"dst","type":"address","internalType":"address"},{"name":"transferTokens","type":"uint256","internalType":"uint256"}],"outputs":[],"stateMutability":"nonpayable"},{"type":"function","name":"beforeRebalancing","inputs":[{"name":"mToken","type":"address","internalType":"address"}],"outputs":[],"stateMutability":"view"},{"type":"function","name":"blacklistOperator","inputs":[],"outputs":[{"name":"","type":"address","internalType":"contract IBlacklister"}],"stateMutability":"view"},{"type":"function","name":"borrowCaps","inputs":[{"name":"","type":"address","internalType":"address"}],"outputs":[{"name":"","type":"uint256","internalType":"uint256"}],"stateMutability":"view"},{"type":"function","name":"checkMembership","inputs":[{"name":"account","type":"address","internalType":"address"},{"name":"mToken","type":"address","internalType":"address"}],"outputs":[{"name":"","type":"bool","internalType":"bool"}],"stateMutability":"view"},{"type":"function","name":"checkOutflowVolumeLimit","inputs":[{"name":"amount","type":"uint256","internalType":"uint256"}],"outputs":[],"stateMutability":"nonpayable"},{"type":"function","name":"claimMalda","inputs":[{"name":"holder","type":"address","internalType":"address"},{"name":"mTokens","type":"address[]","internalType":"address[]"}],"outputs":[],"stateMutability":"nonpayable"},{"type":"function","name":"claimMalda","inputs":[{"name":"holders","type":"address[]","internalType":"address[]"},{"name":"mTokens","type":"address[]","internalType":"address[]"},{"name":"borrowers","type":"bool","internalType":"bool"},{"name":"suppliers","type":"bool","internalType":"bool"}],"outputs":[],"stateMutability":"nonpayable"},{"type":"function","name":"claimMalda","inputs":[{"name":"holder","type":"address","internalType":"address"}],"outputs":[],"stateMutability":"nonpayable"},{"type":"function","name":"closeFactorMantissa","inputs":[],"outputs":[{"name":"","type":"uint256","internalType":"uint256"}],"stateMutability":"view"},{"type":"function","name":"cumulativeOutflowVolume","inputs":[],"outputs":[{"name":"","type":"uint256","internalType":"uint256"}],"stateMutability":"view"},{"type":"function","name":"disableWhitelist","inputs":[],"outputs":[],"stateMutability":"nonpayable"},{"type":"function","name":"enableWhitelist","inputs":[],"outputs":[],"stateMutability":"nonpayable"},{"type":"function","name":"enterMarkets","inputs":[{"name":"_mTokens","type":"address[]","internalType":"address[]"}],"outputs":[],"stateMutability":"nonpayable"},{"type":"function","name":"enterMarketsWithSender","inputs":[{"name":"_account","type":"address","internalType":"address"}],"outputs":[],"stateMutability":"nonpayable"},{"type":"function","name":"exitMarket","inputs":[{"name":"_mToken","type":"address","internalType":"address"}],"outputs":[],"stateMutability":"nonpayable"},{"type":"function","name":"getAccountLiquidity","inputs":[{"name":"account","type":"address","internalType":"address"}],"outputs":[{"name":"","type":"uint256","internalType":"uint256"},{"name":"","type":"uint256","internalType":"uint256"}],"stateMutability":"view"},{"type":"function","name":"getAllMarkets","inputs":[],"outputs":[{"name":"mTokens","type":"address[]","internalType":"address[]"}],"stateMutability":"view"},{"type":"function","name":"getAssetsIn","inputs":[{"name":"_user","type":"address","internalType":"address"}],"outputs":[{"name":"mTokens","type":"address[]","internalType":"address[]"}],"stateMutability":"view"},{"type":"function","name":"getHypotheticalAccountLiquidity","inputs":[{"name":"account","type":"address","internalType":"address"},{"name":"mTokenModify","type":"address","internalType":"address"},{"name":"redeemTokens","type":"uint256","internalType":"uint256"},{"name":"borrowAmount","type":"uint256","internalType":"uint256"}],"outputs":[{"name":"","type":"uint256","internalType":"uint256"},{"name":"","type":"uint256","internalType":"uint256"}],"stateMutability":"view"},{"type":"function","name":"getUSDValueForAllMarkets","inputs":[],"outputs":[{"name":"","type":"uint256","internalType":"uint256"}],"stateMutability":"view"},{"type":"function","name":"initialize","inputs":[{"name":"_rolesOperator","type":"address","internalType":"address"},{"name":"_blacklistOperator","type":"address","internalType":"address"},{"name":"_rewardDistributor","type":"address","internalType":"address"},{"name":"_admin","type":"address","internalType":"address"}],"outputs":[],"stateMutability":"nonpayable"},{"type":"function","name":"isDeprecated","inputs":[{"name":"mToken","type":"address","internalType":"address"}],"outputs":[{"name":"","type":"bool","internalType":"bool"}],"stateMutability":"view"},{"type":"function","name":"isMarketListed","inputs":[{"name":"mToken","type":"address","internalType":"address"}],"outputs":[{"name":"","type":"bool","internalType":"bool"}],"stateMutability":"view"},{"type":"function","name":"isOperator","inputs":[],"outputs":[{"name":"","type":"bool","internalType":"bool"}],"stateMutability":"pure"},{"type":"function","name":"isPaused","inputs":[{"name":"mToken","type":"address","internalType":"address"},{"name":"_type","type":"uint8","internalType":"enum ImTokenOperationTypes.OperationType"}],"outputs":[{"name":"","type":"bool","internalType":"bool"}],"stateMutability":"view"},{"type":"function","name":"lastOutflowResetTimestamp","inputs":[],"outputs":[{"name":"","type":"uint256","internalType":"uint256"}],"stateMutability":"view"},{"type":"function","name":"limitPerTimePeriod","inputs":[],"outputs":[{"name":"","type":"uint256","internalType":"uint256"}],"stateMutability":"view"},{"type":"function","name":"liquidateCalculateSeizeTokens","inputs":[{"name":"mTokenBorrowed","type":"address","internalType":"address"},{"name":"mTokenCollateral","type":"address","internalType":"address"},{"name":"actualRepayAmount","type":"uint256","internalType":"uint256"}],"outputs":[{"name":"","type":"uint256","internalType":"uint256"}],"stateMutability":"view"},{"type":"function","name":"liquidationIncentiveMantissa","inputs":[{"name":"","type":"address","internalType":"address"}],"outputs":[{"name":"","type":"uint256","internalType":"uint256"}],"stateMutability":"view"},{"type":"function","name":"markets","inputs":[{"name":"","type":"address","internalType":"address"}],"outputs":[{"name":"isListed","type":"bool","internalType":"bool"},{"name":"collateralFactorMantissa","type":"uint256","internalType":"uint256"},{"name":"isMalded","type":"bool","internalType":"bool"}],"stateMutability":"view"},{"type":"function","name":"oracleOperator","inputs":[],"outputs":[{"name":"","type":"address","internalType":"address"}],"stateMutability":"view"},{"type":"function","name":"outflowResetTimeWindow","inputs":[],"outputs":[{"name":"","type":"uint256","internalType":"uint256"}],"stateMutability":"view"},{"type":"function","name":"owner","inputs":[],"outputs":[{"name":"","type":"address","internalType":"address"}],"stateMutability":"view"},{"type":"function","name":"renounceOwnership","inputs":[],"outputs":[],"stateMutability":"nonpayable"},{"type":"function","name":"resetOutflowVolume","inputs":[],"outputs":[],"stateMutability":"nonpayable"},{"type":"function","name":"rewardDistributor","inputs":[],"outputs":[{"name":"","type":"address","internalType":"address"}],"stateMutability":"view"},{"type":"function","name":"rolesOperator","inputs":[],"outputs":[{"name":"","type":"address","internalType":"contract IRoles"}],"stateMutability":"view"},{"type":"function","name":"setCloseFactor","inputs":[{"name":"newCloseFactorMantissa","type":"uint256","internalType":"uint256"}],"outputs":[],"stateMutability":"nonpayable"},{"type":"function","name":"setCollateralFactor","inputs":[{"name":"mToken","type":"address","internalType":"address"},{"name":"newCollateralFactorMantissa","type":"uint256","internalType":"uint256"}],"outputs":[],"stateMutability":"nonpayable"},{"type":"function","name":"setLiquidationIncentive","inputs":[{"name":"market","type":"address","internalType":"address"},{"name":"newLiquidationIncentiveMantissa","type":"uint256","internalType":"uint256"}],"outputs":[],"stateMutability":"nonpayable"},{"type":"function","name":"setMarketBorrowCaps","inputs":[{"name":"mTokens","type":"address[]","internalType":"address[]"},{"name":"newBorrowCaps","type":"uint256[]","internalType":"uint256[]"}],"outputs":[],"stateMutability":"nonpayable"},{"type":"function","name":"setMarketSupplyCaps","inputs":[{"name":"mTokens","type":"address[]","internalType":"address[]"},{"name":"newSupplyCaps","type":"uint256[]","internalType":"uint256[]"}],"outputs":[],"stateMutability":"nonpayable"},{"type":"function","name":"setOutflowTimeLimitInUSD","inputs":[{"name":"amount","type":"uint256","internalType":"uint256"}],"outputs":[],"stateMutability":"nonpayable"},{"type":"function","name":"setOutflowVolumeTimeWindow","inputs":[{"name":"newTimeWindow","type":"uint256","internalType":"uint256"}],"outputs":[],"stateMutability":"nonpayable"},{"type":"function","name":"setPaused","inputs":[{"name":"mToken","type":"address","internalType":"address"},{"name":"_type","type":"uint8","internalType":"enum ImTokenOperationTypes.OperationType"},{"name":"state","type":"bool","internalType":"bool"}],"outputs":[],"stateMutability":"nonpayable"},{"type":"function","name":"setPriceOracle","inputs":[{"name":"newOracle","type":"address","internalType":"address"}],"outputs":[],"stateMutability":"nonpayable"},{"type":"function","name":"setRewardDistributor","inputs":[{"name":"newRewardDistributor","type":"address","internalType":"address"}],"outputs":[],"stateMutability":"nonpayable"},{"type":"function","name":"setRolesOperator","inputs":[{"name":"_roles","type":"address","internalType":"address"}],"outputs":[],"stateMutability":"nonpayable"},{"type":"function","name":"setWhitelistedUser","inputs":[{"name":"user","type":"address","internalType":"address"},{"name":"state","type":"bool","internalType":"bool"}],"outputs":[],"stateMutability":"nonpayable"},{"type":"function","name":"supplyCaps","inputs":[{"name":"","type":"address","internalType":"address"}],"outputs":[{"name":"","type":"uint256","internalType":"uint256"}],"stateMutability":"view"},{"type":"function","name":"supportMarket","inputs":[{"name":"mToken","type":"address","internalType":"address"}],"outputs":[],"stateMutability":"nonpayable"},{"type":"function","name":"transferOwnership","inputs":[{"name":"newOwner","type":"address","internalType":"address"}],"outputs":[],"stateMutability":"nonpayable"},{"type":"function","name":"userWhitelisted","inputs":[{"name":"","type":"address","internalType":"address"}],"outputs":[{"name":"","type":"bool","internalType":"bool"}],"stateMutability":"view"},{"type":"function","name":"whitelistEnabled","inputs":[],"outputs":[{"name":"","type":"bool","internalType":"bool"}],"stateMutability":"view"},{"type":"event","name":"ActionPaused","inputs":[{"name":"mToken","type":"address","indexed":true,"internalType":"address"},{"name":"_type","type":"uint8","indexed":false,"internalType":"enum ImTokenOperationTypes.OperationType"},{"name":"state","type":"bool","indexed":false,"internalType":"bool"}],"anonymous":false},{"type":"event","name":"Initialized","inputs":[{"name":"version","type":"uint64","indexed":false,"internalType":"uint64"}],"anonymous":false},{"type":"event","name":"MarketEntered","inputs":[{"name":"mToken","type":"address","indexed":true,"internalType":"address"},{"name":"account","type":"address","indexed":true,"internalType":"address"}],"anonymous":false},{"type":"event","name":"MarketExited","inputs":[{"name":"mToken","type":"address","indexed":true,"internalType":"address"},{"name":"account","type":"address","indexed":true,"internalType":"address"}],"anonymous":false},{"type":"event","name":"MarketListed","inputs":[{"name":"mToken","type":"address","indexed":false,"internalType":"address"}],"anonymous":false},{"type":"event","name":"NewBorrowCap","inputs":[{"name":"mToken","type":"address","indexed":true,"internalType":"address"},{"name":"newBorrowCap","type":"uint256","indexed":false,"internalType":"uint256"}],"anonymous":false},{"type":"event","name":"NewCloseFactor","inputs":[{"name":"oldCloseFactorMantissa","type":"uint256","indexed":false,"internalType":"uint256"},{"name":"newCloseFactorMantissa","type":"uint256","indexed":false,"internalType":"uint256"}],"anonymous":false},{"type":"event","name":"NewCollateralFactor","inputs":[{"name":"mToken","type":"address","indexed":true,"internalType":"address"},{"name":"oldCollateralFactorMantissa","type":"uint256","indexed":false,"internalType":"uint256"},{"name":"newCollateralFactorMantissa","type":"uint256","indexed":false,"internalType":"uint256"}],"anonymous":false},{"type":"event","name":"NewLiquidationIncentive","inputs":[{"name":"market","type":"address","indexed":false,"internalType":"address"},{"name":"oldLiquidationIncentiveMantissa","type":"uint256","indexed":false,"internalType":"uint256"},{"name":"newLiquidationIncentiveMantissa","type":"uint256","indexed":false,"internalType":"uint256"}],"anonymous":false},{"type":"event","name":"NewPriceOracle","inputs":[{"name":"oldPriceOracle","type":"address","indexed":true,"internalType":"address"},{"name":"newPriceOracle","type":"address","indexed":true,"internalType":"address"}],"anonymous":false},{"type":"event","name":"NewRewardDistributor","inputs":[{"name":"oldRewardDistributor","type":"address","indexed":true,"internalType":"address"},{"name":"newRewardDistributor","type":"address","indexed":true,"internalType":"address"}],"anonymous":false},{"type":"event","name":"NewRolesOperator","inputs":[{"name":"oldRoles","type":"address","indexed":true,"internalType":"address"},{"name":"newRoles","type":"address","indexed":true,"internalType":"address"}],"anonymous":false},{"type":"event","name":"NewSupplyCap","inputs":[{"name":"mToken","type":"address","indexed":true,"internalType":"address"},{"name":"newBorrowCap","type":"uint256","indexed":false,"internalType":"uint256"}],"anonymous":false},{"type":"event","name":"OutflowLimitUpdated","inputs":[{"name":"sender","type":"address","indexed":true,"internalType":"address"},{"name":"oldLimit","type":"uint256","indexed":false,"internalType":"uint256"},{"name":"newLimit","type":"uint256","indexed":false,"internalType":"uint256"}],"anonymous":false},{"type":"event","name":"OutflowTimeWindowUpdated","inputs":[{"name":"oldWindow","type":"uint256","indexed":false,"internalType":"uint256"},{"name":"newWindow","type":"uint256","indexed":false,"internalType":"uint256"}],"anonymous":false},{"type":"event","name":"OutflowVolumeReset","inputs":[],"anonymous":false},{"type":"event","name":"OwnershipTransferred","inputs":[{"name":"previousOwner","type":"address","indexed":true,"internalType":"address"},{"name":"newOwner","type":"address","indexed":true,"internalType":"address"}],"anonymous":false},{"type":"event","name":"UserWhitelisted","inputs":[{"name":"user","type":"address","indexed":true,"internalType":"address"},{"name":"state","type":"bool","indexed":false,"internalType":"bool"}],"anonymous":false},{"type":"event","name":"WhitelistDisabled","inputs":[],"anonymous":false},{"type":"event","name":"WhitelistEnabled","inputs":[],"anonymous":false},{"type":"error","name":"InvalidInitialization","inputs":[]},{"type":"error","name":"NotInitializing","inputs":[]},{"type":"error","name":"Operator_AssetNotFound","inputs":[]},{"type":"error","name":"Operator_Deactivate_MarketBalanceOwed","inputs":[]},{"type":"error","name":"Operator_EmptyPrice","inputs":[]},{"type":"error","name":"Operator_InsufficientLiquidity","inputs":[]},{"type":"error","name":"Operator_InvalidBlacklistOperator","inputs":[]},{"type":"error","name":"Operator_InvalidCollateralFactor","inputs":[]},{"type":"error","name":"Operator_InvalidInput","inputs":[]},{"type":"error","name":"Operator_InvalidRewardDistributor","inputs":[]},{"type":"error","name":"Operator_InvalidRolesOperator","inputs":[]},{"type":"error","name":"Operator_MarketAlreadyListed","inputs":[]},{"type":"error","name":"Operator_MarketBorrowCapReached","inputs":[]},{"type":"error","name":"Operator_MarketNotListed","inputs":[]},{"type":"error","name":"Operator_MarketSupplyReached","inputs":[]},{"type":"error","name":"Operator_Mismatch","inputs":[]},{"type":"error","name":"Operator_OnlyAdmin","inputs":[]},{"type":"error","name":"Operator_OnlyAdminOrRole","inputs":[]},{"type":"error","name":"Operator_OracleUnderlyingFetchError","inputs":[]},{"type":"error","name":"Operator_OutflowVolumeReached","inputs":[]},{"type":"error","name":"Operator_Paused","inputs":[]},{"type":"error","name":"Operator_PriceFetchFailed","inputs":[]},{"type":"error","name":"Operator_RepayAmountNotValid","inputs":[]},{"type":"error","name":"Operator_RepayingTooMuch","inputs":[]},{"type":"error","name":"Operator_SenderMustBeToken","inputs":[]},{"type":"error","name":"Operator_UserBlacklisted","inputs":[]},{"type":"error","name":"Operator_UserNotWhitelisted","inputs":[]},{"type":"error","name":"Operator_WrongMarket","inputs":[]},{"type":"error","name":"OwnableInvalidOwner","inputs":[{"name":"owner","type":"address","internalType":"address"}]},{"type":"error","name":"OwnableUnauthorizedAccount","inputs":[{"name":"account","type":"address","internalType":"address"}]}],"bytecode":{"object":"0x6080604052348015600f57600080fd5b506016601a565b60ca565b7ff0c57e16840df040f15088dc2f81fe391c3923bec73e23a9662efc9c229c6a00805468010000000000000000900460ff161560695760405163f92ee8a960e01b815260040160405180910390fd5b80546001600160401b039081161460c75780546001600160401b0319166001600160401b0390811782556040519081527fc7f505b2f371ae2175ee4913f4499e1f2633a7b5936321eed1cdaeb6115181d29060200160405180910390a15b50565b61460f806100d96000396000f3fe608060405234801561001057600080fd5b50600436106103d05760003560e01c80638e8f294b116101ff578063cab4f84c1161011a578063e8755446116100ad578063f89416ee1161007c578063f89416ee146108c5578063f8c8765e146108d8578063f9f00f89146108eb578063fc2e0c2f146108fe57600080fd5b8063e87554461461088d578063e92081b414610896578063ede4edd01461089f578063f2fde38b146108b257600080fd5b8063d99faea5116100e9578063d99faea514610856578063dce154491461085e578063ddf4625414610871578063e44a429a1461087a57600080fd5b8063cab4f84c14610820578063cdfb2b4e14610833578063d136af441461083b578063d6b0f4841461084e57600080fd5b8063b0772d0b11610192578063c0f1ee0911610161578063c0f1ee09146107d4578063c2998238146107e7578063c321fbcc146107fa578063c488847b1461080d57600080fd5b8063b0772d0b14610793578063b50ce7621461079b578063befca684146107ae578063c04f31ff146107c157600080fd5b80639bd8f6e8116101ce5780639bd8f6e81461073a578063a1809b951461074d578063abfceffc14610760578063acc2166a1461078057600080fd5b80638e8f294b14610680578063929fe9a1146106d357806394543c1514610714578063973fd5211461072757600080fd5b80634a675b34116102ef5780635ec88c7911610282578063715018a611610251578063715018a614610654578063823307f21461065c5780638728d8a71461066f5780638da5cb5b1461067857600080fd5b80635ec88c79146106125780636765dff91461062557806368f6f4b014610638578063700e12121461064b57600080fd5b806351fb012d116102be57806351fb012d146105d757806352a2548d146105e457806352d84d1e146105ec578063530e784f146105ff57600080fd5b80634a675b34146105765780634e79238f146105895780634fecab70146105b157806350795f8a146105c457600080fd5b80631e32bd9b116103675780633d98a1e5116103365780633d98a1e5146105105780634456eda21461053c57806344710fbe146105435780634a5844321461055657600080fd5b80631e32bd9b146104b75780631fbd27a5146104ca5780632d57d487146104dd5780632e06d7b1146104f057600080fd5b806312348e96116103a357806312348e961461046b57806317bf120e1461047e578063186db48f146104915780631c7818ac146104a457600080fd5b806302c3bcbb146103d55780630d126627146104085780630d926fc81461042b57806311679ef714610440575b600080fd5b6103f56103e3366004613efe565b60096020526000908152604090205481565b6040519081526020015b60405180910390f35b61041b610416366004613f2a565b610921565b60405190151581526020016103ff565b61043e610439366004613efe565b61097a565b005b600254610453906001600160a01b031681565b6040516001600160a01b0390911681526020016103ff565b61043e610479366004613f5f565b610aa9565b61043e61048c366004613f78565b610b2e565b61043e61049f366004614015565b610cbc565b61043e6104b2366004614142565b610f07565b61043e6104c5366004614192565b610f6f565b61043e6104d83660046141e1565b61105f565b600154610453906001600160a01b031681565b6103f56104fe366004613efe565b60046020526000908152604090205481565b61041b61051e366004613efe565b6001600160a01b031660009081526006602052604090205460ff1690565b600161041b565b61043e61055136600461426f565b611071565b6103f5610564366004613efe565b60086020526000908152604090205481565b61043e6105843660046142a8565b6110d8565b61059c6105973660046142f1565b6112e9565b604080519283526020830191909152016103ff565b600054610453906001600160a01b031681565b61043e6105d2366004614192565b611306565b60105461041b9060ff1681565b61043e61168d565b6104536105fa366004613f5f565b6116c5565b61043e61060d366004613efe565b6116ef565b61059c610620366004613efe565b61177a565b61043e610633366004614337565b611794565b61043e610646366004613efe565b611a9c565b6103f5600c5481565b61043e611ae5565b61043e61066a366004613f5f565b611af9565b6103f5600b5481565b610453611bab565b6106b461068e366004613efe565b60066020526000908152604090208054600182015460039092015460ff91821692911683565b60408051931515845260208401929092521515908201526060016103ff565b61041b6106e1366004614388565b6001600160a01b038082166000908152600660209081526040808320938616835260029093019052205460ff1692915050565b61041b610722366004613efe565b611bd9565b61043e610735366004613efe565b611be4565b61043e6107483660046143b6565b611c65565b61043e61075b366004613efe565b611ce1565b61077361076e366004613efe565b611d45565b6040516103ff91906143e2565b600a54610453906001600160a01b031681565b610773611dbb565b61043e6107a9366004613f78565b611e1d565b61043e6107bc366004613f5f565b6120c9565b61043e6107cf3660046143b6565b612112565b61043e6107e2366004614388565b61228a565b61043e6107f536600461442e565b6123ee565b61043e610808366004614388565b61247e565b6103f561081b366004614192565b612556565b61043e61082e366004613efe565b612784565b61043e6128e5565b61043e610849366004614015565b612925565b61043e612b67565b6103f5612ba4565b61045361086c3660046143b6565b612c83565b6103f5600d5481565b61043e610888366004613efe565b612cbb565b6103f560035481565b6103f5600e5481565b61043e6108ad366004613efe565b612d78565b61043e6108c0366004613efe565b613037565b61043e6108d3366004613efe565b613077565b61043e6108e6366004614337565b613101565b61043e6108f9366004613f5f565b6132f5565b61041b61090c366004613efe565b600f6020526000908152604090205460ff1681565b6001600160a01b03821660009081526011602052604081208183600b81111561094c5761094c614470565b600b81111561095d5761095d614470565b815260208101919091526040016000205460ff1690505b92915050565b6001600160a01b0381166000908152600960205260409020548015610aa5576000826001600160a01b03166318160ddd6040518163ffffffff1660e01b8152600401602060405180830381865afa1580156109d9573d6000803e3d6000fd5b505050506040513d601f19601f820116820180604052508101906109fd9190614486565b905060006040518060200160405280856001600160a01b031663182df0f56040518163ffffffff1660e01b8152600401602060405180830381865afa158015610a4a573d6000803e3d6000fd5b505050506040513d601f19601f82011682018060405250810190610a6e9190614486565b905290506000610a7e8284613340565b905083811115610aa157604051635b025ead60e01b815260040160405180910390fd5b5050505b5050565b610ab1613360565b66b1a2bc2ec500008110158015610ad05750670c7d713b49da00008111155b610aed5760405163e5d0f96f60e01b815260040160405180910390fd5b60035460408051918252602082018390527f3b9670cf975d26958e754b57098eaa2ac914d8d2a31b83257997b9f346110fd9910160405180910390a1600355565b60015460405163fe575a8760e01b81526001600160a01b0380861660048301528592169063fe575a8790602401602060405180830381865afa158015610b78573d6000803e3d6000fd5b505050506040513d601f19601f82011682018060405250810190610b9c919061449f565b15610bba5760405163711b123360e01b815260040160405180910390fd5b60015460405163fe575a8760e01b81526001600160a01b0380861660048301528592169063fe575a8790602401602060405180830381865afa158015610c04573d6000803e3d6000fd5b505050506040513d601f19601f82011682018060405250810190610c28919061449f565b15610c465760405163711b123360e01b815260040160405180910390fd5b6001600160a01b03861660009081526011602090815260408083206005845290915290205460ff1615610c8c576040516349fbea8b60e01b815260040160405180910390fd5b610c97868685613392565b610ca086613478565b610caa86866134d4565b610cb486856134d4565b505050505050565b610cc4611bab565b6001600160a01b0316336001600160a01b03161480610dc257506000546040805163265cbca960e01b815290516001600160a01b03909216916338dd8c2c913391849163265cbca99160048083019260209291908290030181865afa158015610d31573d6000803e3d6000fd5b505050506040513d601f19601f82011682018060405250810190610d559190614486565b6040516001600160e01b031960e085901b1681526001600160a01b0390921660048301526024820152604401602060405180830381865afa158015610d9e573d6000803e3d6000fd5b505050506040513d601f19601f82011682018060405250810190610dc2919061449f565b610ddf57604051636fd743bb60e11b815260040160405180910390fd5b82818115801590610def57508082145b610e0c5760405163e5d0f96f60e01b815260040160405180910390fd5b60005b82811015610efe57848482818110610e2957610e296144bc565b9050602002013560086000898985818110610e4657610e466144bc565b9050602002016020810190610e5b9190613efe565b6001600160a01b03168152602081019190915260400160002055868682818110610e8757610e876144bc565b9050602002016020810190610e9c9190613efe565b6001600160a01b03167f6f1951b2aad10f3fc81b86d91105b413a5b3f847a34bbc5ce1904201b14438f6868684818110610ed857610ed86144bc565b90506020020135604051610eee91815260200190565b60405180910390a2600101610e0f565b50505050505050565b604080516001808252818301909252600091602080830190803683370190505090508281600081518110610f3d57610f3d6144bc565b60200260200101906001600160a01b031690816001600160a01b031681525050610f6a8183600180613538565b505050565b601054829060ff1615610fb5576001600160a01b0381166000908152600f602052604090205460ff16610fb55760405163efc6ae3360e01b815260040160405180910390fd5b60015460405163fe575a8760e01b81526001600160a01b0380861660048301528592169063fe575a8790602401602060405180830381865afa158015610fff573d6000803e3d6000fd5b505050506040513d601f19601f82011682018060405250810190611023919061449f565b156110415760405163711b123360e01b815260040160405180910390fd5b61104c858585613392565b61105585613478565b610aa185856134d4565b61106b84848484613538565b50505050565b611079613360565b6001600160a01b0382166000818152600f6020908152604091829020805460ff191685151590811790915591519182527f995d2434d36c9bceaab42c56efe51e8ffe41fd11cabefd9e2cb83700d8b2035e910160405180910390a25050565b8015611206576110e6611bab565b6001600160a01b0316336001600160a01b031614806111e4575060005460408051632fff70a960e21b815290516001600160a01b03909216916338dd8c2c913391849163bffdc2a49160048083019260209291908290030181865afa158015611153573d6000803e3d6000fd5b505050506040513d601f19601f820116820180604052508101906111779190614486565b6040516001600160e01b031960e085901b1681526001600160a01b0390921660048301526024820152604401602060405180830381865afa1580156111c0573d6000803e3d6000fd5b505050506040513d601f19601f820116820180604052508101906111e4919061449f565b61120157604051636fd743bb60e11b815260040160405180910390fd5b61123f565b61120e611bab565b6001600160a01b0316336001600160a01b03161461123f5760405163444b2c2360e11b815260040160405180910390fd5b6001600160a01b0383166000908152601160205260408120829184600b81111561126b5761126b614470565b600b81111561127c5761127c614470565b815260200190815260200160002060006101000a81548160ff021916908315150217905550826001600160a01b03167f09a1b808af19f025701cfcd3cd019fba653e4d664d69902d7b44880a49e6822c83836040516112dc9291906144d2565b60405180910390a2505050565b6000806112f88686868661369a565b915091505b94509492505050565b601054829060ff161561134c576001600160a01b0381166000908152600f602052604090205460ff1661134c5760405163efc6ae3360e01b815260040160405180910390fd5b60015460405163fe575a8760e01b81526001600160a01b0380861660048301528592169063fe575a8790602401602060405180830381865afa158015611396573d6000803e3d6000fd5b505050506040513d601f19601f820116820180604052508101906113ba919061449f565b156113d85760405163711b123360e01b815260040160405180910390fd5b6001600160a01b03851660009081526011602090815260408083206007845290915290205460ff161561141e576040516349fbea8b60e01b815260040160405180910390fd5b6001600160a01b03851660009081526006602052604090205460ff166114575760405163107732bd60e21b815260040160405180910390fd5b6001600160a01b038086166000908152600660209081526040808320938816835260029093019052205460ff1661150557336001600160a01b038616146114b157604051635db212ed60e11b815260040160405180910390fd5b6114bb858561395b565b6001600160a01b038086166000908152600660209081526040808320938816835260029093019052205460ff16611505576040516361dc86b560e11b815260040160405180910390fd5b60025460405163fc57d4df60e01b81526001600160a01b0387811660048301529091169063fc57d4df90602401602060405180830381865afa15801561154f573d6000803e3d6000fd5b505050506040513d601f19601f820116820180604052508101906115739190614486565b60000361159357604051636eda0f7b60e01b815260040160405180910390fd5b6001600160a01b0385166000908152600860205260409020548015611649576000866001600160a01b03166347bd37186040518163ffffffff1660e01b8152600401602060405180830381865afa1580156115f2573d6000803e3d6000fd5b505050506040513d601f19601f820116820180604052508101906116169190614486565b905060006116248287613a3b565b90508281106116465760405163c4047e0f60e01b815260040160405180910390fd5b50505b6000611658868860008861369a565b915050801561167a576040516384c1d20160e01b815260040160405180910390fd5b61168387613a4e565b610efe8787613a80565b611695613360565b6000600c8190556040517f6767d885d8956eb0b593fc8534cd27b3ec1213cbb5dc8e0004d25afd136286d49190a1565b600781815481106116d557600080fd5b6000918252602090912001546001600160a01b0316905081565b6116f7613360565b6001600160a01b03811661171e5760405163e5d0f96f60e01b815260040160405180910390fd5b6002546040516001600160a01b038084169216907fd52b2b9b7e9ee655fcb95d2e5b9e0c9f69e7ef2b8e9d2d0ea78402d576d22e2290600090a3600280546001600160a01b0319166001600160a01b0392909216919091179055565b60008061178b83600080600061369a565b91509150915091565b60015460405163fe575a8760e01b81526001600160a01b0380851660048301528492169063fe575a8790602401602060405180830381865afa1580156117de573d6000803e3d6000fd5b505050506040513d601f19601f82011682018060405250810190611802919061449f565b156118205760405163711b123360e01b815260040160405180910390fd5b60015460405163fe575a8760e01b81526001600160a01b0380851660048301528492169063fe575a8790602401602060405180830381865afa15801561186a573d6000803e3d6000fd5b505050506040513d601f19601f8201168201806040525081019061188e919061449f565b156118ac5760405163711b123360e01b815260040160405180910390fd5b6001600160a01b03861660009081526011602090815260408083206004845290915290205460ff1615801561190657506001600160a01b03851660009081526011602090815260408083206004845290915290205460ff16155b611923576040516349fbea8b60e01b815260040160405180910390fd5b6001600160a01b03851660009081526006602052604090205460ff1661195c5760405163107732bd60e21b815260040160405180910390fd5b6001600160a01b03861660009081526006602052604090205460ff166119955760405163107732bd60e21b815260040160405180910390fd5b846001600160a01b031663570ca7356040518163ffffffff1660e01b8152600401602060405180830381865afa1580156119d3573d6000803e3d6000fd5b505050506040513d601f19601f820116820180604052508101906119f79190614503565b6001600160a01b0316866001600160a01b031663570ca7356040518163ffffffff1660e01b8152600401602060405180830381865afa158015611a3e573d6000803e3d6000fd5b505050506040513d601f19601f82011682018060405250810190611a629190614503565b6001600160a01b031614611a8957604051632025588560e21b815260040160405180910390fd5b611a9286613478565b610caa86846134d4565b6001600160a01b0381166000908152601160209081526040808320600b845290915290205460ff1615611ae2576040516349fbea8b60e01b815260040160405180910390fd5b50565b611aed613360565b611af76000613aba565b565b3360009081526006602052604090205460ff16611b295760405163107732bd60e21b815260040160405180910390fd5b600b5415611ae257600e54600d54611b419190614536565b421115611b52576000600c5542600d555b6000611b5e8233613b2b565b9050600b5481600c54611b719190614536565b1115611b9057604051630fb1f67d60e31b815260040160405180910390fd5b80600c6000828254611ba29190614536565b90915550505050565b7f9016d09d72d40fdae2fd8ceac6b6234c7706214fd39c1cd1e609a0528c199300546001600160a01b031690565b600061097482613bf1565b601054819060ff1615611c2a576001600160a01b0381166000908152600f602052604090205460ff16611c2a5760405163efc6ae3360e01b815260040160405180910390fd5b336000908152600660205260409020805460ff16611c5b5760405163107732bd60e21b815260040160405180910390fd5b610f6a338461395b565b611c6d613360565b6001600160a01b0382166000818152600460209081526040918290205482519384529083015281018290527f27341352c0a718639d6e997adf9031500037bcdf0e1a0396469ea59fdd815ed89060600160405180910390a16001600160a01b03909116600090815260046020526040902055565b611ce9613360565b600a546040516001600160a01b038084169216907f8ddca872a7a62d68235cff1a03badc845dc3007cfaa6145379f7bf3452ecb9b990600090a3600a80546001600160a01b0319166001600160a01b0392909216919091179055565b6001600160a01b038116600090815260056020908152604091829020805483518184028101840190945280845260609392830182828015611daf57602002820191906000526020600020905b81546001600160a01b03168152600190910190602001808311611d91575b50505050509050919050565b60606007805480602002602001604051908101604052809291908181526020018280548015611e1357602002820191906000526020600020905b81546001600160a01b03168152600190910190602001808311611df5575b5050505050905090565b601054829060ff1615611e63576001600160a01b0381166000908152600f602052604090205460ff16611e635760405163efc6ae3360e01b815260040160405180910390fd5b60015460405163fe575a8760e01b81526001600160a01b0380861660048301528592169063fe575a8790602401602060405180830381865afa158015611ead573d6000803e3d6000fd5b505050506040513d601f19601f82011682018060405250810190611ed1919061449f565b15611eef5760405163711b123360e01b815260040160405180910390fd5b6001600160a01b0386166000908152601160209081526040808320600a845290915290205460ff1615611f35576040516349fbea8b60e01b815260040160405180910390fd5b6001600160a01b03861660009081526006602052604090205460ff16611f6e5760405163107732bd60e21b815260040160405180910390fd5b6001600160a01b03851660009081526006602052604090205460ff16611fa75760405163107732bd60e21b815260040160405180910390fd5b6040516395dd919360e01b81526001600160a01b038581166004830152600091908816906395dd919390602401602060405180830381865afa158015611ff1573d6000803e3d6000fd5b505050506040513d601f19601f820116820180604052508101906120159190614486565b905061202087613bf1565b1561204b578381101561204657604051634d6cf7c760e11b815260040160405180910390fd5b610efe565b600061205b86600080600061369a565b9150506000811161207f576040516384c1d20160e01b815260040160405180910390fd5b600061209b604051806020016040528060035481525084613340565b9050808611156120be576040516324517cf760e21b815260040160405180910390fd5b505050505050505050565b6120d1613360565b600e5460408051918252602082018390527f2f88a7c1e5b2f610ab1117e131a892f8047394a1040484d1d6e82b4b945d458f910160405180910390a1600e55565b61211a613360565b6001600160a01b0382166000908152600660205260409020805460ff166121545760405163107732bd60e21b815260040160405180910390fd5b60408051602080820183528482528251908101909252670c7d713b49da000082529061218281835190511090565b156121a057604051630264240760e11b815260040160405180910390fd5b831580159061221a575060025460405163fc57d4df60e01b81526001600160a01b0387811660048301529091169063fc57d4df90602401602060405180830381865afa1580156121f4573d6000803e3d6000fd5b505050506040513d601f19601f820116820180604052508101906122189190614486565b155b1561223857604051636eda0f7b60e01b815260040160405180910390fd5b600183015460408051918252602082018690526001600160a01b038716917f70483e6592cd5182d45ac970e05bc62cdcc90e9d8ef2c2dbe686cf383bcd7fc5910160405180910390a250506001015550565b601054819060ff16156122d0576001600160a01b0381166000908152600f602052604090205460ff166122d05760405163efc6ae3360e01b815260040160405180910390fd5b60015460405163fe575a8760e01b81526001600160a01b0380851660048301528492169063fe575a8790602401602060405180830381865afa15801561231a573d6000803e3d6000fd5b505050506040513d601f19601f8201168201806040525081019061233e919061449f565b1561235c5760405163711b123360e01b815260040160405180910390fd5b6001600160a01b03841660009081526011602090815260408083206006845290915290205460ff16156123a2576040516349fbea8b60e01b815260040160405180910390fd5b6001600160a01b03841660009081526006602052604090205460ff166123db5760405163107732bd60e21b815260040160405180910390fd5b6123e484613478565b61106b84846134d4565b601054339060ff1615612434576001600160a01b0381166000908152600f602052604090205460ff166124345760405163efc6ae3360e01b815260040160405180910390fd5b8160005b81811015610aa1576000858583818110612454576124546144bc565b90506020020160208101906124699190613efe565b9050612475813361395b565b50600101612438565b601054819060ff16156124c4576001600160a01b0381166000908152600f602052604090205460ff166124c45760405163efc6ae3360e01b815260040160405180910390fd5b6001600160a01b03831660009081526011602090815260408083206008845290915290205460ff161561250a576040516349fbea8b60e01b815260040160405180910390fd5b6001600160a01b03831660009081526006602052604090205460ff166125435760405163107732bd60e21b815260040160405180910390fd5b61254c83613a4e565b610f6a8383613a80565b60025460405163fc57d4df60e01b81526001600160a01b038581166004830152600092839291169063fc57d4df90602401602060405180830381865afa1580156125a4573d6000803e3d6000fd5b505050506040513d601f19601f820116820180604052508101906125c89190614486565b60025460405163fc57d4df60e01b81526001600160a01b0387811660048301529293506000929091169063fc57d4df90602401602060405180830381865afa158015612618573d6000803e3d6000fd5b505050506040513d601f19601f8201168201806040525081019061263c9190614486565b905060008211801561264e5750600081115b61266b57604051637107178f60e01b815260040160405180910390fd5b6000856001600160a01b031663182df0f56040518163ffffffff1660e01b8152600401602060405180830381865afa1580156126ab573d6000803e3d6000fd5b505050506040513d601f19601f820116820180604052508101906126cf9190614486565b90506126e76040518060200160405280600081525090565b6040805160208082018352600080835283518083018552818152845180840186526001600160a01b038d1683526004845291859020548252845192830190945287825291929161273691613cb7565b925061275e604051806020016040528087815250604051806020016040528087815250613cb7565b915061276a8383613cff565b90506127768189613340565b9a9950505050505050505050565b61278c613360565b6001600160a01b03811660009081526006602052604090205460ff16156127c557604051625297eb60e11b815260040160405180910390fd5b6001600160a01b03811660009081526006602052604081208054600160ff19918216811783556003830180549092169091558101829055905b60075481101561285f57826001600160a01b031660078281548110612825576128256144bc565b6000918252602090912001546001600160a01b03160361285757604051625297eb60e11b815260040160405180910390fd5b6001016127fe565b50600780546001810182556000919091527fa66cc928b5edb82af9bd49922954155ab7b0942694bea4ce44661d9a8736c6880180546001600160a01b0319166001600160a01b0384169081179091556040519081527fcf583bb0c569eb967f806b11601c4cb93c10310485c67add5f8362c2f212321f9060200160405180910390a15050565b6128ed613360565b6010805460ff191660011790556040517fe5e5846f783279948f6ec5faad38318cde86fe5be7ea845ede56d62f16c3743490600090a1565b61292d611bab565b6001600160a01b0316336001600160a01b03161480612a2b575060005460408051639943ad6760e01b815290516001600160a01b03909216916338dd8c2c9133918491639943ad679160048083019260209291908290030181865afa15801561299a573d6000803e3d6000fd5b505050506040513d601f19601f820116820180604052508101906129be9190614486565b6040516001600160e01b031960e085901b1681526001600160a01b0390921660048301526024820152604401602060405180830381865afa158015612a07573d6000803e3d6000fd5b505050506040513d601f19601f82011682018060405250810190612a2b919061449f565b612a4857604051636fd743bb60e11b815260040160405180910390fd5b82818115801590612a5857508082145b612a755760405163e5d0f96f60e01b815260040160405180910390fd5b60005b82811015610efe57848482818110612a9257612a926144bc565b9050602002013560096000898985818110612aaf57612aaf6144bc565b9050602002016020810190612ac49190613efe565b6001600160a01b03168152602081019190915260400160002055868682818110612af057612af06144bc565b9050602002016020810190612b059190613efe565b6001600160a01b03167f9e0ad9cee10bdf36b7fbd38910c0bdff0f275ace679b45b922381c2723d676f8868684818110612b4157612b416144bc565b90506020020135604051612b5791815260200190565b60405180910390a2600101612a78565b612b6f613360565b6010805460ff191690556040517f212c6e1d3045c9581ef0adf2504dbb1d137f52f38162ccf77a16c69d14eba5c390600090a1565b60008060005b600754811015612c7d57600060078281548110612bc957612bc96144bc565b6000918252602090912001546001600160a01b03169050612be981613bf1565b15612bf45750612baa565b6000816001600160a01b031663c70920bc6040518163ffffffff1660e01b8152600401602060405180830381865afa158015612c34573d6000803e3d6000fd5b505050506040513d601f19601f82011682018060405250810190612c589190614486565b9050612c648183613b2b565b612c6e9085614536565b93508260010192505050612baa565b50919050565b60056020528160005260406000208181548110612c9f57600080fd5b6000918252602090912001546001600160a01b03169150829050565b604080516001808252818301909252600091602080830190803683370190505090508181600081518110612cf157612cf16144bc565b60200260200101906001600160a01b031690816001600160a01b031681525050610aa5816007805480602002602001604051908101604052809291908181526020018280548015612d6b57602002820191906000526020600020905b81546001600160a01b03168152600190910190602001808311612d4d575b5050505050600180613538565b6001600160a01b0381166000908152600660209081526040808320338452600281019092529091205460ff16612dac575050565b6040516361bfb47160e11b815233600482015260009081906001600160a01b0385169063c37f68e290602401606060405180830381865afa158015612df5573d6000803e3d6000fd5b505050506040513d601f19601f82011682018060405250810190612e199190614549565b509150915080600014612e3f57604051630c75ffbd60e41b815260040160405180910390fd5b612e4a843384613392565b3360009081526002840160209081526040808320805460ff191690556005825280832080548251818502810185019093528083529192909190830182828015612ebc57602002820191906000526020600020905b81546001600160a01b03168152600190910190602001808311612e9e575b5050835193945083925060009150505b82811015612f1657876001600160a01b0316848281518110612ef057612ef06144bc565b60200260200101516001600160a01b031603612f0e57809150612f16565b600101612ecc565b50818110612f3757604051632e31529960e21b815260040160405180910390fd5b33600090815260056020526040902080548190612f5690600190614577565b81548110612f6657612f666144bc565b9060005260206000200160009054906101000a90046001600160a01b0316818381548110612f9657612f966144bc565b9060005260206000200160006101000a8154816001600160a01b0302191690836001600160a01b0316021790555080805480612fd457612fd461458a565b600082815260208120820160001990810180546001600160a01b031916905590910190915560405133916001600160a01b038b16917fe699a64c18b07ac5b7301aa273f36a2287239eb9501d81950672794afba29a0d9190a35050505050505050565b61303f613360565b6001600160a01b03811661306e57604051631e4fbdf760e01b8152600060048201526024015b60405180910390fd5b611ae281613aba565b61307f613360565b6001600160a01b0381166130a65760405163e5d0f96f60e01b815260040160405180910390fd5b600080546040516001600160a01b03808516939216917f9859cd0a756b5f08366068b791448fb837581d3b8afc097914d88edbc7bff2a391a3600080546001600160a01b0319166001600160a01b0392909216919091179055565b7ff0c57e16840df040f15088dc2f81fe391c3923bec73e23a9662efc9c229c6a008054600160401b810460ff16159067ffffffffffffffff166000811580156131475750825b905060008267ffffffffffffffff1660011480156131645750303b155b905081158015613172575080155b156131905760405163f92ee8a960e01b815260040160405180910390fd5b845467ffffffffffffffff1916600117855583156131ba57845460ff60401b1916600160401b1785555b6001600160a01b0389166131e1576040516377cdc2b960e11b815260040160405180910390fd5b6001600160a01b0388166132085760405163a00108e360e01b815260040160405180910390fd5b6001600160a01b03871661322f5760405163044e4f4b60e51b815260040160405180910390fd5b6001600160a01b0386166132565760405163e5d0f96f60e01b815260040160405180910390fd5b61325f86613d39565b600080546001600160a01b03808c166001600160a01b0319928316178355600180548c8316908416179055600a8054918b1691909216179055610e10600e5542600d55600b5583156120be57845460ff60401b19168555604051600181527fc7f505b2f371ae2175ee4913f4499e1f2633a7b5936321eed1cdaeb6115181d29060200160405180910390a1505050505050505050565b6132fd613360565b600b54604080519182526020820183905233917f2800dd60f12c0bee63cd1a581080d66f36f2d862ee33e1aaa473fc310df44ca6910160405180910390a2600b55565b60008061334d8484613d4a565b905061335881613d72565b949350505050565b33613369611bab565b6001600160a01b031614611af75760405163118cdaa760e01b8152336004820152602401613065565b6001600160a01b03831660009081526011602090815260408083206009845290915290205460ff16156133d8576040516349fbea8b60e01b815260040160405180910390fd5b6001600160a01b03831660009081526006602052604090205460ff166134115760405163107732bd60e21b815260040160405180910390fd5b6001600160a01b038084166000908152600660209081526040808320938616835260029093019052205460ff1661344757505050565b6000613456838584600061369a565b915050801561106b576040516384c1d20160e01b815260040160405180910390fd5b600a5460405163743597df60e11b81526001600160a01b0383811660048301529091169063e86b2fbe906024015b600060405180830381600087803b1580156134c057600080fd5b505af1158015610aa1573d6000803e3d6000fd5b600a54604051631169274f60e21b81526001600160a01b0384811660048301528381166024830152909116906345a49d3c906044015b600060405180830381600087803b15801561352457600080fd5b505af1158015610cb4573d6000803e3d6000fd5b825160005b8181101561363b576000858281518110613559576135596144bc565b6020908102919091018101516001600160a01b0381166000908152600690925260409091205490915060ff166135a25760405163107732bd60e21b815260040160405180910390fd5b84156135ea576135b181613a4e565b60005b87518110156135e8576135e0828983815181106135d3576135d36144bc565b6020026020010151613a80565b6001016135b4565b505b8315613632576135f981613478565b60005b8751811015613630576136288289838151811061361b5761361b6144bc565b60200260200101516134d4565b6001016135fc565b505b5060010161353d565b50600a5460405163318d9e5d60e01b81526001600160a01b039091169063318d9e5d9061366c9088906004016143e2565b600060405180830381600087803b15801561368657600080fd5b505af11580156120be573d6000803e3d6000fd5b6000806136a5613e37565b6001600160a01b038716600090815260056020526040812054905b81811015613911576001600160a01b03891660009081526005602052604081208054839081106136f2576136f26144bc565b6000918252602090912001546040516361bfb47160e11b81526001600160a01b038c811660048301529091169150819063c37f68e290602401606060405180830381865afa158015613748573d6000803e3d6000fd5b505050506040513d601f19601f8201168201806040525081019061376c9190614549565b6080870190815260608701919091526040808701929092528151602081810184526001600160a01b0385811660008181526006845286902060010154845260c08a0193909352845191820185529251815260e0880152600254925163fc57d4df60e01b8152600481019190915291169063fc57d4df90602401602060405180830381865afa158015613802573d6000803e3d6000fd5b505050506040513d601f19601f820116820180604052508101906138269190614486565b60a0850181905260000361384d576040516368959e3d60e11b815260040160405180910390fd5b604080516020810190915260a0850151815261010085015260c084015160e08501516138879161387c91613cb7565b856101000151613cb7565b6101208501819052604085015185516138a1929190613d8a565b8452610100840151606085015160208601516138be929190613d8a565b60208501526001600160a01b03808a1690821603613908576138ea846101200151898660200151613d8a565b60208501819052610100850151613902918990613d8a565b60208501525b506001016136c0565b5060208201518251111561393d57602082015182516139309190614577565b60009350935050506112fd565b8151602083015160009161395091614577565b9350935050506112fd565b6001600160a01b0382166000908152600660205260409020805460ff166139955760405163107732bd60e21b815260040160405180910390fd5b6001600160a01b038216600090815260028201602052604090205460ff16610f6a576001600160a01b0380831660008181526002840160209081526040808320805460ff191660019081179091556005835281842080549182018155845291832090910180549488166001600160a01b031990951685179055519192917f3ab23ab0d51cccc0c3085aec51f99228625aa1a922b3a8ca89a26b0f2027a1a59190a3505050565b6000613a478284614536565b9392505050565b600a54604051635ce65fe960e01b81526001600160a01b03838116600483015290911690635ce65fe9906024016134a6565b600a546040516375c7940360e11b81526001600160a01b03848116600483015283811660248301529091169063eb8f28069060440161350a565b7f9016d09d72d40fdae2fd8ceac6b6234c7706214fd39c1cd1e609a0528c19930080546001600160a01b031981166001600160a01b03848116918217845560405192169182907f8be0079c531659141344cd1fd0a4f28419497f9722a3daafe3b4186f6b6457e090600090a3505050565b60025460405163fc57d4df60e01b81526001600160a01b038381166004830152600092839291169063fc57d4df90602401602060405180830381865afa158015613b79573d6000803e3d6000fd5b505050506040513d601f19601f82011682018060405250810190613b9d9190614486565b905080600003613bc0576040516368959e3d60e11b815260040160405180910390fd5b60408051602081019091528181526402540be400613bde8683613dab565b613be891906145a0565b95945050505050565b6001600160a01b038116600090815260066020526040812060010154158015613c3e57506001600160a01b03821660009081526011602090815260408083206007845290915290205460ff165b80156109745750816001600160a01b031663173b99046040518163ffffffff1660e01b8152600401602060405180830381865afa158015613c83573d6000803e3d6000fd5b505050506040513d601f19601f82011682018060405250810190613ca79190614486565b670de0b6b3a76400001492915050565b6040805160208101909152600081526040518060200160405280670de0b6b3a7640000613cec86600001518660000151613dce565b613cf691906145a0565b90529392505050565b6040805160208101909152600081526040518060200160405280613cf6613d328660000151670de0b6b3a7640000613dce565b8551613dda565b613d41613de6565b611ae281613e2f565b6040805160208101909152600081526040518060200160405280613cf6856000015185613dce565b805160009061097490670de0b6b3a7640000906145a0565b600080613d978585613d4a565b9050613be8613da582613d72565b84613a3b565b6000670de0b6b3a7640000613dc4848460000151613dce565b613a4791906145a0565b6000613a4782846145c2565b6000613a4782846145a0565b7ff0c57e16840df040f15088dc2f81fe391c3923bec73e23a9662efc9c229c6a0054600160401b900460ff16611af757604051631afcd79f60e31b815260040160405180910390fd5b61303f613de6565b604051806101400160405280600081526020016000815260200160008152602001600081526020016000815260200160008152602001613e836040518060200160405280600081525090565b8152602001613e9e6040518060200160405280600081525090565b8152602001613eb96040518060200160405280600081525090565b8152602001613ed46040518060200160405280600081525090565b905290565b6001600160a01b0381168114611ae257600080fd5b8035613ef981613ed9565b919050565b600060208284031215613f1057600080fd5b8135613a4781613ed9565b8035600c8110613ef957600080fd5b60008060408385031215613f3d57600080fd5b8235613f4881613ed9565b9150613f5660208401613f1b565b90509250929050565b600060208284031215613f7157600080fd5b5035919050565b60008060008060808587031215613f8e57600080fd5b8435613f9981613ed9565b93506020850135613fa981613ed9565b92506040850135613fb981613ed9565b9396929550929360600135925050565b60008083601f840112613fdb57600080fd5b50813567ffffffffffffffff811115613ff357600080fd5b6020830191508360208260051b850101111561400e57600080fd5b9250929050565b6000806000806040858703121561402b57600080fd5b843567ffffffffffffffff81111561404257600080fd5b61404e87828801613fc9565b909550935050602085013567ffffffffffffffff81111561406e57600080fd5b61407a87828801613fc9565b95989497509550505050565b634e487b7160e01b600052604160045260246000fd5b600082601f8301126140ad57600080fd5b813567ffffffffffffffff8111156140c7576140c7614086565b8060051b604051601f19603f830116810181811067ffffffffffffffff821117156140f4576140f4614086565b60405291825260208185018101929081018684111561411257600080fd5b6020860192505b838310156141385761412a83613eee565b815260209283019201614119565b5095945050505050565b6000806040838503121561415557600080fd5b823561416081613ed9565b9150602083013567ffffffffffffffff81111561417c57600080fd5b6141888582860161409c565b9150509250929050565b6000806000606084860312156141a757600080fd5b83356141b281613ed9565b925060208401356141c281613ed9565b929592945050506040919091013590565b8015158114611ae257600080fd5b600080600080608085870312156141f757600080fd5b843567ffffffffffffffff81111561420e57600080fd5b61421a8782880161409c565b945050602085013567ffffffffffffffff81111561423757600080fd5b6142438782880161409c565b9350506040850135614254816141d3565b91506060850135614264816141d3565b939692955090935050565b6000806040838503121561428257600080fd5b823561428d81613ed9565b9150602083013561429d816141d3565b809150509250929050565b6000806000606084860312156142bd57600080fd5b83356142c881613ed9565b92506142d660208501613f1b565b915060408401356142e6816141d3565b809150509250925092565b6000806000806080858703121561430757600080fd5b843561431281613ed9565b9350602085013561432281613ed9565b93969395505050506040820135916060013590565b6000806000806080858703121561434d57600080fd5b843561435881613ed9565b9350602085013561436881613ed9565b9250604085013561437881613ed9565b9150606085013561426481613ed9565b6000806040838503121561439b57600080fd5b82356143a681613ed9565b9150602083013561429d81613ed9565b600080604083850312156143c957600080fd5b82356143d481613ed9565b946020939093013593505050565b602080825282518282018190526000918401906040840190835b818110156144235783516001600160a01b03168352602093840193909201916001016143fc565b509095945050505050565b6000806020838503121561444157600080fd5b823567ffffffffffffffff81111561445857600080fd5b61446485828601613fc9565b90969095509350505050565b634e487b7160e01b600052602160045260246000fd5b60006020828403121561449857600080fd5b5051919050565b6000602082840312156144b157600080fd5b8151613a47816141d3565b634e487b7160e01b600052603260045260246000fd5b60408101600c84106144f457634e487b7160e01b600052602160045260246000fd5b92815290151560209091015290565b60006020828403121561451557600080fd5b8151613a4781613ed9565b634e487b7160e01b600052601160045260246000fd5b8082018082111561097457610974614520565b60008060006060848603121561455e57600080fd5b5050815160208301516040909301519094929350919050565b8181038181111561097457610974614520565b634e487b7160e01b600052603160045260246000fd5b6000826145bd57634e487b7160e01b600052601260045260246000fd5b500490565b80820281158282048414176109745761097461452056fea2646970667358221220b11cc8ce514d0b5c921b57156b0600d8f8dd650b68f7cca25c5a9aa10489abea64736f6c634300081c0033","linkReferences":{}},"methodIdentifiers":{"accountAssets(address,uint256)":"dce15449","afterMTokenMint(address)":"0d926fc8","allMarkets(uint256)":"52d84d1e","beforeMTokenBorrow(address,address,uint256)":"50795f8a","beforeMTokenLiquidate(address,address,address,uint256)":"b50ce762","beforeMTokenMint(address,address)":"c0f1ee09","beforeMTokenRedeem(address,address,uint256)":"1e32bd9b","beforeMTokenRepay(address,address)":"c321fbcc","beforeMTokenSeize(address,address,address,address)":"6765dff9","beforeMTokenTransfer(address,address,address,uint256)":"17bf120e","beforeRebalancing(address)":"68f6f4b0","blacklistOperator()":"2d57d487","borrowCaps(address)":"4a584432","checkMembership(address,address)":"929fe9a1","checkOutflowVolumeLimit(uint256)":"823307f2","claimMalda(address)":"e44a429a","claimMalda(address,address[])":"1c7818ac","claimMalda(address[],address[],bool,bool)":"1fbd27a5","closeFactorMantissa()":"e8755446","cumulativeOutflowVolume()":"700e1212","disableWhitelist()":"d6b0f484","enableWhitelist()":"cdfb2b4e","enterMarkets(address[])":"c2998238","enterMarketsWithSender(address)":"973fd521","exitMarket(address)":"ede4edd0","getAccountLiquidity(address)":"5ec88c79","getAllMarkets()":"b0772d0b","getAssetsIn(address)":"abfceffc","getHypotheticalAccountLiquidity(address,address,uint256,uint256)":"4e79238f","getUSDValueForAllMarkets()":"d99faea5","initialize(address,address,address,address)":"f8c8765e","isDeprecated(address)":"94543c15","isMarketListed(address)":"3d98a1e5","isOperator()":"4456eda2","isPaused(address,uint8)":"0d126627","lastOutflowResetTimestamp()":"ddf46254","limitPerTimePeriod()":"8728d8a7","liquidateCalculateSeizeTokens(address,address,uint256)":"c488847b","liquidationIncentiveMantissa(address)":"2e06d7b1","markets(address)":"8e8f294b","oracleOperator()":"11679ef7","outflowResetTimeWindow()":"e92081b4","owner()":"8da5cb5b","renounceOwnership()":"715018a6","resetOutflowVolume()":"52a2548d","rewardDistributor()":"acc2166a","rolesOperator()":"4fecab70","setCloseFactor(uint256)":"12348e96","setCollateralFactor(address,uint256)":"c04f31ff","setLiquidationIncentive(address,uint256)":"9bd8f6e8","setMarketBorrowCaps(address[],uint256[])":"186db48f","setMarketSupplyCaps(address[],uint256[])":"d136af44","setOutflowTimeLimitInUSD(uint256)":"f9f00f89","setOutflowVolumeTimeWindow(uint256)":"befca684","setPaused(address,uint8,bool)":"4a675b34","setPriceOracle(address)":"530e784f","setRewardDistributor(address)":"a1809b95","setRolesOperator(address)":"f89416ee","setWhitelistedUser(address,bool)":"44710fbe","supplyCaps(address)":"02c3bcbb","supportMarket(address)":"cab4f84c","transferOwnership(address)":"f2fde38b","userWhitelisted(address)":"fc2e0c2f","whitelistEnabled()":"51fb012d"},"id":48}