{"abi":[{"type":"constructor","inputs":[{"name":"symbols_","type":"string[]","internalType":"string[]"},{"name":"configs_","type":"tuple[]","internalType":"struct MixedPriceOracleV4.PriceConfig[]","components":[{"name":"api3Feed","type":"address","internalType":"address"},{"name":"eOracleFeed","type":"address","internalType":"address"},{"name":"toSymbol","type":"string","internalType":"string"},{"name":"underlyingDecimals","type":"uint256","internalType":"uint256"}]},{"name":"roles_","type":"address","internalType":"address"},{"name":"stalenessPeriod_","type":"uint256","internalType":"uint256"}],"stateMutability":"nonpayable"},{"type":"function","name":"PRICE_DELTA_EXP","inputs":[],"outputs":[{"name":"","type":"uint256","internalType":"uint256"}],"stateMutability":"view"},{"type":"function","name":"STALENESS_PERIOD","inputs":[],"outputs":[{"name":"","type":"uint256","internalType":"uint256"}],"stateMutability":"view"},{"type":"function","name":"configs","inputs":[{"name":"","type":"string","internalType":"string"}],"outputs":[{"name":"api3Feed","type":"address","internalType":"address"},{"name":"eOracleFeed","type":"address","internalType":"address"},{"name":"toSymbol","type":"string","internalType":"string"},{"name":"underlyingDecimals","type":"uint256","internalType":"uint256"}],"stateMutability":"view"},{"type":"function","name":"deltaPerSymbol","inputs":[{"name":"","type":"string","internalType":"string"}],"outputs":[{"name":"","type":"uint256","internalType":"uint256"}],"stateMutability":"view"},{"type":"function","name":"getPrice","inputs":[{"name":"mToken","type":"address","internalType":"address"}],"outputs":[{"name":"","type":"uint256","internalType":"uint256"}],"stateMutability":"view"},{"type":"function","name":"getUnderlyingPrice","inputs":[{"name":"mToken","type":"address","internalType":"address"}],"outputs":[{"name":"","type":"uint256","internalType":"uint256"}],"stateMutability":"view"},{"type":"function","name":"maxPriceDelta","inputs":[],"outputs":[{"name":"","type":"uint256","internalType":"uint256"}],"stateMutability":"view"},{"type":"function","name":"roles","inputs":[],"outputs":[{"name":"","type":"address","internalType":"contract IRoles"}],"stateMutability":"view"},{"type":"function","name":"setConfig","inputs":[{"name":"symbol","type":"string","internalType":"string"},{"name":"config","type":"tuple","internalType":"struct MixedPriceOracleV4.PriceConfig","components":[{"name":"api3Feed","type":"address","internalType":"address"},{"name":"eOracleFeed","type":"address","internalType":"address"},{"name":"toSymbol","type":"string","internalType":"string"},{"name":"underlyingDecimals","type":"uint256","internalType":"uint256"}]}],"outputs":[],"stateMutability":"nonpayable"},{"type":"function","name":"setMaxPriceDelta","inputs":[{"name":"_delta","type":"uint256","internalType":"uint256"}],"outputs":[],"stateMutability":"nonpayable"},{"type":"function","name":"setStaleness","inputs":[{"name":"symbol","type":"string","internalType":"string"},{"name":"val","type":"uint256","internalType":"uint256"}],"outputs":[],"stateMutability":"nonpayable"},{"type":"function","name":"setSymbolMaxPriceDelta","inputs":[{"name":"_delta","type":"uint256","internalType":"uint256"},{"name":"_symbol","type":"string","internalType":"string"}],"outputs":[],"stateMutability":"nonpayable"},{"type":"function","name":"stalenessPerSymbol","inputs":[{"name":"","type":"string","internalType":"string"}],"outputs":[{"name":"","type":"uint256","internalType":"uint256"}],"stateMutability":"view"},{"type":"event","name":"ConfigSet","inputs":[{"name":"symbol","type":"string","indexed":false,"internalType":"string"},{"name":"config","type":"tuple","indexed":false,"internalType":"struct MixedPriceOracleV4.PriceConfig","components":[{"name":"api3Feed","type":"address","internalType":"address"},{"name":"eOracleFeed","type":"address","internalType":"address"},{"name":"toSymbol","type":"string","internalType":"string"},{"name":"underlyingDecimals","type":"uint256","internalType":"uint256"}]}],"anonymous":false},{"type":"event","name":"PriceDeltaUpdated","inputs":[{"name":"oldVal","type":"uint256","indexed":false,"internalType":"uint256"},{"name":"newVal","type":"uint256","indexed":false,"internalType":"uint256"}],"anonymous":false},{"type":"event","name":"PriceSymbolDeltaUpdated","inputs":[{"name":"oldVal","type":"uint256","indexed":false,"internalType":"uint256"},{"name":"newVal","type":"uint256","indexed":false,"internalType":"uint256"},{"name":"symbol","type":"string","indexed":false,"internalType":"string"}],"anonymous":false},{"type":"event","name":"StalenessUpdated","inputs":[{"name":"symbol","type":"string","indexed":false,"internalType":"string"},{"name":"val","type":"uint256","indexed":false,"internalType":"uint256"}],"anonymous":false},{"type":"error","name":"MixedPriceOracle_ApiV3StalePrice","inputs":[]},{"type":"error","name":"MixedPriceOracle_DeltaTooHigh","inputs":[]},{"type":"error","name":"MixedPriceOracle_InvalidConfig","inputs":[]},{"type":"error","name":"MixedPriceOracle_InvalidConfigDecimals","inputs":[]},{"type":"error","name":"MixedPriceOracle_InvalidPrice","inputs":[]},{"type":"error","name":"MixedPriceOracle_InvalidRound","inputs":[]},{"type":"error","name":"MixedPriceOracle_MissingFeed","inputs":[]},{"type":"error","name":"MixedPriceOracle_Unauthorized","inputs":[]},{"type":"error","name":"MixedPriceOracle_eOracleStalePrice","inputs":[]}],"bytecode":{"object":"0x60c06040526105dc60035534801561001657600080fd5b506040516121033803806121038339810160408190526100359161033c565b6001600160a01b03821660a05260005b84518110156100fb5783818151811061006057610060610436565b6020026020010151600086838151811061007c5761007c610436565b6020026020010151604051610091919061044c565b9081526040805160209281900383019020835181546001600160a01b03199081166001600160a01b039283161783559385015160018301805490951691161790925582015160028201906100e590826104f1565b5060609190910151600390910155600101610045565b50608052506105af915050565b634e487b7160e01b600052604160045260246000fd5b604051608081016001600160401b038111828210171561014057610140610108565b60405290565b604051601f8201601f191681016001600160401b038111828210171561016e5761016e610108565b604052919050565b60006001600160401b0382111561018f5761018f610108565b5060051b60200190565b60005b838110156101b457818101518382015260200161019c565b50506000910152565b600082601f8301126101ce57600080fd5b81516001600160401b038111156101e7576101e7610108565b6101fa601f8201601f1916602001610146565b81815284602083860101111561020f57600080fd5b610220826020830160208701610199565b949350505050565b80516001600160a01b038116811461023f57600080fd5b919050565b600082601f83011261025557600080fd5b815161026861026382610176565b610146565b8082825260208201915060208360051b86010192508583111561028a57600080fd5b602085015b838110156103325780516001600160401b038111156102ad57600080fd5b86016080818903601f190112156102c357600080fd5b6102cb61011e565b6102d760208301610228565b81526102e560408301610228565b602082015260608201516001600160401b0381111561030357600080fd5b6103128a6020838601016101bd565b60408301525060809190910151606082015283526020928301920161028f565b5095945050505050565b6000806000806080858703121561035257600080fd5b84516001600160401b0381111561036857600080fd5b8501601f8101871361037957600080fd5b805161038761026382610176565b8082825260208201915060208360051b8501019250898311156103a957600080fd5b602084015b838110156103ea5780516001600160401b038111156103cc57600080fd5b6103db8c6020838901016101bd565b845250602092830192016103ae565b506020890151909750925050506001600160401b0381111561040b57600080fd5b61041787828801610244565b93505061042660408601610228565b6060959095015193969295505050565b634e487b7160e01b600052603260045260246000fd5b6000825161045e818460208701610199565b9190910192915050565b600181811c9082168061047c57607f821691505b60208210810361049c57634e487b7160e01b600052602260045260246000fd5b50919050565b601f8211156104ec57806000526020600020601f840160051c810160208510156104c95750805b601f840160051c820191505b818110156104e957600081556001016104d5565b50505b505050565b81516001600160401b0381111561050a5761050a610108565b61051e816105188454610468565b846104a2565b6020601f821160018114610552576000831561053a5750848201515b600019600385901b1c1916600184901b1784556104e9565b600084815260208120601f198516915b828110156105825787850151825560209485019460019092019101610562565b50848210156105a05786840151600019600387901b60f8161c191681555b50505050600190811b01905550565b60805160a051611af1610612600039600081816101530152818161024f0152818161027f01528181610576015281816105a60152818161071701528181610747015281816108b201526108e201526000818160ee01526111a50152611af16000f3fe608060405234801561001057600080fd5b50600436106100cf5760003560e01c806366ed54441161008c578063c86e868511610066578063c86e8685146101e9578063ec285406146101fc578063fc57d4df1461020f578063ffa890c51461022257600080fd5b806366ed5444146101c35780637a2dc784146101cc578063a49f06ef146101df57600080fd5b80631a48b358146100d457806324c9477a146100e95780632ab77c5714610123578063392f5f641461014e57806341976e091461018d5780635ef7fbad146101a0575b600080fd5b6100e76100e23660046111f2565b61024d565b005b6101107f000000000000000000000000000000000000000000000000000000000000000081565b6040519081526020015b60405180910390f35b61011061013136600461135e565b805160208183018101805160018252928201919093012091525481565b6101757f000000000000000000000000000000000000000000000000000000000000000081565b6040516001600160a01b03909116815260200161011a565b61011061019b3660046113b3565b61042f565b6101b36101ae36600461135e565b6104aa565b60405161011a9493929190611420565b61011060035481565b6100e76101da36600461145d565b610574565b610110620186a081565b6100e76101f7366004611476565b610715565b6100e761020a3660046114bb565b6108b0565b61011061021d3660046113b3565b610acf565b61011061023036600461135e565b805160208183018101805160028252928201919093012091525481565b7f00000000000000000000000000000000000000000000000000000000000000006001600160a01b03166338dd8c2c337f00000000000000000000000000000000000000000000000000000000000000006001600160a01b0316637f3c8ff56040518163ffffffff1660e01b8152600401602060405180830381865afa1580156102db573d6000803e3d6000fd5b505050506040513d601f19601f820116820180604052508101906102ff919061158c565b6040516001600160e01b031960e085901b1681526001600160a01b0390921660048301526024820152604401602060405180830381865afa158015610348573d6000803e3d6000fd5b505050506040513d601f19601f8201168201806040525081019061036c91906115a5565b610389576040516307eb074d60e01b815260040160405180910390fd5b620186a08311156103ad576040516326da615160e01b815260040160405180910390fd5b7f688f976a86dd3074f11d14314186b93f438240953b5863693b990d6cd738dce6600283836040516103e09291906115c7565b908152604051908190036020018120546103ff918690869086906115d7565b60405180910390a1826002838360405161041a9291906115c7565b90815260405190819003602001902055505050565b600080826001600160a01b03166395d89b416040518163ffffffff1660e01b8152600401600060405180830381865afa158015610470573d6000803e3d6000fd5b505050506040513d6000823e601f3d908101601f191682016040526104989190810190611614565b90506104a381610cbe565b9392505050565b8051808201602090810180516000825292820191909301209152805460018201546002830180546001600160a01b039384169492909316926104eb90611682565b80601f016020809104026020016040519081016040528092919081815260200182805461051790611682565b80156105645780601f1061053957610100808354040283529160200191610564565b820191906000526020600020905b81548152906001019060200180831161054757829003601f168201915b5050505050908060030154905084565b7f00000000000000000000000000000000000000000000000000000000000000006001600160a01b03166338dd8c2c337f00000000000000000000000000000000000000000000000000000000000000006001600160a01b0316637f3c8ff56040518163ffffffff1660e01b8152600401602060405180830381865afa158015610602573d6000803e3d6000fd5b505050506040513d601f19601f82011682018060405250810190610626919061158c565b6040516001600160e01b031960e085901b1681526001600160a01b0390921660048301526024820152604401602060405180830381865afa15801561066f573d6000803e3d6000fd5b505050506040513d601f19601f8201168201806040525081019061069391906115a5565b6106b0576040516307eb074d60e01b815260040160405180910390fd5b620186a08111156106d4576040516326da615160e01b815260040160405180910390fd5b60035460408051918252602082018390527fb40b5817f6a1d7377b6c8930cdb72b872da18394aaff75ffbe73ffdedca3a2e2910160405180910390a1600355565b7f00000000000000000000000000000000000000000000000000000000000000006001600160a01b03166338dd8c2c337f00000000000000000000000000000000000000000000000000000000000000006001600160a01b0316637f3c8ff56040518163ffffffff1660e01b8152600401602060405180830381865afa1580156107a3573d6000803e3d6000fd5b505050506040513d601f19601f820116820180604052508101906107c7919061158c565b6040516001600160e01b031960e085901b1681526001600160a01b0390921660048301526024820152604401602060405180830381865afa158015610810573d6000803e3d6000fd5b505050506040513d601f19601f8201168201806040525081019061083491906115a5565b610851576040516307eb074d60e01b815260040160405180910390fd5b8060018360405161086291906116bc565b9081526020016040518091039020819055507e6ebc2a07d9cbde1f5c02f38e4224748a98286f396f9329f8c9bf03b4af1ed582826040516108a49291906116d8565b60405180910390a15050565b7f00000000000000000000000000000000000000000000000000000000000000006001600160a01b03166338dd8c2c337f00000000000000000000000000000000000000000000000000000000000000006001600160a01b0316637f3c8ff56040518163ffffffff1660e01b8152600401602060405180830381865afa15801561093e573d6000803e3d6000fd5b505050506040513d601f19601f82011682018060405250810190610962919061158c565b6040516001600160e01b031960e085901b1681526001600160a01b0390921660048301526024820152604401602060405180830381865afa1580156109ab573d6000803e3d6000fd5b505050506040513d601f19601f820116820180604052508101906109cf91906115a5565b6109ec576040516307eb074d60e01b815260040160405180910390fd5b80516001600160a01b03161580610a0e575060208101516001600160a01b0316155b15610a2b576040516204ea5f60e61b815260040160405180910390fd5b80600083604051610a3c91906116bc565b9081526040805160209281900383019020835181546001600160a01b03199081166001600160a01b03928316178355938501516001830180549095169116179092558201516002820190610a909082611749565b50606082015181600301559050507fe1c5d146221bf7b8aca8e1b646f7cb8c9a2f526541c9b73c3d16d19599ae914a82826040516108a4929190611808565b600080826001600160a01b0316636f307dc36040518163ffffffff1660e01b8152600401602060405180830381865afa158015610b10573d6000803e3d6000fd5b505050506040513d601f19601f82011682018060405250810190610b349190611872565b6001600160a01b03166395d89b416040518163ffffffff1660e01b8152600401600060405180830381865afa158015610b71573d6000803e3d6000fd5b505050506040513d6000823e601f3d908101601f19168201604052610b999190810190611614565b905060008082604051610bac91906116bc565b90815260408051918290036020908101832060808401835280546001600160a01b039081168552600182015416918401919091526002810180549192840191610bf490611682565b80601f0160208091040260200160405190810160405280929190818152602001828054610c2090611682565b8015610c6d5780601f10610c4257610100808354040283529160200191610c6d565b820191906000526020600020905b815481529060010190602001808311610c5057829003601f168201915b5050505050815260200160038201548152505090506000610c8d83610cbe565b905081606001516012610ca091906118a5565b610cab90600a61199f565b610cb590826119ab565b95945050505050565b600080600083604051610cd191906116bc565b90815260408051918290036020908101832060808401835280546001600160a01b039081168552600182015416918401919091526002810180549192840191610d1990611682565b80601f0160208091040260200160405190810160405280929190818152602001828054610d4590611682565b8015610d925780601f10610d6757610100808354040283529160200191610d92565b820191906000526020600020905b815481529060010190602001808311610d7557829003601f168201915b505050505081526020016003820154815250509050600080610db48584610e6a565b90925090506000610dc68260126118a5565b610dd190600a61199f565b610ddb90846119ab565b604051621554d160ea1b6020820152909150602301604051602081830303815290604052805190602001208460400151604051602001610e1b91906116bc565b6040516020818303038152906040528051906020012014610cb557670de0b6b3a7640000610e4c8560400151610cbe565b610e5690836119ab565b610e6091906119c2565b9695505050505050565b805160009081906001600160a01b03161580610e91575060208301516001600160a01b0316155b15610eaf5760405163a88a8ec360e01b815260040160405180910390fd5b60008084600001516001600160a01b031663feaf968c6040518163ffffffff1660e01b815260040160a060405180830381865afa158015610ef4573d6000803e3d6000fd5b505050506040513d601f19601f82011682018060405250810190610f189190611a03565b5093505092505060008086602001516001600160a01b031663feaf968c6040518163ffffffff1660e01b815260040160a060405180830381865afa158015610f64573d6000803e3d6000fd5b505050506040513d601f19601f82011682018060405250810190610f889190611a03565b509350509250506000610f9a89611177565b9050600081610fa986426118a5565b111590506000610fb987866111cf565b90506000808612610fca5785610fd3565b610fd386611a55565b610fe0620186a0846119ab565b610fea91906119c2565b9050600060028d604051610ffe91906116bc565b90815260200160405180910390205490508060000361101c57506003545b60008085158061102b57508284115b156110cc578661103b89426118a5565b106110595760405163057cd0a160e51b815260040160405180910390fd5b8d602001516001600160a01b031663313ce5676040518163ffffffff1660e01b8152600401602060405180830381865afa15801561109b573d6000803e3d6000fd5b505050506040513d601f19601f820116820180604052508101906110bf9190611a71565b60ff169150889050611164565b866110d78b426118a5565b106110f5576040516302fab6f360e31b815260040160405180910390fd5b8d600001516001600160a01b031663313ce5676040518163ffffffff1660e01b8152600401602060405180830381865afa158015611137573d6000803e3d6000fd5b505050506040513d601f19601f8201168201806040525081019061115b9190611a71565b60ff1691508a90505b9e909d509b505050505050505050505050565b60008060018360405161118a91906116bc565b9081526020016040518091039020549050600081116111c9577f00000000000000000000000000000000000000000000000000000000000000006104a3565b92915050565b6000818312156111e8576111e38383611a94565b6104a3565b6104a38284611a94565b60008060006040848603121561120757600080fd5b83359250602084013567ffffffffffffffff81111561122557600080fd5b8401601f8101861361123657600080fd5b803567ffffffffffffffff81111561124d57600080fd5b86602082840101111561125f57600080fd5b939660209190910195509293505050565b634e487b7160e01b600052604160045260246000fd5b6040516080810167ffffffffffffffff811182821017156112a9576112a9611270565b60405290565b604051601f8201601f1916810167ffffffffffffffff811182821017156112d8576112d8611270565b604052919050565b600067ffffffffffffffff8211156112fa576112fa611270565b50601f01601f191660200190565b600082601f83011261131957600080fd5b813561132c611327826112e0565b6112af565b81815284602083860101111561134157600080fd5b816020850160208301376000918101602001919091529392505050565b60006020828403121561137057600080fd5b813567ffffffffffffffff81111561138757600080fd5b61139384828501611308565b949350505050565b6001600160a01b03811681146113b057600080fd5b50565b6000602082840312156113c557600080fd5b81356104a38161139b565b60005b838110156113eb5781810151838201526020016113d3565b50506000910152565b6000815180845261140c8160208601602086016113d0565b601f01601f19169290920160200192915050565b6001600160a01b0385811682528416602082015260806040820181905260009061144c908301856113f4565b905082606083015295945050505050565b60006020828403121561146f57600080fd5b5035919050565b6000806040838503121561148957600080fd5b823567ffffffffffffffff8111156114a057600080fd5b6114ac85828601611308565b95602094909401359450505050565b600080604083850312156114ce57600080fd5b823567ffffffffffffffff8111156114e557600080fd5b6114f185828601611308565b925050602083013567ffffffffffffffff81111561150e57600080fd5b83016080818603121561152057600080fd5b611528611286565b81356115338161139b565b815260208201356115438161139b565b6020820152604082013567ffffffffffffffff81111561156257600080fd5b61156e87828501611308565b60408301525060609182013591810191909152919491935090915050565b60006020828403121561159e57600080fd5b5051919050565b6000602082840312156115b757600080fd5b815180151581146104a357600080fd5b8183823760009101908152919050565b84815283602082015260606040820152816060820152818360808301376000818301608090810191909152601f909201601f191601019392505050565b60006020828403121561162657600080fd5b815167ffffffffffffffff81111561163d57600080fd5b8201601f8101841361164e57600080fd5b805161165c611327826112e0565b81815285602083850101111561167157600080fd5b610cb58260208301602086016113d0565b600181811c9082168061169657607f821691505b6020821081036116b657634e487b7160e01b600052602260045260246000fd5b50919050565b600082516116ce8184602087016113d0565b9190910192915050565b6040815260006116eb60408301856113f4565b90508260208301529392505050565b601f82111561174457806000526020600020601f840160051c810160208510156117215750805b601f840160051c820191505b81811015611741576000815560010161172d565b50505b505050565b815167ffffffffffffffff81111561176357611763611270565b611777816117718454611682565b846116fa565b6020601f8211600181146117ab57600083156117935750848201515b600019600385901b1c1916600184901b178455611741565b600084815260208120601f198516915b828110156117db57878501518255602094850194600190920191016117bb565b50848210156117f95786840151600019600387901b60f8161c191681555b50505050600190811b01905550565b60408152600061181b60408301856113f4565b828103602084015260018060a01b03845116815260018060a01b03602085015116602082015260408401516080604083015261185a60808301826113f4565b90506060850151606083015280925050509392505050565b60006020828403121561188457600080fd5b81516104a38161139b565b634e487b7160e01b600052601160045260246000fd5b818103818111156111c9576111c961188f565b6001815b60018411156118f3578085048111156118d7576118d761188f565b60018416156118e557908102905b60019390931c9280026118bc565b935093915050565b60008261190a575060016111c9565b81611917575060006111c9565b816001811461192d576002811461193757611953565b60019150506111c9565b60ff8411156119485761194861188f565b50506001821b6111c9565b5060208310610133831016604e8410600b8410161715611976575081810a6111c9565b61198360001984846118b8565b80600019048211156119975761199761188f565b029392505050565b60006104a383836118fb565b80820281158282048414176111c9576111c961188f565b6000826119df57634e487b7160e01b600052601260045260246000fd5b500490565b805169ffffffffffffffffffff811681146119fe57600080fd5b919050565b600080600080600060a08688031215611a1b57600080fd5b611a24866119e4565b60208701516040880151606089015192975090955093509150611a49608087016119e4565b90509295509295909350565b6000600160ff1b8201611a6a57611a6a61188f565b5060000390565b600060208284031215611a8357600080fd5b815160ff811681146104a357600080fd5b8181036000831280158383131683831282161715611ab457611ab461188f565b509291505056fea2646970667358221220901194ec525ea95063810f7a489c92a62917b31662f5965eed95d491a10dce7d64736f6c634300081c0033","linkReferences":{}},"methodIdentifiers":{"PRICE_DELTA_EXP()":"a49f06ef","STALENESS_PERIOD()":"24c9477a","configs(string)":"5ef7fbad","deltaPerSymbol(string)":"ffa890c5","getPrice(address)":"41976e09","getUnderlyingPrice(address)":"fc57d4df","maxPriceDelta()":"66ed5444","roles()":"392f5f64","setConfig(string,(address,address,string,uint256))":"ec285406","setMaxPriceDelta(uint256)":"7a2dc784","setStaleness(string,uint256)":"c86e8685","setSymbolMaxPriceDelta(uint256,string)":"1a48b358","stalenessPerSymbol(string)":"2ab77c57"},"id":106}