{"abi":[{"type":"function","name":"acceptAdmin","inputs":[],"outputs":[],"stateMutability":"nonpayable"},{"type":"function","name":"accrualBlockTimestamp","inputs":[],"outputs":[{"name":"","type":"uint256","internalType":"uint256"}],"stateMutability":"view"},{"type":"function","name":"accrueInterest","inputs":[],"outputs":[],"stateMutability":"nonpayable"},{"type":"function","name":"addReserves","inputs":[{"name":"addAmount","type":"uint256","internalType":"uint256"}],"outputs":[],"stateMutability":"nonpayable"},{"type":"function","name":"admin","inputs":[],"outputs":[{"name":"","type":"address","internalType":"address payable"}],"stateMutability":"view"},{"type":"function","name":"allowance","inputs":[{"name":"owner","type":"address","internalType":"address"},{"name":"spender","type":"address","internalType":"address"}],"outputs":[{"name":"","type":"uint256","internalType":"uint256"}],"stateMutability":"view"},{"type":"function","name":"allowedCallers","inputs":[{"name":"","type":"address","internalType":"address"},{"name":"","type":"address","internalType":"address"}],"outputs":[{"name":"","type":"bool","internalType":"bool"}],"stateMutability":"view"},{"type":"function","name":"allowedChains","inputs":[{"name":"","type":"uint32","internalType":"uint32"}],"outputs":[{"name":"","type":"bool","internalType":"bool"}],"stateMutability":"view"},{"type":"function","name":"approve","inputs":[{"name":"spender","type":"address","internalType":"address"},{"name":"amount","type":"uint256","internalType":"uint256"}],"outputs":[{"name":"","type":"bool","internalType":"bool"}],"stateMutability":"nonpayable"},{"type":"function","name":"balanceOf","inputs":[{"name":"owner","type":"address","internalType":"address"}],"outputs":[{"name":"","type":"uint256","internalType":"uint256"}],"stateMutability":"view"},{"type":"function","name":"balanceOfUnderlying","inputs":[{"name":"owner","type":"address","internalType":"address"}],"outputs":[{"name":"","type":"uint256","internalType":"uint256"}],"stateMutability":"nonpayable"},{"type":"function","name":"borrow","inputs":[{"name":"borrowAmount","type":"uint256","internalType":"uint256"}],"outputs":[],"stateMutability":"nonpayable"},{"type":"function","name":"borrowBalanceCurrent","inputs":[{"name":"account","type":"address","internalType":"address"}],"outputs":[{"name":"","type":"uint256","internalType":"uint256"}],"stateMutability":"nonpayable"},{"type":"function","name":"borrowBalanceStored","inputs":[{"name":"account","type":"address","internalType":"address"}],"outputs":[{"name":"","type":"uint256","internalType":"uint256"}],"stateMutability":"view"},{"type":"function","name":"borrowIndex","inputs":[],"outputs":[{"name":"","type":"uint256","internalType":"uint256"}],"stateMutability":"view"},{"type":"function","name":"borrowRateMaxMantissa","inputs":[],"outputs":[{"name":"","type":"uint256","internalType":"uint256"}],"stateMutability":"view"},{"type":"function","name":"borrowRatePerBlock","inputs":[],"outputs":[{"name":"","type":"uint256","internalType":"uint256"}],"stateMutability":"view"},{"type":"function","name":"decimals","inputs":[],"outputs":[{"name":"","type":"uint8","internalType":"uint8"}],"stateMutability":"view"},{"type":"function","name":"exchangeRateCurrent","inputs":[],"outputs":[{"name":"","type":"uint256","internalType":"uint256"}],"stateMutability":"nonpayable"},{"type":"function","name":"exchangeRateStored","inputs":[],"outputs":[{"name":"","type":"uint256","internalType":"uint256"}],"stateMutability":"view"},{"type":"function","name":"extractForRebalancing","inputs":[{"name":"amount","type":"uint256","internalType":"uint256"}],"outputs":[],"stateMutability":"nonpayable"},{"type":"function","name":"gasHelper","inputs":[],"outputs":[{"name":"","type":"address","internalType":"contract IGasFeesHelper"}],"stateMutability":"view"},{"type":"function","name":"getAccountSnapshot","inputs":[{"name":"account","type":"address","internalType":"address"}],"outputs":[{"name":"","type":"uint256","internalType":"uint256"},{"name":"","type":"uint256","internalType":"uint256"},{"name":"","type":"uint256","internalType":"uint256"}],"stateMutability":"view"},{"type":"function","name":"getCash","inputs":[],"outputs":[{"name":"","type":"uint256","internalType":"uint256"}],"stateMutability":"view"},{"type":"function","name":"getProofData","inputs":[{"name":"user","type":"address","internalType":"address"},{"name":"dstId","type":"uint32","internalType":"uint32"}],"outputs":[{"name":"","type":"uint256","internalType":"uint256"},{"name":"","type":"uint256","internalType":"uint256"}],"stateMutability":"view"},{"type":"function","name":"initialize","inputs":[{"name":"underlying_","type":"address","internalType":"address"},{"name":"operator_","type":"address","internalType":"address"},{"name":"interestRateModel_","type":"address","internalType":"address"},{"name":"initialExchangeRateMantissa_","type":"uint256","internalType":"uint256"},{"name":"name_","type":"string","internalType":"string"},{"name":"symbol_","type":"string","internalType":"string"},{"name":"decimals_","type":"uint8","internalType":"uint8"},{"name":"admin_","type":"address","internalType":"address payable"},{"name":"zkVerifier_","type":"address","internalType":"address"},{"name":"roles_","type":"address","internalType":"address"}],"outputs":[],"stateMutability":"nonpayable"},{"type":"function","name":"interestRateModel","inputs":[],"outputs":[{"name":"","type":"address","internalType":"address"}],"stateMutability":"view"},{"type":"function","name":"liquidate","inputs":[{"name":"borrower","type":"address","internalType":"address"},{"name":"repayAmount","type":"uint256","internalType":"uint256"},{"name":"mTokenCollateral","type":"address","internalType":"address"}],"outputs":[],"stateMutability":"nonpayable"},{"type":"function","name":"liquidateExternal","inputs":[{"name":"journalData","type":"bytes","internalType":"bytes"},{"name":"seal","type":"bytes","internalType":"bytes"},{"name":"userToLiquidate","type":"address[]","internalType":"address[]"},{"name":"liquidateAmount","type":"uint256[]","internalType":"uint256[]"},{"name":"collateral","type":"address[]","internalType":"address[]"},{"name":"receiver","type":"address","internalType":"address"}],"outputs":[],"stateMutability":"nonpayable"},{"type":"function","name":"migrator","inputs":[],"outputs":[{"name":"","type":"address","internalType":"address"}],"stateMutability":"view"},{"type":"function","name":"mint","inputs":[{"name":"mintAmount","type":"uint256","internalType":"uint256"},{"name":"receiver","type":"address","internalType":"address"},{"name":"minAmountOut","type":"uint256","internalType":"uint256"}],"outputs":[],"stateMutability":"nonpayable"},{"type":"function","name":"mintExternal","inputs":[{"name":"journalData","type":"bytes","internalType":"bytes"},{"name":"seal","type":"bytes","internalType":"bytes"},{"name":"mintAmount","type":"uint256[]","internalType":"uint256[]"},{"name":"minAmountsOut","type":"uint256[]","internalType":"uint256[]"},{"name":"receiver","type":"address","internalType":"address"}],"outputs":[],"stateMutability":"nonpayable"},{"type":"function","name":"mintOrBorrowMigration","inputs":[{"name":"mint","type":"bool","internalType":"bool"},{"name":"amount","type":"uint256","internalType":"uint256"},{"name":"receiver","type":"address","internalType":"address"},{"name":"borrower","type":"address","internalType":"address"},{"name":"minAmount","type":"uint256","internalType":"uint256"}],"outputs":[],"stateMutability":"nonpayable"},{"type":"function","name":"name","inputs":[],"outputs":[{"name":"","type":"string","internalType":"string"}],"stateMutability":"view"},{"type":"function","name":"operator","inputs":[],"outputs":[{"name":"","type":"address","internalType":"address"}],"stateMutability":"view"},{"type":"function","name":"pendingAdmin","inputs":[],"outputs":[{"name":"","type":"address","internalType":"address payable"}],"stateMutability":"view"},{"type":"function","name":"performExtensionCall","inputs":[{"name":"actionType","type":"uint256","internalType":"uint256"},{"name":"amount","type":"uint256","internalType":"uint256"},{"name":"dstChainId","type":"uint32","internalType":"uint32"}],"outputs":[],"stateMutability":"payable"},{"type":"function","name":"redeem","inputs":[{"name":"redeemTokens","type":"uint256","internalType":"uint256"}],"outputs":[],"stateMutability":"nonpayable"},{"type":"function","name":"redeemUnderlying","inputs":[{"name":"redeemAmount","type":"uint256","internalType":"uint256"}],"outputs":[],"stateMutability":"nonpayable"},{"type":"function","name":"reduceReserves","inputs":[{"name":"reduceAmount","type":"uint256","internalType":"uint256"}],"outputs":[],"stateMutability":"nonpayable"},{"type":"function","name":"repay","inputs":[{"name":"repayAmount","type":"uint256","internalType":"uint256"}],"outputs":[{"name":"","type":"uint256","internalType":"uint256"}],"stateMutability":"nonpayable"},{"type":"function","name":"repayBehalf","inputs":[{"name":"borrower","type":"address","internalType":"address"},{"name":"repayAmount","type":"uint256","internalType":"uint256"}],"outputs":[{"name":"","type":"uint256","internalType":"uint256"}],"stateMutability":"nonpayable"},{"type":"function","name":"repayExternal","inputs":[{"name":"journalData","type":"bytes","internalType":"bytes"},{"name":"seal","type":"bytes","internalType":"bytes"},{"name":"repayAmount","type":"uint256[]","internalType":"uint256[]"},{"name":"receiver","type":"address","internalType":"address"}],"outputs":[],"stateMutability":"nonpayable"},{"type":"function","name":"reserveFactorMantissa","inputs":[],"outputs":[{"name":"","type":"uint256","internalType":"uint256"}],"stateMutability":"view"},{"type":"function","name":"rolesOperator","inputs":[],"outputs":[{"name":"","type":"address","internalType":"contract IRoles"}],"stateMutability":"view"},{"type":"function","name":"seize","inputs":[{"name":"liquidator","type":"address","internalType":"address"},{"name":"borrower","type":"address","internalType":"address"},{"name":"seizeTokens","type":"uint256","internalType":"uint256"}],"outputs":[],"stateMutability":"nonpayable"},{"type":"function","name":"setBorrowRateMaxMantissa","inputs":[{"name":"maxMantissa","type":"uint256","internalType":"uint256"}],"outputs":[],"stateMutability":"nonpayable"},{"type":"function","name":"setGasHelper","inputs":[{"name":"_helper","type":"address","internalType":"address"}],"outputs":[],"stateMutability":"nonpayable"},{"type":"function","name":"setInterestRateModel","inputs":[{"name":"newInterestRateModel","type":"address","internalType":"address"}],"outputs":[],"stateMutability":"nonpayable"},{"type":"function","name":"setMigrator","inputs":[{"name":"_migrator","type":"address","internalType":"address"}],"outputs":[],"stateMutability":"nonpayable"},{"type":"function","name":"setOperator","inputs":[{"name":"_operator","type":"address","internalType":"address"}],"outputs":[],"stateMutability":"nonpayable"},{"type":"function","name":"setPendingAdmin","inputs":[{"name":"newPendingAdmin","type":"address","internalType":"address payable"}],"outputs":[],"stateMutability":"nonpayable"},{"type":"function","name":"setReserveFactor","inputs":[{"name":"newReserveFactorMantissa","type":"uint256","internalType":"uint256"}],"outputs":[],"stateMutability":"nonpayable"},{"type":"function","name":"setRolesOperator","inputs":[{"name":"_roles","type":"address","internalType":"address"}],"outputs":[],"stateMutability":"nonpayable"},{"type":"function","name":"supplyRatePerBlock","inputs":[],"outputs":[{"name":"","type":"uint256","internalType":"uint256"}],"stateMutability":"view"},{"type":"function","name":"sweepToken","inputs":[{"name":"token","type":"address","internalType":"contract IERC20"},{"name":"amount","type":"uint256","internalType":"uint256"}],"outputs":[],"stateMutability":"nonpayable"},{"type":"function","name":"symbol","inputs":[],"outputs":[{"name":"","type":"string","internalType":"string"}],"stateMutability":"view"},{"type":"function","name":"totalBorrows","inputs":[],"outputs":[{"name":"","type":"uint256","internalType":"uint256"}],"stateMutability":"view"},{"type":"function","name":"totalBorrowsCurrent","inputs":[],"outputs":[{"name":"","type":"uint256","internalType":"uint256"}],"stateMutability":"nonpayable"},{"type":"function","name":"totalReserves","inputs":[],"outputs":[{"name":"","type":"uint256","internalType":"uint256"}],"stateMutability":"view"},{"type":"function","name":"totalSupply","inputs":[],"outputs":[{"name":"","type":"uint256","internalType":"uint256"}],"stateMutability":"view"},{"type":"function","name":"totalUnderlying","inputs":[],"outputs":[{"name":"","type":"uint256","internalType":"uint256"}],"stateMutability":"view"},{"type":"function","name":"transfer","inputs":[{"name":"dst","type":"address","internalType":"address"},{"name":"amount","type":"uint256","internalType":"uint256"}],"outputs":[{"name":"","type":"bool","internalType":"bool"}],"stateMutability":"nonpayable"},{"type":"function","name":"transferFrom","inputs":[{"name":"src","type":"address","internalType":"address"},{"name":"dst","type":"address","internalType":"address"},{"name":"amount","type":"uint256","internalType":"uint256"}],"outputs":[{"name":"","type":"bool","internalType":"bool"}],"stateMutability":"nonpayable"},{"type":"function","name":"underlying","inputs":[],"outputs":[{"name":"","type":"address","internalType":"address"}],"stateMutability":"view"},{"type":"function","name":"updateAllowedCallerStatus","inputs":[{"name":"caller","type":"address","internalType":"address"},{"name":"status","type":"bool","internalType":"bool"}],"outputs":[],"stateMutability":"nonpayable"},{"type":"function","name":"updateAllowedChain","inputs":[{"name":"_chainId","type":"uint32","internalType":"uint32"},{"name":"_status","type":"bool","internalType":"bool"}],"outputs":[],"stateMutability":"nonpayable"},{"type":"function","name":"updateZkVerifier","inputs":[{"name":"_zkVerifier","type":"address","internalType":"address"}],"outputs":[],"stateMutability":"nonpayable"},{"type":"function","name":"verifier","inputs":[],"outputs":[{"name":"","type":"address","internalType":"contract IZkVerifier"}],"stateMutability":"view"},{"type":"function","name":"withdrawGasFees","inputs":[{"name":"receiver","type":"address","internalType":"address payable"}],"outputs":[],"stateMutability":"nonpayable"},{"type":"event","name":"AccrueInterest","inputs":[{"name":"cashPrior","type":"uint256","indexed":false,"internalType":"uint256"},{"name":"interestAccumulated","type":"uint256","indexed":false,"internalType":"uint256"},{"name":"borrowIndex","type":"uint256","indexed":false,"internalType":"uint256"},{"name":"totalBorrows","type":"uint256","indexed":false,"internalType":"uint256"}],"anonymous":false},{"type":"event","name":"AllowedCallerUpdated","inputs":[{"name":"sender","type":"address","indexed":true,"internalType":"address"},{"name":"caller","type":"address","indexed":true,"internalType":"address"},{"name":"status","type":"bool","indexed":false,"internalType":"bool"}],"anonymous":false},{"type":"event","name":"Approval","inputs":[{"name":"owner","type":"address","indexed":true,"internalType":"address"},{"name":"spender","type":"address","indexed":true,"internalType":"address"},{"name":"amount","type":"uint256","indexed":false,"internalType":"uint256"}],"anonymous":false},{"type":"event","name":"Borrow","inputs":[{"name":"borrower","type":"address","indexed":true,"internalType":"address"},{"name":"borrowAmount","type":"uint256","indexed":false,"internalType":"uint256"},{"name":"accountBorrows","type":"uint256","indexed":false,"internalType":"uint256"},{"name":"totalBorrows","type":"uint256","indexed":false,"internalType":"uint256"}],"anonymous":false},{"type":"event","name":"Initialized","inputs":[{"name":"version","type":"uint64","indexed":false,"internalType":"uint64"}],"anonymous":false},{"type":"event","name":"LiquidateBorrow","inputs":[{"name":"liquidator","type":"address","indexed":true,"internalType":"address"},{"name":"borrower","type":"address","indexed":true,"internalType":"address"},{"name":"repayAmount","type":"uint256","indexed":false,"internalType":"uint256"},{"name":"mTokenCollateral","type":"address","indexed":true,"internalType":"address"},{"name":"seizeTokens","type":"uint256","indexed":false,"internalType":"uint256"}],"anonymous":false},{"type":"event","name":"Mint","inputs":[{"name":"minter","type":"address","indexed":true,"internalType":"address"},{"name":"receiver","type":"address","indexed":true,"internalType":"address"},{"name":"mintAmount","type":"uint256","indexed":false,"internalType":"uint256"},{"name":"mintTokens","type":"uint256","indexed":false,"internalType":"uint256"}],"anonymous":false},{"type":"event","name":"NewBorrowRateMaxMantissa","inputs":[{"name":"oldVal","type":"uint256","indexed":false,"internalType":"uint256"},{"name":"maxMantissa","type":"uint256","indexed":false,"internalType":"uint256"}],"anonymous":false},{"type":"event","name":"NewMarketInterestRateModel","inputs":[{"name":"oldInterestRateModel","type":"address","indexed":true,"internalType":"address"},{"name":"newInterestRateModel","type":"address","indexed":true,"internalType":"address"}],"anonymous":false},{"type":"event","name":"NewOperator","inputs":[{"name":"oldOperator","type":"address","indexed":true,"internalType":"address"},{"name":"newOperator","type":"address","indexed":true,"internalType":"address"}],"anonymous":false},{"type":"event","name":"NewReserveFactor","inputs":[{"name":"oldReserveFactorMantissa","type":"uint256","indexed":false,"internalType":"uint256"},{"name":"newReserveFactorMantissa","type":"uint256","indexed":false,"internalType":"uint256"}],"anonymous":false},{"type":"event","name":"NewRolesOperator","inputs":[{"name":"oldRoles","type":"address","indexed":true,"internalType":"address"},{"name":"newRoles","type":"address","indexed":true,"internalType":"address"}],"anonymous":false},{"type":"event","name":"Redeem","inputs":[{"name":"redeemer","type":"address","indexed":true,"internalType":"address"},{"name":"redeemAmount","type":"uint256","indexed":false,"internalType":"uint256"},{"name":"redeemTokens","type":"uint256","indexed":false,"internalType":"uint256"}],"anonymous":false},{"type":"event","name":"RepayBorrow","inputs":[{"name":"payer","type":"address","indexed":true,"internalType":"address"},{"name":"borrower","type":"address","indexed":true,"internalType":"address"},{"name":"repayAmount","type":"uint256","indexed":false,"internalType":"uint256"},{"name":"accountBorrows","type":"uint256","indexed":false,"internalType":"uint256"},{"name":"totalBorrows","type":"uint256","indexed":false,"internalType":"uint256"}],"anonymous":false},{"type":"event","name":"ReservesAdded","inputs":[{"name":"benefactor","type":"address","indexed":true,"internalType":"address"},{"name":"addAmount","type":"uint256","indexed":false,"internalType":"uint256"},{"name":"newTotalReserves","type":"uint256","indexed":false,"internalType":"uint256"}],"anonymous":false},{"type":"event","name":"ReservesReduced","inputs":[{"name":"admin","type":"address","indexed":true,"internalType":"address"},{"name":"reduceAmount","type":"uint256","indexed":false,"internalType":"uint256"},{"name":"newTotalReserves","type":"uint256","indexed":false,"internalType":"uint256"}],"anonymous":false},{"type":"event","name":"SameChainFlowStateUpdated","inputs":[{"name":"sender","type":"address","indexed":true,"internalType":"address"},{"name":"_oldState","type":"bool","indexed":false,"internalType":"bool"},{"name":"_newState","type":"bool","indexed":false,"internalType":"bool"}],"anonymous":false},{"type":"event","name":"Transfer","inputs":[{"name":"from","type":"address","indexed":true,"internalType":"address"},{"name":"to","type":"address","indexed":true,"internalType":"address"},{"name":"amount","type":"uint256","indexed":false,"internalType":"uint256"}],"anonymous":false},{"type":"event","name":"ZkVerifierUpdated","inputs":[{"name":"oldVerifier","type":"address","indexed":true,"internalType":"address"},{"name":"newVerifier","type":"address","indexed":true,"internalType":"address"}],"anonymous":false},{"type":"event","name":"mErc20Host_BorrowExternal","inputs":[{"name":"msgSender","type":"address","indexed":true,"internalType":"address"},{"name":"srcSender","type":"address","indexed":true,"internalType":"address"},{"name":"chainId","type":"uint32","indexed":true,"internalType":"uint32"},{"name":"amount","type":"uint256","indexed":false,"internalType":"uint256"}],"anonymous":false},{"type":"event","name":"mErc20Host_BorrowMigration","inputs":[{"name":"borrower","type":"address","indexed":true,"internalType":"address"},{"name":"amount","type":"uint256","indexed":false,"internalType":"uint256"}],"anonymous":false},{"type":"event","name":"mErc20Host_BorrowOnExtensionChain","inputs":[{"name":"sender","type":"address","indexed":true,"internalType":"address"},{"name":"dstChainId","type":"uint32","indexed":false,"internalType":"uint32"},{"name":"amount","type":"uint256","indexed":false,"internalType":"uint256"}],"anonymous":false},{"type":"event","name":"mErc20Host_ChainStatusUpdated","inputs":[{"name":"chainId","type":"uint32","indexed":true,"internalType":"uint32"},{"name":"status","type":"bool","indexed":false,"internalType":"bool"}],"anonymous":false},{"type":"event","name":"mErc20Host_GasFeeUpdated","inputs":[{"name":"dstChainId","type":"uint32","indexed":true,"internalType":"uint32"},{"name":"amount","type":"uint256","indexed":false,"internalType":"uint256"}],"anonymous":false},{"type":"event","name":"mErc20Host_LiquidateExternal","inputs":[{"name":"msgSender","type":"address","indexed":true,"internalType":"address"},{"name":"srcSender","type":"address","indexed":true,"internalType":"address"},{"name":"userToLiquidate","type":"address","indexed":false,"internalType":"address"},{"name":"receiver","type":"address","indexed":false,"internalType":"address"},{"name":"collateral","type":"address","indexed":true,"internalType":"address"},{"name":"srcChainId","type":"uint32","indexed":false,"internalType":"uint32"},{"name":"amount","type":"uint256","indexed":false,"internalType":"uint256"}],"anonymous":false},{"type":"event","name":"mErc20Host_MintExternal","inputs":[{"name":"msgSender","type":"address","indexed":true,"internalType":"address"},{"name":"srcSender","type":"address","indexed":true,"internalType":"address"},{"name":"receiver","type":"address","indexed":true,"internalType":"address"},{"name":"chainId","type":"uint32","indexed":false,"internalType":"uint32"},{"name":"amount","type":"uint256","indexed":false,"internalType":"uint256"}],"anonymous":false},{"type":"event","name":"mErc20Host_MintMigration","inputs":[{"name":"receiver","type":"address","indexed":true,"internalType":"address"},{"name":"amount","type":"uint256","indexed":false,"internalType":"uint256"}],"anonymous":false},{"type":"event","name":"mErc20Host_RepayExternal","inputs":[{"name":"msgSender","type":"address","indexed":true,"internalType":"address"},{"name":"srcSender","type":"address","indexed":true,"internalType":"address"},{"name":"position","type":"address","indexed":true,"internalType":"address"},{"name":"chainId","type":"uint32","indexed":false,"internalType":"uint32"},{"name":"amount","type":"uint256","indexed":false,"internalType":"uint256"}],"anonymous":false},{"type":"event","name":"mErc20Host_WithdrawExternal","inputs":[{"name":"msgSender","type":"address","indexed":true,"internalType":"address"},{"name":"srcSender","type":"address","indexed":true,"internalType":"address"},{"name":"chainId","type":"uint32","indexed":true,"internalType":"uint32"},{"name":"amount","type":"uint256","indexed":false,"internalType":"uint256"}],"anonymous":false},{"type":"event","name":"mErc20Host_WithdrawOnExtensionChain","inputs":[{"name":"sender","type":"address","indexed":true,"internalType":"address"},{"name":"dstChainId","type":"uint32","indexed":false,"internalType":"uint32"},{"name":"amount","type":"uint256","indexed":false,"internalType":"uint256"}],"anonymous":false},{"type":"error","name":"AddressEmptyCode","inputs":[{"name":"target","type":"address","internalType":"address"}]},{"type":"error","name":"AddressInsufficientBalance","inputs":[{"name":"account","type":"address","internalType":"address"}]},{"type":"error","name":"AmountNotValid","inputs":[]},{"type":"error","name":"ChainNotValid","inputs":[]},{"type":"error","name":"CommonLib_LengthMismatch","inputs":[]},{"type":"error","name":"FailedInnerCall","inputs":[]},{"type":"error","name":"InvalidInitialization","inputs":[]},{"type":"error","name":"NotEnoughGasFee","inputs":[]},{"type":"error","name":"NotInitializing","inputs":[]},{"type":"error","name":"ReentrancyGuardReentrantCall","inputs":[]},{"type":"error","name":"SafeERC20FailedOperation","inputs":[{"name":"token","type":"address","internalType":"address"}]},{"type":"error","name":"mErc20Host_ActionNotAvailable","inputs":[]},{"type":"error","name":"mErc20Host_AddressNotValid","inputs":[]},{"type":"error","name":"mErc20Host_AmountNotValid","inputs":[]},{"type":"error","name":"mErc20Host_AmountTooBig","inputs":[]},{"type":"error","name":"mErc20Host_CallerNotAllowed","inputs":[]},{"type":"error","name":"mErc20Host_ChainNotValid","inputs":[]},{"type":"error","name":"mErc20Host_DstChainNotValid","inputs":[]},{"type":"error","name":"mErc20Host_JournalNotValid","inputs":[]},{"type":"error","name":"mErc20Host_L1InclusionRequired","inputs":[]},{"type":"error","name":"mErc20Host_LengthMismatch","inputs":[]},{"type":"error","name":"mErc20Host_NotEnoughGasFee","inputs":[]},{"type":"error","name":"mErc20Host_NotRebalancer","inputs":[]},{"type":"error","name":"mErc20Host_ProofGenerationInputNotValid","inputs":[]},{"type":"error","name":"mErc20_TokenNotValid","inputs":[]},{"type":"error","name":"mTokenProofDecoderLib_InvalidInclusion","inputs":[]},{"type":"error","name":"mTokenProofDecoderLib_InvalidLength","inputs":[]},{"type":"error","name":"mt_AlreadyInitialized","inputs":[]},{"type":"error","name":"mt_BorrowCashNotAvailable","inputs":[]},{"type":"error","name":"mt_BorrowRateTooHigh","inputs":[]},{"type":"error","name":"mt_CollateralBlockTimestampNotValid","inputs":[]},{"type":"error","name":"mt_ExchangeRateNotValid","inputs":[]},{"type":"error","name":"mt_InvalidInput","inputs":[]},{"type":"error","name":"mt_LiquidateSeizeTooMuch","inputs":[]},{"type":"error","name":"mt_MarketMethodNotValid","inputs":[]},{"type":"error","name":"mt_MinAmountNotValid","inputs":[]},{"type":"error","name":"mt_OnlyAdmin","inputs":[]},{"type":"error","name":"mt_OnlyAdminOrRole","inputs":[]},{"type":"error","name":"mt_RedeemCashNotAvailable","inputs":[]},{"type":"error","name":"mt_RedeemEmpty","inputs":[]},{"type":"error","name":"mt_RedeemTransferOutNotPossible","inputs":[]},{"type":"error","name":"mt_ReserveCashNotAvailable","inputs":[]},{"type":"error","name":"mt_ReserveFactorTooHigh","inputs":[]},{"type":"error","name":"mt_SameChainOperationsAreDisabled","inputs":[]},{"type":"error","name":"mt_TransferNotValid","inputs":[]}],"bytecode":{"object":"0x608060405265048c27395000600e55348015601957600080fd5b50600160135565048c27395000600e55602f6033565b60e3565b7ff0c57e16840df040f15088dc2f81fe391c3923bec73e23a9662efc9c229c6a00805468010000000000000000900460ff161560825760405163f92ee8a960e01b815260040160405180910390fd5b80546001600160401b039081161460e05780546001600160401b0319166001600160401b0390811782556040519081527fc7f505b2f371ae2175ee4913f4499e1f2633a7b5936321eed1cdaeb6115181d29060200160405180910390a15b50565b615619806100f26000396000f3fe6080604052600436106104055760003560e01c80637821a51411610213578063b3ab15fb11610123578063dd62ed3e116100ab578063f3fdb15a1161007a578063f3fdb15a14610c5b578063f851a44014610c80578063f89416ee14610ca0578063f8f9da2814610cc0578063ffcaadfe14610cd557600080fd5b8063dd62ed3e14610bbf578063e67218cd14610c05578063e90a182f14610c25578063ee27a2f214610c4557600080fd5b8063c70920bc116100f2578063c70920bc14610b33578063c9ad2b5a14610b49578063cfa9920114610b69578063d6b457b914610b7f578063db006a7514610b9f57600080fd5b8063b3ab15fb14610aa3578063bd6d894d14610ac3578063c37f68e214610ad8578063c5ebeaec14610b1357600080fd5b806395d89b41116101a6578063a6afed9511610175578063a6afed9514610a23578063a9059cbb14610a38578063aa5af0fd14610a58578063ae9d70b014610a6e578063b2a02ff114610a8357600080fd5b806395d89b41146109ae57806395dd9193146109c357806399c43837146109e3578063a4777a7a14610a0357600080fd5b8063852a12e3116101e2578063852a12e3146109285780638bcd4016146109485780638da73527146109685780638f840ddd1461099857600080fd5b80637821a514146108a85780637cd07e47146108c85780637f7b13d4146108e8578063836a10401461090857600080fd5b80632b7ac3f3116103195780634f2be4ce116102a15780635bf36c5a116102705780635bf36c5a146107e2578063600bb376146108025780636f307dc31461083d57806370a082311461085d57806373acee981461089357600080fd5b80634f2be4ce146107625780634fecab7014610782578063570ca735146107a25780635bdcecb7146107c257600080fd5b80633af9e669116102e85780633af9e669146106d75780633b1d21a2146106f757806347bd37181461070c5780634914c008146107225780634dd18bf51461074257600080fd5b80632b7ac3f3146106585780632e1483ae14610678578063313ce5671461068b578063371fd8e6146106b757600080fd5b8063173b99041161039c5780631c4469831161036b5780631c446983146105a057806323b872dd146105c057806323cf3118146105e057806325536db814610600578063267822471461062057600080fd5b8063173b99041461053157806317bfdfbc1461055557806318160ddd14610575578063182df0f51461058b57600080fd5b806307e27959116103d857806307e27959146104ac57806308fee263146104cc578063095ea7b3146104ec5780630e18b6811461051c57600080fd5b80630148606c1461040a57806305dbe8a71461042c57806306fdde031461044c57806307d923e914610477575b600080fd5b34801561041657600080fd5b5061042a610425366004614a79565b610cf5565b005b34801561043857600080fd5b5061042a610447366004614b1b565b610da3565b34801561045857600080fd5b50610461610e67565b60405161046e9190614c25565b60405180910390f35b34801561048357600080fd5b50610497610492366004614c6c565b610ef5565b6040805192835260208301919091520161046e565b3480156104b857600080fd5b5061042a6104c7366004614ca1565b610f34565b3480156104d857600080fd5b5061042a6104e7366004614cba565b611133565b3480156104f857600080fd5b5061050c610507366004614d71565b6111d2565b604051901515815260200161046e565b34801561052857600080fd5b5061042a61123f565b34801561053d57600080fd5b5061054760075481565b60405190815260200161046e565b34801561056157600080fd5b50610547610570366004614a79565b611291565b34801561058157600080fd5b50610547600c5481565b34801561059757600080fd5b506105476112bd565b3480156105ac57600080fd5b5061042a6105bb366004614ca1565b6112cc565b3480156105cc57600080fd5b5061050c6105db366004614d9d565b611369565b3480156105ec57600080fd5b5061042a6105fb366004614a79565b611393565b34801561060c57600080fd5b5061042a61061b366004614a79565b611407565b34801561062c57600080fd5b50600154610640906001600160a01b031681565b6040516001600160a01b03909116815260200161046e565b34801561066457600080fd5b50601954610640906001600160a01b031681565b61042a610686366004614dde565b61147b565b34801561069757600080fd5b506006546106a59060ff1681565b60405160ff909116815260200161046e565b3480156106c357600080fd5b506105476106d2366004614ca1565b6115ab565b3480156106e357600080fd5b506105476106f2366004614a79565b6115b8565b34801561070357600080fd5b506105476115f7565b34801561071857600080fd5b50610547600a5481565b34801561072e57600080fd5b5061042a61073d366004614e13565b611602565b34801561074e57600080fd5b5061042a61075d366004614a79565b611615565b34801561076e57600080fd5b5061042a61077d366004614e63565b611662565b34801561078e57600080fd5b50600354610640906001600160a01b031681565b3480156107ae57600080fd5b50600254610640906001600160a01b031681565b3480156107ce57600080fd5b506105476107dd366004614d71565b6116ce565b3480156107ee57600080fd5b5061042a6107fd366004614e9c565b6116dc565b34801561080e57600080fd5b5061050c61081d366004614ef7565b601760209081526000928352604080842090915290825290205460ff1681565b34801561084957600080fd5b50601454610640906001600160a01b031681565b34801561086957600080fd5b50610547610878366004614a79565b6001600160a01b031660009081526010602052604090205490565b34801561089f57600080fd5b506105476117da565b3480156108b457600080fd5b5061042a6108c3366004614ca1565b6117fd565b3480156108d457600080fd5b50601554610640906001600160a01b031681565b3480156108f457600080fd5b5061042a610903366004614ff7565b611806565b34801561091457600080fd5b5061042a6109233660046150de565b611a4b565b34801561093457600080fd5b5061042a610943366004614ca1565b611a59565b34801561095457600080fd5b5061042a610963366004614a79565b611a65565b34801561097457600080fd5b5061050c610983366004615105565b60186020526000908152604090205460ff1681565b3480156109a457600080fd5b50610547600b5481565b3480156109ba57600080fd5b50610461611aa1565b3480156109cf57600080fd5b506105476109de366004614a79565b611aae565b3480156109ef57600080fd5b5061042a6109fe366004615120565b611ab9565b348015610a0f57600080fd5b5061042a610a1e36600461513c565b611b25565b348015610a2f57600080fd5b5061042a611c1d565b348015610a4457600080fd5b5061050c610a53366004614d71565b611c27565b348015610a6457600080fd5b5061054760095481565b348015610a7a57600080fd5b50610547611c4a565b348015610a8f57600080fd5b5061042a610a9e366004614d9d565b611ce9565b348015610aaf57600080fd5b5061042a610abe366004614a79565b611d07565b348015610acf57600080fd5b50610547611d3b565b348015610ae457600080fd5b50610af8610af3366004614a79565b611d61565b6040805193845260208401929092529082015260600161046e565b348015610b1f57600080fd5b5061042a610b2e366004614ca1565b611d9c565b348015610b3f57600080fd5b50610547600d5481565b348015610b5557600080fd5b50601a54610640906001600160a01b031681565b348015610b7557600080fd5b5061054760085481565b348015610b8b57600080fd5b5061042a610b9a366004614a79565b611da8565b348015610bab57600080fd5b5061042a610bba366004614ca1565b611deb565b348015610bcb57600080fd5b50610547610bda366004614ef7565b6001600160a01b03918216600090815260116020908152604080832093909416825291909152205490565b348015610c1157600080fd5b5061042a610c20366004614ca1565b611dfb565b348015610c3157600080fd5b5061042a610c40366004614d71565b611e7b565b348015610c5157600080fd5b50610547600e5481565b348015610c6757600080fd5b506006546106409061010090046001600160a01b031681565b348015610c8c57600080fd5b50600054610640906001600160a01b031681565b348015610cac57600080fd5b5061042a610cbb366004614a79565b611eef565b348015610ccc57600080fd5b50610547611f9d565b348015610ce157600080fd5b5061042a610cf0366004614ca1565b611ff7565b6000546001600160a01b03163314610d205760405163c7c2adf560e01b815260040160405180910390fd5b6001600160a01b038116610d475760405163fb7dcd6b60e01b815260040160405180910390fd5b6019546040516001600160a01b038084169216907ff335fdec5c467dfdc8bca7991b97cb3bc62c88c8467dedce3044baff0527cad690600090a3601980546001600160a01b0319166001600160a01b0392909216919091179055565b610db433610daf612102565b61214c565b610dc457610dc4898989896121c2565b610dd6610dd186866122d8565b61231b565b6000610de28a8a612375565b8051909150610df18187612383565b60005b81811015610e5957610e51838281518110610e1157610e11615250565b6020026020010151898984818110610e2b57610e2b615250565b90506020020135888885818110610e4457610e44615250565b90506020020135876123a3565b600101610df4565b505050505050505050505050565b60048054610e7490615266565b80601f0160208091040260200160405190810160405280929190818152602001828054610ea090615266565b8015610eed5780601f10610ec257610100808354040283529160200191610eed565b820191906000526020600020905b815481529060010190602001808311610ed057829003601f168201915b505050505081565b63ffffffff811660009081526016602090815260408083206001600160a01b0386168452808352818420546001909101909252909120545b9250929050565b610f3c6124ee565b6000546001600160a01b03163314806110345750600354604080516306b8e39760e51b815290516001600160a01b03909216916338dd8c2c913391849163d71c72e09160048083019260209291908290030181865afa158015610fa3573d6000803e3d6000fd5b505050506040513d601f19601f82011682018060405250810190610fc791906152a0565b6040516001600160e01b031960e085901b1681526001600160a01b0390921660048301526024820152604401602060405180830381865afa158015611010573d6000803e3d6000fd5b505050506040513d601f19601f8201168201806040525081019061103491906152b9565b611051576040516323595c3360e01b815260040160405180910390fd5b611059612518565b80611063600d5490565b10156110825760405163f304e85f60e01b815260040160405180910390fd5b600b548111156110a55760405163f304e85f60e01b815260040160405180910390fd5b600081600b546110b591906152ec565b600b81905590506110c633836126d3565b81600d60008282546110d891906152ec565b909155505060005460408051848152602081018490526001600160a01b03909216917f3bad0c59cf2f06e7314077049f48a93578cd16f5ef92329f1dab1420a99c177e910160405180910390a2506111306001601355565b50565b61113f33610daf612102565b61114f5761114f878787876121c2565b61115c610dd184846122d8565b60006111688888612375565b80519091506111778185612383565b60005b818110156111c6576111be83828151811061119757611197615250565b60200260200101518787848181106111b1576111b1615250565b90506020020135866126ea565b60010161117a565b50505050505050505050565b3360008181526011602090815260408083206001600160a01b038716808552925280832085905551919290917f8c5be1e5ebec7d5bd14f71427d1e84f3dd0314c0f7b2291e5b200ac8c7c3b9259061122d9086815260200190565b60405180910390a35060015b92915050565b6001546001600160a01b0316331461126a5760405163c7c2adf560e01b815260040160405180910390fd5b60018054600080546001600160a01b03199081166001600160a01b03841617909155169055565b600061129b6124ee565b6112a3612518565b6112ac82612827565b90506112b86001601355565b919050565b60006112c761287b565b905090565b6000546001600160a01b031633146112f75760405163c7c2adf560e01b815260040160405180910390fd5b6112ff612518565b670de0b6b3a76400008111156113285760405163335784c960e21b815260040160405180910390fd5b60075460408051918252602082018390527faaa68312e2ea9d50e16af5068410ab56e1a1fd06037b1a35664812c30f821460910160405180910390a1600755565b60006113736124ee565b61137f338585856128e4565b50600161138c6001601355565b9392505050565b6000546001600160a01b031633146113be5760405163c7c2adf560e01b815260040160405180910390fd5b6001600160a01b0381166113e55760405163fb7dcd6b60e01b815260040160405180910390fd5b601580546001600160a01b0319166001600160a01b0392909216919091179055565b6000546001600160a01b031633146114325760405163c7c2adf560e01b815260040160405180910390fd5b6001600160a01b0381166114595760405163fb7dcd6b60e01b815260040160405180910390fd5b601a80546001600160a01b0319166001600160a01b0392909216919091179055565b601a54611499908390839034906018906001600160a01b0316612ad1565b6114a28261231b565b816001849003611502576114b833846000612bd8565b6040805163ffffffff851681526020810183905291925033917fffb02ed8426abe4f31f431f9f4c6075fcf5916fb1ba83041a0979073b27a3d7191015b60405180910390a261156d565b836002036115545761151633846000612c03565b6040805163ffffffff841681526020810183905233917f655945ffeff936e7dcac4bcdf1629da7adf1abee556b356a0dd14977436fab9991016114f5565b60405163fd8bda0760e01b815260040160405180910390fd5b63ffffffff82166000908152601660209081526040808320338452600101909152812080548392906115a09084906152ff565b909155505050505050565b6000611239826001612c1f565b60008060405180602001604052806115ce611d3b565b90526001600160a01b03841660009081526010602052604090205490915061138c908290612c49565b60006112c7600d5490565b611610338484846001612c61565b505050565b6000546001600160a01b031633146116405760405163c7c2adf560e01b815260040160405180910390fd5b600180546001600160a01b0319166001600160a01b0392909216919091179055565b3360008181526017602090815260408083206001600160a01b03871680855290835292819020805460ff191686151590811790915590519081529192917fb2cc4dde7f9044ba1999f7843e2f9cd1e4ce506f8cc2e16de26ce982bf113fa6910160405180910390a35050565b600061138c83836001612cdb565b6015546001600160a01b031633146117075760405163271bd90b60e01b815260040160405180910390fd5b600084116117285760405163fd7850ff60e01b815260040160405180910390fd5b84156117845761173c838486846000612cf9565b826001600160a01b03167f7b7857535b8866cddb5a9144b1a037516063461de083f16171a352463daf72838560405161177791815260200190565b60405180910390a26117d3565b61178f828486612d16565b816001600160a01b03167fe4d44da42272e731fc62da12f724bc610cd3d305b592b12e640c62b3f796abe8856040516117ca91815260200190565b60405180910390a25b5050505050565b60006117e46124ee565b6117ec612518565b50600a546117fa6001601355565b90565b61113081612d33565b7ff0c57e16840df040f15088dc2f81fe391c3923bec73e23a9662efc9c229c6a008054600160401b810460ff1615906001600160401b031660008115801561184b5750825b90506000826001600160401b031660011480156118675750303b155b905081158015611875575080155b156118935760405163f92ee8a960e01b815260040160405180910390fd5b845467ffffffffffffffff1916600117855583156118bd57845460ff60401b1916600160401b1785555b6001600160a01b038f166118e45760405163fb7dcd6b60e01b815260040160405180910390fd5b6001600160a01b038e1661190b5760405163fb7dcd6b60e01b815260040160405180910390fd5b6001600160a01b038d166119325760405163fb7dcd6b60e01b815260040160405180910390fd5b6001600160a01b0387166119595760405163fb7dcd6b60e01b815260040160405180910390fd5b6001600160a01b0386166119805760405163fb7dcd6b60e01b815260040160405180910390fd5b6001600160a01b0388166119a75760405163fb7dcd6b60e01b815260040160405180910390fd5b6119b78f8f8f8f8f8f8f8f612dc6565b601980546001600160a01b03808a166001600160a01b0319928316179092556003805489841690831617905560008054928b16929091169190911790558315611a3a57845460ff60401b19168555604051600181527fc7f505b2f371ae2175ee4913f4499e1f2633a7b5936321eed1cdaeb6115181d29060200160405180910390a15b505050505050505050505050505050565b611610338385846001612cf9565b61113033826001612dfe565b6000546001600160a01b03163314611a905760405163c7c2adf560e01b815260040160405180910390fd5b611a98612518565b61113081612e26565b60058054610e7490615266565b600061123982612827565b611ac9611ac4612f0c565b612f56565b63ffffffff8216600081815260186020908152604091829020805460ff191685151590811790915591519182527f3615c8513bc6436318086c0663e19b0334871c8c175a33b9340c3ecab97137cc910160405180910390a25050565b611b3133610daf612102565b611b4157611b418b8b8b8b6121c2565b6000611b4d8c8c612375565b8051909150611b5c8187612383565b611b668189612383565b611b708185612383565b60005b81811015611c0d57611c05838281518110611b9057611b90615250565b60200260200101518b8b84818110611baa57611baa615250565b9050602002016020810190611bbf9190614a79565b8a8a85818110611bd157611bd1615250565b90506020020135898986818110611bea57611bea615250565b9050602002016020810190611bff9190614a79565b88612f96565b600101611b73565b5050505050505050505050505050565b611c25612518565b565b6000611c316124ee565b611c3d333385856128e4565b5060016112396001601355565b6006546000906001600160a01b036101009091041663b8168816611c6d600d5490565b600a54600b546007546040516001600160e01b031960e087901b16815260048101949094526024840192909252604483015260648201526084015b602060405180830381865afa158015611cc5573d6000803e3d6000fd5b505050506040513d601f19601f820116820180604052508101906112c791906152a0565b611cf16124ee565b611cfd33848484613154565b6116106001601355565b6000546001600160a01b03163314611d325760405163c7c2adf560e01b815260040160405180910390fd5b6111308161338e565b6000611d456124ee565b611d4d612518565b611d5561287b565b90506117fa6001601355565b6001600160a01b03811660009081526010602052604081205481908190611d8785612827565b611d8f61287b565b9250925092509193909250565b61113033826001612c03565b611db3611ac4613469565b60405147906001600160a01b0383169082156108fc029083906000818181858888f19350505050158015611610573d6000803e3d6000fd5b611df733826001612bd8565b5050565b6000546001600160a01b03163314611e265760405163c7c2adf560e01b815260040160405180910390fd5b600e805490829055600c5415611e3e57611e3e612518565b60408051828152602081018490527f3ae66e204f1f2ae1bf6ea9ddb0331246f344118a48794bc9351cc730a0486658910160405180910390a15050565b6000546001600160a01b03163314611ea65760405163c7c2adf560e01b815260040160405180910390fd5b6014546001600160a01b0390811690831603611ed557604051639e14909760e01b815260040160405180910390fd5b600054611df7906001600160a01b038481169116836134b3565b6000546001600160a01b03163314611f1a5760405163c7c2adf560e01b815260040160405180910390fd5b6001600160a01b038116611f415760405163092bea3360e31b815260040160405180910390fd5b6003546040516001600160a01b038084169216907f9859cd0a756b5f08366068b791448fb837581d3b8afc097914d88edbc7bff2a390600090a3600380546001600160a01b0319166001600160a01b0392909216919091179055565b6006546000906001600160a01b03610100909104166315f24053611fc0600d5490565b600a54600b546040516001600160e01b031960e086901b168152600481019390935260248301919091526044820152606401611ca8565b60025460405163068f6f4b60e41b81523060048201526001600160a01b03909116906368f6f4b090602401600060405180830381600087803b15801561203c57600080fd5b505af1158015612050573d6000803e3d6000fd5b505050506120cf33600360009054906101000a90046001600160a01b03166001600160a01b0316639e106dc76040518163ffffffff1660e01b8152600401602060405180830381865afa1580156120ab573d6000803e3d6000fd5b505050506040513d601f19601f82011682018060405250810190610daf91906152a0565b6120eb5760405162a1222360e01b815260040160405180910390fd5b601454611130906001600160a01b031633836134b3565b6003546040805163a1bd302d60e01b815290516000926001600160a01b03169163a1bd302d9160048083019260209291908290030181865afa158015611cc5573d6000803e3d6000fd5b600354604051630e37630b60e21b81526001600160a01b0384811660048301526024820184905260009216906338dd8c2c90604401602060405180830381865afa15801561219e573d6000803e3d6000fd5b505050506040513d601f19601f8201168201806040525081019061138c91906152b9565b826121e05760405163c39550bb60e01b815260040160405180910390fd5b60006121ec8585612375565b905060006121fc33610daf613512565b8061220e575061220e33610daf612102565b9050806122765760005b825181101561227457600061224584838151811061223857612238615250565b602002602001015161355c565b96505050505050508061226b57604051633f9e8a4360e01b815260040160405180910390fd5b50600101612218565b505b60195460405163385db56160e01b81526001600160a01b039091169063385db561906122ac90899089908990899060040161533b565b60006040518083038186803b1580156122c457600080fd5b505afa1580156111c6573d6000803e3d6000fd5b600081815b81811015612313578484828181106122f7576122f7615250565b905060200201358361230991906152ff565b92506001016122dd565b505092915050565b60025460405163411983f960e11b8152600481018390526001600160a01b039091169063823307f290602401600060405180830381600087803b15801561236157600080fd5b505af11580156117d3573d6000803e3d6000fd5b606061138c8284018461536d565b808214611df7576040516352e59e5160e11b815260040160405180910390fd5b60008060008060006123b48961355c565b5095509550509450945094508495506123cf81838688613669565b600088116123f05760405163fd7850ff60e01b815260040160405180910390fd5b63ffffffff821660009081526016602090815260408083206001600160a01b038916845290915290205461242490846152ec565b881115612444576040516361ee36eb60e01b815260040160405180910390fd5b63ffffffff821660009081526016602090815260408083206001600160a01b0389168452909152812080548a929061247d9084906152ff565b90915550612491905086808a8a6000612cf9565b6040805163ffffffff84168152602081018a90526001600160a01b03808916929088169133917fadedbbedfe5f9c3d3ea9e37eda061744d9ca5a97fbe143765b6164fcee71085691015b60405180910390a4505050505050505050565b60026013540361251157604051633ee5aeb560e01b815260040160405180910390fd5b6002601355565b6008544290818103612528575050565b6000612533600d5490565b600a54600b546009546006546040516315f2405360e01b815260048101869052602481018590526044810184905294955092939192909160009161010090046001600160a01b0316906315f2405390606401602060405180830381865afa1580156125a2573d6000803e3d6000fd5b505050506040513d601f19601f820116820180604052508101906125c691906152a0565b600e54909150156125f357600e548111156125f357604051628555ab60e81b815260040160405180910390fd5b60006125ff87896152ec565b9050600061261b60405180602001604052808581525083613704565b905060006126298288612c49565b9050600061263788836152ff565b905060006126566040518060200160405280600754815250848a613735565b9050600061266585898a613735565b60088e90556009819055600a849055600b839055604080518d815260208101879052908101829052606081018590529091507f4dec04e750ca11537cabcd8a9eab06494de08da3735bc8871cd41250e190bc049060800160405180910390a150505050505050505050505050565b601454611df7906001600160a01b031683836134b3565b60008060008060006126fb8861355c565b50955095505094509450945084955061271681838688613669565b600061272487896000612cdb565b9050600088116127475760405163fd7850ff60e01b815260040160405180910390fd5b63ffffffff831660009081526016602090815260408083206001600160a01b038a16845290915290205461277b90856152ec565b81111561279b576040516361ee36eb60e01b815260040160405180910390fd5b63ffffffff831660009081526016602090815260408083206001600160a01b038a168452909152812080548392906127d49084906152ff565b90915550506040805163ffffffff85168152602081018390526001600160a01b03808a16929089169133917fe2cce63addd46173601de3603e8e65733e0aeb61b438aba8c8b139fae31a673291016124db565b6001600160a01b0381166000908152600f60205260408120805482036128505750600092915050565b600954815460009161286191615445565b9050816001015481612873919061545c565b949350505050565b600c5460009080820361289057505060125490565b600061289b600d5490565b90506000600b54600a54836128b091906152ff565b6128ba91906152ec565b90506000836128d1670de0b6b3a764000084615445565b6128db919061545c565b95945050505050565b600254604051630bdf890760e11b81523060048201526001600160a01b038581166024830152848116604483015260648201849052909116906317bf120e90608401600060405180830381600087803b15801561294057600080fd5b505af1158015612954573d6000803e3d6000fd5b50505050816001600160a01b0316836001600160a01b03160361298a57604051639beb5adb60e01b815260040160405180910390fd5b6000836001600160a01b0316856001600160a01b0316036129ae57506000196129d6565b506001600160a01b038084166000908152601160209081526040808320938816835292905220545b60006129e283836152ec565b6001600160a01b03861660009081526010602052604081205491925090612a0a9085906152ec565b6001600160a01b03861660009081526010602052604081205491925090612a329086906152ff565b6001600160a01b0380891660009081526010602052604080822086905591891681522081905590506000198414612a8c576001600160a01b038088166000908152601160209081526040808320938c168352929052208390555b856001600160a01b0316876001600160a01b03166000805160206155c483398151915287604051612abf91815260200190565b60405180910390a35050505050505050565b84600003612af2576040516332457ad960e21b815260040160405180910390fd5b63ffffffff841660009081526020839052604090205460ff16612b2857604051636c9fd7e760e11b815260040160405180910390fd5b60006001600160a01b038216612b3f576000612bad565b60405163c9768c4960e01b815263ffffffff861660048201526001600160a01b0383169063c9768c4990602401602060405180830381865afa158015612b89573d6000803e3d6000fd5b505050506040513d601f19601f82011682018060405250810190612bad91906152a0565b905080841015612bd05760405163025c8a2560e41b815260040160405180910390fd5b505050505050565b6000612be26124ee565b612bea612518565b612bf78484600085613756565b905061138c6001601355565b612c0b6124ee565b612c13612518565b611cfd8384848461396e565b6000612c296124ee565b612c31612518565b612c3d33338585613acf565b90506112396001601355565b600080612c568484613704565b905061287381613c28565b612c696124ee565b612c71612518565b816001600160a01b031663a6afed956040518163ffffffff1660e01b8152600401600060405180830381600087803b158015612cac57600080fd5b505af1158015612cc0573d6000803e3d6000fd5b50505050612cd18585858585613c40565b6117d36001601355565b6000612ce56124ee565b612ced612518565b612bf733858585613acf565b612d016124ee565b612d09612518565b612cd18585858585613f9e565b612d1e6124ee565b612d26612518565b611cfd838383600161396e565b612d3b6124ee565b612d43612518565b600080612d5033846142cc565b905080600d6000828254612d6491906152ff565b9091555050600b54612d779082906152ff565b600b819055604080518381526020810183905291935033917fa91e67c5ea634cd43a12c5a482724b03de01e85ca68702a53d0c2f45cb7c1dc5910160405180910390a250506111306001601355565b612dd5888888888888886143d1565b600080546001600160a01b0319166001600160a01b039290921691909117905550505050505050565b612e066124ee565b612e0e612518565b612e1b8360008484613756565b506116106001601355565b806001600160a01b0316632191f92a6040518163ffffffff1660e01b8152600401602060405180830381865afa158015612e64573d6000803e3d6000fd5b505050506040513d601f19601f82011682018060405250810190612e8891906152b9565b612ea557604051631ffd35c760e11b815260040160405180910390fd5b6006546040516001600160a01b0380841692610100900416907fedffc32e068c7c95dfd4bdfd5c4d939a084d6b11c4199eac8436ed234d72f92690600090a3600680546001600160a01b0390921661010002610100600160a81b0319909216919091179055565b6003546040805163e048241360e01b815290516000926001600160a01b03169163e04824139160048083019260209291908290030181865afa158015611cc5573d6000803e3d6000fd5b6000546001600160a01b03163314801590612f785750612f76338261214c565b155b156111305760405163271bd90b60e01b815260040160405180910390fd5b6000806000806000612fa78a61355c565b509550955050945094509450849550612fc281838688613669565b60008811612fe35760405163fd7850ff60e01b815260040160405180910390fd5b63ffffffff821660009081526016602090815260408083206001600160a01b038916845290915290205461301790846152ec565b881115613037576040516361ee36eb60e01b815260040160405180910390fd5b6001600160a01b03891633148015906130625750846001600160a01b0316896001600160a01b031614155b61307f5760405163271bd90b60e01b815260040160405180910390fd5b6001600160a01b038716156130945786613096565b305b63ffffffff831660009081526016602090815260408083206001600160a01b038a168452909152812080549299508a929091906130d49084906152ff565b909155506130e89050868a8a8a6000612c61565b604080516001600160a01b038b81168252888116602083015263ffffffff851682840152606082018b905291518983169288169133917fc643e0e4d5d1082f6bfc662466c6ee07f745f7725754c136e448452d1f1878679181900360800190a450505050505050505050565b600254604051636765dff960e01b81523060048201526001600160a01b0386811660248301528581166044830152848116606483015290911690636765dff990608401600060405180830381600087803b1580156131b157600080fd5b505af11580156131c5573d6000803e3d6000fd5b50505050826001600160a01b0316826001600160a01b0316036131fb5760405163092bea3360e31b815260040160405180910390fd5b600061321c826040518060200160405280666379da05b60000815250614466565b9050600061322a82846152ec565b90506000604051806020016040528061324161287b565b9052905060006132518285612c49565b9050600081600b5461326391906152ff565b600b819055600c549091506132799086906152ec565b600c556001600160a01b0387166000908152601060205260409020546132a09087906152ec565b6001600160a01b0380891660009081526010602052604080822093909355908a16815220546132d09085906152ff565b6001600160a01b03808a1660008181526010602052604090819020939093559151908916906000805160206155c4833981519152906133129088815260200190565b60405180910390a360405185815230906001600160a01b038916906000805160206155c48339815191529060200160405180910390a3604080518381526020810183905230917fa91e67c5ea634cd43a12c5a482724b03de01e85ca68702a53d0c2f45cb7c1dc5910160405180910390a2505050505050505050565b806001600160a01b0316634456eda26040518163ffffffff1660e01b8152600401602060405180830381865afa1580156133cc573d6000803e3d6000fd5b505050506040513d601f19601f820116820180604052508101906133f091906152b9565b61340d57604051631ffd35c760e11b815260040160405180910390fd5b6002546040516001600160a01b038084169216907ff1e04d73c4304b5ff164f9d10c7473e2a1593b740674a6107975e2a7001c1e5c90600090a3600280546001600160a01b0319166001600160a01b0392909216919091179055565b600354604080516375fd4ca960e01b815290516000926001600160a01b0316916375fd4ca99160048083019260209291908290030181865afa158015611cc5573d6000803e3d6000fd5b6040516001600160a01b0383811660248301526044820183905261161091859182169063a9059cbb906064015b604051602081830303815290604052915060e01b6020820180516001600160e01b038381831617835250505050614489565b6003546040805163a872019560e01b815290516000926001600160a01b03169163a87201959160048083019260209291908290030181865afa158015611cc5573d6000803e3d6000fd5b600080600080600080600060718851146135895760405163e12a431160e01b815260040160405180910390fd5b6135a061359989600060146144f1565b60006145fe565b96506135b1613599896014806144f1565b95506135ca6135c389602860206144f1565b6000614663565b94506135dc6135c389604860206144f1565b93506135f56135ee89606860046144f1565b60006146c1565b92506136076135ee89606c60046144f1565b9150600061362261361b8a607060016144f1565b600061471e565b905060ff8116158061363757508060ff166001145b6136545760405163a991c51f60e01b815260040160405180910390fd5b8060ff16600114915050919395979092949650565b613673338261477a565b4663ffffffff168463ffffffff161461369f57604051632b25fce360e01b815260040160405180910390fd5b6001600160a01b03821630146136c85760405163fb7dcd6b60e01b815260040160405180910390fd5b63ffffffff831660009081526018602052604090205460ff166136fe576040516357e05e4960e01b815260040160405180910390fd5b50505050565b604080516020810190915260008152604051806020016040528061372c856000015185614815565b90529392505050565b6000806137428585613704565b90506128db61375082613c28565b84614821565b6000831580613763575082155b6137805760405163092bea3360e31b815260040160405180910390fd5b6000604051806020016040528061379561287b565b90529050600085156137b45750846137ad8282612c49565b92506137c4565b6137be858361482d565b90508492505b801580156137d0575082155b156137ee57604051630b8e1f4560e01b815260040160405180910390fd5b600254604051631e32bd9b60e01b81526001600160a01b0390911690631e32bd9b906138229030908b90869060040161547e565b600060405180830381600087803b15801561383c57600080fd5b505af1158015613850573d6000803e3d6000fd5b505050508261385e600d5490565b101561387d576040516305f16d0d60e11b815260040160405180910390fd5b80600c5461388b91906152ec565b600c556001600160a01b0387166000908152601060205260409020546138b29082906152ec565b6001600160a01b03881660009081526010602052604090205583156138db576138db87846126d3565b82600d60008282546138ed91906152ec565b909155505060405181815230906001600160a01b038916906000805160206155c48339815191529060200160405180910390a360408051848152602081018390526001600160a01b038916917fe5b754fb1abb7f01b499791d0b820ae3b6af3424ac1c59768edb53f4ec31a929910160405180910390a25050949350505050565b60025460405163283cafc560e11b81526001600160a01b03909116906350795f8a906139a29030908890879060040161547e565b600060405180830381600087803b1580156139bc57600080fd5b505af11580156139d0573d6000803e3d6000fd5b50505050816139de600d5490565b10156139fd57604051631eb2837b60e01b815260040160405180910390fd5b6000613a0885612827565b90506000613a1684836152ff565b9050600084600a54613a2891906152ff565b6001600160a01b0388166000908152600f60205260409020838155600954600190910155600a81905590508315613a6357613a6386866126d3565b84600d6000828254613a7591906152ec565b909155505060408051868152602081018490529081018290526001600160a01b038816907f13ed6866d4e1ee6da46f845c46d7e54120883d75c5ea9a2dacc1c4ca8984ab809060600160405180910390a250505050505050565b6002546040516330c87ef360e21b81523060048201526001600160a01b038581166024830152600092169063c321fbcc90604401600060405180830381600087803b158015613b1d57600080fd5b505af1158015613b31573d6000803e3d6000fd5b505050506000613b4085612827565b905060006000198514613b535784613b55565b815b9050600084613b645781613b6e565b613b6e88836142cc565b905080600d6000828254613b8291906152ff565b9091555060009050613b9482856152ec565b9050600082600a54613ba691906152ec565b6001600160a01b038a81166000818152600f6020908152604091829020878155600954600190910155600a859055815188815290810187905290810184905292935091908c16907f1a2a22cb034d26d1854bdc6666a5b91fe25efbbb5dcad3b0355478d6f5c362a19060600160405180910390a3509098975050505050505050565b805160009061123990670de0b6b3a76400009061545c565b846001600160a01b0316846001600160a01b031603613c725760405163092bea3360e31b815260040160405180910390fd5b600083118015613c8457506000198314155b613ca15760405163092bea3360e31b815260040160405180910390fd5b600254604051635a8673b160e11b81523060048201526001600160a01b0384811660248301528681166044830152606482018690529091169063b50ce7629060840160006040518083038186803b158015613cfb57600080fd5b505afa158015613d0f573d6000803e3d6000fd5b50505050613d1a4290565b826001600160a01b031663cfa992016040518163ffffffff1660e01b8152600401602060405180830381865afa158015613d58573d6000803e3d6000fd5b505050506040513d601f19601f82011682018060405250810190613d7c91906152a0565b14613d9a57604051632a3cdfc560e11b815260040160405180910390fd5b6000613da886868685613acf565b60025460405163c488847b60e01b81529192506000916001600160a01b039091169063c488847b90613de29030908890879060040161547e565b602060405180830381865afa158015613dff573d6000803e3d6000fd5b505050506040513d601f19601f82011682018060405250810190613e2391906152a0565b6040516370a0823160e01b81526001600160a01b03888116600483015291925082918616906370a0823190602401602060405180830381865afa158015613e6e573d6000803e3d6000fd5b505050506040513d601f19601f82011682018060405250810190613e9291906152a0565b1015613eb157604051637b664f8d60e01b815260040160405180910390fd5b306001600160a01b03851603613ed257613ecd30888884613154565b613f35565b60405163b2a02ff160e01b81526001600160a01b0385169063b2a02ff190613f02908a908a90869060040161547e565b600060405180830381600087803b158015613f1c57600080fd5b505af1158015613f30573d6000803e3d6000fd5b505050505b836001600160a01b0316866001600160a01b0316886001600160a01b03167f298637f684da70674f26509b10f07ec2fbc77a335ab1e7d6215a4b2484d8bb528585604051613f8d929190918252602082015260400190565b60405180910390a450505050505050565b60025460405163c0f1ee0960e01b81523060048201526001600160a01b0387811660248301529091169063c0f1ee0990604401600060405180830381600087803b158015613feb57600080fd5b505af1158015613fff573d6000803e3d6000fd5b505050506000604051806020016040528061401861287b565b905290506000826140295784614033565b61403387866142cc565b905080600d600082825461404791906152ff565b9091555060009050614059828461482d565b90508481101561407c57604051633e4cf5e360e21b815260040160405180910390fd5b600c546000036140c8576103e8600c8190556000805260106020527f6e0956cda88cad152e89927e53611735b61a5c762d1428573c6931b0a5efcb018190556140c590826152ec565b90505b80600c546140d691906152ff565b600c556001600160a01b0387166000908152601060205260409020546140fd9082906152ff565b6001600160a01b038881166000818152601060209081526040918290209490945580518681529384018590529092918b16917f2f00e3cdd69a77be7ed215ec7b2a36784dd158f921fca79ac29deffa353fe6ee910160405180910390a36040518181526001600160a01b0388169030906000805160206155c48339815191529060200160405180910390a36002546040516301b24df960e31b81523060048201526001600160a01b0390911690630d926fc89060240160006040518083038186803b1580156141cb57600080fd5b505afa1580156141df573d6000803e3d6000fd5b505060025460405163929fe9a160e01b81526001600160a01b038c8116600483015230602483015260009450909116915063929fe9a190604401602060405180830381865afa158015614236573d6000803e3d6000fd5b505050506040513d601f19601f8201168201806040525081019061425a91906152b9565b9050806142c15760025460405163973fd52160e01b81526001600160a01b038b811660048301529091169063973fd52190602401600060405180830381600087803b1580156142a857600080fd5b505af11580156142bc573d6000803e3d6000fd5b505050505b505050505050505050565b6014546040516370a0823160e01b815230600482015260009182916001600160a01b03909116906370a0823190602401602060405180830381865afa158015614319573d6000803e3d6000fd5b505050506040513d601f19601f8201168201806040525081019061433d91906152a0565b601454909150614358906001600160a01b031685308661484b565b6014546040516370a0823160e01b81523060048201526000916001600160a01b0316906370a0823190602401602060405180830381865afa1580156143a1573d6000803e3d6000fd5b505050506040513d601f19601f820116820180604052508101906143c591906152a0565b90506128db82826152ec565b6143df868686868686614873565b601480546001600160a01b0319166001600160a01b038916908117909155604080516318160ddd60e01b815290516318160ddd916004808201926020929091908290030181865afa158015614438573d6000803e3d6000fd5b505050506040513d601f19601f8201168201806040525081019061445c91906152a0565b5050505050505050565b6000670de0b6b3a764000061447f848460000151614815565b61138c919061545c565b600061449e6001600160a01b0384168361491d565b905080516000141580156144c35750808060200190518101906144c191906152b9565b155b1561161057604051635274afe760e01b81526001600160a01b03841660048201526024015b60405180910390fd5b6060816144ff81601f6152ff565b101561453e5760405162461bcd60e51b815260206004820152600e60248201526d736c6963655f6f766572666c6f7760901b60448201526064016144e8565b61454882846152ff565b8451101561458c5760405162461bcd60e51b8152602060048201526011602482015270736c6963655f6f75744f66426f756e647360781b60448201526064016144e8565b6060821580156145ab57604051915060008252602082016040526145f5565b6040519150601f8416801560200281840101858101878315602002848b0101015b818310156145e45780518352602092830192016145cc565b5050858452601f01601f1916604052505b50949350505050565b600061460b8260146152ff565b835110156146535760405162461bcd60e51b8152602060048201526015602482015274746f416464726573735f6f75744f66426f756e647360581b60448201526064016144e8565b500160200151600160601b900490565b60006146708260206152ff565b835110156146b85760405162461bcd60e51b8152602060048201526015602482015274746f55696e743235365f6f75744f66426f756e647360581b60448201526064016144e8565b50016020015190565b60006146ce8260046152ff565b835110156147155760405162461bcd60e51b8152602060048201526014602482015273746f55696e7433325f6f75744f66426f756e647360601b60448201526064016144e8565b50016004015190565b600061472b8260016152ff565b835110156147715760405162461bcd60e51b8152602060048201526013602482015272746f55696e74385f6f75744f66426f756e647360681b60448201526064016144e8565b50016001015190565b806001600160a01b0316826001600160a01b031614611df7576001600160a01b0380821660009081526017602090815260408083209386168352929052205460ff16806147d457506000546001600160a01b038381169116145b806147e657506147e682610daf613512565b806147f857506147f882610daf612102565b611df75760405163271bd90b60e01b815260040160405180910390fd5b600061138c8284615445565b600061138c82846152ff565b600061138c61484484670de0b6b3a7640000614815565b835161492b565b6136fe84856001600160a01b03166323b872dd8686866040516024016134e09392919061547e565b6008541580156148835750600954155b6148a05760405163544e961960e11b815260040160405180910390fd5b600084116148c157604051631df62a7d60e31b815260040160405180910390fd5b60128490556148cf8661338e565b42600855670de0b6b3a76400006009556148e885612e26565b60046148f484826154e9565b50600561490183826154e9565b506006805460ff191660ff929092169190911790555050505050565b606061138c83836000614937565b600061138c828461545c565b60608147101561495c5760405163cd78605960e01b81523060048201526024016144e8565b600080856001600160a01b0316848660405161497891906155a7565b60006040518083038185875af1925050503d80600081146149b5576040519150601f19603f3d011682016040523d82523d6000602084013e6149ba565b606091505b50915091506149ca8683836149d4565b9695505050505050565b6060826149e9576149e482614a30565b61138c565b8151158015614a0057506001600160a01b0384163b155b15614a2957604051639996b31560e01b81526001600160a01b03851660048201526024016144e8565b508061138c565b805115614a405780518082602001fd5b604051630a12f52160e11b815260040160405180910390fd5b6001600160a01b038116811461113057600080fd5b80356112b881614a59565b600060208284031215614a8b57600080fd5b813561138c81614a59565b60008083601f840112614aa857600080fd5b5081356001600160401b03811115614abf57600080fd5b602083019150836020828501011115610f2d57600080fd5b60008083601f840112614ae957600080fd5b5081356001600160401b03811115614b0057600080fd5b6020830191508360208260051b8501011115610f2d57600080fd5b600080600080600080600080600060a08a8c031215614b3957600080fd5b89356001600160401b03811115614b4f57600080fd5b614b5b8c828d01614a96565b909a5098505060208a01356001600160401b03811115614b7a57600080fd5b614b868c828d01614a96565b90985096505060408a01356001600160401b03811115614ba557600080fd5b614bb18c828d01614ad7565b90965094505060608a01356001600160401b03811115614bd057600080fd5b614bdc8c828d01614ad7565b90945092505060808a0135614bf081614a59565b809150509295985092959850929598565b60005b83811015614c1c578181015183820152602001614c04565b50506000910152565b6020815260008251806020840152614c44816040850160208701614c01565b601f01601f19169190910160400192915050565b803563ffffffff811681146112b857600080fd5b60008060408385031215614c7f57600080fd5b8235614c8a81614a59565b9150614c9860208401614c58565b90509250929050565b600060208284031215614cb357600080fd5b5035919050565b60008060008060008060006080888a031215614cd557600080fd5b87356001600160401b03811115614ceb57600080fd5b614cf78a828b01614a96565b90985096505060208801356001600160401b03811115614d1657600080fd5b614d228a828b01614a96565b90965094505060408801356001600160401b03811115614d4157600080fd5b614d4d8a828b01614ad7565b9094509250506060880135614d6181614a59565b8091505092959891949750929550565b60008060408385031215614d8457600080fd5b8235614d8f81614a59565b946020939093013593505050565b600080600060608486031215614db257600080fd5b8335614dbd81614a59565b92506020840135614dcd81614a59565b929592945050506040919091013590565b600080600060608486031215614df357600080fd5b8335925060208401359150614e0a60408501614c58565b90509250925092565b600080600060608486031215614e2857600080fd5b8335614e3381614a59565b9250602084013591506040840135614e4a81614a59565b809150509250925092565b801515811461113057600080fd5b60008060408385031215614e7657600080fd5b8235614e8181614a59565b91506020830135614e9181614e55565b809150509250929050565b600080600080600060a08688031215614eb457600080fd5b8535614ebf81614e55565b9450602086013593506040860135614ed681614a59565b92506060860135614ee681614a59565b949793965091946080013592915050565b60008060408385031215614f0a57600080fd5b8235614f1581614a59565b91506020830135614e9181614a59565b634e487b7160e01b600052604160045260246000fd5b604051601f8201601f191681016001600160401b0381118282101715614f6357614f63614f25565b604052919050565b6000806001600160401b03841115614f8557614f85614f25565b50601f8301601f1916602001614f9a81614f3b565b915050828152838383011115614faf57600080fd5b828260208301376000602084830101529392505050565b600082601f830112614fd757600080fd5b61138c83833560208501614f6b565b803560ff811681146112b857600080fd5b6000806000806000806000806000806101408b8d03121561501757600080fd5b6150208b614a6e565b995061502e60208c01614a6e565b985061503c60408c01614a6e565b975060608b0135965060808b01356001600160401b0381111561505e57600080fd5b61506a8d828e01614fc6565b96505060a08b01356001600160401b0381111561508657600080fd5b6150928d828e01614fc6565b9550506150a160c08c01614fe6565b93506150af60e08c01614a6e565b92506150be6101008c01614a6e565b91506150cd6101208c01614a6e565b90509295989b9194979a5092959850565b6000806000606084860312156150f357600080fd5b833592506020840135614dcd81614a59565b60006020828403121561511757600080fd5b61138c82614c58565b6000806040838503121561513357600080fd5b614e8183614c58565b600080600080600080600080600080600060c08c8e03121561515d57600080fd5b8b356001600160401b0381111561517357600080fd5b61517f8e828f01614a96565b909c509a505060208c01356001600160401b0381111561519e57600080fd5b6151aa8e828f01614a96565b909a5098505060408c01356001600160401b038111156151c957600080fd5b6151d58e828f01614ad7565b90985096505060608c01356001600160401b038111156151f457600080fd5b6152008e828f01614ad7565b90965094505060808c01356001600160401b0381111561521f57600080fd5b61522b8e828f01614ad7565b909450925061523e905060a08d01614a6e565b90509295989b509295989b9093969950565b634e487b7160e01b600052603260045260246000fd5b600181811c9082168061527a57607f821691505b60208210810361529a57634e487b7160e01b600052602260045260246000fd5b50919050565b6000602082840312156152b257600080fd5b5051919050565b6000602082840312156152cb57600080fd5b815161138c81614e55565b634e487b7160e01b600052601160045260246000fd5b81810381811115611239576112396152d6565b80820180821115611239576112396152d6565b81835281816020850137506000828201602090810191909152601f909101601f19169091010190565b60408152600061534f604083018688615312565b8281036020840152615362818587615312565b979650505050505050565b60006020828403121561537f57600080fd5b81356001600160401b0381111561539557600080fd5b8201601f810184136153a657600080fd5b80356001600160401b038111156153bf576153bf614f25565b8060051b6153cf60208201614f3b565b918252602081840181019290810190878411156153eb57600080fd5b6020850192505b838310156153625782356001600160401b0381111561541057600080fd5b8501603f8101891361542157600080fd5b61543389602083013560408401614f6b565b835250602092830192909101906153f2565b8082028115828204841417611239576112396152d6565b60008261547957634e487b7160e01b600052601260045260246000fd5b500490565b6001600160a01b039384168152919092166020820152604081019190915260600190565b601f82111561161057806000526020600020601f840160051c810160208510156154c95750805b601f840160051c820191505b818110156117d357600081556001016154d5565b81516001600160401b0381111561550257615502614f25565b615516816155108454615266565b846154a2565b6020601f82116001811461554a57600083156155325750848201515b600019600385901b1c1916600184901b1784556117d3565b600084815260208120601f198516915b8281101561557a578785015182556020948501946001909201910161555a565b50848210156155985786840151600019600387901b60f8161c191681555b50505050600190811b01905550565b600082516155b9818460208701614c01565b919091019291505056feddf252ad1be2c89b69c2b068fc378daa952ba7f163c4a11628f55a4df523b3efa26469706673582212203c5bc403fc205e0712d9bcc94742960adf0c98a958c5496eb06a8a3f2704297264736f6c634300081c0033","linkReferences":{}},"methodIdentifiers":{"acceptAdmin()":"0e18b681","accrualBlockTimestamp()":"cfa99201","accrueInterest()":"a6afed95","addReserves(uint256)":"7821a514","admin()":"f851a440","allowance(address,address)":"dd62ed3e","allowedCallers(address,address)":"600bb376","allowedChains(uint32)":"8da73527","approve(address,uint256)":"095ea7b3","balanceOf(address)":"70a08231","balanceOfUnderlying(address)":"3af9e669","borrow(uint256)":"c5ebeaec","borrowBalanceCurrent(address)":"17bfdfbc","borrowBalanceStored(address)":"95dd9193","borrowIndex()":"aa5af0fd","borrowRateMaxMantissa()":"ee27a2f2","borrowRatePerBlock()":"f8f9da28","decimals()":"313ce567","exchangeRateCurrent()":"bd6d894d","exchangeRateStored()":"182df0f5","extractForRebalancing(uint256)":"ffcaadfe","gasHelper()":"c9ad2b5a","getAccountSnapshot(address)":"c37f68e2","getCash()":"3b1d21a2","getProofData(address,uint32)":"07d923e9","initialize(address,address,address,uint256,string,string,uint8,address,address,address)":"7f7b13d4","interestRateModel()":"f3fdb15a","liquidate(address,uint256,address)":"4914c008","liquidateExternal(bytes,bytes,address[],uint256[],address[],address)":"a4777a7a","migrator()":"7cd07e47","mint(uint256,address,uint256)":"836a1040","mintExternal(bytes,bytes,uint256[],uint256[],address)":"05dbe8a7","mintOrBorrowMigration(bool,uint256,address,address,uint256)":"5bf36c5a","name()":"06fdde03","operator()":"570ca735","pendingAdmin()":"26782247","performExtensionCall(uint256,uint256,uint32)":"2e1483ae","redeem(uint256)":"db006a75","redeemUnderlying(uint256)":"852a12e3","reduceReserves(uint256)":"07e27959","repay(uint256)":"371fd8e6","repayBehalf(address,uint256)":"5bdcecb7","repayExternal(bytes,bytes,uint256[],address)":"08fee263","reserveFactorMantissa()":"173b9904","rolesOperator()":"4fecab70","seize(address,address,uint256)":"b2a02ff1","setBorrowRateMaxMantissa(uint256)":"e67218cd","setGasHelper(address)":"25536db8","setInterestRateModel(address)":"8bcd4016","setMigrator(address)":"23cf3118","setOperator(address)":"b3ab15fb","setPendingAdmin(address)":"4dd18bf5","setReserveFactor(uint256)":"1c446983","setRolesOperator(address)":"f89416ee","supplyRatePerBlock()":"ae9d70b0","sweepToken(address,uint256)":"e90a182f","symbol()":"95d89b41","totalBorrows()":"47bd3718","totalBorrowsCurrent()":"73acee98","totalReserves()":"8f840ddd","totalSupply()":"18160ddd","totalUnderlying()":"c70920bc","transfer(address,uint256)":"a9059cbb","transferFrom(address,address,uint256)":"23b872dd","underlying()":"6f307dc3","updateAllowedCallerStatus(address,bool)":"4f2be4ce","updateAllowedChain(uint32,bool)":"99c43837","updateZkVerifier(address)":"0148606c","verifier()":"2b7ac3f3","withdrawGasFees(address)":"d6b457b9"},"id":95}