{"abi":[{"type":"constructor","inputs":[{"name":"symbols_","type":"string[]","internalType":"string[]"},{"name":"feeds_","type":"address[]","internalType":"contract IAggregatorV3[]"},{"name":"baseUnits_","type":"uint256[]","internalType":"uint256[]"}],"stateMutability":"nonpayable"},{"type":"function","name":"DECIMALS","inputs":[],"outputs":[{"name":"","type":"uint8","internalType":"uint8"}],"stateMutability":"view"},{"type":"function","name":"baseUnits","inputs":[{"name":"","type":"string","internalType":"string"}],"outputs":[{"name":"","type":"uint256","internalType":"uint256"}],"stateMutability":"view"},{"type":"function","name":"getPrice","inputs":[{"name":"mToken","type":"address","internalType":"address"}],"outputs":[{"name":"","type":"uint256","internalType":"uint256"}],"stateMutability":"view"},{"type":"function","name":"getUnderlyingPrice","inputs":[{"name":"mToken","type":"address","internalType":"address"}],"outputs":[{"name":"","type":"uint256","internalType":"uint256"}],"stateMutability":"view"},{"type":"function","name":"priceFeeds","inputs":[{"name":"","type":"string","internalType":"string"}],"outputs":[{"name":"","type":"address","internalType":"contract IAggregatorV3"}],"stateMutability":"view"},{"type":"error","name":"ChainlinkOracle_NoPriceFeed","inputs":[]},{"type":"error","name":"ChainlinkOracle_ZeroPrice","inputs":[]}],"bytecode":{"object":"0x608060405234801561001057600080fd5b50604051610d52380380610d5283398101604081905261002f91610281565b60005b835181101561010b5782818151811061004d5761004d6103e7565b60200260200101516000858381518110610069576100696103e7565b602002602001015160405161007e91906103fd565b908152602001604051809103902060006101000a8154816001600160a01b0302191690836001600160a01b031602179055508181815181106100c2576100c26103e7565b602002602001015160018583815181106100de576100de6103e7565b60200260200101516040516100f391906103fd565b90815260405190819003602001902055600101610032565b50505050610419565b634e487b7160e01b600052604160045260246000fd5b604051601f8201601f191681016001600160401b038111828210171561015257610152610114565b604052919050565b60006001600160401b0382111561017357610173610114565b5060051b60200190565b60005b83811015610198578181015183820152602001610180565b50506000910152565b600082601f8301126101b257600080fd5b81516101c56101c08261015a565b61012a565b8082825260208201915060208360051b8601019250858311156101e757600080fd5b602085015b838110156102195780516001600160a01b038116811461020b57600080fd5b8352602092830192016101ec565b5095945050505050565b600082601f83011261023457600080fd5b81516102426101c08261015a565b8082825260208201915060208360051b86010192508583111561026457600080fd5b602085015b83811015610219578051835260209283019201610269565b60008060006060848603121561029657600080fd5b83516001600160401b038111156102ac57600080fd5b8401601f810186136102bd57600080fd5b80516102cb6101c08261015a565b8082825260208201915060208360051b8501019250888311156102ed57600080fd5b602084015b838110156103865780516001600160401b0381111561031057600080fd5b8501603f81018b1361032157600080fd5b60208101516001600160401b0381111561033d5761033d610114565b610350601f8201601f191660200161012a565b8181526040838301018d101561036557600080fd5b61037682602083016040860161017d565b85525050602092830192016102f2565b506020880151909650925050506001600160401b038111156103a757600080fd5b6103b3868287016101a1565b604086015190935090506001600160401b038111156103d157600080fd5b6103dd86828701610223565b9150509250925092565b634e487b7160e01b600052603260045260246000fd5b6000825161040f81846020870161017d565b9190910192915050565b61092a806104286000396000f3fe608060405234801561001057600080fd5b50600436106100575760003560e01c80632e0f26251461005c57806341976e091461007b578063510036831461009c578063cb8ae86c146100c7578063fc57d4df14610113575b600080fd5b610064601281565b60405160ff90911681526020015b60405180910390f35b61008e610089366004610527565b610126565b604051908152602001610072565b61008e6100aa3660046105ba565b805160208183018101805160018252928201919093012091525481565b6100fb6100d53660046105ba565b80516020818301810180516000825292820191909301209152546001600160a01b031681565b6040516001600160a01b039091168152602001610072565b61008e610121366004610527565b610251565b600080826001600160a01b03166395d89b416040518163ffffffff1660e01b8152600401600060405180830381865afa158015610167573d6000803e3d6000fd5b505050506040513d6000823e601f3d908101601f1916820160405261018f919081019061065e565b9050600080826040516101a291906106cc565b90815260408051602092819003830181205463313ce56760e01b825291516001600160a01b039092169263313ce567926004808401938290030181865afa1580156101f1573d6000803e3d6000fd5b505050506040513d601f19601f8201168201806040525081019061021591906106e8565b60ff1690506000610225836103fe565b509050610233826012610721565b61023e90600a610821565b610248908261082d565b95945050505050565b600080826001600160a01b0316636f307dc36040518163ffffffff1660e01b8152600401602060405180830381865afa158015610292573d6000803e3d6000fd5b505050506040513d601f19601f820116820180604052508101906102b69190610844565b6001600160a01b03166395d89b416040518163ffffffff1660e01b8152600401600060405180830381865afa1580156102f3573d6000803e3d6000fd5b505050506040513d6000823e601f3d908101601f1916820160405261031b919081019061065e565b90506000808260405161032e91906106cc565b90815260408051602092819003830181205463313ce56760e01b825291516001600160a01b039092169263313ce567926004808401938290030181865afa15801561037d573d6000803e3d6000fd5b505050506040513d601f19601f820116820180604052508101906103a191906106e8565b60ff16905060006103b1836103fe565b5090506001836040516103c491906106cc565b908152604051908190036020019020546103df836024610721565b6103ea90600a610821565b6103f4908361082d565b6102489190610861565b60008060006001600160a01b031660008460405161041c91906106cc565b908152604051908190036020019020546001600160a01b031603610453576040516360d219e560e01b815260040160405180910390fd5b60008060008560405161046691906106cc565b9081526040805191829003602001822054633fabe5a360e21b835290516001600160a01b039091169163feaf968c9160048083019260a09291908290030181865afa1580156104b9573d6000803e3d6000fd5b505050506040513d601f19601f820116820180604052508101906104dd91906108a2565b509350509250506000821361050557604051635493b5ad60e11b815260040160405180910390fd5b9094909350915050565b6001600160a01b038116811461052457600080fd5b50565b60006020828403121561053957600080fd5b81356105448161050f565b9392505050565b634e487b7160e01b600052604160045260246000fd5b604051601f8201601f1916810167ffffffffffffffff8111828210171561058a5761058a61054b565b604052919050565b600067ffffffffffffffff8211156105ac576105ac61054b565b50601f01601f191660200190565b6000602082840312156105cc57600080fd5b813567ffffffffffffffff8111156105e357600080fd5b8201601f810184136105f457600080fd5b803561060761060282610592565b610561565b81815285602083850101111561061c57600080fd5b81602084016020830137600091810160200191909152949350505050565b60005b8381101561065557818101518382015260200161063d565b50506000910152565b60006020828403121561067057600080fd5b815167ffffffffffffffff81111561068757600080fd5b8201601f8101841361069857600080fd5b80516106a661060282610592565b8181528560208385010111156106bb57600080fd5b61024882602083016020860161063a565b600082516106de81846020870161063a565b9190910192915050565b6000602082840312156106fa57600080fd5b815160ff8116811461054457600080fd5b634e487b7160e01b600052601160045260246000fd5b818103818111156107345761073461070b565b92915050565b6001815b6001841115610775578085048111156107595761075961070b565b600184161561076757908102905b60019390931c92800261073e565b935093915050565b60008261078c57506001610734565b8161079957506000610734565b81600181146107af57600281146107b9576107d5565b6001915050610734565b60ff8411156107ca576107ca61070b565b50506001821b610734565b5060208310610133831016604e8410600b84101617156107f8575081810a610734565b610805600019848461073a565b80600019048211156108195761081961070b565b029392505050565b6000610544838361077d565b80820281158282048414176107345761073461070b565b60006020828403121561085657600080fd5b81516105448161050f565b60008261087e57634e487b7160e01b600052601260045260246000fd5b500490565b805169ffffffffffffffffffff8116811461089d57600080fd5b919050565b600080600080600060a086880312156108ba57600080fd5b6108c386610883565b602087015160408801516060890151929750909550935091506108e860808701610883565b9050929550929590935056fea2646970667358221220eb6d81507ab49de6e9434eb3b5c4388274f6369ab152afc1f709ce506c988e2b64736f6c634300081c0033","linkReferences":{}},"methodIdentifiers":{"DECIMALS()":"2e0f2625","baseUnits(string)":"51003683","getPrice(address)":"41976e09","getUnderlyingPrice(address)":"fc57d4df","priceFeeds(string)":"cb8ae86c"},"id":104}