{"abi":[{"type":"function","name":"ENTRY_SIZE","inputs":[],"outputs":[{"name":"","type":"uint256","internalType":"uint256"}],"stateMutability":"view"},{"type":"error","name":"mTokenProofDecoderLib_ChainNotFound","inputs":[]},{"type":"error","name":"mTokenProofDecoderLib_InvalidInclusion","inputs":[]},{"type":"error","name":"mTokenProofDecoderLib_InvalidLength","inputs":[]}],"bytecode":{"object":"0x60876037600b82828239805160001a607314602a57634e487b7160e01b600052600060045260246000fd5b30600052607381538281f3fe730000000000000000000000000000000000000000301460806040526004361060335760003560e01c8063ad899d12146038575b600080fd5b603f607181565b60405190815260200160405180910390f3fea26469706673582212200681c31ef96bc977f57ac0d5a7abd7f46957762eede8ff7513c52d62cbe1eea064736f6c634300081c0033","linkReferences":{}},"methodIdentifiers":{"ENTRY_SIZE()":"ad899d12"},"id":92}