{"abi":[{"type":"function","name":"GUARDIAN_BLACKLIST","inputs":[],"outputs":[{"name":"","type":"bytes32","internalType":"bytes32"}],"stateMutability":"view"},{"type":"function","name":"isAllowedFor","inputs":[{"name":"account","type":"address","internalType":"address"},{"name":"","type":"bytes32","internalType":"bytes32"}],"outputs":[{"name":"","type":"bool","internalType":"bool"}],"stateMutability":"view"},{"type":"function","name":"permissions","inputs":[{"name":"","type":"address","internalType":"address"}],"outputs":[{"name":"","type":"bool","internalType":"bool"}],"stateMutability":"view"},{"type":"function","name":"setAllowed","inputs":[{"name":"account","type":"address","internalType":"address"},{"name":"allowed","type":"bool","internalType":"bool"}],"outputs":[],"stateMutability":"nonpayable"}],"bytecode":{"object":"0x6080604052348015600f57600080fd5b506102008061001f6000396000f3fe608060405234801561001057600080fd5b506004361061004c5760003560e01c806301e882081461005157806338dd8c2c146100895780634697f05d146100b6578063ce848e13146100f1575b600080fd5b61007461005f366004610142565b60006020819052908152604090205460ff1681565b60405190151581526020015b60405180910390f35b610074610097366004610164565b506001600160a01b031660009081526020819052604090205460ff1690565b6100ef6100c436600461018e565b6001600160a01b03919091166000908152602081905260409020805460ff1916911515919091179055565b005b6101187fd7f04f034163f8e54d3edad14592dc01fc248c04ff4006634300788f87b6946a81565b604051908152602001610080565b80356001600160a01b038116811461013d57600080fd5b919050565b60006020828403121561015457600080fd5b61015d82610126565b9392505050565b6000806040838503121561017757600080fd5b61018083610126565b946020939093013593505050565b600080604083850312156101a157600080fd5b6101aa83610126565b9150602083013580151581146101bf57600080fd5b80915050925092905056fea264697066735822122063a6bb0d3cc7a2560b3f27dc0d8bf78c896d4dc188890c1bd0d90208c31c91bf64736f6c634300081c0033","linkReferences":{}},"methodIdentifiers":{"GUARDIAN_BLACKLIST()":"ce848e13","isAllowedFor(address,bytes32)":"38dd8c2c","permissions(address)":"01e88208","setAllowed(address,bool)":"4697f05d"},"id":126}