{"abi":[{"type":"function","name":"getBorrowerPosition","inputs":[{"name":"borrower","type":"address","internalType":"address"},{"name":"market","type":"address","internalType":"address"}],"outputs":[{"name":"shouldLiquidate","type":"bool","internalType":"bool"},{"name":"repayAmount","type":"uint256","internalType":"uint256"}],"stateMutability":"view"}],"bytecode":{"object":"0x6080604052348015600f57600080fd5b5061048a8061001f6000396000f3fe608060405234801561001057600080fd5b506004361061002b5760003560e01c8063887ecdee14610030575b600080fd5b61004361003e366004610310565b61005e565b60408051921515835260208301919091520160405180910390f35b60008060009150600090506000836001600160a01b031663570ca7356040518163ffffffff1660e01b8152600401602060405180830381865afa1580156100a9573d6000803e3d6000fd5b505050506040513d601f19601f820116820180604052508101906100cd9190610349565b604051630d12662760e01b81529091506001600160a01b03821690630d126627906100ff908790600a9060040161036d565b602060405180830381865afa15801561011c573d6000803e3d6000fd5b505050506040513d601f19601f8201168201806040525081019061014091906103a8565b1561014b57506102f1565b6040516395dd919360e01b81526001600160a01b03868116600483015285916000918316906395dd919390602401602060405180830381865afa158015610196573d6000803e3d6000fd5b505050506040513d601f19601f820116820180604052508101906101ba91906103ca565b9050806000036101cc575050506102f1565b604051634e79238f60e01b81526001600160a01b03888116600483015260006024830181905260448301819052606483018190529190851690634e79238f906084016040805180830381865afa15801561022a573d6000803e3d6000fd5b505050506040513d601f19601f8201168201806040525081019061024e91906103e3565b9150508060000361026257505050506102f1565b6000846001600160a01b031663e87554466040518163ffffffff1660e01b8152600401602060405180830381865afa1580156102a2573d6000803e3d6000fd5b505050506040513d601f19601f820116820180604052508101906102c691906103ca565b9050670de0b6b3a76400006102db8285610407565b6102e59190610432565b95506001965050505050505b9250929050565b6001600160a01b038116811461030d57600080fd5b50565b6000806040838503121561032357600080fd5b823561032e816102f8565b9150602083013561033e816102f8565b809150509250929050565b60006020828403121561035b57600080fd5b8151610366816102f8565b9392505050565b6001600160a01b038316815260408101600c831061039b57634e487b7160e01b600052602160045260246000fd5b8260208301529392505050565b6000602082840312156103ba57600080fd5b8151801515811461036657600080fd5b6000602082840312156103dc57600080fd5b5051919050565b600080604083850312156103f657600080fd5b505080516020909101519092909150565b808202811582820484141761042c57634e487b7160e01b600052601160045260246000fd5b92915050565b60008261044f57634e487b7160e01b600052601260045260246000fd5b50049056fea26469706673582212204bda848a3f6a1f6c0de1e3ec6b86ba8eb0f5e6409f3433ce5716742e6003a33764736f6c634300081c0033","linkReferences":{}},"methodIdentifiers":{"getBorrowerPosition(address,address)":"887ecdee"},"id":117}