{"abi":[{"type":"constructor","inputs":[],"stateMutability":"nonpayable"},{"type":"function","name":"accAmountIn","inputs":[{"name":"","type":"address","internalType":"address"}],"outputs":[{"name":"","type":"uint256","internalType":"uint256"}],"stateMutability":"view"},{"type":"function","name":"accAmountOut","inputs":[{"name":"","type":"address","internalType":"address"}],"outputs":[{"name":"","type":"uint256","internalType":"uint256"}],"stateMutability":"view"},{"type":"function","name":"allowedCallers","inputs":[{"name":"","type":"address","internalType":"address"},{"name":"","type":"address","internalType":"address"}],"outputs":[{"name":"","type":"bool","internalType":"bool"}],"stateMutability":"view"},{"type":"function","name":"blacklistOperator","inputs":[],"outputs":[{"name":"","type":"address","internalType":"contract IBlacklister"}],"stateMutability":"view"},{"type":"function","name":"disableWhitelist","inputs":[],"outputs":[],"stateMutability":"nonpayable"},{"type":"function","name":"enableWhitelist","inputs":[],"outputs":[],"stateMutability":"nonpayable"},{"type":"function","name":"extractForRebalancing","inputs":[{"name":"amount","type":"uint256","internalType":"uint256"}],"outputs":[],"stateMutability":"nonpayable"},{"type":"function","name":"gasFee","inputs":[],"outputs":[{"name":"","type":"uint256","internalType":"uint256"}],"stateMutability":"view"},{"type":"function","name":"getProofData","inputs":[{"name":"user","type":"address","internalType":"address"},{"name":"","type":"uint32","internalType":"uint32"}],"outputs":[{"name":"","type":"uint256","internalType":"uint256"},{"name":"","type":"uint256","internalType":"uint256"}],"stateMutability":"view"},{"type":"function","name":"initialize","inputs":[{"name":"_owner","type":"address","internalType":"address payable"},{"name":"_underlying","type":"address","internalType":"address"},{"name":"_roles","type":"address","internalType":"address"},{"name":"_blacklister","type":"address","internalType":"address"},{"name":"zkVerifier_","type":"address","internalType":"address"}],"outputs":[],"stateMutability":"nonpayable"},{"type":"function","name":"isPaused","inputs":[{"name":"_type","type":"uint8","internalType":"enum ImTokenOperationTypes.OperationType"}],"outputs":[{"name":"","type":"bool","internalType":"bool"}],"stateMutability":"view"},{"type":"function","name":"outHere","inputs":[{"name":"journalData","type":"bytes","internalType":"bytes"},{"name":"seal","type":"bytes","internalType":"bytes"},{"name":"amounts","type":"uint256[]","internalType":"uint256[]"},{"name":"receiver","type":"address","internalType":"address"}],"outputs":[],"stateMutability":"nonpayable"},{"type":"function","name":"owner","inputs":[],"outputs":[{"name":"","type":"address","internalType":"address"}],"stateMutability":"view"},{"type":"function","name":"paused","inputs":[{"name":"","type":"uint8","internalType":"enum ImTokenOperationTypes.OperationType"}],"outputs":[{"name":"","type":"bool","internalType":"bool"}],"stateMutability":"view"},{"type":"function","name":"renounceOwnership","inputs":[],"outputs":[],"stateMutability":"nonpayable"},{"type":"function","name":"rolesOperator","inputs":[],"outputs":[{"name":"","type":"address","internalType":"contract IRoles"}],"stateMutability":"view"},{"type":"function","name":"setGasFee","inputs":[{"name":"amount","type":"uint256","internalType":"uint256"}],"outputs":[],"stateMutability":"nonpayable"},{"type":"function","name":"setPaused","inputs":[{"name":"_type","type":"uint8","internalType":"enum ImTokenOperationTypes.OperationType"},{"name":"state","type":"bool","internalType":"bool"}],"outputs":[],"stateMutability":"nonpayable"},{"type":"function","name":"setWhitelistedUser","inputs":[{"name":"user","type":"address","internalType":"address"},{"name":"state","type":"bool","internalType":"bool"}],"outputs":[],"stateMutability":"nonpayable"},{"type":"function","name":"supplyOnHost","inputs":[{"name":"amount","type":"uint256","internalType":"uint256"},{"name":"receiver","type":"address","internalType":"address"},{"name":"lineaSelector","type":"bytes4","internalType":"bytes4"}],"outputs":[],"stateMutability":"payable"},{"type":"function","name":"transferOwnership","inputs":[{"name":"newOwner","type":"address","internalType":"address"}],"outputs":[],"stateMutability":"nonpayable"},{"type":"function","name":"underlying","inputs":[],"outputs":[{"name":"","type":"address","internalType":"address"}],"stateMutability":"view"},{"type":"function","name":"updateAllowedCallerStatus","inputs":[{"name":"caller","type":"address","internalType":"address"},{"name":"status","type":"bool","internalType":"bool"}],"outputs":[],"stateMutability":"nonpayable"},{"type":"function","name":"updateZkVerifier","inputs":[{"name":"_zkVerifier","type":"address","internalType":"address"}],"outputs":[],"stateMutability":"nonpayable"},{"type":"function","name":"userWhitelisted","inputs":[{"name":"","type":"address","internalType":"address"}],"outputs":[{"name":"","type":"bool","internalType":"bool"}],"stateMutability":"view"},{"type":"function","name":"verifier","inputs":[],"outputs":[{"name":"","type":"address","internalType":"contract IZkVerifier"}],"stateMutability":"view"},{"type":"function","name":"whitelistEnabled","inputs":[],"outputs":[{"name":"","type":"bool","internalType":"bool"}],"stateMutability":"view"},{"type":"function","name":"withdrawGasFees","inputs":[{"name":"receiver","type":"address","internalType":"address payable"}],"outputs":[],"stateMutability":"nonpayable"},{"type":"event","name":"AllowedCallerUpdated","inputs":[{"name":"sender","type":"address","indexed":true,"internalType":"address"},{"name":"caller","type":"address","indexed":true,"internalType":"address"},{"name":"status","type":"bool","indexed":false,"internalType":"bool"}],"anonymous":false},{"type":"event","name":"Initialized","inputs":[{"name":"version","type":"uint64","indexed":false,"internalType":"uint64"}],"anonymous":false},{"type":"event","name":"OwnershipTransferred","inputs":[{"name":"previousOwner","type":"address","indexed":true,"internalType":"address"},{"name":"newOwner","type":"address","indexed":true,"internalType":"address"}],"anonymous":false},{"type":"event","name":"ZkVerifierUpdated","inputs":[{"name":"oldVerifier","type":"address","indexed":true,"internalType":"address"},{"name":"newVerifier","type":"address","indexed":true,"internalType":"address"}],"anonymous":false},{"type":"event","name":"mTokenGateway_Extracted","inputs":[{"name":"msgSender","type":"address","indexed":true,"internalType":"address"},{"name":"srcSender","type":"address","indexed":true,"internalType":"address"},{"name":"receiver","type":"address","indexed":true,"internalType":"address"},{"name":"accAmountIn","type":"uint256","indexed":false,"internalType":"uint256"},{"name":"accAmountOut","type":"uint256","indexed":false,"internalType":"uint256"},{"name":"amount","type":"uint256","indexed":false,"internalType":"uint256"},{"name":"srcChainId","type":"uint32","indexed":false,"internalType":"uint32"},{"name":"dstChainId","type":"uint32","indexed":false,"internalType":"uint32"}],"anonymous":false},{"type":"event","name":"mTokenGateway_GasFeeUpdated","inputs":[{"name":"amount","type":"uint256","indexed":false,"internalType":"uint256"}],"anonymous":false},{"type":"event","name":"mTokenGateway_PausedState","inputs":[{"name":"_type","type":"uint8","indexed":true,"internalType":"enum ImTokenOperationTypes.OperationType"},{"name":"_status","type":"bool","indexed":false,"internalType":"bool"}],"anonymous":false},{"type":"event","name":"mTokenGateway_Skipped","inputs":[{"name":"msgSender","type":"address","indexed":true,"internalType":"address"},{"name":"srcSender","type":"address","indexed":true,"internalType":"address"},{"name":"receiver","type":"address","indexed":true,"internalType":"address"},{"name":"accAmountIn","type":"uint256","indexed":false,"internalType":"uint256"},{"name":"accAmountOut","type":"uint256","indexed":false,"internalType":"uint256"},{"name":"amount","type":"uint256","indexed":false,"internalType":"uint256"},{"name":"srcChainId","type":"uint32","indexed":false,"internalType":"uint32"},{"name":"dstChainId","type":"uint32","indexed":false,"internalType":"uint32"}],"anonymous":false},{"type":"event","name":"mTokenGateway_Supplied","inputs":[{"name":"from","type":"address","indexed":true,"internalType":"address"},{"name":"receiver","type":"address","indexed":true,"internalType":"address"},{"name":"accAmountIn","type":"uint256","indexed":false,"internalType":"uint256"},{"name":"accAmountOut","type":"uint256","indexed":false,"internalType":"uint256"},{"name":"amount","type":"uint256","indexed":false,"internalType":"uint256"},{"name":"srcChainId","type":"uint32","indexed":false,"internalType":"uint32"},{"name":"dstChainId","type":"uint32","indexed":false,"internalType":"uint32"},{"name":"lineaMethodSelector","type":"bytes4","indexed":false,"internalType":"bytes4"}],"anonymous":false},{"type":"event","name":"mTokenGateway_UserWhitelisted","inputs":[{"name":"user","type":"address","indexed":true,"internalType":"address"},{"name":"status","type":"bool","indexed":false,"internalType":"bool"}],"anonymous":false},{"type":"event","name":"mTokenGateway_WhitelistDisabled","inputs":[],"anonymous":false},{"type":"event","name":"mTokenGateway_WhitelistEnabled","inputs":[],"anonymous":false},{"type":"error","name":"AddressEmptyCode","inputs":[{"name":"target","type":"address","internalType":"address"}]},{"type":"error","name":"AddressInsufficientBalance","inputs":[{"name":"account","type":"address","internalType":"address"}]},{"type":"error","name":"FailedInnerCall","inputs":[]},{"type":"error","name":"InvalidInitialization","inputs":[]},{"type":"error","name":"NotInitializing","inputs":[]},{"type":"error","name":"OwnableInvalidOwner","inputs":[{"name":"owner","type":"address","internalType":"address"}]},{"type":"error","name":"OwnableUnauthorizedAccount","inputs":[{"name":"account","type":"address","internalType":"address"}]},{"type":"error","name":"SafeERC20FailedOperation","inputs":[{"name":"token","type":"address","internalType":"address"}]},{"type":"error","name":"mTokenGateway_AddressNotValid","inputs":[]},{"type":"error","name":"mTokenGateway_AmountNotValid","inputs":[]},{"type":"error","name":"mTokenGateway_AmountTooBig","inputs":[]},{"type":"error","name":"mTokenGateway_CallerNotAllowed","inputs":[]},{"type":"error","name":"mTokenGateway_ChainNotValid","inputs":[]},{"type":"error","name":"mTokenGateway_JournalNotValid","inputs":[]},{"type":"error","name":"mTokenGateway_L1InclusionRequired","inputs":[]},{"type":"error","name":"mTokenGateway_LengthNotValid","inputs":[]},{"type":"error","name":"mTokenGateway_NonTransferable","inputs":[]},{"type":"error","name":"mTokenGateway_NotEnoughGasFee","inputs":[]},{"type":"error","name":"mTokenGateway_NotRebalancer","inputs":[]},{"type":"error","name":"mTokenGateway_Paused","inputs":[{"name":"_type","type":"uint8","internalType":"enum ImTokenOperationTypes.OperationType"}]},{"type":"error","name":"mTokenGateway_ReleaseCashNotAvailable","inputs":[]},{"type":"error","name":"mTokenGateway_UserBlacklisted","inputs":[]},{"type":"error","name":"mTokenGateway_UserNotWhitelisted","inputs":[]},{"type":"error","name":"mTokenProofDecoderLib_InvalidInclusion","inputs":[]},{"type":"error","name":"mTokenProofDecoderLib_InvalidLength","inputs":[]}],"bytecode":{"object":"0x6080604052348015600f57600080fd5b506016601a565b60ca565b7ff0c57e16840df040f15088dc2f81fe391c3923bec73e23a9662efc9c229c6a00805468010000000000000000900460ff161560695760405163f92ee8a960e01b815260040160405180910390fd5b80546001600160401b039081161460c75780546001600160401b0319166001600160401b0390811782556040519081527fc7f505b2f371ae2175ee4913f4499e1f2633a7b5936321eed1cdaeb6115181d29060200160405180910390a15b50565b61274a806100d96000396000f3fe6080604052600436106101b75760003560e01c80636dc59d80116100ec578063bc61e7331161008a578063d6b457b911610064578063d6b457b91461050a578063f2fde38b1461052a578063fc2e0c2f1461054a578063ffcaadfe1461057a57600080fd5b8063bc61e733146104c0578063cdfb2b4e146104e0578063d6b0f484146104f557600080fd5b806385eccf6c116100c657806385eccf6c146104315780638da5cb5b1461045e578063966718fd14610473578063b511d3b1146104a057600080fd5b80636dc59d80146103dc5780636f307dc3146103fc578063715018a61461041c57600080fd5b80634fecab7011610159578063600bb37611610133578063600bb3761461034a578063658612e914610385578063678edca3146103a957806368252fa7146103c957600080fd5b80634fecab70146102d057806351fb012d146102f05780635ac86ab71461031a57600080fd5b80632b7ac3f3116101955780632b7ac3f3146102385780632d57d4871461027057806344710fbe146102905780634f2be4ce146102b057600080fd5b80630148606c146101bc57806307d923e9146101de5780631459457a14610218575b600080fd5b3480156101c857600080fd5b506101dc6101d7366004612142565b61059a565b005b3480156101ea57600080fd5b506101fe6101f936600461215f565b610625565b604080519283526020830191909152015b60405180910390f35b34801561022457600080fd5b506101dc6102333660046121a1565b610652565b34801561024457600080fd5b50600254610258906001600160a01b031681565b6040516001600160a01b03909116815260200161020f565b34801561027c57600080fd5b50600154610258906001600160a01b031681565b34801561029c57600080fd5b506101dc6102ab366004612220565b610873565b3480156102bc57600080fd5b506101dc6102cb366004612220565b6108da565b3480156102dc57600080fd5b50600054610258906001600160a01b031681565b3480156102fc57600080fd5b5060095461030a9060ff1681565b604051901515815260200161020f565b34801561032657600080fd5b5061030a61033536600461225d565b60036020526000908152604090205460ff1681565b34801561035657600080fd5b5061030a610365366004612278565b600760209081526000928352604080842090915290825290205460ff1681565b34801561039157600080fd5b5061039b600a5481565b60405190815260200161020f565b3480156103b557600080fd5b506101dc6103c43660046122a6565b610946565b6101dc6103d73660046122bf565b610989565b3480156103e857600080fd5b506101dc6103f736600461230e565b610c5b565b34801561040857600080fd5b50600454610258906001600160a01b031681565b34801561042857600080fd5b506101dc610e54565b34801561043d57600080fd5b5061039b61044c366004612142565b60066020526000908152604090205481565b34801561046a57600080fd5b50610258610e68565b34801561047f57600080fd5b5061039b61048e366004612142565b60056020526000908152604090205481565b3480156104ac57600080fd5b506101dc6104bb36600461236c565b610e96565b3480156104cc57600080fd5b5061030a6104db36600461225d565b611186565b3480156104ec57600080fd5b506101dc6111c9565b34801561050157600080fd5b506101dc611209565b34801561051657600080fd5b506101dc610525366004612142565b611246565b34801561053657600080fd5b506101dc610545366004612142565b6112d8565b34801561055657600080fd5b5061030a610565366004612142565b60086020526000908152604090205460ff1681565b34801561058657600080fd5b506101dc6105953660046122a6565b611316565b6105a2611485565b6001600160a01b0381166105c957604051630d59e06360e11b815260040160405180910390fd5b6002546040516001600160a01b038084169216907ff335fdec5c467dfdc8bca7991b97cb3bc62c88c8467dedce3044baff0527cad690600090a3600280546001600160a01b0319166001600160a01b0392909216919091179055565b6001600160a01b0382166000908152600560209081526040808320546006909252909120545b9250929050565b7ff0c57e16840df040f15088dc2f81fe391c3923bec73e23a9662efc9c229c6a008054600160401b810460ff16159067ffffffffffffffff166000811580156106985750825b905060008267ffffffffffffffff1660011480156106b55750303b155b9050811580156106c3575080155b156106e15760405163f92ee8a960e01b815260040160405180910390fd5b845467ffffffffffffffff19166001178555831561070b57845460ff60401b1916600160401b1785555b6107148a6114b7565b6001600160a01b03881661073b57604051630d59e06360e11b815260040160405180910390fd5b6001600160a01b03861661076257604051630d59e06360e11b815260040160405180910390fd5b6001600160a01b03871661078957604051630d59e06360e11b815260040160405180910390fd5b6001600160a01b0389166107b057604051630d59e06360e11b815260040160405180910390fd5b6001600160a01b0388166107d757604051630d59e06360e11b815260040160405180910390fd5b600480546001600160a01b03808c166001600160a01b031992831617909255600080548b8416908316179055600180548a84169083161790556002805492891692909116919091179055831561086757845460ff60401b19168555604051600181527fc7f505b2f371ae2175ee4913f4499e1f2633a7b5936321eed1cdaeb6115181d29060200160405180910390a15b50505050505050505050565b61087b611485565b6001600160a01b038216600081815260086020908152604091829020805460ff191685151590811790915591519182527f4059c608a8f17b9b24a5a29662eb74934d39ea92ae22411868f07fcac29487a0910160405180910390a25050565b3360008181526007602090815260408083206001600160a01b03871680855290835292819020805460ff191686151590811790915590519081529192917fb2cc4dde7f9044ba1999f7843e2f9cd1e4ce506f8cc2e16de26ce982bf113fa6910160405180910390a35050565b61094e611485565b600a8190556040518181527f1208f07a7b2d478220d796eb4c732fe0d969d349f83e1fa8df282e2c995988919060200160405180910390a150565b600080805260036020527f3617319a054d772f909f7c479a2cebe5066e836a939412e32403c99029b92eff54819060ff16156109e25760405163026c45ad60e41b81526004016109d9919061246d565b60405180910390fd5b50600954339060ff1615610a29576001600160a01b03811660009081526008602052604090205460ff16610a295760405163c29834e960e01b815260040160405180910390fd5b60015460405163fe575a8760e01b81523360048201819052916001600160a01b03169063fe575a8790602401602060405180830381865afa158015610a72573d6000803e3d6000fd5b505050506040513d601f19601f82011682018060405250810190610a969190612495565b15610ab457604051631093909560e11b815260040160405180910390fd5b60015460405163fe575a8760e01b81526001600160a01b0380881660048301528792169063fe575a8790602401602060405180830381865afa158015610afe573d6000803e3d6000fd5b505050506040513d601f19601f82011682018060405250810190610b229190612495565b15610b4057604051631093909560e11b815260040160405180910390fd5b60008711610b61576040516323366b7360e01b815260040160405180910390fd5b600a54341015610b8457604051631d91909960e01b815260040160405180910390fd5b600454610b9c906001600160a01b031633308a6114c8565b6001600160a01b03861660009081526005602052604081208054899290610bc49084906124c8565b90915550506001600160a01b038616600081815260056020908152604080832054600683529281902054815193845291830191909152810189905263ffffffff4616606082015261e70860808201526001600160e01b0319871660a082015233907fc8779bd34210e0bd7bec71105864931e96b7d1e5dd1d768eedba8a9edc7a645c9060c00160405180910390a350505050505050565b8015610d8957610c69610e68565b6001600160a01b0316336001600160a01b03161480610d67575060005460408051632fff70a960e21b815290516001600160a01b03909216916338dd8c2c913391849163bffdc2a49160048083019260209291908290030181865afa158015610cd6573d6000803e3d6000fd5b505050506040513d601f19601f82011682018060405250810190610cfa91906124db565b6040516001600160e01b031960e085901b1681526001600160a01b0390921660048301526024820152604401602060405180830381865afa158015610d43573d6000803e3d6000fd5b505050506040513d601f19601f82011682018060405250810190610d679190612495565b610d8457604051638531e41560e01b815260040160405180910390fd5b610dc2565b610d91610e68565b6001600160a01b0316336001600160a01b031614610dc257604051638531e41560e01b815260040160405180910390fd5b81600b811115610dd457610dd4612457565b60405182151581527f2c13998e51cc6797c4e213178f18cd194f74e8438aa90df0a3a7b2f9bda5659d9060200160405180910390a2806003600084600b811115610e2057610e20612457565b600b811115610e3157610e31612457565b81526020810191909152604001600020805460ff19169115159190911790555050565b610e5c611485565b610e666000611535565b565b7f9016d09d72d40fdae2fd8ceac6b6234c7706214fd39c1cd1e609a0528c199300546001600160a01b031690565b6003600081905260208190527fcbc4e5fb02c3d1de23a9f1e014b4d2ee5aeaea9505df5e855c9210bf472495af54819060ff1615610ee85760405163026c45ad60e41b81526004016109d9919061246d565b5060015460405163fe575a8760e01b81523360048201819052916001600160a01b03169063fe575a8790602401602060405180830381865afa158015610f32573d6000803e3d6000fd5b505050506040513d601f19601f82011682018060405250810190610f569190612495565b15610f7457604051631093909560e11b815260040160405180910390fd5b60015460405163fe575a8760e01b81526001600160a01b0380861660048301528592169063fe575a8790602401602060405180830381865afa158015610fbe573d6000803e3d6000fd5b505050506040513d601f19601f82011682018060405250810190610fe29190612495565b1561100057604051631093909560e11b815260040160405180910390fd5b6000546040805163a1bd302d60e01b815290516001600160a01b03909216916338dd8c2c913391849163a1bd302d9160048083019260209291908290030181865afa158015611053573d6000803e3d6000fd5b505050506040513d601f19601f8201168201806040525081019061107791906124db565b6040516001600160e01b031960e085901b1681526001600160a01b0390921660048301526024820152604401602060405180830381865afa1580156110c0573d6000803e3d6000fd5b505050506040513d601f19601f820116820180604052508101906110e49190612495565b6110f4576110f48a8a8a8a6115a6565b60006111028a8c018c61253b565b805190915086811461112757604051639a29b8a960e01b815260040160405180910390fd5b60005b82518110156111775761116f8382815181106111485761114861266c565b60200260200101518a8a848181106111625761116261266c565b90506020020135896116be565b60010161112a565b50505050505050505050505050565b60006003600083600b81111561119e5761119e612457565b600b8111156111af576111af612457565b815260208101919091526040016000205460ff1692915050565b6111d1611485565b6009805460ff191660011790556040517f030c7c2cc3df831a8493f985428a9cc87a076a4204e1b038e7dd3b2bb1a018e590600090a1565b611211611485565b6009805460ff191690556040517f53e4b13bf8ea36dc95ec08568f4a092f872acd2708cd6dd079d74346d0b3e5cc90600090a1565b61124e610e68565b6001600160a01b0316336001600160a01b03161415801561127d575061127b33611276611926565b6119a3565b155b1561129b57604051638531e41560e01b815260040160405180910390fd5b60405147906001600160a01b0383169082156108fc029083906000818181858888f193505050501580156112d3573d6000803e3d6000fd5b505050565b6112e0611485565b6001600160a01b03811661130a57604051631e4fbdf760e01b8152600060048201526024016109d9565b61131381611535565b50565b600b600081905260036020527f2d72af3c1b2b2956e6f694fb741556d5ca9524373974378cdbec16afa8b8416454819060ff16156113685760405163026c45ad60e41b81526004016109d9919061246d565b5060005460408051639e106dc760e01b815290516001600160a01b03909216916338dd8c2c9133918491639e106dc79160048083019260209291908290030181865afa1580156113bc573d6000803e3d6000fd5b505050506040513d601f19601f820116820180604052508101906113e091906124db565b6040516001600160e01b031960e085901b1681526001600160a01b0390921660048301526024820152604401602060405180830381865afa158015611429573d6000803e3d6000fd5b505050506040513d601f19601f8201168201806040525081019061144d9190612495565b61146a57604051630ee7252560e31b815260040160405180910390fd5b600454611481906001600160a01b03163384611a22565b5050565b3361148e610e68565b6001600160a01b031614610e665760405163118cdaa760e01b81523360048201526024016109d9565b6114bf611a53565b61131381611a9c565b6040516001600160a01b03848116602483015283811660448301526064820183905261152f9186918216906323b872dd906084015b604051602081830303815290604052915060e01b6020820180516001600160e01b038381831617835250505050611aa4565b50505050565b7f9016d09d72d40fdae2fd8ceac6b6234c7706214fd39c1cd1e609a0528c19930080546001600160a01b031981166001600160a01b03848116918217845560405192169182907f8be0079c531659141344cd1fd0a4f28419497f9722a3daafe3b4186f6b6457e090600090a3505050565b826115c457604051631abd508b60e11b815260040160405180910390fd5b60006115d28486018661253b565b905060006115e233611276611b07565b806115f457506115f433611276611b5b565b90508061165c5760005b825181101561165a57600061162b84838151811061161e5761161e61266c565b6020026020010151611baf565b96505050505050508061165157604051630f4bddbd60e31b815260040160405180910390fd5b506001016115fe565b505b60025460405163385db56160e01b81526001600160a01b039091169063385db561906116929089908990899089906004016126ab565b60006040518083038186803b1580156116aa57600080fd5b505afa158015610867573d6000803e3d6000fd5b60008060008060006116cf88611baf565b5095509550955050945094508495506116e83386611cbc565b6001600160a01b038416301461171157604051630d59e06360e11b815260040160405180910390fd5b63ffffffff821661e708146117395760405163e125bbfd60e01b815260040160405180910390fd5b4663ffffffff168163ffffffff16146117655760405163e125bbfd60e01b815260040160405180910390fd5b60008711611786576040516323366b7360e01b815260040160405180910390fd5b6001600160a01b03851660009081526006602052604090205487906117ab90856126d2565b10156117ca5760405163123b28f560e01b815260040160405180910390fd5b600480546040516370a0823160e01b8152309281019290925288916001600160a01b03909116906370a0823190602401602060405180830381865afa158015611817573d6000803e3d6000fd5b505050506040513d601f19601f8201168201806040525081019061183b91906124db565b101561185a57604051635c579b8b60e01b815260040160405180910390fd5b6001600160a01b038516600090815260066020526040812080548992906118829084906124c8565b909155505060045461189e906001600160a01b03168689611a22565b6001600160a01b0385811660008181526005602090815260408083205460068352928190205481519384529183019190915281018a905263ffffffff8086166060830152461660808201529188169133907fc0ae438737d82fdd04b48b08fb95c82fdbc3e4c6afb08e38f567a9351397a9719060a00160405180910390a45050505050505050565b60008060009054906101000a90046001600160a01b03166001600160a01b03166375fd4ca96040518163ffffffff1660e01b8152600401602060405180830381865afa15801561197a573d6000803e3d6000fd5b505050506040513d601f19601f8201168201806040525081019061199e91906124db565b905090565b60008054604051630e37630b60e21b81526001600160a01b03858116600483015260248201859052909116906338dd8c2c90604401602060405180830381865afa1580156119f5573d6000803e3d6000fd5b505050506040513d601f19601f82011682018060405250810190611a199190612495565b90505b92915050565b6040516001600160a01b038381166024830152604482018390526112d391859182169063a9059cbb906064016114fd565b7ff0c57e16840df040f15088dc2f81fe391c3923bec73e23a9662efc9c229c6a0054600160401b900460ff16610e6657604051631afcd79f60e31b815260040160405180910390fd5b6112e0611a53565b6000611ab96001600160a01b03841683611d62565b90508051600014158015611ade575080806020019051810190611adc9190612495565b155b156112d357604051635274afe760e01b81526001600160a01b03841660048201526024016109d9565b60008060009054906101000a90046001600160a01b03166001600160a01b031663a87201956040518163ffffffff1660e01b8152600401602060405180830381865afa15801561197a573d6000803e3d6000fd5b60008060009054906101000a90046001600160a01b03166001600160a01b031663a1bd302d6040518163ffffffff1660e01b8152600401602060405180830381865afa15801561197a573d6000803e3d6000fd5b60008060008060008060006071885114611bdc5760405163e12a431160e01b815260040160405180910390fd5b611bf3611bec8960006014611d70565b6000611e7f565b9650611c04611bec89601480611d70565b9550611c1d611c168960286020611d70565b6000611ee4565b9450611c2f611c168960486020611d70565b9350611c48611c418960686004611d70565b6000611f42565b9250611c5a611c4189606c6004611d70565b91506000611c75611c6e8a60706001611d70565b6000611f9f565b905060ff81161580611c8a57508060ff166001145b611ca75760405163a991c51f60e01b815260040160405180910390fd5b8060ff16600114915050919395979092949650565b806001600160a01b0316826001600160a01b031614611481576001600160a01b0380821660009081526007602090815260408083209386168352929052205460ff1680611d215750611d0c610e68565b6001600160a01b0316826001600160a01b0316145b80611d335750611d3382611276611b07565b80611d455750611d4582611276611b5b565b61148157604051638531e41560e01b815260040160405180910390fd5b6060611a1983836000611ffb565b606081611d7e81601f6124c8565b1015611dbd5760405162461bcd60e51b815260206004820152600e60248201526d736c6963655f6f766572666c6f7760901b60448201526064016109d9565b611dc782846124c8565b84511015611e0b5760405162461bcd60e51b8152602060048201526011602482015270736c6963655f6f75744f66426f756e647360781b60448201526064016109d9565b606082158015611e2a5760405191506000825260208201604052611e74565b6040519150601f8416801560200281840101858101878315602002848b0101015b81831015611e63578051835260209283019201611e4b565b5050858452601f01601f1916604052505b5090505b9392505050565b6000611e8c8260146124c8565b83511015611ed45760405162461bcd60e51b8152602060048201526015602482015274746f416464726573735f6f75744f66426f756e647360581b60448201526064016109d9565b500160200151600160601b900490565b6000611ef18260206124c8565b83511015611f395760405162461bcd60e51b8152602060048201526015602482015274746f55696e743235365f6f75744f66426f756e647360581b60448201526064016109d9565b50016020015190565b6000611f4f8260046124c8565b83511015611f965760405162461bcd60e51b8152602060048201526014602482015273746f55696e7433325f6f75744f66426f756e647360601b60448201526064016109d9565b50016004015190565b6000611fac8260016124c8565b83511015611ff25760405162461bcd60e51b8152602060048201526013602482015272746f55696e74385f6f75744f66426f756e647360681b60448201526064016109d9565b50016001015190565b6060814710156120205760405163cd78605960e01b81523060048201526024016109d9565b600080856001600160a01b0316848660405161203c91906126e5565b60006040518083038185875af1925050503d8060008114612079576040519150601f19603f3d011682016040523d82523d6000602084013e61207e565b606091505b509150915061208e868383612098565b9695505050505050565b6060826120ad576120a8826120f4565b611e78565b81511580156120c457506001600160a01b0384163b155b156120ed57604051639996b31560e01b81526001600160a01b03851660048201526024016109d9565b5080611e78565b8051156121045780518082602001fd5b604051630a12f52160e11b815260040160405180910390fd5b6001600160a01b038116811461131357600080fd5b803561213d8161211d565b919050565b60006020828403121561215457600080fd5b8135611e788161211d565b6000806040838503121561217257600080fd5b823561217d8161211d565b9150602083013563ffffffff8116811461219657600080fd5b809150509250929050565b600080600080600060a086880312156121b957600080fd5b85356121c48161211d565b945060208601356121d48161211d565b935060408601356121e48161211d565b925060608601356121f48161211d565b915060808601356122048161211d565b809150509295509295909350565b801515811461131357600080fd5b6000806040838503121561223357600080fd5b823561223e8161211d565b9150602083013561219681612212565b8035600c811061213d57600080fd5b60006020828403121561226f57600080fd5b611a198261224e565b6000806040838503121561228b57600080fd5b82356122968161211d565b915060208301356121968161211d565b6000602082840312156122b857600080fd5b5035919050565b6000806000606084860312156122d457600080fd5b8335925060208401356122e68161211d565b915060408401356001600160e01b03198116811461230357600080fd5b809150509250925092565b6000806040838503121561232157600080fd5b61223e8361224e565b60008083601f84011261233c57600080fd5b50813567ffffffffffffffff81111561235457600080fd5b60208301915083602082850101111561064b57600080fd5b60008060008060008060006080888a03121561238757600080fd5b873567ffffffffffffffff81111561239e57600080fd5b6123aa8a828b0161232a565b909850965050602088013567ffffffffffffffff8111156123ca57600080fd5b6123d68a828b0161232a565b909650945050604088013567ffffffffffffffff8111156123f657600080fd5b8801601f81018a1361240757600080fd5b803567ffffffffffffffff81111561241e57600080fd5b8a60208260051b840101111561243357600080fd5b6020919091019350915061244960608901612132565b905092959891949750929550565b634e487b7160e01b600052602160045260246000fd5b60208101600c831061248f57634e487b7160e01b600052602160045260246000fd5b91905290565b6000602082840312156124a757600080fd5b8151611e7881612212565b634e487b7160e01b600052601160045260246000fd5b80820180821115611a1c57611a1c6124b2565b6000602082840312156124ed57600080fd5b5051919050565b634e487b7160e01b600052604160045260246000fd5b604051601f8201601f1916810167ffffffffffffffff81118282101715612533576125336124f4565b604052919050565b60006020828403121561254d57600080fd5b813567ffffffffffffffff81111561256457600080fd5b8201601f8101841361257557600080fd5b803567ffffffffffffffff81111561258f5761258f6124f4565b8060051b61259f6020820161250a565b918252602081840181019290810190878411156125bb57600080fd5b6020850192505b8383101561266157823567ffffffffffffffff8111156125e157600080fd5b8501603f810189136125f257600080fd5b602081013567ffffffffffffffff81111561260f5761260f6124f4565b612622601f8201601f191660200161250a565b8181526040838301018b101561263757600080fd5b816040840160208301376000602083830101528085525050506020820191506020830192506125c2565b979650505050505050565b634e487b7160e01b600052603260045260246000fd5b81835281816020850137506000828201602090810191909152601f909101601f19169091010190565b6040815260006126bf604083018688612682565b8281036020840152612661818587612682565b81810381811115611a1c57611a1c6124b2565b6000825160005b8181101561270657602081860181015185830152016126ec565b50600092019182525091905056fea26469706673582212202e44b01b56028f7076e31f39b0e374cd6ba32e193a858b9b0dc65af29eede55a64736f6c634300081c0033","linkReferences":{}},"methodIdentifiers":{"accAmountIn(address)":"966718fd","accAmountOut(address)":"85eccf6c","allowedCallers(address,address)":"600bb376","blacklistOperator()":"2d57d487","disableWhitelist()":"d6b0f484","enableWhitelist()":"cdfb2b4e","extractForRebalancing(uint256)":"ffcaadfe","gasFee()":"658612e9","getProofData(address,uint32)":"07d923e9","initialize(address,address,address,address,address)":"1459457a","isPaused(uint8)":"bc61e733","outHere(bytes,bytes,uint256[],address)":"b511d3b1","owner()":"8da5cb5b","paused(uint8)":"5ac86ab7","renounceOwnership()":"715018a6","rolesOperator()":"4fecab70","setGasFee(uint256)":"678edca3","setPaused(uint8,bool)":"6dc59d80","setWhitelistedUser(address,bool)":"44710fbe","supplyOnHost(uint256,address,bytes4)":"68252fa7","transferOwnership(address)":"f2fde38b","underlying()":"6f307dc3","updateAllowedCallerStatus(address,bool)":"4f2be4ce","updateZkVerifier(address)":"0148606c","userWhitelisted(address)":"fc2e0c2f","verifier()":"2b7ac3f3","whitelistEnabled()":"51fb012d","withdrawGasFees(address)":"d6b457b9"},"id":94}