{"abi":[{"type":"constructor","inputs":[],"stateMutability":"nonpayable"},{"type":"function","name":"blacklist","inputs":[{"name":"user","type":"address","internalType":"address"}],"outputs":[],"stateMutability":"nonpayable"},{"type":"function","name":"getBlacklistedAddresses","inputs":[],"outputs":[{"name":"","type":"address[]","internalType":"address[]"}],"stateMutability":"view"},{"type":"function","name":"initialize","inputs":[{"name":"_owner","type":"address","internalType":"address payable"},{"name":"_roles","type":"address","internalType":"address"}],"outputs":[],"stateMutability":"nonpayable"},{"type":"function","name":"isBlacklisted","inputs":[{"name":"","type":"address","internalType":"address"}],"outputs":[{"name":"","type":"bool","internalType":"bool"}],"stateMutability":"view"},{"type":"function","name":"owner","inputs":[],"outputs":[{"name":"","type":"address","internalType":"address"}],"stateMutability":"view"},{"type":"function","name":"renounceOwnership","inputs":[],"outputs":[],"stateMutability":"nonpayable"},{"type":"function","name":"rolesOperator","inputs":[],"outputs":[{"name":"","type":"address","internalType":"contract IRoles"}],"stateMutability":"view"},{"type":"function","name":"transferOwnership","inputs":[{"name":"newOwner","type":"address","internalType":"address"}],"outputs":[],"stateMutability":"nonpayable"},{"type":"function","name":"unblacklist","inputs":[{"name":"user","type":"address","internalType":"address"}],"outputs":[],"stateMutability":"nonpayable"},{"type":"event","name":"Blacklisted","inputs":[{"name":"user","type":"address","indexed":true,"internalType":"address"}],"anonymous":false},{"type":"event","name":"Initialized","inputs":[{"name":"version","type":"uint64","indexed":false,"internalType":"uint64"}],"anonymous":false},{"type":"event","name":"OwnershipTransferred","inputs":[{"name":"previousOwner","type":"address","indexed":true,"internalType":"address"},{"name":"newOwner","type":"address","indexed":true,"internalType":"address"}],"anonymous":false},{"type":"event","name":"Unblacklisted","inputs":[{"name":"user","type":"address","indexed":true,"internalType":"address"}],"anonymous":false},{"type":"error","name":"Blacklister_AlreadyBlacklisted","inputs":[]},{"type":"error","name":"Blacklister_NotAllowed","inputs":[]},{"type":"error","name":"Blacklister_NotBlacklisted","inputs":[]},{"type":"error","name":"InvalidInitialization","inputs":[]},{"type":"error","name":"NotInitializing","inputs":[]},{"type":"error","name":"OwnableInvalidOwner","inputs":[{"name":"owner","type":"address","internalType":"address"}]},{"type":"error","name":"OwnableUnauthorizedAccount","inputs":[{"name":"account","type":"address","internalType":"address"}]}],"bytecode":{"object":"0x6080604052348015600f57600080fd5b506016601a565b60ca565b7ff0c57e16840df040f15088dc2f81fe391c3923bec73e23a9662efc9c229c6a00805468010000000000000000900460ff161560695760405163f92ee8a960e01b815260040160405180910390fd5b80546001600160401b039081161460c75780546001600160401b0319166001600160401b0390811782556040519081527fc7f505b2f371ae2175ee4913f4499e1f2633a7b5936321eed1cdaeb6115181d29060200160405180910390a15b50565b610ab9806100d96000396000f3fe608060405234801561001057600080fd5b50600436106100935760003560e01c806375e3661e1161006657806375e3661e146100fe5780638da5cb5b14610111578063f2fde38b14610119578063f9f92be41461012c578063fe575a871461013f57600080fd5b80633bbab17914610098578063485cc955146100b65780634fecab70146100cb578063715018a6146100f6575b600080fd5b6100a0610172565b6040516100ad9190610937565b60405180910390f35b6100c96100c4366004610998565b6101d4565b005b6002546100de906001600160a01b031681565b6040516001600160a01b0390911681526020016100ad565b6100c9610300565b6100c961010c3660046109d1565b610314565b6100de6104d0565b6100c96101273660046109d1565b6104fe565b6100c961013a3660046109d1565b610541565b61016261014d3660046109d1565b60006020819052908152604090205460ff1681565b60405190151581526020016100ad565b606060018054806020026020016040519081016040528092919081815260200182805480156101ca57602002820191906000526020600020905b81546001600160a01b031681526001909101906020018083116101ac575b5050505050905090565b7ff0c57e16840df040f15088dc2f81fe391c3923bec73e23a9662efc9c229c6a008054600160401b810460ff16159067ffffffffffffffff1660008115801561021a5750825b905060008267ffffffffffffffff1660011480156102375750303b155b905081158015610245575080155b156102635760405163f92ee8a960e01b815260040160405180910390fd5b845467ffffffffffffffff19166001178555831561028d57845460ff60401b1916600160401b1785555b610296876106a7565b600280546001600160a01b0319166001600160a01b03881617905583156102f757845460ff60401b19168555604051600181527fc7f505b2f371ae2175ee4913f4499e1f2633a7b5936321eed1cdaeb6115181d29060200160405180910390a15b50505050505050565b6103086106b8565b61031260006106ea565b565b61031c6104d0565b6001600160a01b0316336001600160a01b0316148061041a57506002546040805163ce848e1360e01b815290516001600160a01b03909216916338dd8c2c913391849163ce848e139160048083019260209291908290030181865afa158015610389573d6000803e3d6000fd5b505050506040513d601f19601f820116820180604052508101906103ad91906109f5565b6040516001600160e01b031960e085901b1681526001600160a01b0390921660048301526024820152604401602060405180830381865afa1580156103f6573d6000803e3d6000fd5b505050506040513d601f19601f8201168201806040525081019061041a9190610a0e565b61043757604051632206b47b60e01b815260040160405180910390fd5b6001600160a01b03811660009081526020819052604090205460ff166104705760405163a44721d760e01b815260040160405180910390fd5b6001600160a01b0381166000908152602081905260409020805460ff191690556104998161075b565b6040516001600160a01b038216907f7534c63860313c46c473e4e98328f37017e9674e2162faf1a3ad7a96236c3b7b90600090a250565b7f9016d09d72d40fdae2fd8ceac6b6234c7706214fd39c1cd1e609a0528c199300546001600160a01b031690565b6105066106b8565b6001600160a01b03811661053557604051631e4fbdf760e01b8152600060048201526024015b60405180910390fd5b61053e816106ea565b50565b6105496104d0565b6001600160a01b0316336001600160a01b0316148061064757506002546040805163ce848e1360e01b815290516001600160a01b03909216916338dd8c2c913391849163ce848e139160048083019260209291908290030181865afa1580156105b6573d6000803e3d6000fd5b505050506040513d601f19601f820116820180604052508101906105da91906109f5565b6040516001600160e01b031960e085901b1681526001600160a01b0390921660048301526024820152604401602060405180830381865afa158015610623573d6000803e3d6000fd5b505050506040513d601f19601f820116820180604052508101906106479190610a0e565b61066457604051632206b47b60e01b815260040160405180910390fd5b6001600160a01b03811660009081526020819052604090205460ff161561069e57604051630b69e21760e11b815260040160405180910390fd5b61053e8161085b565b6106af6108e6565b61053e8161092f565b336106c16104d0565b6001600160a01b0316146103125760405163118cdaa760e01b815233600482015260240161052c565b7f9016d09d72d40fdae2fd8ceac6b6234c7706214fd39c1cd1e609a0528c19930080546001600160a01b031981166001600160a01b03848116918217845560405192169182907f8be0079c531659141344cd1fd0a4f28419497f9722a3daafe3b4186f6b6457e090600090a3505050565b60015460005b8181101561085657826001600160a01b03166001828154811061078657610786610a30565b6000918252602090912001546001600160a01b03160361084e5760016107ac8184610a46565b815481106107bc576107bc610a30565b600091825260209091200154600180546001600160a01b0390921691839081106107e8576107e8610a30565b9060005260206000200160006101000a8154816001600160a01b0302191690836001600160a01b03160217905550600180548061082757610827610a6d565b600082815260209020810160001990810180546001600160a01b0319169055019055505050565b600101610761565b505050565b6001600160a01b038116600081815260208190526040808220805460ff19166001908117909155805480820182559083527fb10e2d527612073b26eecdfd717e6a320cf44b4afac2b0732d9fcbe2b7fa0cf60180546001600160a01b03191684179055517fffa4e6181777692565cf28528fc88fd1516ea86b56da075235fa575af6a4b8559190a250565b7ff0c57e16840df040f15088dc2f81fe391c3923bec73e23a9662efc9c229c6a0054600160401b900460ff1661031257604051631afcd79f60e31b815260040160405180910390fd5b6105066108e6565b602080825282518282018190526000918401906040840190835b818110156109785783516001600160a01b0316835260209384019390920191600101610951565b509095945050505050565b6001600160a01b038116811461053e57600080fd5b600080604083850312156109ab57600080fd5b82356109b681610983565b915060208301356109c681610983565b809150509250929050565b6000602082840312156109e357600080fd5b81356109ee81610983565b9392505050565b600060208284031215610a0757600080fd5b5051919050565b600060208284031215610a2057600080fd5b815180151581146109ee57600080fd5b634e487b7160e01b600052603260045260246000fd5b81810381811115610a6757634e487b7160e01b600052601160045260246000fd5b92915050565b634e487b7160e01b600052603160045260246000fdfea2646970667358221220c092d161abfeb17cc0150029a45d6e317f8247ab08d9646f7c5ac0d60c49169f64736f6c634300081c0033","linkReferences":{}},"methodIdentifiers":{"blacklist(address)":"f9f92be4","getBlacklistedAddresses()":"3bbab179","initialize(address,address)":"485cc955","isBlacklisted(address)":"fe575a87","owner()":"8da5cb5b","renounceOwnership()":"715018a6","rolesOperator()":"4fecab70","transferOwnership(address)":"f2fde38b","unblacklist(address)":"75e3661e"},"id":51}