{"abi":[{"type":"constructor","inputs":[{"name":"blocksPerYear_","type":"uint256","internalType":"uint256"},{"name":"baseRatePerYear","type":"uint256","internalType":"uint256"},{"name":"multiplierPerYear","type":"uint256","internalType":"uint256"},{"name":"jumpMultiplierPerYear","type":"uint256","internalType":"uint256"},{"name":"kink_","type":"uint256","internalType":"uint256"},{"name":"owner_","type":"address","internalType":"address"},{"name":"name_","type":"string","internalType":"string"}],"stateMutability":"nonpayable"},{"type":"function","name":"baseRatePerBlock","inputs":[],"outputs":[{"name":"","type":"uint256","internalType":"uint256"}],"stateMutability":"view"},{"type":"function","name":"blocksPerYear","inputs":[],"outputs":[{"name":"","type":"uint256","internalType":"uint256"}],"stateMutability":"view"},{"type":"function","name":"getBorrowRate","inputs":[{"name":"cash","type":"uint256","internalType":"uint256"},{"name":"borrows","type":"uint256","internalType":"uint256"},{"name":"reserves","type":"uint256","internalType":"uint256"}],"outputs":[{"name":"","type":"uint256","internalType":"uint256"}],"stateMutability":"view"},{"type":"function","name":"getSupplyRate","inputs":[{"name":"cash","type":"uint256","internalType":"uint256"},{"name":"borrows","type":"uint256","internalType":"uint256"},{"name":"reserves","type":"uint256","internalType":"uint256"},{"name":"reserveFactorMantissa","type":"uint256","internalType":"uint256"}],"outputs":[{"name":"","type":"uint256","internalType":"uint256"}],"stateMutability":"view"},{"type":"function","name":"isInterestRateModel","inputs":[],"outputs":[{"name":"","type":"bool","internalType":"bool"}],"stateMutability":"pure"},{"type":"function","name":"jumpMultiplierPerBlock","inputs":[],"outputs":[{"name":"","type":"uint256","internalType":"uint256"}],"stateMutability":"view"},{"type":"function","name":"kink","inputs":[],"outputs":[{"name":"","type":"uint256","internalType":"uint256"}],"stateMutability":"view"},{"type":"function","name":"multiplierPerBlock","inputs":[],"outputs":[{"name":"","type":"uint256","internalType":"uint256"}],"stateMutability":"view"},{"type":"function","name":"name","inputs":[],"outputs":[{"name":"","type":"string","internalType":"string"}],"stateMutability":"view"},{"type":"function","name":"owner","inputs":[],"outputs":[{"name":"","type":"address","internalType":"address"}],"stateMutability":"view"},{"type":"function","name":"renounceOwnership","inputs":[],"outputs":[],"stateMutability":"nonpayable"},{"type":"function","name":"transferOwnership","inputs":[{"name":"newOwner","type":"address","internalType":"address"}],"outputs":[],"stateMutability":"nonpayable"},{"type":"function","name":"updateBlocksPerYear","inputs":[{"name":"blocksPerYear_","type":"uint256","internalType":"uint256"}],"outputs":[],"stateMutability":"nonpayable"},{"type":"function","name":"updateJumpRateModel","inputs":[{"name":"baseRatePerYear","type":"uint256","internalType":"uint256"},{"name":"multiplierPerYear","type":"uint256","internalType":"uint256"},{"name":"jumpMultiplierPerYear","type":"uint256","internalType":"uint256"},{"name":"kink_","type":"uint256","internalType":"uint256"}],"outputs":[],"stateMutability":"nonpayable"},{"type":"function","name":"utilizationRate","inputs":[{"name":"cash","type":"uint256","internalType":"uint256"},{"name":"borrows","type":"uint256","internalType":"uint256"},{"name":"reserves","type":"uint256","internalType":"uint256"}],"outputs":[{"name":"","type":"uint256","internalType":"uint256"}],"stateMutability":"pure"},{"type":"event","name":"NewInterestParams","inputs":[{"name":"baseRatePerBlock","type":"uint256","indexed":false,"internalType":"uint256"},{"name":"multiplierPerBlock","type":"uint256","indexed":false,"internalType":"uint256"},{"name":"jumpMultiplierPerBlock","type":"uint256","indexed":false,"internalType":"uint256"},{"name":"kink","type":"uint256","indexed":false,"internalType":"uint256"}],"anonymous":false},{"type":"event","name":"OwnershipTransferred","inputs":[{"name":"previousOwner","type":"address","indexed":true,"internalType":"address"},{"name":"newOwner","type":"address","indexed":true,"internalType":"address"}],"anonymous":false},{"type":"error","name":"JumpRateModelV4_InputNotValid","inputs":[]},{"type":"error","name":"JumpRateModelV4_MultiplierNotValid","inputs":[]},{"type":"error","name":"OwnableInvalidOwner","inputs":[{"name":"owner","type":"address","internalType":"address"}]},{"type":"error","name":"OwnableUnauthorizedAccount","inputs":[{"name":"account","type":"address","internalType":"address"}]}],"bytecode":{"object":"0x608060405234801561001057600080fd5b50604051610bfc380380610bfc83398101604081905261002f916101a1565b816001600160a01b03811661005e57604051631e4fbdf760e01b81526000600482015260240160405180910390fd5b61006781610092565b50600187905560066100798282610349565b50610086868686866100e2565b50505050505050610454565b600080546001600160a01b038381166001600160a01b0319831681178455604051919092169283917f8be0079c531659141344cd1fd0a4f28419497f9722a3daafe3b4186f6b6457e09190a35050565b6001546100ef9085610407565b600355600154610100908290610429565b61011284670de0b6b3a7640000610429565b61011c9190610407565b60025560015461012c9083610407565b60048190556005829055600354600254604080519283526020830191909152810191909152606081018290527f6960ab234c7ef4b0c9197100f5393cfcde7c453ac910a27bd2000aa1dd4c068d9060800160405180910390a150505050565b634e487b7160e01b600052604160045260246000fd5b600080600080600080600060e0888a0312156101bc57600080fd5b8751602089015160408a015160608b015160808c015160a08d0151949b50929950909750955093506001600160a01b03811681146101f957600080fd5b60c08901519092506001600160401b0381111561021557600080fd5b8801601f81018a1361022657600080fd5b80516001600160401b0381111561023f5761023f61018b565b604051601f8201601f19908116603f011681016001600160401b038111828210171561026d5761026d61018b565b6040528181528282016020018c101561028557600080fd5b60005b828110156102a457602081850181015183830182015201610288565b5060006020838301015280935050505092959891949750929550565b600181811c908216806102d457607f821691505b6020821081036102f457634e487b7160e01b600052602260045260246000fd5b50919050565b601f82111561034457806000526020600020601f840160051c810160208510156103215750805b601f840160051c820191505b81811015610341576000815560010161032d565b50505b505050565b81516001600160401b038111156103625761036261018b565b6103768161037084546102c0565b846102fa565b6020601f8211600181146103aa57600083156103925750848201515b600019600385901b1c1916600184901b178455610341565b600084815260208120601f198516915b828110156103da57878501518255602094850194600190920191016103ba565b50848210156103f85786840151600019600387901b60f8161c191681555b50505050600190811b01905550565b60008261042457634e487b7160e01b600052601260045260246000fd5b500490565b808202811582820484141761044e57634e487b7160e01b600052601160045260246000fd5b92915050565b610799806104636000396000f3fe608060405234801561001057600080fd5b50600436106100f55760003560e01c80638da5cb5b11610097578063b9f9850a11610066578063b9f9850a146101cb578063f14039de146101d4578063f2fde38b146101dd578063fd2da339146101f057600080fd5b80638da5cb5b14610181578063a3193e2e1461019c578063a385fb96146101af578063b8168816146101b857600080fd5b80632191f92a116100d35780632191f92a1461014e5780636e71e2d81461015d578063715018a6146101705780638726bb891461017857600080fd5b806306fdde03146100fa57806315f24053146101185780632037f3e714610139575b600080fd5b6101026101f9565b60405161010f91906105c0565b60405180910390f35b61012b61012636600461060e565b610287565b60405190815260200161010f565b61014c61014736600461063a565b610355565b005b6040516001815260200161010f565b61012b61016b36600461060e565b61036f565b61014c6103ba565b61012b60025481565b6000546040516001600160a01b03909116815260200161010f565b61014c6101aa36600461066c565b6103ce565b61012b60015481565b61012b6101c636600461063a565b6103db565b61012b60045481565b61012b60035481565b61014c6101eb366004610685565b610457565b61012b60055481565b60068054610206906106ae565b80601f0160208091040260200160405190810160405280929190818152602001828054610232906106ae565b801561027f5780601f106102545761010080835404028352916020019161027f565b820191906000526020600020905b81548152906001019060200180831161026257829003601f168201915b505050505081565b60008061029585858561036f565b905060055481116102d657600354670de0b6b3a7640000600254836102ba91906106fe565b6102c4919061071b565b6102ce919061073d565b91505061034e565b6000600354670de0b6b3a76400006002546005546102f491906106fe565b6102fe919061071b565b610308919061073d565b905060006005548361031a9190610750565b905081670de0b6b3a76400006004548361033491906106fe565b61033e919061071b565b610348919061073d565b93505050505b9392505050565b61035d61049a565b610369848484846104c7565b50505050565b6000826000036103815750600061034e565b8161038c848661073d565b6103969190610750565b6103a884670de0b6b3a76400006106fe565b6103b2919061071b565b949350505050565b6103c261049a565b6103cc6000610570565b565b6103d661049a565b600155565b6000806103f083670de0b6b3a7640000610750565b905060006103ff878787610287565b90506000670de0b6b3a764000061041684846106fe565b610420919061071b565b9050670de0b6b3a7640000816104378a8a8a61036f565b61044191906106fe565b61044b919061071b565b98975050505050505050565b61045f61049a565b6001600160a01b03811661048e57604051631e4fbdf760e01b8152600060048201526024015b60405180910390fd5b61049781610570565b50565b6000546001600160a01b031633146103cc5760405163118cdaa760e01b8152336004820152602401610485565b6001546104d4908561071b565b6003556001546104e59082906106fe565b6104f784670de0b6b3a76400006106fe565b610501919061071b565b600255600154610511908361071b565b60048190556005829055600354600254604080519283526020830191909152810191909152606081018290527f6960ab234c7ef4b0c9197100f5393cfcde7c453ac910a27bd2000aa1dd4c068d9060800160405180910390a150505050565b600080546001600160a01b038381166001600160a01b0319831681178455604051919092169283917f8be0079c531659141344cd1fd0a4f28419497f9722a3daafe3b4186f6b6457e09190a35050565b602081526000825180602084015260005b818110156105ee57602081860181015160408684010152016105d1565b506000604082850101526040601f19601f83011684010191505092915050565b60008060006060848603121561062357600080fd5b505081359360208301359350604090920135919050565b6000806000806080858703121561065057600080fd5b5050823594602084013594506040840135936060013592509050565b60006020828403121561067e57600080fd5b5035919050565b60006020828403121561069757600080fd5b81356001600160a01b038116811461034e57600080fd5b600181811c908216806106c257607f821691505b6020821081036106e257634e487b7160e01b600052602260045260246000fd5b50919050565b634e487b7160e01b600052601160045260246000fd5b8082028115828204841417610715576107156106e8565b92915050565b60008261073857634e487b7160e01b600052601260045260246000fd5b500490565b80820180821115610715576107156106e8565b81810381811115610715576107156106e856fea26469706673582212201d14f411f2f254156795b7ef17729f70522eee12e01095a5991c041e6c7cef3964736f6c634300081c0033","linkReferences":{}},"methodIdentifiers":{"baseRatePerBlock()":"f14039de","blocksPerYear()":"a385fb96","getBorrowRate(uint256,uint256,uint256)":"15f24053","getSupplyRate(uint256,uint256,uint256,uint256)":"b8168816","isInterestRateModel()":"2191f92a","jumpMultiplierPerBlock()":"b9f9850a","kink()":"fd2da339","multiplierPerBlock()":"8726bb89","name()":"06fdde03","owner()":"8da5cb5b","renounceOwnership()":"715018a6","transferOwnership(address)":"f2fde38b","updateBlocksPerYear(uint256)":"a3193e2e","updateJumpRateModel(uint256,uint256,uint256,uint256)":"2037f3e7","utilizationRate(uint256,uint256,uint256)":"6e71e2d8"},"id":52}