{"abi":[{"type":"constructor","inputs":[{"name":"_wrappedNative","type":"address","internalType":"address"}],"stateMutability":"nonpayable"},{"type":"function","name":"wrapAndSupplyOnExtensionMarket","inputs":[{"name":"mTokenGateway","type":"address","internalType":"address"},{"name":"receiver","type":"address","internalType":"address"},{"name":"selector","type":"bytes4","internalType":"bytes4"}],"outputs":[],"stateMutability":"payable"},{"type":"function","name":"wrapAndSupplyOnHostMarket","inputs":[{"name":"mToken","type":"address","internalType":"address"},{"name":"receiver","type":"address","internalType":"address"},{"name":"minAmount","type":"uint256","internalType":"uint256"}],"outputs":[],"stateMutability":"payable"},{"type":"function","name":"wrappedNative","inputs":[],"outputs":[{"name":"","type":"address","internalType":"contract IWrappedNative"}],"stateMutability":"view"},{"type":"event","name":"WrappedAndSupplied","inputs":[{"name":"sender","type":"address","indexed":true,"internalType":"address"},{"name":"receiver","type":"address","indexed":true,"internalType":"address"},{"name":"market","type":"address","indexed":true,"internalType":"address"},{"name":"amount","type":"uint256","indexed":false,"internalType":"uint256"}],"anonymous":false},{"type":"error","name":"WrapAndSupply_AddressNotValid","inputs":[]},{"type":"error","name":"WrapAndSupply_AmountNotValid","inputs":[]}],"bytecode":{"object":"0x60a060405234801561001057600080fd5b506040516107db3803806107db83398101604081905261002f91610067565b6001600160a01b03811661005657604051634c204deb60e11b815260040160405180910390fd5b6001600160a01b0316608052610097565b60006020828403121561007957600080fd5b81516001600160a01b038116811461009057600080fd5b9392505050565b6080516107156100c66000396000818160730152818161011901528181610340015261057001526107156000f3fe6080604052600436106100345760003560e01c8063a837283314610039578063ea25f6191461004e578063eb6d3a1114610061575b600080fd5b61004c610047366004610600565b6100b1565b005b61004c61005c366004610658565b6102d8565b34801561006d57600080fd5b506100957f000000000000000000000000000000000000000000000000000000000000000081565b6040516001600160a01b03909116815260200160405180910390f35b6000836001600160a01b0316636f307dc36040518163ffffffff1660e01b8152600401602060405180830381865afa1580156100f1573d6000803e3d6000fd5b505050506040513d601f19601f820116820180604052508101906101159190610699565b90507f00000000000000000000000000000000000000000000000000000000000000006001600160a01b0316816001600160a01b03161461016957604051634c204deb60e11b815260040160405180910390fd5b600061017361054d565b60405163095ea7b360e01b81526001600160a01b038781166004830152600060248301529192509083169063095ea7b3906044016020604051808303816000875af11580156101c6573d6000803e3d6000fd5b505050506040513d601f19601f820116820180604052508101906101ea91906106bd565b5060405163095ea7b360e01b81526001600160a01b0386811660048301526024820183905283169063095ea7b3906044016020604051808303816000875af115801561023a573d6000803e3d6000fd5b505050506040513d601f19601f8201168201806040525081019061025e91906106bd565b506040516368252fa760e01b8152600481018290526001600160a01b0385811660248301526001600160e01b0319851660448301528616906368252fa790606401600060405180830381600087803b1580156102b957600080fd5b505af11580156102cd573d6000803e3d6000fd5b505050505050505050565b6000836001600160a01b0316636f307dc36040518163ffffffff1660e01b8152600401602060405180830381865afa158015610318573d6000803e3d6000fd5b505050506040513d601f19601f8201168201806040525081019061033c9190610699565b90507f00000000000000000000000000000000000000000000000000000000000000006001600160a01b0316816001600160a01b03161461039057604051634c204deb60e11b815260040160405180910390fd5b600061039a61054d565b60405163095ea7b360e01b81526001600160a01b038781166004830152600060248301529192509083169063095ea7b3906044016020604051808303816000875af11580156103ed573d6000803e3d6000fd5b505050506040513d601f19601f8201168201806040525081019061041191906106bd565b5060405163095ea7b360e01b81526001600160a01b0386811660048301526024820183905283169063095ea7b3906044016020604051808303816000875af1158015610461573d6000803e3d6000fd5b505050506040513d601f19601f8201168201806040525081019061048591906106bd565b5060405163020da84160e61b8152600481018290526001600160a01b0385811660248301526044820185905286169063836a104090606401600060405180830381600087803b1580156104d757600080fd5b505af11580156104eb573d6000803e3d6000fd5b50505050846001600160a01b0316846001600160a01b0316336001600160a01b03167fd2a3686bdca1e0b48078aceedfe9051a21808a731c4f49f8c738fe2a5132eb468460405161053e91815260200190565b60405180910390a45050505050565b6000348061056e5760405163ea6c270b60e01b815260040160405180910390fd5b7f00000000000000000000000000000000000000000000000000000000000000006001600160a01b031663d0e30db0826040518263ffffffff1660e01b81526004016000604051808303818588803b1580156105c957600080fd5b505af11580156105dd573d6000803e3d6000fd5b509395945050505050565b6001600160a01b03811681146105fd57600080fd5b50565b60008060006060848603121561061557600080fd5b8335610620816105e8565b92506020840135610630816105e8565b915060408401356001600160e01b03198116811461064d57600080fd5b809150509250925092565b60008060006060848603121561066d57600080fd5b8335610678816105e8565b92506020840135610688816105e8565b929592945050506040919091013590565b6000602082840312156106ab57600080fd5b81516106b6816105e8565b9392505050565b6000602082840312156106cf57600080fd5b815180151581146106b657600080fdfea26469706673582212209980b5de2ba5acef5aba6ee91e5683c9e7b2757993d90638dd205cab7c99e01864736f6c634300081c0033","linkReferences":{}},"methodIdentifiers":{"wrapAndSupplyOnExtensionMarket(address,address,bytes4)":"a8372833","wrapAndSupplyOnHostMarket(address,address,uint256)":"ea25f619","wrappedNative()":"eb6d3a11"},"id":118}