{"abi":[{"type":"constructor","inputs":[{"name":"_operator","type":"address","internalType":"address"}],"stateMutability":"nonpayable"},{"type":"function","name":"MALDA_OPERATOR","inputs":[],"outputs":[{"name":"","type":"address","internalType":"address"}],"stateMutability":"view"},{"type":"function","name":"MENDI_COMPTROLLER","inputs":[],"outputs":[{"name":"","type":"address","internalType":"address"}],"stateMutability":"view"},{"type":"function","name":"allowedMarkets","inputs":[{"name":"","type":"address","internalType":"address"}],"outputs":[{"name":"","type":"bool","internalType":"bool"}],"stateMutability":"view"},{"type":"function","name":"getAllCollateralMarkets","inputs":[{"name":"user","type":"address","internalType":"address"}],"outputs":[{"name":"markets","type":"address[]","internalType":"address[]"}],"stateMutability":"view"},{"type":"function","name":"getAllPositions","inputs":[{"name":"user","type":"address","internalType":"address"}],"outputs":[{"name":"positions","type":"tuple[]","internalType":"struct Migrator.Position[]","components":[{"name":"mendiMarket","type":"address","internalType":"address"},{"name":"maldaMarket","type":"address","internalType":"address"},{"name":"collateralUnderlyingAmount","type":"uint256","internalType":"uint256"},{"name":"borrowAmount","type":"uint256","internalType":"uint256"}]}],"stateMutability":"nonpayable"},{"type":"function","name":"migrateAllPositions","inputs":[],"outputs":[],"stateMutability":"nonpayable"},{"type":"error","name":"AddressEmptyCode","inputs":[{"name":"target","type":"address","internalType":"address"}]},{"type":"error","name":"AddressInsufficientBalance","inputs":[{"name":"account","type":"address","internalType":"address"}]},{"type":"error","name":"FailedInnerCall","inputs":[]},{"type":"error","name":"SafeERC20FailedOperation","inputs":[{"name":"token","type":"address","internalType":"address"}]}],"bytecode":{"object":"0x60a060405234801561001057600080fd5b506040516117af3803806117af83398101604081905261002f916101ae565b6001600160a01b0316608052600060208190527fdf77b2c921139edd10f955945fd2213e0d832b13f846c7fc5e1805295d9a4ee88054600160ff1991821681179092557fe4ec19d9c961d09ce9214420b4943625e3567b18a67d45b13fc02cacfc22103080548216831790557f62be057317dbc0b38e82502350760a7cd90483fef9afbdea02f906de3658b06980548216831790557f6058469a5ef54d8784677067d1dc0b2132fdffd07c5469b1dd98ab5542a942d280548216831790557f53fb8aca953fcd9475226843eea92388d3036a3c7a8fb4a80ec2e3140db4769c80548216831790557ff1dbbc416ea540c0a84f6b1cf1d0d572b6421d6dafafe5d7d77d6ef49046bc6580548216831790557f1c6e32c3fb3ad2ad97b4a678c78e53f598f3cad860033401fc6c428909d0c56e8054821683179055734df3dd62db219c47f6a7cb1be02c511afceadf5e9092527f473a72d52094537f5dafb0f218ac67d64d745476d07fcab715455711a276ef8380549092161790556101de565b6000602082840312156101c057600080fd5b81516001600160a01b03811681146101d757600080fd5b9392505050565b6080516115b06101ff60003960008181606c0152610ec201526115b06000f3fe608060405234801561001057600080fd5b50600436106100625760003560e01c80630d0fa1d31461006757806340f6405d146100ab5780634f75a7ac146100de578063865d9dde146100e85780639b8c791c14610108578063fb11e96914610123575b600080fd5b61008e7f000000000000000000000000000000000000000000000000000000000000000081565b6040516001600160a01b0390911681526020015b60405180910390f35b6100ce6100b93660046111f6565b60006020819052908152604090205460ff1681565b60405190151581526020016100a2565b6100e6610143565b005b6100fb6100f63660046111f6565b610912565b6040516100a29190611213565b61008e731b4d3b0421ddc1eb216d230bc01527422fb9310381565b6101366101313660046111f6565b610afe565b6040516100a2919061125f565b600061014e33610b0f565b8051909150806101a55760405162461bcd60e51b815260206004820152601d60248201527f5b4d69677261746f725d204e6f204d656e646920706f736974696f6e7300000060448201526064015b60405180910390fd5b60005b818110156102995760008382815181106101c4576101c46112c8565b60200260200101519050600081604001511115610290576000620186a082604001516127106101f391906112f4565b6101fd919061130b565b826040015161020c919061132d565b60208301516040808501519051632df9b62d60e11b815260016004820152602481019190915233604482015260006064820152608481018390529192506001600160a01b031690635bf36c5a9060a401600060405180830381600087803b15801561027657600080fd5b505af115801561028a573d6000803e3d6000fd5b50505050505b506001016101a8565b5060005b8181101561035d5760008382815181106102b9576102b96112c8565b602002602001015190506000816060015111156103545760208101516060820151604051632df9b62d60e11b8152600060048201819052602482019290925230604482015233606482015260848101919091526001600160a01b0390911690635bf36c5a9060a401600060405180830381600087803b15801561033b57600080fd5b505af115801561034f573d6000803e3d6000fd5b505050505b5060010161029d565b5060005b8181101561054d57600083828151811061037d5761037d6112c8565b6020026020010151905060008160600151111561054457600081600001516001600160a01b0316636f307dc36040518163ffffffff1660e01b8152600401602060405180830381865afa1580156103d8573d6000803e3d6000fd5b505050506040513d601f19601f820116820180604052508101906103fc9190611340565b8251606084015160405163095ea7b360e01b81526001600160a01b039283166004820152602481019190915291925082169063095ea7b3906044016020604051808303816000875af1158015610456573d6000803e3d6000fd5b505050506040513d601f19601f8201168201806040525081019061047a919061135d565b50815160608301516040516304c11f0360e31b815233600482015260248101919091526001600160a01b0390911690632608f818906044016020604051808303816000875af11580156104d1573d6000803e3d6000fd5b505050506040513d601f19601f820116820180604052508101906104f5919061137f565b156105425760405162461bcd60e51b815260206004820152601d60248201527f5b4d69677261746f725d204d656e6469207265706179206661696c6564000000604482015260640161019c565b505b50600101610361565b5060005b8181101561090d57600083828151811061056d5761056d6112c8565b602002602001015190506000816040015111156109045780516040516370a0823160e01b81523360048201526000916001600160a01b0316906370a0823190602401602060405180830381865afa1580156105cc573d6000803e3d6000fd5b505050506040513d601f19601f820116820180604052508101906105f0919061137f565b825190915061060a906001600160a01b0316333084610e1f565b600082600001516001600160a01b0316636f307dc36040518163ffffffff1660e01b8152600401602060405180830381865afa15801561064e573d6000803e3d6000fd5b505050506040513d601f19601f820116820180604052508101906106729190611340565b6040516370a0823160e01b81523060048201529091506000906001600160a01b038316906370a0823190602401602060405180830381865afa1580156106bc573d6000803e3d6000fd5b505050506040513d601f19601f820116820180604052508101906106e0919061137f565b8451604051633af9e66960e01b81523060048201529192506000916001600160a01b0390911690633af9e669906024016020604051808303816000875af115801561072f573d6000803e3d6000fd5b505050506040513d601f19601f82011682018060405250810190610753919061137f565b855160405163852a12e360e01b8152600481018390529192506001600160a01b03169063852a12e3906024016020604051808303816000875af115801561079e573d6000803e3d6000fd5b505050506040513d601f19601f820116820180604052508101906107c2919061137f565b1561080f5760405162461bcd60e51b815260206004820181905260248201527f5b4d69677261746f725d204d656e6469207769746864726177206661696c6564604482015260640161019c565b6040516370a0823160e01b81523060048201526000906001600160a01b038516906370a0823190602401602060405180830381865afa158015610856573d6000803e3d6000fd5b505050506040513d601f19601f8201168201806040525081019061087a919061137f565b905081610887848361132d565b10156108e05760405162461bcd60e51b815260206004820152602260248201527f5b4d69677261746f725d2052656465656d20616d6f756e74206e6f742076616c6044820152611a5960f21b606482015260840161019c565b602086015160408701516108fe916001600160a01b03871691610e8c565b50505050505b50600101610551565b505050565b604051632aff3bff60e21b81526001600160a01b0382166004820152606090600090731b4d3b0421ddc1eb216d230bc01527422fb931039063abfceffc90602401600060405180830381865afa158015610970573d6000803e3d6000fd5b505050506040513d6000823e601f3d908101601f191682016040526109989190810190611403565b80519091508067ffffffffffffffff8111156109b6576109b6611398565b6040519080825280602002602001820160405280156109df578160200160208202803683370190505b50925060005b81811015610af6576000848281518110610a0157610a016112c8565b60200260200101906001600160a01b031690816001600160a01b0316815250506000838281518110610a3557610a356112c8565b60209081029190910101516040516370a0823160e01b81526001600160a01b0388811660048301529192506000918316906370a0823190602401602060405180830381865afa158015610a8c573d6000803e3d6000fd5b505050506040513d601f19601f82011682018060405250810190610ab0919061137f565b90508015610aec5781868481518110610acb57610acb6112c8565b60200260200101906001600160a01b031690816001600160a01b0316815250505b50506001016109e5565b505050919050565b6060610b0982610b0f565b92915050565b604051632aff3bff60e21b81526001600160a01b0382166004820152606090600090731b4d3b0421ddc1eb216d230bc01527422fb931039063abfceffc90602401600060405180830381865afa158015610b6d573d6000803e3d6000fd5b505050506040513d6000823e601f3d908101601f19168201604052610b959190810190611403565b805190915060008167ffffffffffffffff811115610bb557610bb5611398565b604051908082528060200260200182016040528015610c0757816020015b604080516080810182526000808252602080830182905292820181905260608201528252600019909201910181610bd35790505b5090506000805b83811015610e14576000858281518110610c2a57610c2a6112c8565b6020908102919091010151604051633af9e66960e01b81526001600160a01b038a81166004830152919250600091831690633af9e669906024016020604051808303816000875af1158015610c83573d6000803e3d6000fd5b505050506040513d601f19601f82011682018060405250810190610ca7919061137f565b6040516395dd919360e01b81526001600160a01b038b811660048301529192506000918416906395dd919390602401602060405180830381865afa158015610cf3573d6000803e3d6000fd5b505050506040513d601f19601f82011682018060405250810190610d17919061137f565b90506000821180610d285750600081115b15610e09576000610d99846001600160a01b0316636f307dc36040518163ffffffff1660e01b8152600401602060405180830381865afa158015610d70573d6000803e3d6000fd5b505050506040513d601f19601f82011682018060405250810190610d949190611340565b610ebd565b90506001600160a01b03811615610e07576040518060800160405280856001600160a01b03168152602001826001600160a01b0316815260200184815260200183815250878780610de99061149d565b985081518110610dfb57610dfb6112c8565b60200260200101819052505b505b505050600101610c0e565b508152949350505050565b6040516001600160a01b038481166024830152838116604483015260648201839052610e869186918216906323b872dd906084015b604051602081830303815290604052915060e01b6020820180516001600160e01b038381831617835250505050611044565b50505050565b6040516001600160a01b0383811660248301526044820183905261090d91859182169063a9059cbb90606401610e54565b6000807f00000000000000000000000000000000000000000000000000000000000000006001600160a01b031663b0772d0b6040518163ffffffff1660e01b8152600401600060405180830381865afa158015610f1e573d6000803e3d6000fd5b505050506040513d6000823e601f3d908101601f19168201604052610f4691908101906114b6565b905060005b815181101561103a576000828281518110610f6857610f686112c8565b60200260200101519050846001600160a01b0316816001600160a01b0316636f307dc36040518163ffffffff1660e01b8152600401602060405180830381865afa158015610fba573d6000803e3d6000fd5b505050506040513d601f19601f82011682018060405250810190610fde9190611340565b6001600160a01b031603611031576001600160a01b03811660009081526020819052604090205460ff16156110315782828151811061101f5761101f6112c8565b60200260200101519350505050919050565b50600101610f4b565b5060009392505050565b60006110596001600160a01b038416836110a7565b9050805160001415801561107e57508080602001905181019061107c919061135d565b155b1561090d57604051635274afe760e01b81526001600160a01b038416600482015260240161019c565b60606110b5838360006110bc565b9392505050565b6060814710156110e15760405163cd78605960e01b815230600482015260240161019c565b600080856001600160a01b031684866040516110fd919061154b565b60006040518083038185875af1925050503d806000811461113a576040519150601f19603f3d011682016040523d82523d6000602084013e61113f565b606091505b509150915061114f868383611159565b9695505050505050565b60608261116e57611169826111b5565b6110b5565b815115801561118557506001600160a01b0384163b155b156111ae57604051639996b31560e01b81526001600160a01b038516600482015260240161019c565b50806110b5565b8051156111c55780518082602001fd5b604051630a12f52160e11b815260040160405180910390fd5b50565b6001600160a01b03811681146111de57600080fd5b60006020828403121561120857600080fd5b81356110b5816111e1565b602080825282518282018190526000918401906040840190835b818110156112545783516001600160a01b031683526020938401939092019160010161122d565b509095945050505050565b602080825282518282018190526000918401906040840190835b8181101561125457835180516001600160a01b03908116855260208083015190911681860152604080830151908601526060918201519185019190915290930192608090920191600101611279565b634e487b7160e01b600052603260045260246000fd5b634e487b7160e01b600052601160045260246000fd5b8082028115828204841417610b0957610b096112de565b60008261132857634e487b7160e01b600052601260045260246000fd5b500490565b81810381811115610b0957610b096112de565b60006020828403121561135257600080fd5b81516110b5816111e1565b60006020828403121561136f57600080fd5b815180151581146110b557600080fd5b60006020828403121561139157600080fd5b5051919050565b634e487b7160e01b600052604160045260246000fd5b604051601f8201601f1916810167ffffffffffffffff811182821017156113d7576113d7611398565b604052919050565b600067ffffffffffffffff8211156113f9576113f9611398565b5060051b60200190565b60006020828403121561141557600080fd5b815167ffffffffffffffff81111561142c57600080fd5b8201601f8101841361143d57600080fd5b805161145061144b826113df565b6113ae565b8082825260208201915060208360051b85010192508683111561147257600080fd5b6020840193505b8284101561114f57835161148c816111e1565b825260209384019390910190611479565b6000600182016114af576114af6112de565b5060010190565b6000602082840312156114c857600080fd5b815167ffffffffffffffff8111156114df57600080fd5b8201601f810184136114f057600080fd5b80516114fe61144b826113df565b8082825260208201915060208360051b85010192508683111561152057600080fd5b6020840193505b8284101561114f57835161153a816111e1565b825260209384019390910190611527565b6000825160005b8181101561156c5760208186018101518583015201611552565b50600092019182525091905056fea264697066735822122047c76ab221c163b1848da0fcdf0180e3fcdff6f8e2983c8a16009d78cddfd3af64736f6c634300081c0033","linkReferences":{}},"methodIdentifiers":{"MALDA_OPERATOR()":"0d0fa1d3","MENDI_COMPTROLLER()":"9b8c791c","allowedMarkets(address)":"40f6405d","getAllCollateralMarkets(address)":"865d9dde","getAllPositions(address)":"fb11e969","migrateAllPositions()":"4f75a7ac"},"id":103}