{"abi":[{"type":"constructor","inputs":[],"stateMutability":"nonpayable"},{"type":"function","name":"REWARD_INITIAL_INDEX","inputs":[],"outputs":[{"name":"","type":"uint224","internalType":"uint224"}],"stateMutability":"view"},{"type":"function","name":"claim","inputs":[{"name":"holders","type":"address[]","internalType":"address[]"}],"outputs":[],"stateMutability":"nonpayable"},{"type":"function","name":"getBlockTimestamp","inputs":[],"outputs":[{"name":"","type":"uint32","internalType":"uint32"}],"stateMutability":"view"},{"type":"function","name":"getRewardTokens","inputs":[],"outputs":[{"name":"","type":"address[]","internalType":"address[]"}],"stateMutability":"view"},{"type":"function","name":"grantReward","inputs":[{"name":"token","type":"address","internalType":"address"},{"name":"user","type":"address","internalType":"address"},{"name":"amount","type":"uint256","internalType":"uint256"}],"outputs":[],"stateMutability":"nonpayable"},{"type":"function","name":"initialize","inputs":[{"name":"_owner","type":"address","internalType":"address"}],"outputs":[],"stateMutability":"nonpayable"},{"type":"function","name":"isRewardToken","inputs":[{"name":"","type":"address","internalType":"address"}],"outputs":[{"name":"","type":"bool","internalType":"bool"}],"stateMutability":"view"},{"type":"function","name":"notifyBorrowIndex","inputs":[{"name":"mToken","type":"address","internalType":"address"}],"outputs":[],"stateMutability":"nonpayable"},{"type":"function","name":"notifyBorrower","inputs":[{"name":"mToken","type":"address","internalType":"address"},{"name":"borrower","type":"address","internalType":"address"}],"outputs":[],"stateMutability":"nonpayable"},{"type":"function","name":"notifySupplier","inputs":[{"name":"mToken","type":"address","internalType":"address"},{"name":"supplier","type":"address","internalType":"address"}],"outputs":[],"stateMutability":"nonpayable"},{"type":"function","name":"notifySupplyIndex","inputs":[{"name":"mToken","type":"address","internalType":"address"}],"outputs":[],"stateMutability":"nonpayable"},{"type":"function","name":"operator","inputs":[],"outputs":[{"name":"","type":"address","internalType":"address"}],"stateMutability":"view"},{"type":"function","name":"owner","inputs":[],"outputs":[{"name":"","type":"address","internalType":"address"}],"stateMutability":"view"},{"type":"function","name":"renounceOwnership","inputs":[],"outputs":[],"stateMutability":"nonpayable"},{"type":"function","name":"rewardAccountState","inputs":[{"name":"","type":"address","internalType":"address"},{"name":"","type":"address","internalType":"address"}],"outputs":[{"name":"rewardAccrued","type":"uint256","internalType":"uint256"}],"stateMutability":"view"},{"type":"function","name":"rewardMarketState","inputs":[{"name":"","type":"address","internalType":"address"},{"name":"","type":"address","internalType":"address"}],"outputs":[{"name":"supplySpeed","type":"uint256","internalType":"uint256"},{"name":"supplyIndex","type":"uint224","internalType":"uint224"},{"name":"supplyBlock","type":"uint32","internalType":"uint32"},{"name":"borrowSpeed","type":"uint256","internalType":"uint256"},{"name":"borrowIndex","type":"uint224","internalType":"uint224"},{"name":"borrowBlock","type":"uint32","internalType":"uint32"}],"stateMutability":"view"},{"type":"function","name":"rewardTokens","inputs":[{"name":"","type":"uint256","internalType":"uint256"}],"outputs":[{"name":"","type":"address","internalType":"address"}],"stateMutability":"view"},{"type":"function","name":"setOperator","inputs":[{"name":"_operator","type":"address","internalType":"address"}],"outputs":[],"stateMutability":"nonpayable"},{"type":"function","name":"transferOwnership","inputs":[{"name":"newOwner","type":"address","internalType":"address"}],"outputs":[],"stateMutability":"nonpayable"},{"type":"function","name":"updateRewardSpeeds","inputs":[{"name":"rewardToken_","type":"address","internalType":"address"},{"name":"mTokens","type":"address[]","internalType":"address[]"},{"name":"supplySpeeds","type":"uint256[]","internalType":"uint256[]"},{"name":"borrowSpeeds","type":"uint256[]","internalType":"uint256[]"}],"outputs":[],"stateMutability":"nonpayable"},{"type":"function","name":"whitelistToken","inputs":[{"name":"rewardToken_","type":"address","internalType":"address"}],"outputs":[],"stateMutability":"nonpayable"},{"type":"event","name":"BorrowIndexNotified","inputs":[{"name":"rewardToken","type":"address","indexed":true,"internalType":"address"},{"name":"mToken","type":"address","indexed":true,"internalType":"address"}],"anonymous":false},{"type":"event","name":"BorrowSpeedUpdated","inputs":[{"name":"rewardToken","type":"address","indexed":true,"internalType":"address"},{"name":"mToken","type":"address","indexed":true,"internalType":"address"},{"name":"borrowSpeed","type":"uint256","indexed":false,"internalType":"uint256"}],"anonymous":false},{"type":"event","name":"Initialized","inputs":[{"name":"version","type":"uint64","indexed":false,"internalType":"uint64"}],"anonymous":false},{"type":"event","name":"OperatorSet","inputs":[{"name":"oldOperator","type":"address","indexed":true,"internalType":"address"},{"name":"newOperator","type":"address","indexed":true,"internalType":"address"}],"anonymous":false},{"type":"event","name":"OwnershipTransferred","inputs":[{"name":"previousOwner","type":"address","indexed":true,"internalType":"address"},{"name":"newOwner","type":"address","indexed":true,"internalType":"address"}],"anonymous":false},{"type":"event","name":"RewardAccrued","inputs":[{"name":"rewardToken","type":"address","indexed":true,"internalType":"address"},{"name":"user","type":"address","indexed":true,"internalType":"address"},{"name":"deltaAccrued","type":"uint256","indexed":false,"internalType":"uint256"},{"name":"totalAccrued","type":"uint256","indexed":false,"internalType":"uint256"}],"anonymous":false},{"type":"event","name":"RewardGranted","inputs":[{"name":"rewardToken","type":"address","indexed":true,"internalType":"address"},{"name":"user","type":"address","indexed":true,"internalType":"address"},{"name":"amount","type":"uint256","indexed":false,"internalType":"uint256"}],"anonymous":false},{"type":"event","name":"SupplyIndexNotified","inputs":[{"name":"rewardToken","type":"address","indexed":true,"internalType":"address"},{"name":"mToken","type":"address","indexed":true,"internalType":"address"}],"anonymous":false},{"type":"event","name":"SupplySpeedUpdated","inputs":[{"name":"rewardToken","type":"address","indexed":true,"internalType":"address"},{"name":"mToken","type":"address","indexed":true,"internalType":"address"},{"name":"supplySpeed","type":"uint256","indexed":false,"internalType":"uint256"}],"anonymous":false},{"type":"event","name":"WhitelistedToken","inputs":[{"name":"token","type":"address","indexed":true,"internalType":"address"}],"anonymous":false},{"type":"error","name":"InvalidInitialization","inputs":[]},{"type":"error","name":"NotInitializing","inputs":[]},{"type":"error","name":"OwnableInvalidOwner","inputs":[{"name":"owner","type":"address","internalType":"address"}]},{"type":"error","name":"OwnableUnauthorizedAccount","inputs":[{"name":"account","type":"address","internalType":"address"}]},{"type":"error","name":"ReentrancyGuardReentrantCall","inputs":[]},{"type":"error","name":"RewardDistributor_AddressAlreadyRegistered","inputs":[]},{"type":"error","name":"RewardDistributor_AddressNotValid","inputs":[]},{"type":"error","name":"RewardDistributor_BorrowSpeedArrayLengthMismatch","inputs":[]},{"type":"error","name":"RewardDistributor_OnlyOperator","inputs":[]},{"type":"error","name":"RewardDistributor_RewardNotValid","inputs":[]},{"type":"error","name":"RewardDistributor_SupplySpeedArrayLengthMismatch","inputs":[]},{"type":"error","name":"RewardDistributor_TransferFailed","inputs":[]}],"bytecode":{"object":"0x6080604052348015600f57600080fd5b506016601a565b60ca565b7ff0c57e16840df040f15088dc2f81fe391c3923bec73e23a9662efc9c229c6a00805468010000000000000000900460ff161560695760405163f92ee8a960e01b815260040160405180910390fd5b80546001600160401b039081161460c75780546001600160401b0319166001600160401b0390811782556040519081527fc7f505b2f371ae2175ee4913f4499e1f2633a7b5936321eed1cdaeb6115181d29060200160405180910390a15b50565b611ed6806100d96000396000f3fe608060405234801561001057600080fd5b50600436106101375760003560e01c80637bb7bed1116100b8578063b5fd73f81161007c578063b5fd73f814610366578063c4d66de814610399578063c4f59f9b146103ac578063e86b2fbe146103c1578063eb8f2806146103d4578063f2fde38b146103e757600080fd5b80637bb7bed1146102a95780638021a9fc146102bc578063831e8dec146102e95780638da5cb5b14610323578063b3ab15fb1461035357600080fd5b8063570ca735116100ff578063570ca735146102335780635ce65fe91461025e5780636247f6f214610271578063715018a614610284578063796b89b91461028c57600080fd5b806302fef78b1461013c57806313523d9914610151578063318d9e5d1461016457806332894a6d1461017757806345a49d3c14610220575b600080fd5b61014f61014a366004611a61565b6103fa565b005b61014f61015f366004611bdb565b61044c565b61014f610172366004611c80565b610543565b6101da610185366004611cbd565b6001602081815260009384526040808520909152918352912080549181015460028201546003909201546001600160e01b038083169363ffffffff600160e01b94859004811694919392831692919091041686565b604080519687526001600160e01b03958616602088015263ffffffff94851690870152606086019290925290921660808401521660a082015260c0015b60405180910390f35b61014f61022e366004611cbd565b6105be565b600054610246906001600160a01b031681565b6040516001600160a01b039091168152602001610217565b61014f61026c366004611cf0565b610635565b61014f61027f366004611cf0565b610704565b61014f6107fc565b610294610810565b60405163ffffffff9091168152602001610217565b6102466102b7366004611d0b565b610856565b6102d16a0c097ce7bc90715b34b9f160241b81565b6040516001600160e01b039091168152602001610217565b6103156102f7366004611cbd565b60026020818152600093845260408085209091529183529120015481565b604051908152602001610217565b7f9016d09d72d40fdae2fd8ceac6b6234c7706214fd39c1cd1e609a0528c199300546001600160a01b0316610246565b61014f610361366004611cf0565b610880565b610389610374366004611cf0565b60046020526000908152604090205460ff1681565b6040519015158152602001610217565b61014f6103a7366004611cf0565b61090a565b6103b4610a1a565b6040516102179190611d24565b61014f6103cf366004611cf0565b610a7c565b61014f6103e2366004611cbd565b610b47565b61014f6103f5366004611cf0565b610bb9565b610402610bf9565b6001600160a01b03831660009081526004602052604090205460ff1661043b5760405163a44fd6c760e01b815260040160405180910390fd5b610446838383610c54565b50505050565b610454610bf9565b6001600160a01b03841660009081526004602052604090205460ff1661048d5760405163a44fd6c760e01b815260040160405180910390fd5b81518351146104af57604051630df20b3760e41b815260040160405180910390fd5b80518351146104d1576040516304ff13d760e41b815260040160405180910390fd5b60005b835181101561053c57610534858583815181106104f3576104f3611d70565b602002602001015185848151811061050d5761050d611d70565b602002602001015185858151811061052757610527611d70565b6020026020010151610dd3565b6001016104d4565b5050505050565b61054b610fb3565b60005b600354811015610591576105896003828154811061056e5761056e611d70565b6000918252602090912001546001600160a01b031683610ffd565b60010161054e565b506105bb60017f9b779b17422d0df92223018b32b4d1fa46e071723d6817e2486d003becc55f0055565b50565b6000546001600160a01b031633146105e957604051632ee0f86960e21b815260040160405180910390fd5b60005b600354811015610630576106286003828154811061060c5761060c611d70565b6000918252602090912001546001600160a01b03168484611097565b6001016105ec565b505050565b6000546001600160a01b0316331461066057604051632ee0f86960e21b815260040160405180910390fd5b60005b6003548110156107005761069e6003828154811061068357610683611d70565b6000918252602090912001546001600160a01b03168361122e565b816001600160a01b0316600382815481106106bb576106bb611d70565b60009182526020822001546040516001600160a01b03909116917f6c34ca8281501392d4d5e4c60233f1efcbabf732749c8f9574dca4651a469f5291a3600101610663565b5050565b61070c610bf9565b6001600160a01b0381166107335760405163943c15c760e01b815260040160405180910390fd5b6001600160a01b03811660009081526004602052604090205460ff161561076d57604051637b113e0960e01b815260040160405180910390fd5b6003805460018082019092557fc2575a0e9e593c00f959f8c92f12db2869c3395a3b0502d05e2516446f71f85b0180546001600160a01b0319166001600160a01b038416908117909155600081815260046020526040808220805460ff1916909417909355915190917fe17adaf0f0bb61e7bce7b9ef860cf14ee8d15fe2abfe8db60c703a7393a66d2091a250565b610804610bf9565b61080e6000611480565b565b6000610851426040518060400160405280601f81526020017f626c6f636b2074696d657374616d7020657863656564732033322062697473008152506114f1565b905090565b6003818154811061086657600080fd5b6000918252602090912001546001600160a01b0316905081565b610888610bf9565b6001600160a01b0381166108af5760405163943c15c760e01b815260040160405180910390fd5b600080546040516001600160a01b03808516939216917ffd489696792cc4c5d5b226c46f008e459c8ec9b746c49191d74bb92c19fd186791a3600080546001600160a01b0319166001600160a01b0392909216919091179055565b7ff0c57e16840df040f15088dc2f81fe391c3923bec73e23a9662efc9c229c6a008054600160401b810460ff16159067ffffffffffffffff166000811580156109505750825b905060008267ffffffffffffffff16600114801561096d5750303b155b90508115801561097b575080155b156109995760405163f92ee8a960e01b815260040160405180910390fd5b845467ffffffffffffffff1916600117855583156109c357845460ff60401b1916600160401b1785555b6109cc86611524565b8315610a1257845460ff60401b19168555604051600181527fc7f505b2f371ae2175ee4913f4499e1f2633a7b5936321eed1cdaeb6115181d29060200160405180910390a15b505050505050565b60606003805480602002602001604051908101604052809291908181526020018280548015610a7257602002820191906000526020600020905b81546001600160a01b03168152600190910190602001808311610a54575b5050505050905090565b6000546001600160a01b03163314610aa757604051632ee0f86960e21b815260040160405180910390fd5b60005b60035481101561070057610ae560038281548110610aca57610aca611d70565b6000918252602090912001546001600160a01b031683611535565b816001600160a01b031660038281548110610b0257610b02611d70565b60009182526020822001546040516001600160a01b03909116917f69019ebeea26a8f9a6dd1b312b0aee2f2a64bee67b534b4af228121c6924446391a3600101610aaa565b6000546001600160a01b03163314610b7257604051632ee0f86960e21b815260040160405180910390fd5b60005b60035481101561063057610bb160038281548110610b9557610b95611d70565b6000918252602090912001546001600160a01b031684846116cd565b600101610b75565b610bc1610bf9565b6001600160a01b038116610bf057604051631e4fbdf760e01b8152600060048201526024015b60405180910390fd5b6105bb81611480565b33610c2b7f9016d09d72d40fdae2fd8ceac6b6234c7706214fd39c1cd1e609a0528c199300546001600160a01b031690565b6001600160a01b03161461080e5760405163118cdaa760e01b8152336004820152602401610be7565b6040516370a0823160e01b815230600482015260009081906001600160a01b038616906370a0823190602401602060405180830381865afa158015610c9d573d6000803e3d6000fd5b505050506040513d601f19601f82011682018060405250810190610cc19190611d86565b9050600083118015610cd35750808311155b15610dc75760405163a9059cbb60e01b81526001600160a01b038581166004830152602482018590526000919087169063a9059cbb906044016020604051808303816000875af1158015610d2b573d6000803e3d6000fd5b505050506040513d601f19601f82011682018060405250810190610d4f9190611d9f565b905080610d6f576040516375b4a7d560e01b815260040160405180910390fd5b846001600160a01b0316866001600160a01b03167f6123969dd9705ebe9fca0229b85009158c92cae456c32d917d8d435748f3abd386604051610db491815260200190565b60405180910390a3600092505050610dcc565b829150505b9392505050565b6001600160a01b03808516600090815260016020908152604080832093871683529290522080548314610ec95760018101546001600160e01b0316600003610e38576001810180546001600160e01b0319166a0c097ce7bc90715b34b9f160241b1790555b610e428585611535565b836001600160a01b0316856001600160a01b03167f69019ebeea26a8f9a6dd1b312b0aee2f2a64bee67b534b4af228121c6924446360405160405180910390a38281556040518381526001600160a01b0385811691908716907f61918eb908e35e96d460dc030b7c4f6448ac64f1383759571b9c7cab50efd0469060200160405180910390a35b8181600201541461053c5760038101546001600160e01b0316600003610f0c576003810180546001600160e01b0319166a0c097ce7bc90715b34b9f160241b1790555b610f16858561122e565b836001600160a01b0316856001600160a01b03167f6c34ca8281501392d4d5e4c60233f1efcbabf732749c8f9574dca4651a469f5260405160405180910390a3818160020181905550836001600160a01b0316856001600160a01b03167f13b9c4bac6e50afba9701545614343a5e29bc815d483928198270e878c42eaf984604051610fa491815260200190565b60405180910390a35050505050565b7f9b779b17422d0df92223018b32b4d1fa46e071723d6817e2486d003becc55f00805460011901610ff757604051633ee5aeb560e01b815260040160405180910390fd5b60029055565b60005b8151811015610630576001600160a01b03831660009081526002602052604081208351829085908590811061103757611037611d70565b60200260200101516001600160a01b03166001600160a01b0316815260200190815260200160002090506110898484848151811061107757611077611d70565b60200260200101518360020154610c54565b600290910155600101611000565b6001600160a01b038084166000818152600160208181526040808420888716808652908352818520958552600283528185209688168552958252808420928501549584529082905290912080546001600160e01b039094169081905591929091908015801561111457506a0c097ce7bc90715b34b9f160241b8210155b1561112a57506a0c097ce7bc90715b34b9f160241b5b6000604051806020016040528061114185856118e6565b90526040516370a0823160e01b81526001600160a01b0388811660048301529192506000918916906370a0823190602401602060405180830381865afa15801561118f573d6000803e3d6000fd5b505050506040513d601f19601f820116820180604052508101906111b39190611d86565b905060006111c182846118f2565b90506111d186600201548261191b565b600287018190556040805183815260208101929092526001600160a01b038a811692908d16917ffd07974d3aaf62e9d6f1492b77eba5e72f99d8367e456eaf203de8491d42c999910160405180910390a350505050505050505050565b60006040518060200160405280836001600160a01b031663aa5af0fd6040518163ffffffff1660e01b8152600401602060405180830381865afa158015611279573d6000803e3d6000fd5b505050506040513d601f19601f8201168201806040525081019061129d9190611d86565b90526001600160a01b03808516600090815260016020908152604080832093871683529290529081209192506112d1610810565b600383015490915063ffffffff600160e01b9091048116908216111561053c5760028201541561145857600382015460009061131a90600160e01b900463ffffffff1683611dd7565b63ffffffff169050600061138f866001600160a01b03166347bd37186040518163ffffffff1660e01b8152600401602060405180830381865afa158015611365573d6000803e3d6000fd5b505050506040513d601f19601f820116820180604052508101906113899190611d86565b86611927565b905060006113a1838660020154611945565b905060008083116113c157604051806020016040528060008152506113cb565b6113cb8284611951565b604080516020810190915260038801546001600160e01b03168152909150611431906113f79083611995565b5160408051808201909152601a81527f6e657720696e646578206578636565647320323234206269747300000000000060208201526119c1565b6003870180546001600160e01b0319166001600160e01b0392909216919091179055505050505b60038201805463ffffffff8316600160e01b026001600160e01b039091161790555050505050565b7f9016d09d72d40fdae2fd8ceac6b6234c7706214fd39c1cd1e609a0528c19930080546001600160a01b031981166001600160a01b03848116918217845560405192169182907f8be0079c531659141344cd1fd0a4f28419497f9722a3daafe3b4186f6b6457e090600090a3505050565b60008164010000000084106115195760405162461bcd60e51b8152600401610be79190611df3565b508290505b92915050565b61152c6119e8565b6105bb81611a31565b6001600160a01b038083166000908152600160209081526040808320938516835292905290812090611565610810565b600183015490915063ffffffff600160e01b90910481169082161115610446578154156116a65760018201546000906115ab90600160e01b900463ffffffff1683611dd7565b63ffffffff1690506000846001600160a01b03166318160ddd6040518163ffffffff1660e01b8152600401602060405180830381865afa1580156115f3573d6000803e3d6000fd5b505050506040513d601f19601f820116820180604052508101906116179190611d86565b90506000611629838660000154611945565b905060008083116116495760405180602001604052806000815250611653565b6116538284611951565b604080516020810190915260018801546001600160e01b0316815290915061167f906113f79083611995565b6001870180546001600160e01b0319166001600160e01b0392909216919091179055505050505b60018201805463ffffffff8316600160e01b026001600160e01b0390911617905550505050565b60006040518060200160405280846001600160a01b031663aa5af0fd6040518163ffffffff1660e01b8152600401602060405180830381865afa158015611718573d6000803e3d6000fd5b505050506040513d601f19601f8201168201806040525081019061173c9190611d86565b90526001600160a01b0380861660008181526001602081815260408084208a871680865290835281852095855260028352818520968a168552958252808420600386015496855292830190915290912080546001600160e01b039094169081905593945090929091801580156117c057506a0c097ce7bc90715b34b9f160241b8210155b156117d657506a0c097ce7bc90715b34b9f160241b5b600060405180602001604052806117ed85856118e6565b90526040516395dd919360e01b81526001600160a01b03898116600483015291925060009161186a91908b16906395dd919390602401602060405180830381865afa158015611840573d6000803e3d6000fd5b505050506040513d601f19601f820116820180604052508101906118649190611d86565b88611927565b9050600061187882846118f2565b905061188886600201548261191b565b600287018190556040805183815260208101929092526001600160a01b038b811692908e16917ffd07974d3aaf62e9d6f1492b77eba5e72f99d8367e456eaf203de8491d42c999910160405180910390a35050505050505050505050565b6000610dcc8284611e41565b60006a0c097ce7bc90715b34b9f160241b611911848460000151611945565b610dcc9190611e54565b6000610dcc8284611e76565b6000610dcc61193e84670de0b6b3a7640000611945565b8351611a39565b6000610dcc8284611e89565b604080516020810190915260008152604051806020016040528061198c611986866a0c097ce7bc90715b34b9f160241b611945565b85611a39565b90529392505050565b604080516020810190915260008152604051806020016040528061198c8560000151856000015161191b565b600081600160e01b84106115195760405162461bcd60e51b8152600401610be79190611df3565b7ff0c57e16840df040f15088dc2f81fe391c3923bec73e23a9662efc9c229c6a0054600160401b900460ff1661080e57604051631afcd79f60e31b815260040160405180910390fd5b610bc16119e8565b6000610dcc8284611e54565b80356001600160a01b0381168114611a5c57600080fd5b919050565b600080600060608486031215611a7657600080fd5b611a7f84611a45565b9250611a8d60208501611a45565b929592945050506040919091013590565b634e487b7160e01b600052604160045260246000fd5b604051601f8201601f1916810167ffffffffffffffff81118282101715611add57611add611a9e565b604052919050565b600067ffffffffffffffff821115611aff57611aff611a9e565b5060051b60200190565b600082601f830112611b1a57600080fd5b8135611b2d611b2882611ae5565b611ab4565b8082825260208201915060208360051b860101925085831115611b4f57600080fd5b602085015b83811015611b7357611b6581611a45565b835260209283019201611b54565b5095945050505050565b600082601f830112611b8e57600080fd5b8135611b9c611b2882611ae5565b8082825260208201915060208360051b860101925085831115611bbe57600080fd5b602085015b83811015611b73578035835260209283019201611bc3565b60008060008060808587031215611bf157600080fd5b611bfa85611a45565b9350602085013567ffffffffffffffff811115611c1657600080fd5b611c2287828801611b09565b935050604085013567ffffffffffffffff811115611c3f57600080fd5b611c4b87828801611b7d565b925050606085013567ffffffffffffffff811115611c6857600080fd5b611c7487828801611b7d565b91505092959194509250565b600060208284031215611c9257600080fd5b813567ffffffffffffffff811115611ca957600080fd5b611cb584828501611b09565b949350505050565b60008060408385031215611cd057600080fd5b611cd983611a45565b9150611ce760208401611a45565b90509250929050565b600060208284031215611d0257600080fd5b610dcc82611a45565b600060208284031215611d1d57600080fd5b5035919050565b602080825282518282018190526000918401906040840190835b81811015611d655783516001600160a01b0316835260209384019390920191600101611d3e565b509095945050505050565b634e487b7160e01b600052603260045260246000fd5b600060208284031215611d9857600080fd5b5051919050565b600060208284031215611db157600080fd5b81518015158114610dcc57600080fd5b634e487b7160e01b600052601160045260246000fd5b63ffffffff828116828216039081111561151e5761151e611dc1565b602081526000825180602084015260005b81811015611e215760208186018101516040868401015201611e04565b506000604082850101526040601f19601f83011684010191505092915050565b8181038181111561151e5761151e611dc1565b600082611e7157634e487b7160e01b600052601260045260246000fd5b500490565b8082018082111561151e5761151e611dc1565b808202811582820484141761151e5761151e611dc156fea2646970667358221220202f3b2511f4a21f60216d4e8025a44bd1cad111826bc31e47535840c38b84f964736f6c634300081c0033","linkReferences":{}},"methodIdentifiers":{"REWARD_INITIAL_INDEX()":"8021a9fc","claim(address[])":"318d9e5d","getBlockTimestamp()":"796b89b9","getRewardTokens()":"c4f59f9b","grantReward(address,address,uint256)":"02fef78b","initialize(address)":"c4d66de8","isRewardToken(address)":"b5fd73f8","notifyBorrowIndex(address)":"5ce65fe9","notifyBorrower(address,address)":"eb8f2806","notifySupplier(address,address)":"45a49d3c","notifySupplyIndex(address)":"e86b2fbe","operator()":"570ca735","owner()":"8da5cb5b","renounceOwnership()":"715018a6","rewardAccountState(address,address)":"831e8dec","rewardMarketState(address,address)":"32894a6d","rewardTokens(uint256)":"7bb7bed1","setOperator(address)":"b3ab15fb","transferOwnership(address)":"f2fde38b","updateRewardSpeeds(address,address[],uint256[],uint256[])":"13523d99","whitelistToken(address)":"6247f6f2"},"id":114}