{"abi":[{"type":"constructor","inputs":[{"name":"_admin","type":"address","internalType":"address"}],"stateMutability":"nonpayable"},{"type":"function","name":"admin","inputs":[],"outputs":[{"name":"","type":"address","internalType":"address"}],"stateMutability":"view"},{"type":"function","name":"decimals","inputs":[],"outputs":[{"name":"","type":"uint8","internalType":"uint8"}],"stateMutability":"pure"},{"type":"function","name":"getPrice","inputs":[{"name":"","type":"address","internalType":"address"}],"outputs":[{"name":"","type":"uint256","internalType":"uint256"}],"stateMutability":"view"},{"type":"function","name":"getUnderlyingPrice","inputs":[{"name":"","type":"address","internalType":"address"}],"outputs":[{"name":"","type":"uint256","internalType":"uint256"}],"stateMutability":"view"},{"type":"function","name":"latestAnswer","inputs":[],"outputs":[{"name":"","type":"int256","internalType":"int256"}],"stateMutability":"view"},{"type":"function","name":"latestRoundData","inputs":[],"outputs":[{"name":"roundId","type":"uint80","internalType":"uint80"},{"name":"answer","type":"int256","internalType":"int256"},{"name":"startedAt","type":"uint256","internalType":"uint256"},{"name":"updatedAt","type":"uint256","internalType":"uint256"},{"name":"answeredInRound","type":"uint80","internalType":"uint80"}],"stateMutability":"view"},{"type":"function","name":"latestTimestamp","inputs":[],"outputs":[{"name":"","type":"uint256","internalType":"uint256"}],"stateMutability":"view"},{"type":"function","name":"price","inputs":[],"outputs":[{"name":"","type":"uint256","internalType":"uint256"}],"stateMutability":"view"},{"type":"function","name":"registeredDecimals","inputs":[{"name":"","type":"address","internalType":"address"}],"outputs":[{"name":"","type":"uint8","internalType":"uint8"}],"stateMutability":"view"},{"type":"function","name":"setDecimals","inputs":[{"name":"token","type":"address","internalType":"address"},{"name":"dec","type":"uint8","internalType":"uint8"}],"outputs":[],"stateMutability":"nonpayable"},{"type":"function","name":"setPrice","inputs":[{"name":"_price","type":"uint256","internalType":"uint256"}],"outputs":[],"stateMutability":"nonpayable"},{"type":"function","name":"setUnderlyingPrice","inputs":[{"name":"_price","type":"uint256","internalType":"uint256"}],"outputs":[],"stateMutability":"nonpayable"},{"type":"function","name":"underlyingPrice","inputs":[],"outputs":[{"name":"","type":"uint256","internalType":"uint256"}],"stateMutability":"view"},{"type":"error","name":"OracleMock_NotAuthorized","inputs":[]}],"bytecode":{"object":"0x6080604052348015600f57600080fd5b50604051610411380380610411833981016040819052602c916050565b600280546001600160a01b0319166001600160a01b0392909216919091179055607e565b600060208284031215606157600080fd5b81516001600160a01b0381168114607757600080fd5b9392505050565b6103848061008d6000396000f3fe608060405234801561001057600080fd5b50600436106100cf5760003560e01c806391b7f5ed1161008c578063f2259f9611610066578063f2259f961461017c578063f851a4401461018f578063fc57d4df146101ba578063feaf968c146101cf57600080fd5b806391b7f5ed14610157578063a035b1fe1461016a578063efa32d491461017357600080fd5b8063313ce567146100d457806341976e09146100ee578063420143481461011157806350d25bcd1461013457806357aefad21461013c5780638205bf6a14610151575b600080fd5b60085b60405160ff90911681526020015b60405180910390f35b6101036100fc3660046102d6565b5060005490565b6040519081526020016100e5565b6100d761011f3660046102d6565b60036020526000908152604090205460ff1681565b600054610103565b61014f61014a3660046102f8565b610202565b005b42610103565b61014f6101653660046102f8565b610232565b61010360005481565b61010360015481565b61014f61018a366004610311565b610262565b6002546101a2906001600160a01b031681565b6040516001600160a01b0390911681526020016100e5565b6101036101c83660046102d6565b5060015490565b6000546040805160018082526020820193909352429181018290526060810191909152608081019190915260a0016100e5565b6002546001600160a01b0316331461022d576040516356936a7b60e11b815260040160405180910390fd5b600155565b6002546001600160a01b0316331461025d576040516356936a7b60e11b815260040160405180910390fd5b600055565b6002546001600160a01b0316331461028d576040516356936a7b60e11b815260040160405180910390fd5b6001600160a01b03919091166000908152600360205260409020805460ff191660ff909216919091179055565b80356001600160a01b03811681146102d157600080fd5b919050565b6000602082840312156102e857600080fd5b6102f1826102ba565b9392505050565b60006020828403121561030a57600080fd5b5035919050565b6000806040838503121561032457600080fd5b61032d836102ba565b9150602083013560ff8116811461034357600080fd5b80915050925092905056fea2646970667358221220e0f4692e798612aee4406d6441336a54843b3c229ef8f1597c17cd31a7b6bc1a64736f6c634300081c0033","linkReferences":{}},"methodIdentifiers":{"admin()":"f851a440","decimals()":"313ce567","getPrice(address)":"41976e09","getUnderlyingPrice(address)":"fc57d4df","latestAnswer()":"50d25bcd","latestRoundData()":"feaf968c","latestTimestamp()":"8205bf6a","price()":"a035b1fe","registeredDecimals(address)":"42014348","setDecimals(address,uint8)":"f2259f96","setPrice(uint256)":"91b7f5ed","setUnderlyingPrice(uint256)":"57aefad2","underlyingPrice()":"efa32d49"},"id":127}