{"abi":[{"type":"function","name":"claimReferral","inputs":[{"name":"signature","type":"bytes","internalType":"bytes"},{"name":"referrer","type":"address","internalType":"address"}],"outputs":[],"stateMutability":"nonpayable"},{"type":"function","name":"isUserReferred","inputs":[{"name":"user","type":"address","internalType":"address"}],"outputs":[{"name":"wasReferred","type":"bool","internalType":"bool"}],"stateMutability":"view"},{"type":"function","name":"nonces","inputs":[{"name":"user","type":"address","internalType":"address"}],"outputs":[{"name":"nonce","type":"uint256","internalType":"uint256"}],"stateMutability":"view"},{"type":"function","name":"referralRegistry","inputs":[{"name":"referredBy","type":"address","internalType":"address"},{"name":"","type":"uint256","internalType":"uint256"}],"outputs":[{"name":"users","type":"address","internalType":"address"}],"stateMutability":"view"},{"type":"function","name":"referralsForUserRegistry","inputs":[{"name":"user","type":"address","internalType":"address"}],"outputs":[{"name":"referredBy","type":"address","internalType":"address"}],"stateMutability":"view"},{"type":"function","name":"referredByRegistry","inputs":[{"name":"referredBy","type":"address","internalType":"address"},{"name":"user","type":"address","internalType":"address"}],"outputs":[{"name":"wasReferred","type":"bool","internalType":"bool"}],"stateMutability":"view"},{"type":"function","name":"totalReferred","inputs":[{"name":"referredBy","type":"address","internalType":"address"}],"outputs":[{"name":"total","type":"uint256","internalType":"uint256"}],"stateMutability":"view"},{"type":"event","name":"ReferralClaimed","inputs":[{"name":"referred","type":"address","indexed":true,"internalType":"address"},{"name":"referrer","type":"address","indexed":true,"internalType":"address"}],"anonymous":false},{"type":"event","name":"ReferralRejected","inputs":[{"name":"referred","type":"address","indexed":true,"internalType":"address"},{"name":"referrer","type":"address","indexed":true,"internalType":"address"},{"name":"reason","type":"string","indexed":false,"internalType":"string"}],"anonymous":false},{"type":"error","name":"ECDSAInvalidSignature","inputs":[]},{"type":"error","name":"ECDSAInvalidSignatureLength","inputs":[{"name":"length","type":"uint256","internalType":"uint256"}]},{"type":"error","name":"ECDSAInvalidSignatureS","inputs":[{"name":"s","type":"bytes32","internalType":"bytes32"}]},{"type":"error","name":"ReferralSigning_ContractReferrerNotAllowed","inputs":[]},{"type":"error","name":"ReferralSigning_InvalidSignature","inputs":[]},{"type":"error","name":"ReferralSigning_SameUser","inputs":[]},{"type":"error","name":"ReferralSigning_UserAlreadyReferred","inputs":[]}],"bytecode":{"object":"0x6080604052348015600f57600080fd5b5061098f8061001f6000396000f3fe608060405234801561001057600080fd5b506004361061007d5760003560e01c80637ecebe001161005b5780637ecebe00146101135780637fdf233914610133578063c11c1df51461015c578063e6bf9d931461017157600080fd5b80631150e2231461008257806326ea2001146100b55780637baf9406146100e0575b600080fd5b6100a26100903660046107fa565b60036020526000908152604090205481565b6040519081526020015b60405180910390f35b6100c86100c336600461081c565b61019c565b6040516001600160a01b0390911681526020016100ac565b6101036100ee3660046107fa565b60046020526000908152604090205460ff1681565b60405190151581526020016100ac565b6100a26101213660046107fa565b60056020526000908152604090205481565b6100c86101413660046107fa565b6001602052600090815260409020546001600160a01b031681565b61016f61016a366004610846565b6101d4565b005b61010361017f3660046108c9565b600060208181529281526040808220909352908152205460ff1681565b600260205281600052604060002081815481106101b857600080fd5b6000918252602090912001546001600160a01b03169150829050565b3360009081526004602052604090205460ff1615610252576040513390819060008051602061093a833981519152906102319060208082526010908201526f105b1c9958591e481c9959995c9c995960821b604082015260600190565b60405180910390a360405163e5ad788560e01b815260040160405180910390fd5b6001600160a01b03811633036102e457806001600160a01b0316336001600160a01b031660008051602061093a8339815191526040516102c39060208082526019908201527f53656c662d726566657272616c206e6f7420616c6c6f77656400000000000000604082015260600190565b60405180910390a36040516314348c8360e11b815260040160405180910390fd5b6001600160a01b0381163b1561037657806001600160a01b0316336001600160a01b031660008051602061093a833981519152604051610355906020808252601e908201527f436f6e747261637420726566657272657273206e6f7420616c6c6f7765640000604082015260600190565b60405180910390a360405163ea07ce0f60e01b815260040160405180910390fd5b3360008181526005602090815260408083205490516bffffffffffffffffffffffff19606095861b8116938201939093529385901b9091166034840152604883015290606801604051602081830303815290604052805190602001209050600061040d827f19457468657265756d205369676e6564204d6573736167653a0a3332000000006000908152601c91909152603c902090565b9050600061045386868080601f01602080910402602001604051908101604052809392919081815260200183838082843760009201919091525086939250506105d69050565b90506001600160a01b03811633146104db57836001600160a01b0316336001600160a01b031660008051602061093a8339815191526040516104ba90602080825260119082015270496e76616c6964207369676e617475726560781b604082015260600190565b60405180910390a3604051636625befd60e01b815260040160405180910390fd5b6001600160a01b03841660008181526020818152604080832033808552908352818420805460ff1916600190811790915580845282852080546001600160a01b0319908116881790915586865260028552838620805492830181558652848620909101805490911690911790559282526003905290812080549161055e836108fc565b9091555050336000908152600460209081526040808320805460ff1916600117905560059091528120805491610593836108fc565b90915550506040516001600160a01b0385169033907f3d18f048a8d4150fda899737a500561342a7c95184a9f7d1b85a9b9771760d1190600090a3505050505050565b6000806000806105e68686610600565b9250925092506105f6828261064d565b5090949350505050565b6000806000835160410361063a5760208401516040850151606086015160001a61062c8882858561070f565b955095509550505050610646565b50508151600091506002905b9250925092565b600082600381111561066157610661610923565b0361066a575050565b600182600381111561067e5761067e610923565b0361069c5760405163f645eedf60e01b815260040160405180910390fd5b60028260038111156106b0576106b0610923565b036106d65760405163fce698f760e01b8152600481018290526024015b60405180910390fd5b60038260038111156106ea576106ea610923565b0361070b576040516335e2f38360e21b8152600481018290526024016106cd565b5050565b600080807f7fffffffffffffffffffffffffffffff5d576e7357a4501ddfe92f46681b20a084111561074a57506000915060039050826107d4565b604080516000808252602082018084528a905260ff891692820192909252606081018790526080810186905260019060a0016020604051602081039080840390855afa15801561079e573d6000803e3d6000fd5b5050604051601f1901519150506001600160a01b0381166107ca575060009250600191508290506107d4565b9250600091508190505b9450945094915050565b80356001600160a01b03811681146107f557600080fd5b919050565b60006020828403121561080c57600080fd5b610815826107de565b9392505050565b6000806040838503121561082f57600080fd5b610838836107de565b946020939093013593505050565b60008060006040848603121561085b57600080fd5b833567ffffffffffffffff81111561087257600080fd5b8401601f8101861361088357600080fd5b803567ffffffffffffffff81111561089a57600080fd5b8660208284010111156108ac57600080fd5b6020918201945092506108c09085016107de565b90509250925092565b600080604083850312156108dc57600080fd5b6108e5836107de565b91506108f3602084016107de565b90509250929050565b60006001820161091c57634e487b7160e01b600052601160045260246000fd5b5060010190565b634e487b7160e01b600052602160045260246000fdfe4b3c3dda62c0d68ffd4104084583421383e1304ef561b686a9ac716465cccdc9a26469706673582212203348d9860d971f6a5a274fa0acefc7fbd8de49a1413e7500ed869ad1fc9aae6e64736f6c634300081c0033","linkReferences":{}},"methodIdentifiers":{"claimReferral(bytes,address)":"c11c1df5","isUserReferred(address)":"7baf9406","nonces(address)":"7ecebe00","referralRegistry(address,uint256)":"26ea2001","referralsForUserRegistry(address)":"7fdf2339","referredByRegistry(address,address)":"e6bf9d93","totalReferred(address)":"1150e223"},"id":113}