{"abi":[{"type":"constructor","inputs":[{"name":"_owner","type":"address","internalType":"address"}],"stateMutability":"nonpayable"},{"type":"function","name":"CHAINS_MANAGER","inputs":[],"outputs":[{"name":"","type":"bytes32","internalType":"bytes32"}],"stateMutability":"view"},{"type":"function","name":"GUARDIAN_BLACKLIST","inputs":[],"outputs":[{"name":"","type":"bytes32","internalType":"bytes32"}],"stateMutability":"view"},{"type":"function","name":"GUARDIAN_BORROW_CAP","inputs":[],"outputs":[{"name":"","type":"bytes32","internalType":"bytes32"}],"stateMutability":"view"},{"type":"function","name":"GUARDIAN_BRIDGE","inputs":[],"outputs":[{"name":"","type":"bytes32","internalType":"bytes32"}],"stateMutability":"view"},{"type":"function","name":"GUARDIAN_ORACLE","inputs":[],"outputs":[{"name":"","type":"bytes32","internalType":"bytes32"}],"stateMutability":"view"},{"type":"function","name":"GUARDIAN_PAUSE","inputs":[],"outputs":[{"name":"","type":"bytes32","internalType":"bytes32"}],"stateMutability":"view"},{"type":"function","name":"GUARDIAN_RESERVE","inputs":[],"outputs":[{"name":"","type":"bytes32","internalType":"bytes32"}],"stateMutability":"view"},{"type":"function","name":"GUARDIAN_SUPPLY_CAP","inputs":[],"outputs":[{"name":"","type":"bytes32","internalType":"bytes32"}],"stateMutability":"view"},{"type":"function","name":"PAUSE_MANAGER","inputs":[],"outputs":[{"name":"","type":"bytes32","internalType":"bytes32"}],"stateMutability":"view"},{"type":"function","name":"PROOF_BATCH_FORWARDER","inputs":[],"outputs":[{"name":"","type":"bytes32","internalType":"bytes32"}],"stateMutability":"view"},{"type":"function","name":"PROOF_FORWARDER","inputs":[],"outputs":[{"name":"","type":"bytes32","internalType":"bytes32"}],"stateMutability":"view"},{"type":"function","name":"REBALANCER","inputs":[],"outputs":[{"name":"","type":"bytes32","internalType":"bytes32"}],"stateMutability":"view"},{"type":"function","name":"REBALANCER_EOA","inputs":[],"outputs":[{"name":"","type":"bytes32","internalType":"bytes32"}],"stateMutability":"view"},{"type":"function","name":"SEQUENCER","inputs":[],"outputs":[{"name":"","type":"bytes32","internalType":"bytes32"}],"stateMutability":"view"},{"type":"function","name":"allowFor","inputs":[{"name":"_contract","type":"address","internalType":"address"},{"name":"_role","type":"bytes32","internalType":"bytes32"},{"name":"_allowed","type":"bool","internalType":"bool"}],"outputs":[],"stateMutability":"nonpayable"},{"type":"function","name":"isAllowedFor","inputs":[{"name":"_contract","type":"address","internalType":"address"},{"name":"_role","type":"bytes32","internalType":"bytes32"}],"outputs":[{"name":"","type":"bool","internalType":"bool"}],"stateMutability":"view"},{"type":"function","name":"owner","inputs":[],"outputs":[{"name":"","type":"address","internalType":"address"}],"stateMutability":"view"},{"type":"function","name":"renounceOwnership","inputs":[],"outputs":[],"stateMutability":"nonpayable"},{"type":"function","name":"transferOwnership","inputs":[{"name":"newOwner","type":"address","internalType":"address"}],"outputs":[],"stateMutability":"nonpayable"},{"type":"event","name":"Allowed","inputs":[{"name":"_contract","type":"address","indexed":true,"internalType":"address"},{"name":"_role","type":"bytes32","indexed":true,"internalType":"bytes32"},{"name":"_allowed","type":"bool","indexed":false,"internalType":"bool"}],"anonymous":false},{"type":"event","name":"OwnershipTransferred","inputs":[{"name":"previousOwner","type":"address","indexed":true,"internalType":"address"},{"name":"newOwner","type":"address","indexed":true,"internalType":"address"}],"anonymous":false},{"type":"error","name":"OwnableInvalidOwner","inputs":[{"name":"owner","type":"address","internalType":"address"}]},{"type":"error","name":"OwnableUnauthorizedAccount","inputs":[{"name":"account","type":"address","internalType":"address"}]},{"type":"error","name":"Roles_InputNotValid","inputs":[]}],"bytecode":{"object":"0x608060405234801561001057600080fd5b5060405161074a38038061074a83398101604081905261002f916100be565b806001600160a01b03811661005e57604051631e4fbdf760e01b81526000600482015260240160405180910390fd5b6100678161006e565b50506100ee565b600080546001600160a01b038381166001600160a01b0319831681178455604051919092169283917f8be0079c531659141344cd1fd0a4f28419497f9722a3daafe3b4186f6b6457e09190a35050565b6000602082840312156100d057600080fd5b81516001600160a01b03811681146100e757600080fd5b9392505050565b61064d806100fd6000396000f3fe608060405234801561001057600080fd5b50600436106101215760003560e01c80639e106dc7116100ad578063ce848e1311610071578063ce848e1314610354578063d71c72e01461037b578063e0482413146103a2578063ec3a4613146103c9578063f2fde38b146103dc57600080fd5b80639e106dc714610291578063a1bd302d146102b8578063a8720195146102df578063bffdc2a414610306578063ce2871601461032d57600080fd5b8063715018a6116100f4578063715018a6146101f757806375fd4ca9146102015780637f3c8ff5146102285780638da5cb5b1461024f5780639943ad671461026a57600080fd5b8063265cbca91461012657806338dd8c2c1461016057806347164d3b146101a957806348a166e6146101d0575b600080fd5b61014d7feefbfa32ce9dd99a431be27221a8732bc1e7b3d032ff4cbd56226b17783f741381565b6040519081526020015b60405180910390f35b61019961016e366004610586565b6001600160a01b03919091166000908152600160209081526040808320938352929052205460ff1690565b6040519015158152602001610157565b61014d7f4b1cf52f49d174a2779824195ac83ffb0173882d2de2b8017a7a2ad31efa9bac81565b61014d7f25472c26f712486e36393fa63e6b8c68e6b8766eb9afb8ed886cc3f05d53697681565b6101ff6103ef565b005b61014d7f627ab07b7d1e807a81e987070dfc0a2d891e418df2b352b2282d752b91f53b7181565b61014d7f46c2ab528350fb4f59e61eb6c0382446a3636f13f7846680a2734e5f829735a481565b6000546040516001600160a01b039091168152602001610157565b61014d7faa85d4d7655b58b3177edbbb41bc17f2e2ebffd26ace9d6b56244a5ee16c780681565b61014d7f3d37afab23e5cac313ed6bbbd4cc033efdc5d534544a422062560607f0a47c9181565b61014d7f79bb2eff4b96ce24cc809a1642a7365c4980ebeb15be2580a619e03726e41a9881565b61014d7fcf3889b3d647b5db8c87e0e05aca2acdd693a72c71726764f2198ee27a21c72881565b61014d7faeffe8a027d13ff1f9fbecaa8f7fc0ff2c5c5d71561a1a572f6bafeeba68abfd81565b61014d7f3e008573b76fa95febaab72c06ec152363f92f2b27dcaf00fbd0bb77a70593db81565b61014d7fd7f04f034163f8e54d3edad14592dc01fc248c04ff4006634300788f87b6946a81565b61014d7fb0487bdd3330b4d082e49dfc24e1aa23706abcc632f9215fee20a474a9a8845781565b61014d7fc8e17e1f507bc6ac21ffd444ba9d6c9d6ea2defdac21571990ea0eb8bcde3a2481565b6101ff6103d73660046105b0565b610403565b6101ff6103ea3660046105f5565b6104aa565b6103f76104ed565b610401600061051a565b565b61040b6104ed565b6001600160a01b0383161580159061042257508115155b61043f576040516354fae39d60e11b815260040160405180910390fd5b6001600160a01b0383166000818152600160209081526040808320868452825291829020805460ff191685151590811790915591519182528492917fbf768a8bd7016d5df999ce7e5dcbd90856578a89eb68c5a1d5fc1d4a3360107e910160405180910390a3505050565b6104b26104ed565b6001600160a01b0381166104e157604051631e4fbdf760e01b8152600060048201526024015b60405180910390fd5b6104ea8161051a565b50565b6000546001600160a01b031633146104015760405163118cdaa760e01b81523360048201526024016104d8565b600080546001600160a01b038381166001600160a01b0319831681178455604051919092169283917f8be0079c531659141344cd1fd0a4f28419497f9722a3daafe3b4186f6b6457e09190a35050565b80356001600160a01b038116811461058157600080fd5b919050565b6000806040838503121561059957600080fd5b6105a28361056a565b946020939093013593505050565b6000806000606084860312156105c557600080fd5b6105ce8461056a565b925060208401359150604084013580151581146105ea57600080fd5b809150509250925092565b60006020828403121561060757600080fd5b6106108261056a565b939250505056fea2646970667358221220f05e2226263eaaace9566067b0cc46470ce96fff1b80650ec57df98b7162125364736f6c634300081c0033","linkReferences":{}},"methodIdentifiers":{"CHAINS_MANAGER()":"e0482413","GUARDIAN_BLACKLIST()":"ce848e13","GUARDIAN_BORROW_CAP()":"265cbca9","GUARDIAN_BRIDGE()":"ce287160","GUARDIAN_ORACLE()":"7f3c8ff5","GUARDIAN_PAUSE()":"bffdc2a4","GUARDIAN_RESERVE()":"d71c72e0","GUARDIAN_SUPPLY_CAP()":"9943ad67","PAUSE_MANAGER()":"47164d3b","PROOF_BATCH_FORWARDER()":"a1bd302d","PROOF_FORWARDER()":"a8720195","REBALANCER()":"9e106dc7","REBALANCER_EOA()":"48a166e6","SEQUENCER()":"75fd4ca9","allowFor(address,bytes32,bool)":"ec3a4613","isAllowedFor(address,bytes32)":"38dd8c2c","owner()":"8da5cb5b","renounceOwnership()":"715018a6","transferOwnership(address)":"f2fde38b"},"id":50}