{"abi":[{"type":"constructor","inputs":[{"name":"_roles","type":"address","internalType":"address"},{"name":"_feeAdapter","type":"address","internalType":"address"}],"stateMutability":"nonpayable"},{"type":"function","name":"everclearFeeAdapter","inputs":[],"outputs":[{"name":"","type":"address","internalType":"contract IFeeAdapter"}],"stateMutability":"view"},{"type":"function","name":"getFee","inputs":[{"name":"","type":"uint32","internalType":"uint32"},{"name":"","type":"bytes","internalType":"bytes"},{"name":"","type":"bytes","internalType":"bytes"}],"outputs":[{"name":"","type":"uint256","internalType":"uint256"}],"stateMutability":"pure"},{"type":"function","name":"roles","inputs":[],"outputs":[{"name":"","type":"address","internalType":"contract IRoles"}],"stateMutability":"view"},{"type":"function","name":"sendMsg","inputs":[{"name":"_extractedAmount","type":"uint256","internalType":"uint256"},{"name":"_market","type":"address","internalType":"address"},{"name":"_dstChainId","type":"uint32","internalType":"uint32"},{"name":"_token","type":"address","internalType":"address"},{"name":"_message","type":"bytes","internalType":"bytes"},{"name":"","type":"bytes","internalType":"bytes"}],"outputs":[],"stateMutability":"payable"},{"type":"event","name":"MsgSent","inputs":[{"name":"dstChainId","type":"uint256","indexed":true,"internalType":"uint256"},{"name":"market","type":"address","indexed":true,"internalType":"address"},{"name":"amountLD","type":"uint256","indexed":false,"internalType":"uint256"},{"name":"id","type":"bytes32","indexed":false,"internalType":"bytes32"}],"anonymous":false},{"type":"event","name":"RebalancingReturnedToMarket","inputs":[{"name":"market","type":"address","indexed":true,"internalType":"address"},{"name":"toReturn","type":"uint256","indexed":false,"internalType":"uint256"},{"name":"extracted","type":"uint256","indexed":false,"internalType":"uint256"}],"anonymous":false},{"type":"error","name":"AddressEmptyCode","inputs":[{"name":"target","type":"address","internalType":"address"}]},{"type":"error","name":"AddressInsufficientBalance","inputs":[{"name":"account","type":"address","internalType":"address"}]},{"type":"error","name":"BaseBridge_AddressNotValid","inputs":[]},{"type":"error","name":"BaseBridge_AmountMismatch","inputs":[]},{"type":"error","name":"BaseBridge_AmountNotValid","inputs":[]},{"type":"error","name":"BaseBridge_NotAuthorized","inputs":[]},{"type":"error","name":"Everclear_AddressNotValid","inputs":[]},{"type":"error","name":"Everclear_DestinationNotValid","inputs":[]},{"type":"error","name":"Everclear_DestinationsLengthMismatch","inputs":[]},{"type":"error","name":"Everclear_NotImplemented","inputs":[]},{"type":"error","name":"Everclear_TokenMismatch","inputs":[]},{"type":"error","name":"FailedInnerCall","inputs":[]},{"type":"error","name":"SafeApprove_Failed","inputs":[]},{"type":"error","name":"SafeApprove_NoContract","inputs":[]},{"type":"error","name":"SafeERC20FailedOperation","inputs":[{"name":"token","type":"address","internalType":"address"}]}],"bytecode":{"object":"0x608060405234801561001057600080fd5b506040516113df3803806113df83398101604081905261002f916100d4565b816001600160a01b03811661005757604051637cc9a08d60e11b815260040160405180910390fd5b600080546001600160a01b0319166001600160a01b0392831617905581166100925760405163fa31f4bf60e01b815260040160405180910390fd5b600180546001600160a01b0319166001600160a01b039290921691909117905550610107565b80516001600160a01b03811681146100cf57600080fd5b919050565b600080604083850312156100e757600080fd5b6100f0836100b8565b91506100fe602084016100b8565b90509250929050565b6112c9806101166000396000f3fe60806040526004361061003f5760003560e01c8063392f5f6414610044578063b3d300f414610081578063f2db52a7146100af578063febe0e41146100c4575b600080fd5b34801561005057600080fd5b50600054610064906001600160a01b031681565b6040516001600160a01b0390911681526020015b60405180910390f35b34801561008d57600080fd5b506100a161009c366004610bbb565b6100e4565b604051908152602001610078565b6100c26100bd366004610c49565b6100ff565b005b3480156100d057600080fd5b50600154610064906001600160a01b031681565b6000604051632749ea1960e01b815260040160405180910390fd5b60005460408051639e106dc760e01b815290516001600160a01b03909216916338dd8c2c9133918491639e106dc79160048083019260209291908290030181865afa158015610152573d6000803e3d6000fd5b505050506040513d601f19601f820116820180604052508101906101769190610cf0565b6040516001600160e01b031960e085901b1681526001600160a01b0390921660048301526024820152604401602060405180830381865afa1580156101bf573d6000803e3d6000fd5b505050506040513d601f19601f820116820180604052508101906101e39190610d09565b6102005760405163239e3f0760e21b815260040160405180910390fd5b600061020b836104a8565b9050836001600160a01b031681604001516001600160a01b0316146102435760405163d3295ac760e01b815260040160405180910390fd5b80608001518710156102685760405163e80c7db960e01b815260040160405180910390fd5b8051518061028957604051631803ed5d60e21b815260040160405180910390fd5b6000805b828110156102d6578763ffffffff16846000015182815181106102b2576102b2610d2b565b602002602001015163ffffffff16036102ce57600191506102d6565b60010161028d565b50806102f55760405163f2ed11fb60e01b815260040160405180910390fd5b826080015189111561036f57600083608001518a6103139190610d57565b90506103296001600160a01b0388168a836105b7565b60408051828152602081018c90526001600160a01b038b16917f428defc62af178f594501d3b0fadda01ea06b819f600b8f4eafd1da78d78fff0910160405180910390a2505b6040830151600154608085015161039092916001600160a01b03169061060e565b600154835160208501516040808701516060880151608089015160a08a015160c08b015160e08c01516101008d01519651630ef471d560e21b815260009a6001600160a01b031699633bd1c754996103fb999198909790969095909490939092909190600401610deb565b6000604051808303816000875af115801561041a573d6000803e3d6000fd5b505050506040513d6000823e601f3d908101601f191682016040526104429190810190610fc3565b509050886001600160a01b03168863ffffffff167fbe281d902880f06cba837419329c9baec95c0908b619a7bd8f076d931cbf483f866080015184604051610494929190918252602082015260400190565b60405180910390a350505050505050505050565b61050c60408051610120810182526060808252600060208084018290528385018290528284018290526080840182905260a0840182905260c0840182905260e084018390528451808401865282815290810191909152928301529061010082015290565b60006105268360048086516105219190610d57565b61080a565b905060008060008060008060008060008980602001905181019061054a9190611180565b6040805161012081018252998a5260208a01989098526001600160a01b03909616968801969096526060870193909352608086019190915262ffffff1660a085015265ffffffffffff1660c084015260e08301919091526101008201529c9b505050505050505050505050565b604080516001600160a01b038416602482015260448082018490528251808303909101815260649091019091526020810180516001600160e01b031663a9059cbb60e01b17905261060990849061091e565b505050565b6000836001600160a01b03163b116106395760405163034ae78b60e11b815260040160405180910390fd5b6040516001600160a01b0383811660248301526000604483018190529160609186169060640160408051601f198184030181529181526020820180516001600160e01b031663095ea7b360e01b179052516106949190611264565b6000604051808303816000865af19150503d80600081146106d1576040519150601f19603f3d011682016040523d82523d6000602084013e6106d6565b606091505b5090925090508180156107015750805115806107015750808060200190518101906107019190610d09565b61071e576040516379c4743b60e11b815260040160405180910390fd5b8215610803576040516001600160a01b0385811660248301526044820185905286169060640160408051601f198184030181529181526020820180516001600160e01b031663095ea7b360e01b179052516107799190611264565b6000604051808303816000865af19150503d80600081146107b6576040519150601f19603f3d011682016040523d82523d6000602084013e6107bb565b606091505b5090925090508180156107e65750805115806107e65750808060200190518101906107e69190610d09565b610803576040516379c4743b60e11b815260040160405180910390fd5b5050505050565b60608161081881601f611280565b101561085c5760405162461bcd60e51b815260206004820152600e60248201526d736c6963655f6f766572666c6f7760901b60448201526064015b60405180910390fd5b6108668284611280565b845110156108aa5760405162461bcd60e51b8152602060048201526011602482015270736c6963655f6f75744f66426f756e647360781b6044820152606401610853565b6060821580156108c95760405191506000825260208201604052610913565b6040519150601f8416801560200281840101858101878315602002848b0101015b818310156109025780518352602092830192016108ea565b5050858452601f01601f1916604052505b5090505b9392505050565b60006109336001600160a01b03841683610981565b905080516000141580156109585750808060200190518101906109569190610d09565b155b1561060957604051635274afe760e01b81526001600160a01b0384166004820152602401610853565b606061098f83836000610998565b90505b92915050565b6060814710156109bd5760405163cd78605960e01b8152306004820152602401610853565b600080856001600160a01b031684866040516109d99190611264565b60006040518083038185875af1925050503d8060008114610a16576040519150601f19603f3d011682016040523d82523d6000602084013e610a1b565b606091505b5091509150610a2b868383610a35565b9695505050505050565b606082610a4a57610a4582610a91565b610917565b8151158015610a6157506001600160a01b0384163b155b15610a8a57604051639996b31560e01b81526001600160a01b0385166004820152602401610853565b5080610917565b805115610aa15780518082602001fd5b604051630a12f52160e11b815260040160405180910390fd5b50565b63ffffffff81168114610aba57600080fd5b634e487b7160e01b600052604160045260246000fd5b60405161018081016001600160401b0381118282101715610b0857610b08610acf565b60405290565b604051601f8201601f191681016001600160401b0381118282101715610b3657610b36610acf565b604052919050565b60006001600160401b03821115610b5757610b57610acf565b50601f01601f191660200190565b600082601f830112610b7657600080fd5b8135610b89610b8482610b3e565b610b0e565b818152846020838601011115610b9e57600080fd5b816020850160208301376000918101602001919091529392505050565b600080600060608486031215610bd057600080fd5b8335610bdb81610abd565b925060208401356001600160401b03811115610bf657600080fd5b610c0286828701610b65565b92505060408401356001600160401b03811115610c1e57600080fd5b610c2a86828701610b65565b9150509250925092565b6001600160a01b0381168114610aba57600080fd5b60008060008060008060c08789031215610c6257600080fd5b863595506020870135610c7481610c34565b94506040870135610c8481610abd565b93506060870135610c9481610c34565b925060808701356001600160401b03811115610caf57600080fd5b610cbb89828a01610b65565b92505060a08701356001600160401b03811115610cd757600080fd5b610ce389828a01610b65565b9150509295509295509295565b600060208284031215610d0257600080fd5b5051919050565b600060208284031215610d1b57600080fd5b8151801515811461091757600080fd5b634e487b7160e01b600052603260045260246000fd5b634e487b7160e01b600052601160045260246000fd5b8181038181111561099257610992610d41565b60005b83811015610d85578181015183820152602001610d6d565b50506000910152565b60008151808452610da6816020860160208601610d6a565b601f01601f19169290920160200192915050565b80518252602081015160208301526000604082015160606040850152610de36060850182610d8e565b949350505050565b6101208082528a5190820181905260009060208c0190610140840190835b81811015610e2d57835163ffffffff16835260209384019390920191600101610e09565b50508b6020850152610e4a604085018c6001600160a01b03169052565b896060850152886080850152610e6760a085018962ffffff169052565b65ffffffffffff871660c085015283810360e0850152610e878187610d8e565b915050828103610100840152610e9d8185610dba565b9c9b505050505050505050505050565b805162ffffff81168114610ec057600080fd5b919050565b8051610ec081610abd565b80516001600160401b0381168114610ec057600080fd5b805165ffffffffffff81168114610ec057600080fd5b600082601f830112610f0e57600080fd5b81516001600160401b03811115610f2757610f27610acf565b8060051b610f3760208201610b0e565b91825260208185018101929081019086841115610f5357600080fd5b6020860192505b83831015610a2b578251610f6d81610abd565b825260209283019290910190610f5a565b600082601f830112610f8f57600080fd5b8151610f9d610b8482610b3e565b818152846020838601011115610fb257600080fd5b610de3826020830160208701610d6a565b60008060408385031215610fd657600080fd5b825160208401519092506001600160401b03811115610ff457600080fd5b8301610180818603121561100757600080fd5b61100f610ae5565b8151815260208083015190820152604080830151908201526060808301519082015261103d60808301610ead565b608082015261104e60a08301610ec5565b60a082015261105f60c08301610ed0565b60c082015261107060e08301610ee7565b60e08201526110826101008301610ee7565b61010082015261012082810151908201526101408201516001600160401b038111156110ad57600080fd5b6110b987828501610efd565b610140830152506101608201516001600160401b038111156110da57600080fd5b6110e687828501610f7e565b6101608301525080925050509250929050565b8051610ec081610c34565b60006060828403121561111657600080fd5b604051606081016001600160401b038111828210171561113857611138610acf565b6040908152835182526020808501519083015283015190915081906001600160401b0381111561116757600080fd5b61117385828601610f7e565b6040830152505092915050565b60008060008060008060008060006101208a8c03121561119f57600080fd5b89516001600160401b038111156111b557600080fd5b6111c18c828d01610efd565b60208c0151909a5098506111d9905060408b016110f9565b60608b015160808c0151919850965094506111f660a08b01610ead565b935061120460c08b01610ee7565b925060e08a01516001600160401b0381111561121f57600080fd5b61122b8c828d01610f7e565b9250506101008a01516001600160401b0381111561124857600080fd5b6112548c828d01611104565b9150509295985092959850929598565b60008251611276818460208701610d6a565b9190910192915050565b8082018082111561099257610992610d4156fea26469706673582212204fa43bc9d0307f8c5fb6a621528289a104d2b2e94231029bacf9bccb4615784364736f6c634300081c0033","linkReferences":{}},"methodIdentifiers":{"everclearFeeAdapter()":"febe0e41","getFee(uint32,bytes,bytes)":"b3d300f4","roles()":"392f5f64","sendMsg(uint256,address,uint32,address,bytes,bytes)":"f2db52a7"},"id":112}