{"abi":[{"type":"constructor","inputs":[{"name":"_name","type":"string","internalType":"string"},{"name":"_symbol","type":"string","internalType":"string"},{"name":"_decimals","type":"uint8","internalType":"uint8"},{"name":"_owner","type":"address","internalType":"address"},{"name":"_pohVerify","type":"address","internalType":"address"},{"name":"_limit","type":"uint256","internalType":"uint256"}],"stateMutability":"nonpayable"},{"type":"function","name":"admin","inputs":[],"outputs":[{"name":"","type":"address","internalType":"address"}],"stateMutability":"view"},{"type":"function","name":"allowance","inputs":[{"name":"owner","type":"address","internalType":"address"},{"name":"spender","type":"address","internalType":"address"}],"outputs":[{"name":"","type":"uint256","internalType":"uint256"}],"stateMutability":"view"},{"type":"function","name":"approve","inputs":[{"name":"spender","type":"address","internalType":"address"},{"name":"value","type":"uint256","internalType":"uint256"}],"outputs":[{"name":"","type":"bool","internalType":"bool"}],"stateMutability":"nonpayable"},{"type":"function","name":"balanceOf","inputs":[{"name":"account","type":"address","internalType":"address"}],"outputs":[{"name":"","type":"uint256","internalType":"uint256"}],"stateMutability":"view"},{"type":"function","name":"burn","inputs":[{"name":"_amount","type":"uint256","internalType":"uint256"}],"outputs":[],"stateMutability":"nonpayable"},{"type":"function","name":"burn","inputs":[{"name":"_from","type":"address","internalType":"address"},{"name":"_amount","type":"uint256","internalType":"uint256"}],"outputs":[],"stateMutability":"nonpayable"},{"type":"function","name":"decimals","inputs":[],"outputs":[{"name":"","type":"uint8","internalType":"uint8"}],"stateMutability":"view"},{"type":"function","name":"deposit","inputs":[],"outputs":[],"stateMutability":"payable"},{"type":"function","name":"mint","inputs":[{"name":"_to","type":"address","internalType":"address"},{"name":"_amount","type":"uint256","internalType":"uint256"}],"outputs":[],"stateMutability":"nonpayable"},{"type":"function","name":"mint","inputs":[{"name":"_to","type":"address","internalType":"address"},{"name":"_amount","type":"uint256","internalType":"uint256"},{"name":"signature","type":"bytes","internalType":"bytes"}],"outputs":[],"stateMutability":"nonpayable"},{"type":"function","name":"mintLimit","inputs":[],"outputs":[{"name":"","type":"uint256","internalType":"uint256"}],"stateMutability":"view"},{"type":"function","name":"minted","inputs":[{"name":"","type":"address","internalType":"address"}],"outputs":[{"name":"","type":"uint256","internalType":"uint256"}],"stateMutability":"view"},{"type":"function","name":"name","inputs":[],"outputs":[{"name":"","type":"string","internalType":"string"}],"stateMutability":"view"},{"type":"function","name":"onlyVerified","inputs":[],"outputs":[{"name":"","type":"bool","internalType":"bool"}],"stateMutability":"view"},{"type":"function","name":"pohVerify","inputs":[],"outputs":[{"name":"","type":"address","internalType":"address"}],"stateMutability":"view"},{"type":"function","name":"setMintLimit","inputs":[{"name":"_limit","type":"uint256","internalType":"uint256"}],"outputs":[],"stateMutability":"nonpayable"},{"type":"function","name":"setOnlyVerify","inputs":[{"name":"status","type":"bool","internalType":"bool"}],"outputs":[],"stateMutability":"nonpayable"},{"type":"function","name":"symbol","inputs":[],"outputs":[{"name":"","type":"string","internalType":"string"}],"stateMutability":"view"},{"type":"function","name":"totalSupply","inputs":[],"outputs":[{"name":"","type":"uint256","internalType":"uint256"}],"stateMutability":"view"},{"type":"function","name":"transfer","inputs":[{"name":"to","type":"address","internalType":"address"},{"name":"value","type":"uint256","internalType":"uint256"}],"outputs":[{"name":"","type":"bool","internalType":"bool"}],"stateMutability":"nonpayable"},{"type":"function","name":"transferFrom","inputs":[{"name":"from","type":"address","internalType":"address"},{"name":"to","type":"address","internalType":"address"},{"name":"value","type":"uint256","internalType":"uint256"}],"outputs":[{"name":"","type":"bool","internalType":"bool"}],"stateMutability":"nonpayable"},{"type":"event","name":"Approval","inputs":[{"name":"owner","type":"address","indexed":true,"internalType":"address"},{"name":"spender","type":"address","indexed":true,"internalType":"address"},{"name":"value","type":"uint256","indexed":false,"internalType":"uint256"}],"anonymous":false},{"type":"event","name":"Transfer","inputs":[{"name":"from","type":"address","indexed":true,"internalType":"address"},{"name":"to","type":"address","indexed":true,"internalType":"address"},{"name":"value","type":"uint256","indexed":false,"internalType":"uint256"}],"anonymous":false},{"type":"error","name":"ERC20InsufficientAllowance","inputs":[{"name":"spender","type":"address","internalType":"address"},{"name":"allowance","type":"uint256","internalType":"uint256"},{"name":"needed","type":"uint256","internalType":"uint256"}]},{"type":"error","name":"ERC20InsufficientBalance","inputs":[{"name":"sender","type":"address","internalType":"address"},{"name":"balance","type":"uint256","internalType":"uint256"},{"name":"needed","type":"uint256","internalType":"uint256"}]},{"type":"error","name":"ERC20InvalidApprover","inputs":[{"name":"approver","type":"address","internalType":"address"}]},{"type":"error","name":"ERC20InvalidReceiver","inputs":[{"name":"receiver","type":"address","internalType":"address"}]},{"type":"error","name":"ERC20InvalidSender","inputs":[{"name":"sender","type":"address","internalType":"address"}]},{"type":"error","name":"ERC20InvalidSpender","inputs":[{"name":"spender","type":"address","internalType":"address"}]},{"type":"error","name":"ERC20Mock_AlreadyMinted","inputs":[]},{"type":"error","name":"ERC20Mock_NotAuthorized","inputs":[]},{"type":"error","name":"ERC20Mock_OnlyVerified","inputs":[]},{"type":"error","name":"ERC20Mock_PohFailed","inputs":[]},{"type":"error","name":"ERC20Mock_TooMuch","inputs":[]}],"bytecode":{"object":"0x608060405234801561001057600080fd5b5060405161136b38038061136b83398101604081905261002f9161019e565b8585600361003d83826102d2565b50600461004a82826102d2565b5050600580546001600160a01b03808716610100026001600160a81b031990921660ff89161791909117909155600680549185166001600160a01b031990921691909117905550801561009d57806100ba565b6005546100ae9060ff16600a61048f565b6100ba906103e86104a5565b600855506104bc945050505050565b634e487b7160e01b600052604160045260246000fd5b600082601f8301126100f057600080fd5b81516001600160401b03811115610109576101096100c9565b604051601f8201601f19908116603f011681016001600160401b0381118282101715610137576101376100c9565b60405281815283820160200185101561014f57600080fd5b60005b8281101561016e57602081860181015183830182015201610152565b506000918101602001919091529392505050565b80516001600160a01b038116811461019957600080fd5b919050565b60008060008060008060c087890312156101b757600080fd5b86516001600160401b038111156101cd57600080fd5b6101d989828a016100df565b602089015190975090506001600160401b038111156101f757600080fd5b61020389828a016100df565b955050604087015160ff8116811461021a57600080fd5b935061022860608801610182565b925061023660808801610182565b915060a087015190509295509295509295565b600181811c9082168061025d57607f821691505b60208210810361027d57634e487b7160e01b600052602260045260246000fd5b50919050565b601f8211156102cd57806000526020600020601f840160051c810160208510156102aa5750805b601f840160051c820191505b818110156102ca57600081556001016102b6565b50505b505050565b81516001600160401b038111156102eb576102eb6100c9565b6102ff816102f98454610249565b84610283565b6020601f821160018114610333576000831561031b5750848201515b600019600385901b1c1916600184901b1784556102ca565b600084815260208120601f198516915b828110156103635787850151825560209485019460019092019101610343565b50848210156103815786840151600019600387901b60f8161c191681555b50505050600190811b01905550565b634e487b7160e01b600052601160045260246000fd5b6001815b60018411156103e1578085048111156103c5576103c5610390565b60018416156103d357908102905b60019390931c9280026103aa565b935093915050565b6000826103f857506001610489565b8161040557506000610489565b816001811461041b576002811461042557610441565b6001915050610489565b60ff84111561043657610436610390565b50506001821b610489565b5060208310610133831016604e8410600b8410161715610464575081810a610489565b61047160001984846103a6565b806000190482111561048557610485610390565b0290505b92915050565b600061049e60ff8416836103e9565b9392505050565b808202811582820484141761048957610489610390565b610ea0806104cb6000396000f3fe60806040526004361061012a5760003560e01c806370a08231116100ab5780639e6a1d7d1161006f5780639e6a1d7d14610353578063a9059cbb14610373578063d0e30db014610393578063dd62ed3e1461039b578063f7d070de146103e1578063f851a4401461040257600080fd5b806370a08231146102b257806394d008ef146102e857806395d89b4114610308578063996517cf1461031d5780639dc29fac1461033357600080fd5b8063313ce567116100f2578063313ce567146101f6578063330da60a1461021857806340c10f191461023a57806342966c681461025a578063545373c21461027a57600080fd5b806306fdde031461012f578063095ea7b31461015a57806318160ddd1461018a5780631e7269c5146101a957806323b872dd146101d6575b600080fd5b34801561013b57600080fd5b50610144610427565b6040516101519190610bb0565b60405180910390f35b34801561016657600080fd5b5061017a610175366004610be6565b6104b9565b6040519015158152602001610151565b34801561019657600080fd5b506002545b604051908152602001610151565b3480156101b557600080fd5b5061019b6101c4366004610c10565b60076020526000908152604090205481565b3480156101e257600080fd5b5061017a6101f1366004610c2b565b6104d3565b34801561020257600080fd5b5060055460405160ff9091168152602001610151565b34801561022457600080fd5b50610238610233366004610c76565b6104f7565b005b34801561024657600080fd5b50610238610255366004610be6565b610545565b34801561026657600080fd5b50610238610275366004610c93565b6105f1565b34801561028657600080fd5b5060065461029a906001600160a01b031681565b6040516001600160a01b039091168152602001610151565b3480156102be57600080fd5b5061019b6102cd366004610c10565b6001600160a01b031660009081526020819052604090205490565b3480156102f457600080fd5b50610238610303366004610cc2565b61062e565b34801561031457600080fd5b5061014461073a565b34801561032957600080fd5b5061019b60085481565b34801561033f57600080fd5b5061023861034e366004610be6565b610749565b34801561035f57600080fd5b5061023861036e366004610c93565b6107bc565b34801561037f57600080fd5b5061017a61038e366004610be6565b6107f1565b6102386107ff565b3480156103a757600080fd5b5061019b6103b6366004610d95565b6001600160a01b03918216600090815260016020908152604080832093909416825291909152205490565b3480156103ed57600080fd5b5060065461017a90600160a01b900460ff1681565b34801561040e57600080fd5b5060055461029a9061010090046001600160a01b031681565b60606003805461043690610dc8565b80601f016020809104026020016040519081016040528092919081815260200182805461046290610dc8565b80156104af5780601f10610484576101008083540402835291602001916104af565b820191906000526020600020905b81548152906001019060200180831161049257829003601f168201915b5050505050905090565b6000336104c781858561080b565b60019150505b92915050565b6000336104e185828561081d565b6104ec8585856108a0565b506001949350505050565b60055461010090046001600160a01b0316331461052757604051631947fcf760e11b815260040160405180910390fd5b60068054911515600160a01b0260ff60a01b19909216919091179055565b600654600160a01b900460ff1615610570576040516361fa883f60e11b815260040160405180910390fd5b6008546001600160a01b038316600090815260076020526040902054610597908390610e02565b106105b5576040516372ee742560e01b815260040160405180910390fd5b6001600160a01b038216600090815260076020526040812080548392906105dd908490610e02565b909155506105ed905082826108ff565b5050565b3360009081526007602052604090205481111561062157604051631b2a0e2160e01b815260040160405180910390fd5b61062b3382610935565b50565b6008546001600160a01b038416600090815260076020526040902054610655908490610e02565b10610673576040516372ee742560e01b815260040160405180910390fd5b600654604051633d3ac1b560e01b81526000916001600160a01b031690633d3ac1b5906106a69085903390600401610e23565b602060405180830381865afa1580156106c3573d6000803e3d6000fd5b505050506040513d601f19601f820116820180604052508101906106e79190610e4d565b9050806107075760405163013f126160e51b815260040160405180910390fd5b6001600160a01b0384166000908152600760205260408120805485929061072f908490610e02565b909155505050505050565b60606004805461043690610dc8565b60055461010090046001600160a01b0316331461077957604051631947fcf760e11b815260040160405180910390fd5b6001600160a01b0382166000908152600760205260409020548111156107b257604051631b2a0e2160e01b815260040160405180910390fd5b6105ed8282610935565b60055461010090046001600160a01b031633146107ec57604051631947fcf760e11b815260040160405180910390fd5b600855565b6000336104c78185856108a0565b61080933346108ff565b565b610818838383600161096b565b505050565b6001600160a01b03838116600090815260016020908152604080832093861683529290522054600019811461089a578181101561088b57604051637dc7a0d960e11b81526001600160a01b038416600482015260248101829052604481018390526064015b60405180910390fd5b61089a8484848403600061096b565b50505050565b6001600160a01b0383166108ca57604051634b637e8f60e11b815260006004820152602401610882565b6001600160a01b0382166108f45760405163ec442f0560e01b815260006004820152602401610882565b610818838383610a40565b6001600160a01b0382166109295760405163ec442f0560e01b815260006004820152602401610882565b6105ed60008383610a40565b6001600160a01b03821661095f57604051634b637e8f60e11b815260006004820152602401610882565b6105ed82600083610a40565b6001600160a01b0384166109955760405163e602df0560e01b815260006004820152602401610882565b6001600160a01b0383166109bf57604051634a1406b160e11b815260006004820152602401610882565b6001600160a01b038085166000908152600160209081526040808320938716835292905220829055801561089a57826001600160a01b0316846001600160a01b03167f8c5be1e5ebec7d5bd14f71427d1e84f3dd0314c0f7b2291e5b200ac8c7c3b92584604051610a3291815260200190565b60405180910390a350505050565b6001600160a01b038316610a6b578060026000828254610a609190610e02565b90915550610add9050565b6001600160a01b03831660009081526020819052604090205481811015610abe5760405163391434e360e21b81526001600160a01b03851660048201526024810182905260448101839052606401610882565b6001600160a01b03841660009081526020819052604090209082900390555b6001600160a01b038216610af957600280548290039055610b18565b6001600160a01b03821660009081526020819052604090208054820190555b816001600160a01b0316836001600160a01b03167fddf252ad1be2c89b69c2b068fc378daa952ba7f163c4a11628f55a4df523b3ef83604051610b5d91815260200190565b60405180910390a3505050565b6000815180845260005b81811015610b9057602081850181015186830182015201610b74565b506000602082860101526020601f19601f83011685010191505092915050565b602081526000610bc36020830184610b6a565b9392505050565b80356001600160a01b0381168114610be157600080fd5b919050565b60008060408385031215610bf957600080fd5b610c0283610bca565b946020939093013593505050565b600060208284031215610c2257600080fd5b610bc382610bca565b600080600060608486031215610c4057600080fd5b610c4984610bca565b9250610c5760208501610bca565b929592945050506040919091013590565b801515811461062b57600080fd5b600060208284031215610c8857600080fd5b8135610bc381610c68565b600060208284031215610ca557600080fd5b5035919050565b634e487b7160e01b600052604160045260246000fd5b600080600060608486031215610cd757600080fd5b610ce084610bca565b925060208401359150604084013567ffffffffffffffff811115610d0357600080fd5b8401601f81018613610d1457600080fd5b803567ffffffffffffffff811115610d2e57610d2e610cac565b604051601f8201601f19908116603f0116810167ffffffffffffffff81118282101715610d5d57610d5d610cac565b604052818152828201602001881015610d7557600080fd5b816020840160208301376000602083830101528093505050509250925092565b60008060408385031215610da857600080fd5b610db183610bca565b9150610dbf60208401610bca565b90509250929050565b600181811c90821680610ddc57607f821691505b602082108103610dfc57634e487b7160e01b600052602260045260246000fd5b50919050565b808201808211156104cd57634e487b7160e01b600052601160045260246000fd5b604081526000610e366040830185610b6a565b905060018060a01b03831660208301529392505050565b600060208284031215610e5f57600080fd5b8151610bc381610c6856fea26469706673582212206289d3563db74bb88c515cad20da4097bdbf03e602d9d81d5cc22f42cfdad4e764736f6c634300081c0033","linkReferences":{}},"methodIdentifiers":{"admin()":"f851a440","allowance(address,address)":"dd62ed3e","approve(address,uint256)":"095ea7b3","balanceOf(address)":"70a08231","burn(address,uint256)":"9dc29fac","burn(uint256)":"42966c68","decimals()":"313ce567","deposit()":"d0e30db0","mint(address,uint256)":"40c10f19","mint(address,uint256,bytes)":"94d008ef","mintLimit()":"996517cf","minted(address)":"1e7269c5","name()":"06fdde03","onlyVerified()":"f7d070de","pohVerify()":"545373c2","setMintLimit(uint256)":"9e6a1d7d","setOnlyVerify(bool)":"330da60a","symbol()":"95d89b41","totalSupply()":"18160ddd","transfer(address,uint256)":"a9059cbb","transferFrom(address,address,uint256)":"23b872dd"},"id":124}