{"abi":[{"type":"constructor","inputs":[{"name":"_admin","type":"address","internalType":"address"}],"stateMutability":"nonpayable"},{"type":"receive","stateMutability":"payable"},{"type":"function","name":"acceptAdmin","inputs":[],"outputs":[],"stateMutability":"nonpayable"},{"type":"function","name":"admin","inputs":[],"outputs":[{"name":"","type":"address","internalType":"address"}],"stateMutability":"view"},{"type":"function","name":"create","inputs":[{"name":"salt","type":"bytes32","internalType":"bytes32"},{"name":"code","type":"bytes","internalType":"bytes"}],"outputs":[{"name":"","type":"address","internalType":"address"}],"stateMutability":"payable"},{"type":"function","name":"pendingAdmin","inputs":[],"outputs":[{"name":"","type":"address","internalType":"address"}],"stateMutability":"view"},{"type":"function","name":"precompute","inputs":[{"name":"salt","type":"bytes32","internalType":"bytes32"}],"outputs":[{"name":"","type":"address","internalType":"address"}],"stateMutability":"view"},{"type":"function","name":"saveEth","inputs":[],"outputs":[],"stateMutability":"nonpayable"},{"type":"function","name":"setNewAdmin","inputs":[{"name":"_addr","type":"address","internalType":"address"}],"outputs":[],"stateMutability":"nonpayable"},{"type":"function","name":"setPendingAdmin","inputs":[{"name":"newAdmin","type":"address","internalType":"address"}],"outputs":[],"stateMutability":"nonpayable"},{"type":"event","name":"AdminAccepted","inputs":[{"name":"_admin","type":"address","indexed":true,"internalType":"address"}],"anonymous":false},{"type":"event","name":"AdminSet","inputs":[{"name":"_admin","type":"address","indexed":true,"internalType":"address"}],"anonymous":false},{"type":"event","name":"PendingAdminSet","inputs":[{"name":"_admin","type":"address","indexed":true,"internalType":"address"}],"anonymous":false},{"type":"error","name":"NotAuthorized","inputs":[{"name":"admin","type":"address","internalType":"address"},{"name":"sender","type":"address","internalType":"address"}]}],"bytecode":{"object":"0x6080604052348015600f57600080fd5b50604051610846380380610846833981016040819052602c916050565b600080546001600160a01b0319166001600160a01b0392909216919091179055607e565b600060208284031215606157600080fd5b81516001600160a01b0381168114607757600080fd5b9392505050565b6107b98061008d6000396000f3fe60806040526004361061007f5760003560e01c80637587ea9f1161004e5780637587ea9f146101115780638eec99c8146101315780639528432b14610151578063f851a4401461016657600080fd5b80630e18b6811461008b57806326782247146100a25780634dd18bf5146100de5780635b37e150146100fe57600080fd5b3661008657005b600080fd5b34801561009757600080fd5b506100a0610186565b005b3480156100ae57600080fd5b506001546100c2906001600160a01b031681565b6040516001600160a01b03909116815260200160405180910390f35b3480156100ea57600080fd5b506100a06100f9366004610639565b61021c565b6100c261010c366004610678565b6102a8565b34801561011d57600080fd5b506100c261012c36600461073b565b6102fd565b34801561013d57600080fd5b506100a061014c366004610639565b61030e565b34801561015d57600080fd5b506100a061036b565b34801561017257600080fd5b506000546100c2906001600160a01b031681565b6001546001600160a01b031633146101cb5760015460405163c55ddc9760e01b81526001600160a01b0390911660048201523360248201526044015b60405180910390fd5b60018054600080546001600160a01b0383166001600160a01b031991821681178355921690925560405190917fc82f6ab934750eb35291c42245c3f61a743d8e4fa6415e9698dad8018a82b7f291a2565b6000546001600160a01b03163380821461025c5760405163c55ddc9760e01b81526001600160a01b039283166004820152911660248201526044016101c2565b5050600180546001600160a01b0319166001600160a01b0383169081179091556040517fcfa6fb7a59d2f180dc7624ee733c7498c87bef80055a9964fb0fa01cd9d66d6b90600090a250565b600080546001600160a01b0316338082146102e95760405163c55ddc9760e01b81526001600160a01b039283166004820152911660248201526044016101c2565b50506102f68383346103ff565b9392505050565b600061030882610555565b92915050565b600054336001600160a01b039091160361036857600080546001600160a01b0319166001600160a01b038316908117825560405190917f8fe72c3e0020beb3234e76ae6676fa576fbfcae600af1c4fea44784cf0db329c91a25b50565b600054336001600160a01b03909116036103fd57604051600090339047908381818185875af1925050503d80600081146103c1576040519150601f19603f3d011682016040523d82523d6000602084013e6103c6565b606091505b50509050806103685760405162461bcd60e51b815260206004820152600360248201526208aa8960eb1b60448201526064016101c2565b565b6000806040518060400160405280601081526020016f67363d3d37363d34f03d5260086018f360801b81525090506000858251602084016000f590506001600160a01b0381166104855760405162461bcd60e51b81526020600482015260116024820152701111541313d65351539517d19052531151607a1b60448201526064016101c2565b61048e86610555565b92506000816001600160a01b031685876040516104ab9190610754565b60006040518083038185875af1925050503d80600081146104e8576040519150601f19603f3d011682016040523d82523d6000602084013e6104ed565b606091505b5050905080801561050757506001600160a01b0384163b15155b61054b5760405162461bcd60e51b815260206004820152601560248201527412539255125053125690551253d397d19052531151605a1b60448201526064016101c2565b5050509392505050565b604080518082018252601081526f67363d3d37363d34f03d5260086018f360801b60209182015290516001600160f81b0319918101919091526bffffffffffffffffffffffff193060601b166021820152603581018290527f21c35dbe1b344a2488cf3321d6ce542f8e9f305544ff09e4993a62319a497c1f605582015260009081906105f9906075015b6040516020818303038152906040528051906020012090565b6040516135a560f21b60208201526bffffffffffffffffffffffff19606083901b166022820152600160f81b60368201529091506102f6906037016105e0565b60006020828403121561064b57600080fd5b81356001600160a01b03811681146102f657600080fd5b634e487b7160e01b600052604160045260246000fd5b6000806040838503121561068b57600080fd5b82359150602083013567ffffffffffffffff8111156106a957600080fd5b8301601f810185136106ba57600080fd5b803567ffffffffffffffff8111156106d4576106d4610662565b604051601f8201601f19908116603f0116810167ffffffffffffffff8111828210171561070357610703610662565b60405281815282820160200187101561071b57600080fd5b816020840160208301376000602083830101528093505050509250929050565b60006020828403121561074d57600080fd5b5035919050565b6000825160005b81811015610775576020818601810151858301520161075b565b50600092019182525091905056fea264697066735822122007268b238df88b8a9bfd3977485c5722f81746b79bc7fdda37f1bb54bf6eac3a64736f6c634300081c0033","linkReferences":{}},"methodIdentifiers":{"acceptAdmin()":"0e18b681","admin()":"f851a440","create(bytes32,bytes)":"5b37e150","pendingAdmin()":"26782247","precompute(bytes32)":"7587ea9f","saveEth()":"9528432b","setNewAdmin(address)":"8eec99c8","setPendingAdmin(address)":"4dd18bf5"},"id":115}