{"abi":[{"type":"function","name":"isOperator","inputs":[],"outputs":[{"name":"","type":"bool","internalType":"bool"}],"stateMutability":"pure"}],"bytecode":{"object":"0x6080604052348015600f57600080fd5b50607780601d6000396000f3fe6080604052348015600f57600080fd5b506004361060285760003560e01c80634456eda214602d575b600080fd5b604080516001815290519081900360200190f3fea26469706673582212208c6aaf382da94ab71b5f0e3da7c7f07f20beff47dd57b44907330caab367a79164736f6c634300081c0033","linkReferences":{}},"methodIdentifiers":{"isOperator()":"4456eda2"},"id":47}