{"abi":[{"type":"constructor","inputs":[{"name":"_owner","type":"address","internalType":"address"}],"stateMutability":"nonpayable"},{"type":"function","name":"gasFees","inputs":[{"name":"","type":"uint32","internalType":"uint32"}],"outputs":[{"name":"","type":"uint256","internalType":"uint256"}],"stateMutability":"view"},{"type":"function","name":"owner","inputs":[],"outputs":[{"name":"","type":"address","internalType":"address"}],"stateMutability":"view"},{"type":"function","name":"renounceOwnership","inputs":[],"outputs":[],"stateMutability":"nonpayable"},{"type":"function","name":"setGasFee","inputs":[{"name":"dstChainId","type":"uint32","internalType":"uint32"},{"name":"amount","type":"uint256","internalType":"uint256"}],"outputs":[],"stateMutability":"nonpayable"},{"type":"function","name":"transferOwnership","inputs":[{"name":"newOwner","type":"address","internalType":"address"}],"outputs":[],"stateMutability":"nonpayable"},{"type":"event","name":"GasFeeUpdated","inputs":[{"name":"dstChainid","type":"uint32","indexed":true,"internalType":"uint32"},{"name":"amount","type":"uint256","indexed":false,"internalType":"uint256"}],"anonymous":false},{"type":"event","name":"OwnershipTransferred","inputs":[{"name":"previousOwner","type":"address","indexed":true,"internalType":"address"},{"name":"newOwner","type":"address","indexed":true,"internalType":"address"}],"anonymous":false},{"type":"error","name":"OwnableInvalidOwner","inputs":[{"name":"owner","type":"address","internalType":"address"}]},{"type":"error","name":"OwnableUnauthorizedAccount","inputs":[{"name":"account","type":"address","internalType":"address"}]}],"bytecode":{"object":"0x608060405234801561001057600080fd5b506040516103cd3803806103cd83398101604081905261002f916100be565b806001600160a01b03811661005e57604051631e4fbdf760e01b81526000600482015260240160405180910390fd5b6100678161006e565b50506100ee565b600080546001600160a01b038381166001600160a01b0319831681178455604051919092169283917f8be0079c531659141344cd1fd0a4f28419497f9722a3daafe3b4186f6b6457e09190a35050565b6000602082840312156100d057600080fd5b81516001600160a01b03811681146100e757600080fd5b9392505050565b6102d0806100fd6000396000f3fe608060405234801561001057600080fd5b50600436106100575760003560e01c8063715018a61461005c5780638da5cb5b14610066578063c9768c4914610086578063d8ddb33c146100b4578063f2fde38b146100c7575b600080fd5b6100646100da565b005b6000546040516001600160a01b0390911681526020015b60405180910390f35b6100a6610094366004610225565b60016020526000908152604090205481565b60405190815260200161007d565b6100646100c2366004610247565b6100ee565b6100646100d5366004610271565b61014c565b6100e261018f565b6100ec60006101bc565b565b6100f661018f565b63ffffffff821660008181526001602052604090819020839055517fdc5ba3e465676fa955bab271f0215cab617344571019d9fa96dc8850c4a961f1906101409084815260200190565b60405180910390a25050565b61015461018f565b6001600160a01b03811661018357604051631e4fbdf760e01b8152600060048201526024015b60405180910390fd5b61018c816101bc565b50565b6000546001600160a01b031633146100ec5760405163118cdaa760e01b815233600482015260240161017a565b600080546001600160a01b038381166001600160a01b0319831681178455604051919092169283917f8be0079c531659141344cd1fd0a4f28419497f9722a3daafe3b4186f6b6457e09190a35050565b803563ffffffff8116811461022057600080fd5b919050565b60006020828403121561023757600080fd5b6102408261020c565b9392505050565b6000806040838503121561025a57600080fd5b6102638361020c565b946020939093013593505050565b60006020828403121561028357600080fd5b81356001600160a01b038116811461024057600080fdfea26469706673582212203918a78f10f09a0f3a6ccb27885c63deea757d033e01318808302c7d50e643b764736f6c634300081c0033","linkReferences":{}},"methodIdentifiers":{"gasFees(uint32)":"c9768c49","owner()":"8da5cb5b","renounceOwnership()":"715018a6","setGasFee(uint32,uint256)":"d8ddb33c","transferOwnership(address)":"f2fde38b"},"id":107}